{"contracts/voting.sol":{"Voting":{"abi":[{"inputs":[],"stateMutability":"nonpayable","type":"constructor"},{"anonymous":false,"inputs":[{"indexed":false,"internalType":"uint256","name":"id","type":"uint256"},{"indexed":false,"internalType":"string","name":"name","type":"string"},{"indexed":false,"internalType":"string","name":"description","type":"string"}],"name":"ElectionCreated","type":"event"},{"anonymous":false,"inputs":[{"indexed":true,"internalType":"address","name":"voter","type":"address"},{"indexed":false,"internalType":"uint256","name":"electionId","type":"uint256"},{"indexed":false,"internalType":"uint256","name":"proposalId","type":"uint256"}],"name":"VoteCast","type":"event"},{"inputs":[{"internalType":"string","name":"name","type":"string"},{"internalType":"string","name":"description","type":"string"},{"internalType":"string[]","name":"proposalNames","type":"string[]"}],"name":"createElection","outputs":[],"stateMutability":"nonpayable","type":"function"},{"inputs":[{"internalType":"uint256","name":"electionId","type":"uint256"},{"internalType":"string","name":"name","type":"string"}],"name":"createProposal","outputs":[],"stateMutability":"nonpayable","type":"function"},{"inputs":[{"internalType":"uint256","name":"","type":"uint256"}],"name":"elections","outputs":[{"internalType":"uint256","name":"id","type":"uint256"},{"internalType":"string","name":"name","type":"string"},{"internalType":"string","name":"description","type":"string"}],"stateMutability":"view","type":"function"},{"inputs":[{"internalType":"uint256","name":"electionId","type":"uint256"}],"name":"getElection","outputs":[{"internalType":"uint256","name":"id","type":"uint256"},{"internalType":"string","name":"name","type":"string"},{"internalType":"string","name":"description","type":"string"},{"components":[{"internalType":"uint256","name":"id","type":"uint256"},{"internalType":"string","name":"name","type":"string"},{"internalType":"uint256","name":"votecount","type":"uint256"}],"internalType":"struct Voting.Proposal[]","name":"proposals","type":"tuple[]"},{"internalType":"bool","name":"voted","type":"bool"}],"stateMutability":"view","type":"function"},{"inputs":[],"name":"getElections","outputs":[{"internalType":"uint256[]","name":"ids","type":"uint256[]"},{"internalType":"string[]","name":"names","type":"string[]"},{"internalType":"string[]","name":"descriptions","type":"string[]"},{"internalType":"uint256[]","name":"proposalCounts","type":"uint256[]"}],"stateMutability":"view","type":"function"},{"inputs":[{"internalType":"uint256","name":"electionId","type":"uint256"}],"name":"getProposalsByElectionId","outputs":[{"internalType":"uint256[]","name":"ids","type":"uint256[]"},{"internalType":"string[]","name":"names","type":"string[]"},{"internalType":"uint256[]","name":"votecounts","type":"uint256[]"}],"stateMutability":"view","type":"function"},{"inputs":[{"internalType":"uint256","name":"electionId","type":"uint256"}],"name":"hasAlreadyVoted","outputs":[{"internalType":"bool","name":"","type":"bool"}],"stateMutability":"view","type":"function"},{"inputs":[{"internalType":"address","name":"","type":"address"},{"internalType":"uint256","name":"","type":"uint256"}],"name":"hasVoted","outputs":[{"internalType":"bool","name":"","type":"bool"}],"stateMutability":"view","type":"function"},{"inputs":[{"internalType":"uint256","name":"electionId","type":"uint256"},{"internalType":"uint256","name":"proposalId","type":"uint256"}],"name":"vote","outputs":[],"stateMutability":"nonpayable","type":"function"}],"evm":{"bytecode":{"linkReferences":{},"object":"60806040523461002757610011610ae2565b61001961002c565b612050610ceb823961205090f35b610032565b60405190565b600080fd5b90565b90565b90565b61005461004f61005992610037565b61003d565b61003a565b90565b601f801991011690565b634e487b7160e01b600052604160045260246000fd5b906100869061005c565b810190811060018060401b0382111761009e57604052565b610066565b906100b66100af61002c565b928361007c565b565b60018060401b0381116100ce5760208091020190565b610066565b906100e56100e0836100b8565b6100a3565b918252565b6100f460606100a3565b90565b600090565b606090565b6101096100ea565b9060208080846101176100f7565b8152016101226100fc565b81520161012d6100f7565b81525050565b61013b610101565b90565b60005b82811061014d57505050565b602090610158610133565b8184015201610141565b9061018761016f836100d3565b9260208061017d86936100b8565b920191039061013e565b565b61019360806100a3565b90565b906101a09061003a565b9052565b60018060401b0381116101c0576101bc60209161005c565b0190565b610066565b906101d76101d2836101a4565b6100a3565b918252565b60007f456c656374696f6e203100000000000000000000000000000000000000000000910152565b61020e600a6101c5565b9061021b602083016101dc565b565b610225610204565b90565b52565b60007f466972737420656c656374696f6e000000000000000000000000000000000000910152565b61025d600e6101c5565b9061026a6020830161022b565b565b610274610253565b90565b52565b90565b600052602060002090565b634e487b7160e01b600052603260045260246000fd5b5490565b6102ab8161029e565b8210156102c6576102bd60049161027d565b91020190600090565b610288565b634e487b7160e01b600052600060045260246000fd5b6102eb905161003a565b90565b60001b90565b90610301600019916102ee565b9181191691161790565b61031f61031a6103249261003a565b61003d565b61003a565b90565b90565b9061033f61033a6103469261030b565b610327565b82546102f4565b9055565b5190565b5190565b634e487b7160e01b600052602260045260246000fd5b9060016002830492168015610388575b602083101461038357565b610352565b91607f1691610378565b600052602060002090565b601f602091010490565b1b90565b919060086103c79102916103c1600019846103a7565b926103a7565b9181191691161790565b91906103e76103e26103ef9361030b565b610327565b9083546103ab565b9055565b600090565b61040a916104046103f3565b916103d1565b565b5b818110610418575050565b8061042660006001936103f8565b0161040d565b9190601f811161043c575b505050565b61044861046d93610392565b9060206104548461039d565b83019310610475575b6104669061039d565b019061040c565b388080610437565b91506104668192905061045d565b1c90565b906104989060001990600802610483565b191690565b816104a791610487565b906002021790565b906104b98161034e565b9060018060401b038211610579576104db826104d58554610368565b8561042c565b602090601f8311600114610510579180916104ff93600092610504575b505061049d565b90555b565b909150015138806104f8565b601f1983169161051f85610392565b9260005b81811061056157509160029391856001969410610547575b50505002019055610502565b610557910151601f841690610487565b905538808061053b565b91936020600181928787015181550195019201610523565b610066565b90610588916104af565b565b5190565b60200190565b5490565b634e487b7160e01b600052601160045260246000fd5b6105bd6105c39193929361003a565b9261003a565b916105cf83820261003a565b9281840414901517156105de57565b610598565b6105ee9060036105ae565b90565b600052602060002090565b906106109060001990602003600802610483565b8154169055565b9060009161062f61062782610392565b92835461049d565b905555565b9192906020821060001461068e57601f841160011461065e5761065892935061049d565b90555b5b565b509061068461068993600161067b61067585610392565b9261039d565b8201910161040c565b610617565b61065b565b506106c5829361069f600194610392565b6106be6106ab8561039d565b820192601f8616806106d0575b5061039d565b019061040c565b60020217905561065c565b6106dc908886036105fc565b386106b8565b929091680100000000000000008211610744576020116000146107355760208110600014610719576107139161049d565b90555b5b565b60019160ff191661072984610392565b55600202019055610716565b60019150600202019055610717565b610066565b90815461075581610368565b9081831161077e575b81831061076c575b50505050565b61077593610634565b38808080610766565b61078a838383876106e2565b61075e565b600061079a91610749565b565b906000036107af576107ad9061078f565b565b6102cb565b600060026107db926107c8838083016103f8565b6107d5836001830161079c565b016103f8565b565b906000036107f0576107ee906107b4565b565b6102cb565b5b818110610801575050565b8061080f60006003936107dd565b016107f6565b9091828110610824575b505050565b61084261083c61083661084d956105e3565b926105e3565b926105f1565b9182019101906107f5565b38808061081f565b9068010000000000000000811161087e578161087361087c93610594565b90828155610815565b565b610066565b5190565b5190565b906108d1604060026108d7946108b0600082016108aa600088016102e1565b9061032a565b6108c9600182016108c36020880161034a565b9061057e565b0192016102e1565b9061032a565b565b906108e39161088b565b565b61090a6109046108f484610883565b936108ff8585610855565b61058e565b916105f1565b6000915b83831061091b5750505050565b600360208261093461092e600195610887565b866108d9565b0192019201919061090e565b9061094a916108e5565b565b906109ab606060036109b1946109716000820161096b600088016102e1565b9061032a565b61098a600182016109846020880161034a565b9061057e565b6109a36002820161099d6040880161034a565b9061057e565b01920161058a565b90610940565b565b91906109c4576109c29161094c565b565b6102cb565b90815491680100000000000000008310156109f957826109f19160016109f7950181556102a2565b906109b3565b565b610066565b60007f50726f706f73616c203100000000000000000000000000000000000000000000910152565b610a30600a6101c5565b90610a3d602083016109fe565b565b610a47610a26565b90565b60007f50726f706f73616c203200000000000000000000000000000000000000000000910152565b610a7c600a6101c5565b90610a8960208301610a4a565b565b610a93610a72565b90565b60007f50726f706f73616c203300000000000000000000000000000000000000000000910152565b610ac8600a6101c5565b90610ad560208301610a96565b565b610adf610abe565b90565b610b596000610b4a610afc610af76000610040565b610162565b610b19610b10610b0a610189565b94610040565b60008501610196565b610b2d610b2461021d565b60208501610228565b610b41610b3861026c565b60408501610228565b60608301610277565b610b54600061027a565b6109c9565b610b74610b666000610040565b610b6e610a3f565b90610c77565b610b8f610b816000610040565b610b89610a8b565b90610c77565b610baa610b9c6000610040565b610ba4610ad7565b90610c77565b565b5490565b600052602060002090565b610bc481610bac565b821015610bdf57610bd6600491610bb0565b91020190600090565b610288565b90565b610bf160606100a3565b90565b600052602060002090565b5490565b610c0c81610bff565b821015610c2757610c1e600391610bf4565b91020190600090565b610288565b9190610c3d57610c3b9161088b565b565b6102cb565b9081549168010000000000000000831015610c725782610c6a916001610c7095018155610c03565b90610c2c565b565b610066565b90610ce891610ce3610cda610cb06003610ca9610ca182610c9a60008990610bbb565b5001610be4565b956000610bbb565b5001610594565b93610cd5600091610ccc610cc2610be7565b9760008901610196565b60208701610228565b610040565b60408401610196565b610c42565b56fe60806040526004361015610013575b610c89565b61001e6000356100ad565b806302d52fa4146100a857806342545825146100a35780635e6fef011461009e5780637fa67b131461009957806384303277146100945780639d7107771461008f5780639f3a7f521461008a578063ad1539b6146100855763b384abef0361000e57610c55565b610bef565b610b78565b6109d7565b61083c565b6106d0565b610698565b6103c5565b61022b565b60e01c90565b60405190565b600080fd5b600080fd5b600080fd5b90565b6100d4816100c8565b036100db57565b600080fd5b905035906100ed826100cb565b565b600080fd5b600080fd5b601f801991011690565b634e487b7160e01b600052604160045260246000fd5b90610123906100f9565b810190811067ffffffffffffffff82111761013d57604052565b610103565b9061015561014e6100b3565b9283610119565b565b67ffffffffffffffff8111610175576101716020916100f9565b0190565b610103565b90826000939282370152565b9092919261019b61019682610157565b610142565b938185526020850190828401116101b7576101b59261017a565b565b6100f4565b9080601f830112156101da578160206101d793359101610186565b90565b6100ef565b919091604081840312610220576101f983600083016100e0565b92602082013567ffffffffffffffff811161021b5761021892016101bc565b90565b6100c3565b6100be565b60000190565b3461025a5761024461023e3660046101df565b90610ff5565b61024c6100b3565b8061025681610225565b0390f35b6100b9565b60018060a01b031690565b6102739061025f565b90565b61027f8161026a565b0361028657565b600080fd5b9050359061029882610276565b565b91906040838203126102c357806102b76102c0926000860161028b565b936020016100e0565b90565b6100be565b90565b6102df6102da6102e49261025f565b6102c8565b61025f565b90565b6102f0906102cb565b90565b6102fc906102e7565b90565b90610309906102f3565b600052602052604060002090565b61032b610326610330926100c8565b6102c8565b6100c8565b90565b9061033d90610317565b600052602052604060002090565b1c90565b60ff1690565b61036590600861036a930261034b565b61034f565b90565b906103789154610355565b90565b61039561039a926103906001936000946102ff565b610333565b61036d565b90565b151590565b6103ab9061039d565b9052565b91906103c3906000602085019401906103a2565b565b346103f6576103f26103e16103db36600461029a565b9061037b565b6103e96100b3565b918291826103af565b0390f35b6100b9565b9060208282031261041557610412916000016100e0565b90565b6100be565b634e487b7160e01b600052603260045260246000fd5b5490565b600052602060002090565b61044881610430565b8210156104635761045a600491610434565b91020190600090565b61041a565b60001c90565b90565b61047d61048291610468565b61046e565b90565b61048f9054610471565b90565b634e487b7160e01b600052602260045260246000fd5b90600160028304921680156104c8575b60208310146104c357565b610492565b91607f16916104b8565b60209181520190565b600052602060002090565b90600092918054906105016104fa836104a8565b80946104d2565b9160018116908160001461055a575060011461051d575b505050565b61052a91929394506104db565b916000925b8184106105425750500190388080610518565b6001816020929593955484860152019101929061052f565b92949550505060ff1916825215156020020190388080610518565b9061057f916104e6565b90565b906105a261059b926105926100b3565b93848092610575565b0383610119565b565b6000906105b082610430565b8110156105e9576105c09161043f565b506105cd60008201610485565b916105e660026105df60018501610582565b9301610582565b90565b600080fd5b6105f7906100c8565b9052565b5190565b60209181520190565b60005b83811061061c575050906000910152565b80602091830151818501520161060b565b61064c61065560209361065a93610643816105fb565b938480936105ff565b95869101610608565b6100f9565b0190565b9161069593916106879161067a606086019260008701906105ee565b848203602086015261062d565b91604081840391015261062d565b90565b346106cb576106c76106b36106ae3660046103fb565b6105a4565b6106be9391936100b3565b9384938461065e565b0390f35b6100b9565b34610700576106fc6106eb6106e63660046103fb565b611112565b6106f36100b3565b918291826103af565b0390f35b6100b9565b67ffffffffffffffff811161071d5760208091020190565b610103565b600080fd5b92919061073b61073682610705565b610142565b93818552602080860192028101918383116107925781905b838210610761575050505050565b813567ffffffffffffffff811161078d5760209161078287849387016101bc565b815201910190610753565b6100ef565b610722565b9080601f830112156107b5578160206107b293359101610727565b90565b6100ef565b9160608383031261083757600083013567ffffffffffffffff811161083257826107e59185016101bc565b92602081013567ffffffffffffffff811161082d57836108069183016101bc565b92604082013567ffffffffffffffff8111610828576108259201610797565b90565b6100c3565b6100c3565b6100c3565b6100be565b3461086b5761085561084f3660046107ba565b916116d0565b61085d6100b3565b8061086781610225565b0390f35b6100b9565b5190565b60209181520190565b60200190565b61088c906100c8565b9052565b6108af6108b86020936108bd936108a6816105fb565b938480936104d2565b95869101610608565b6100f9565b0190565b906108ff906040806108f4606084016108e260008801516000870190610883565b60208701518582036020870152610890565b940151910190610883565b90565b9061090c916108c1565b90565b60200190565b9061092961092283610870565b8092610874565b908161093a6020830284019461087d565b926000915b83831061094e57505050505090565b9091929394602061097061096a83856001950387528951610902565b9761090f565b930193019193929061093f565b959492936109bf6109d5956109b1896080966109a46109cd97600060a085019401906105ee565b8b820360208d015261062d565b9089820360408b015261062d565b908782036060890152610915565b9401906103a2565b565b34610a0b57610a076109f26109ed3660046103fb565b6118a7565b916109fe9593956100b3565b9586958661097d565b0390f35b6100b9565b6000910312610a1b57565b6100be565b5190565b60209181520190565b60200190565b90610a4081602093610883565b0190565b60200190565b90610a67610a61610a5a84610a20565b8093610a24565b92610a2d565b9060005b818110610a785750505090565b909192610a91610a8b6001928651610a33565b94610a44565b9101919091610a6b565b5190565b60209181520190565b60200190565b90610ab891610890565b90565b60200190565b90610ad5610ace83610a9b565b8092610a9f565b9081610ae660208302840194610aa8565b926000915b838310610afa57505050505090565b90919293946020610b1c610b1683856001950387528951610aae565b97610abb565b9301930191939290610aeb565b92610b59610b759593610b4b610b6794608088019088820360008a0152610a4a565b908682036020880152610ac1565b908482036040860152610ac1565b916060818403910152610a4a565b90565b34610bac57610b88366004610a10565b610ba8610b93611a51565b90610b9f9492946100b3565b94859485610b29565b0390f35b6100b9565b91610bde90610bd0610bec959360608601908682036000880152610a4a565b908482036020860152610ac1565b916040818403910152610a4a565b90565b34610c2257610c1e610c0a610c053660046103fb565b611ba0565b610c159391936100b3565b93849384610bb1565b0390f35b6100b9565b9190604083820312610c505780610c44610c4d92600086016100e0565b936020016100e0565b90565b6100be565b34610c8457610c6e610c68366004610c27565b90611ee9565b610c766100b3565b80610c8081610225565b0390f35b6100b9565b600080fd5b90565b5490565b610c9f6060610142565b90565b90610cac906100c8565b9052565b52565b90565b610cca610cc5610ccf92610cb3565b6102c8565b6100c8565b90565b600052602060002090565b5490565b610cea81610cdd565b821015610d0557610cfc600391610cd2565b91020190600090565b61041a565b634e487b7160e01b600052600060045260246000fd5b610d2a90516100c8565b90565b60001b90565b90610d4060001991610d2d565b9181191691161790565b90565b90610d62610d5d610d6992610317565b610d4a565b8254610d33565b9055565b5190565b601f602091010490565b1b90565b91906008610d9b910291610d9560001984610d7b565b92610d7b565b9181191691161790565b9190610dbb610db6610dc393610317565b610d4a565b908354610d7f565b9055565b600090565b610dde91610dd8610dc7565b91610da5565b565b5b818110610dec575050565b80610dfa6000600193610dcc565b01610de1565b9190601f8111610e10575b505050565b610e1c610e41936104db565b906020610e2884610d71565b83019310610e49575b610e3a90610d71565b0190610de0565b388080610e0b565b9150610e3a81929050610e31565b90610e68906000199060080261034b565b191690565b81610e7791610e57565b906002021790565b90610e89816105fb565b9067ffffffffffffffff8211610f4b57610ead82610ea785546104a8565b85610e00565b602090601f8311600114610ee257918091610ed193600092610ed6575b5050610e6d565b90555b565b90915001513880610eca565b601f19831691610ef1856104db565b9260005b818110610f3357509160029391856001969410610f19575b50505002019055610ed4565b610f29910151601f841690610e57565b9055388080610f0d565b91936020600181928787015181550195019201610ef5565b610103565b90610f5a91610e7f565b565b90610fa260406002610fa894610f8160008201610f7b60008801610d20565b90610d4d565b610f9a60018201610f9460208801610d6d565b90610f50565b019201610d20565b90610d4d565b565b9190610fbb57610fb991610f5c565b565b610d0a565b9081549168010000000000000000831015610ff05782610fe8916001610fee95018155610ce1565b90610faa565b565b610103565b906110669161106161105861102e600361102761101f826110186000899061043f565b5001610c8e565b95600061043f565b5001610c91565b9361105360009161104a611040610c95565b9760008901610ca2565b60208701610cb0565b610cb6565b60408401610ca2565b610fc0565b565b600090565b60007f496e76616c696420656c656374696f6e20494400000000000000000000000000910152565b6110a260136020926105ff565b6110ab8161106d565b0190565b6110c59060208101906000818303910152611095565b90565b156110cf57565b6110d76100b3565b62461bcd60e51b8152806110ed600482016110af565b0390fd5b6110fd61110291610468565b61034f565b90565b61110f90546110f1565b90565b61115861115d91611121611068565b506111478161114161113b6111366000610430565b6100c8565b916100c8565b106110c8565b611153600133906102ff565b610333565b611105565b61116657600090565b600190565b67ffffffffffffffff81116111835760208091020190565b610103565b9061119a6111958361116b565b610142565b918252565b6111a96060610142565b90565b600090565b606090565b6111be61119f565b9060208080846111cc6111ac565b8152016111d76111b1565b8152016111e26111ac565b81525050565b6111f06111b6565b90565b60005b82811061120257505050565b60209061120d6111e8565b81840152016111f6565b9061123c61122483611188565b92602080611232869361116b565b92019103906111f3565b565b6112486080610142565b90565b52565b90565b600052602060002090565b5490565b6112698161125c565b8210156112845761127b600491611251565b91020190600090565b61041a565b5190565b634e487b7160e01b600052601160045260246000fd5b6112b26112b8919392936100c8565b926100c8565b916112c48382026100c8565b9281840414901517156112d357565b61128d565b6112e39060036112a3565b90565b600052602060002090565b90611305906000199060200360080261034b565b8154169055565b9060009161132461131c826104db565b928354610e6d565b905555565b9192906020821060001461138357601f84116001146113535761134d929350610e6d565b90555b5b565b509061137961137e93600161137061136a856104db565b92610d71565b82019101610de0565b61130c565b611350565b506113ba82936113946001946104db565b6113b36113a085610d71565b820192601f8616806113c5575b50610d71565b0190610de0565b600202179055611351565b6113d1908886036112f1565b386113ad565b9290916801000000000000000082116114395760201160001461142a576020811060001461140e5761140891610e6d565b90555b5b565b60019160ff191661141e846104db565b5560020201905561140b565b6001915060020201905561140c565b610103565b90815461144a816104a8565b90818311611473575b818310611461575b50505050565b61146a93611329565b3880808061145b565b61147f838383876113d7565b611453565b600061148f9161143e565b565b906000036114a4576114a290611484565b565b610d0a565b600060026114d0926114bd83808301610dcc565b6114ca8360018301611491565b01610dcc565b565b906000036114e5576114e3906114a9565b565b610d0a565b5b8181106114f6575050565b8061150460006003936114d2565b016114eb565b9091828110611519575b505050565b61153761153161152b611542956112d8565b926112d8565b926112e6565b9182019101906114ea565b388080611514565b90680100000000000000008111611573578161156861157193610c91565b9082815561150a565b565b610103565b5190565b9061158691610f5c565b565b6115ad6115a761159784610870565b936115a2858561154a565b61087d565b916112e6565b6000915b8383106115be5750505050565b60036020826115d76115d1600195611578565b8661157c565b019201920191906115b1565b906115ed91611588565b565b9061164e60606003611654946116146000820161160e60008801610d20565b90610d4d565b61162d6001820161162760208801610d6d565b90610f50565b6116466002820161164060408801610d6d565b90610f50565b019201611289565b906115e3565b565b919061166757611665916115ef565b565b610d0a565b908154916801000000000000000083101561169c578261169491600161169a95018155611260565b90611656565b565b610103565b60016116ad91016100c8565b90565b906116ba82610a9b565b8110156116cb576020809102010190565b61041a565b929190916116de6000610430565b9361174085611731836117288861171f6117006116fb6000610cb6565b611217565b9361171661170c61123e565b9760008901610ca2565b60208701610cb0565b60408501610cb0565b6060830161124b565b61173b600061124e565b61166c565b61174a6000610cb6565b5b8061176661176061175b87610a9b565b6100c8565b916100c8565b10156117905761178b906117868761177f8784906116b0565b5190610ff5565b6116a1565b61174b565b50929150929190916117ce7feaf9c9dabc2a68b717e3095068d04a84ecace13a1ab18b4499a913c3ab3d2869936117c56100b3565b9384938461065e565b0390a1565b606090565b606090565b90565b6117e990610582565b90565b9061183d61183460026117fd61119f565b9461181661180d60008301610485565b60008801610ca2565b61182e61182560018301610582565b60208801610cb0565b01610485565b60408401610ca2565b565b611848906117ec565b90565b9061185582610c91565b61185e81611188565b9261186c60208501916112e6565b6000915b83831061187d5750505050565b6003602060019261188d8561183f565b815201920192019190611870565b6118a49061184b565b90565b6118af610dc7565b506118b86117d3565b506118c16117d3565b506118ca6117d8565b506118d3611068565b506118f9816118f36118ed6118e86000610430565b6100c8565b916100c8565b106110c8565b61190e6119086000839061043f565b506117dd565b9061191b60008301610485565b600183019361196161195b61195561194e611949600360028a01990197611944600133906102ff565b610333565b611105565b94976117e0565b956117e0565b9361189b565b9190565b606090565b606090565b67ffffffffffffffff81116119875760208091020190565b610103565b9061199e6119998361196f565b610142565b918252565b369037565b906119cd6119b58361198c565b926020806119c3869361196f565b92019103906119a3565b565b906119e16119dc83610705565b610142565b918252565b60005b8281106119f557505050565b602090611a006111b1565b81840152016119e9565b90611a2f611a17836119cf565b92602080611a258693610705565b92019103906119e6565b565b90611a3b82610a20565b811015611a4c576020809102010190565b61041a565b611a59611965565b50611a6261196a565b50611a6b61196a565b50611a74611965565b50611a7f6000610430565b611a88816119a8565b91611a9282611a0a565b611a9b83611a0a565b93611aa5846119a8565b92611ab06000610cb6565b5b80611ac4611abe886100c8565b916100c8565b1015611b9157611b8c90611afa611ae86000611ae181859061043f565b5001610485565b611af58691849092611a31565b610ca2565b611b286001611b0b6000849061043f565b500186611b1884926117e0565b611b2283836116b0565b526116b0565b5150611b586002611b3b6000849061043f565b500189611b4884926117e0565b611b5283836116b0565b526116b0565b5150611b87611b756003611b6e6000859061043f565b5001610c91565b611b828891849092611a31565b610ca2565b6116a1565b611ab1565b50919293509193929193929190565b6003611bf0611bf792611bb1611965565b50611bba61196a565b50611bc3611965565b50611be981611be3611bdd611bd86000610430565b6100c8565b916100c8565b106110c8565b600061043f565b5001610c8e565b611c0081610cdd565b90611c0a826119a8565b611c1383611a0a565b90611c1d846119a8565b94611c286000610cb6565b5b80611c3c611c36886100c8565b916100c8565b1015611cd757611cd290611c72611c606000611c59898590610ce1565b5001610485565b611c6d8691849092611a31565b610ca2565b611c9f6001611c82888490610ce1565b500186611c8f84926117e0565b611c9983836116b0565b526116b0565b5150611ccd611cbb6002611cb4898590610ce1565b5001610485565b611cc88a91849092611a31565b610ca2565b6116a1565b611c29565b509250909250919291929190565b60007f496e76616c69642070726f706f73616c20494400000000000000000000000000910152565b611d1a60136020926105ff565b611d2381611ce5565b0190565b611d3d9060208101906000818303910152611d0d565b90565b15611d4757565b611d4f6100b3565b62461bcd60e51b815280611d6560048201611d27565b0390fd5b60207f6c656374696f6e00000000000000000000000000000000000000000000000000917f596f75206861766520616c726561647920766f74656420696e2074686973206560008201520152565b611dc460276040926105ff565b611dcd81611d69565b0190565b611de79060208101906000818303910152611db7565b90565b15611df157565b611df96100b3565b62461bcd60e51b815280611e0f60048201611dd1565b0390fd5b90565b611e2a611e25611e2f92611e13565b6102c8565b6100c8565b90565b611e3b81610c91565b821015611e5657611e4d6003916112e6565b91020190600090565b61041a565b611e6a611e70919392936100c8565b926100c8565b8201809211611e7b57565b61128d565b90611e8c60ff91610d2d565b9181191691161790565b611e9f9061039d565b90565b90565b90611eba611eb5611ec192611e96565b611ea2565b8254611e80565b9055565b916020611ee7929493611ee0604082019660008301906105ee565b01906105ee565b565b611f0e81611f08611f02611efd6000610430565b6100c8565b916100c8565b106110c8565b611f4182611f3b611f35611f306003611f296000889061043f565b5001610c91565b6100c8565b916100c8565b10611d40565b611f70611f6b611f65611f60611f59600133906102ff565b8590610333565b611105565b1561039d565b611dea565b611fb3611f7d6001611e16565b611fad6002611f9c6003611f936000889061043f565b50018790611e32565b500191611fa883610485565b611e5b565b90610d4d565b611fd36001611fce611fc7600133906102ff565b8490610333565b611ea5565b3390916120007fb4cfecf70861b7b150d8337780d34fb4cbc2114b5fb1fe51a5c5fca1849f7274926102f3565b9261201561200c6100b3565b92839283611ec5565b0390a256fea264697066735822122024d031c21532f1c8220f0d8defb62baa11ed7ac6fa32b6ff0cf48f7baa71728564736f6c634300081c0033","opcodes":"PUSH1 0x80 PUSH1 0x40 MSTORE CALLVALUE PUSH2 0x27 JUMPI PUSH2 0x11 PUSH2 0xAE2 JUMP JUMPDEST PUSH2 0x19 PUSH2 0x2C JUMP JUMPDEST PUSH2 0x2050 PUSH2 0xCEB DUP3 CODECOPY PUSH2 0x2050 SWAP1 RETURN JUMPDEST PUSH2 0x32 JUMP JUMPDEST PUSH1 0x40 MLOAD SWAP1 JUMP JUMPDEST PUSH1 0x0 DUP1 REVERT JUMPDEST SWAP1 JUMP JUMPDEST SWAP1 JUMP JUMPDEST SWAP1 JUMP JUMPDEST PUSH2 0x54 PUSH2 0x4F PUSH2 0x59 SWAP3 PUSH2 0x37 JUMP JUMPDEST PUSH2 0x3D JUMP JUMPDEST PUSH2 0x3A JUMP JUMPDEST SWAP1 JUMP JUMPDEST PUSH1 0x1F DUP1 NOT SWAP2 ADD AND SWAP1 JUMP JUMPDEST PUSH4 0x4E487B71 PUSH1 0xE0 SHL PUSH1 0x0 MSTORE PUSH1 0x41 PUSH1 0x4 MSTORE PUSH1 0x24 PUSH1 0x0 REVERT JUMPDEST SWAP1 PUSH2 0x86 SWAP1 PUSH2 0x5C JUMP JUMPDEST DUP2 ADD SWAP1 DUP2 LT PUSH1 0x1 DUP1 PUSH1 0x40 SHL SUB DUP3 GT OR PUSH2 0x9E JUMPI PUSH1 0x40 MSTORE JUMP JUMPDEST PUSH2 0x66 JUMP JUMPDEST SWAP1 PUSH2 0xB6 PUSH2 0xAF PUSH2 0x2C JUMP JUMPDEST SWAP3 DUP4 PUSH2 0x7C JUMP JUMPDEST JUMP JUMPDEST PUSH1 0x1 DUP1 PUSH1 0x40 SHL SUB DUP2 GT PUSH2 0xCE JUMPI PUSH1 0x20 DUP1 SWAP2 MUL ADD SWAP1 JUMP JUMPDEST PUSH2 0x66 JUMP JUMPDEST SWAP1 PUSH2 0xE5 PUSH2 0xE0 DUP4 PUSH2 0xB8 JUMP JUMPDEST PUSH2 0xA3 JUMP JUMPDEST SWAP2 DUP3 MSTORE JUMP JUMPDEST PUSH2 0xF4 PUSH1 0x60 PUSH2 0xA3 JUMP JUMPDEST SWAP1 JUMP JUMPDEST PUSH1 0x0 SWAP1 JUMP JUMPDEST PUSH1 0x60 SWAP1 JUMP JUMPDEST PUSH2 0x109 PUSH2 0xEA JUMP JUMPDEST SWAP1 PUSH1 0x20 DUP1 DUP1 DUP5 PUSH2 0x117 PUSH2 0xF7 JUMP JUMPDEST DUP2 MSTORE ADD PUSH2 0x122 PUSH2 0xFC JUMP JUMPDEST DUP2 MSTORE ADD PUSH2 0x12D PUSH2 0xF7 JUMP JUMPDEST DUP2 MSTORE POP POP JUMP JUMPDEST PUSH2 0x13B PUSH2 0x101 JUMP JUMPDEST SWAP1 JUMP JUMPDEST PUSH1 0x0 JUMPDEST DUP3 DUP2 LT PUSH2 0x14D JUMPI POP POP POP JUMP JUMPDEST PUSH1 0x20 SWAP1 PUSH2 0x158 PUSH2 0x133 JUMP JUMPDEST DUP2 DUP5 ADD MSTORE ADD PUSH2 0x141 JUMP JUMPDEST SWAP1 PUSH2 0x187 PUSH2 0x16F DUP4 PUSH2 0xD3 JUMP JUMPDEST SWAP3 PUSH1 0x20 DUP1 PUSH2 0x17D DUP7 SWAP4 PUSH2 0xB8 JUMP JUMPDEST SWAP3 ADD SWAP2 SUB SWAP1 PUSH2 0x13E JUMP JUMPDEST JUMP JUMPDEST PUSH2 0x193 PUSH1 0x80 PUSH2 0xA3 JUMP JUMPDEST SWAP1 JUMP JUMPDEST SWAP1 PUSH2 0x1A0 SWAP1 PUSH2 0x3A JUMP JUMPDEST SWAP1 MSTORE JUMP JUMPDEST PUSH1 0x1 DUP1 PUSH1 0x40 SHL SUB DUP2 GT PUSH2 0x1C0 JUMPI PUSH2 0x1BC PUSH1 0x20 SWAP2 PUSH2 0x5C JUMP JUMPDEST ADD SWAP1 JUMP JUMPDEST PUSH2 0x66 JUMP JUMPDEST SWAP1 PUSH2 0x1D7 PUSH2 0x1D2 DUP4 PUSH2 0x1A4 JUMP JUMPDEST PUSH2 0xA3 JUMP JUMPDEST SWAP2 DUP3 MSTORE JUMP JUMPDEST PUSH1 0x0 PUSH32 0x456C656374696F6E203100000000000000000000000000000000000000000000 SWAP2 ADD MSTORE JUMP JUMPDEST PUSH2 0x20E PUSH1 0xA PUSH2 0x1C5 JUMP JUMPDEST SWAP1 PUSH2 0x21B PUSH1 0x20 DUP4 ADD PUSH2 0x1DC JUMP JUMPDEST JUMP JUMPDEST PUSH2 0x225 PUSH2 0x204 JUMP JUMPDEST SWAP1 JUMP JUMPDEST MSTORE JUMP JUMPDEST PUSH1 0x0 PUSH32 0x466972737420656C656374696F6E000000000000000000000000000000000000 SWAP2 ADD MSTORE JUMP JUMPDEST PUSH2 0x25D PUSH1 0xE PUSH2 0x1C5 JUMP JUMPDEST SWAP1 PUSH2 0x26A PUSH1 0x20 DUP4 ADD PUSH2 0x22B JUMP JUMPDEST JUMP JUMPDEST PUSH2 0x274 PUSH2 0x253 JUMP JUMPDEST SWAP1 JUMP JUMPDEST MSTORE JUMP JUMPDEST SWAP1 JUMP JUMPDEST PUSH1 0x0 MSTORE PUSH1 0x20 PUSH1 0x0 KECCAK256 SWAP1 JUMP JUMPDEST PUSH4 0x4E487B71 PUSH1 0xE0 SHL PUSH1 0x0 MSTORE PUSH1 0x32 PUSH1 0x4 MSTORE PUSH1 0x24 PUSH1 0x0 REVERT JUMPDEST SLOAD SWAP1 JUMP JUMPDEST PUSH2 0x2AB DUP2 PUSH2 0x29E JUMP JUMPDEST DUP3 LT ISZERO PUSH2 0x2C6 JUMPI PUSH2 0x2BD PUSH1 0x4 SWAP2 PUSH2 0x27D JUMP JUMPDEST SWAP2 MUL ADD SWAP1 PUSH1 0x0 SWAP1 JUMP JUMPDEST PUSH2 0x288 JUMP JUMPDEST PUSH4 0x4E487B71 PUSH1 0xE0 SHL PUSH1 0x0 MSTORE PUSH1 0x0 PUSH1 0x4 MSTORE PUSH1 0x24 PUSH1 0x0 REVERT JUMPDEST PUSH2 0x2EB SWAP1 MLOAD PUSH2 0x3A JUMP JUMPDEST SWAP1 JUMP JUMPDEST PUSH1 0x0 SHL SWAP1 JUMP JUMPDEST SWAP1 PUSH2 0x301 PUSH1 0x0 NOT SWAP2 PUSH2 0x2EE JUMP JUMPDEST SWAP2 DUP2 NOT AND SWAP2 AND OR SWAP1 JUMP JUMPDEST PUSH2 0x31F PUSH2 0x31A PUSH2 0x324 SWAP3 PUSH2 0x3A JUMP JUMPDEST PUSH2 0x3D JUMP JUMPDEST PUSH2 0x3A JUMP JUMPDEST SWAP1 JUMP JUMPDEST SWAP1 JUMP JUMPDEST SWAP1 PUSH2 0x33F PUSH2 0x33A PUSH2 0x346 SWAP3 PUSH2 0x30B JUMP JUMPDEST PUSH2 0x327 JUMP JUMPDEST DUP3 SLOAD PUSH2 0x2F4 JUMP JUMPDEST SWAP1 SSTORE JUMP JUMPDEST MLOAD SWAP1 JUMP JUMPDEST MLOAD SWAP1 JUMP JUMPDEST PUSH4 0x4E487B71 PUSH1 0xE0 SHL PUSH1 0x0 MSTORE PUSH1 0x22 PUSH1 0x4 MSTORE PUSH1 0x24 PUSH1 0x0 REVERT JUMPDEST SWAP1 PUSH1 0x1 PUSH1 0x2 DUP4 DIV SWAP3 AND DUP1 ISZERO PUSH2 0x388 JUMPI JUMPDEST PUSH1 0x20 DUP4 LT EQ PUSH2 0x383 JUMPI JUMP JUMPDEST PUSH2 0x352 JUMP JUMPDEST SWAP2 PUSH1 0x7F AND SWAP2 PUSH2 0x378 JUMP JUMPDEST PUSH1 0x0 MSTORE PUSH1 0x20 PUSH1 0x0 KECCAK256 SWAP1 JUMP JUMPDEST PUSH1 0x1F PUSH1 0x20 SWAP2 ADD DIV SWAP1 JUMP JUMPDEST SHL SWAP1 JUMP JUMPDEST SWAP2 SWAP1 PUSH1 0x8 PUSH2 0x3C7 SWAP2 MUL SWAP2 PUSH2 0x3C1 PUSH1 0x0 NOT DUP5 PUSH2 0x3A7 JUMP JUMPDEST SWAP3 PUSH2 0x3A7 JUMP JUMPDEST SWAP2 DUP2 NOT AND SWAP2 AND OR SWAP1 JUMP JUMPDEST SWAP2 SWAP1 PUSH2 0x3E7 PUSH2 0x3E2 PUSH2 0x3EF SWAP4 PUSH2 0x30B JUMP JUMPDEST PUSH2 0x327 JUMP JUMPDEST SWAP1 DUP4 SLOAD PUSH2 0x3AB JUMP JUMPDEST SWAP1 SSTORE JUMP JUMPDEST PUSH1 0x0 SWAP1 JUMP JUMPDEST PUSH2 0x40A SWAP2 PUSH2 0x404 PUSH2 0x3F3 JUMP JUMPDEST SWAP2 PUSH2 0x3D1 JUMP JUMPDEST JUMP JUMPDEST JUMPDEST DUP2 DUP2 LT PUSH2 0x418 JUMPI POP POP JUMP JUMPDEST DUP1 PUSH2 0x426 PUSH1 0x0 PUSH1 0x1 SWAP4 PUSH2 0x3F8 JUMP JUMPDEST ADD PUSH2 0x40D JUMP JUMPDEST SWAP2 SWAP1 PUSH1 0x1F DUP2 GT PUSH2 0x43C JUMPI JUMPDEST POP POP POP JUMP JUMPDEST PUSH2 0x448 PUSH2 0x46D SWAP4 PUSH2 0x392 JUMP JUMPDEST SWAP1 PUSH1 0x20 PUSH2 0x454 DUP5 PUSH2 0x39D JUMP JUMPDEST DUP4 ADD SWAP4 LT PUSH2 0x475 JUMPI JUMPDEST PUSH2 0x466 SWAP1 PUSH2 0x39D JUMP JUMPDEST ADD SWAP1 PUSH2 0x40C JUMP JUMPDEST CODESIZE DUP1 DUP1 PUSH2 0x437 JUMP JUMPDEST SWAP2 POP PUSH2 0x466 DUP2 SWAP3 SWAP1 POP PUSH2 0x45D JUMP JUMPDEST SHR SWAP1 JUMP JUMPDEST SWAP1 PUSH2 0x498 SWAP1 PUSH1 0x0 NOT SWAP1 PUSH1 0x8 MUL PUSH2 0x483 JUMP JUMPDEST NOT AND SWAP1 JUMP JUMPDEST DUP2 PUSH2 0x4A7 SWAP2 PUSH2 0x487 JUMP JUMPDEST SWAP1 PUSH1 0x2 MUL OR SWAP1 JUMP JUMPDEST SWAP1 PUSH2 0x4B9 DUP2 PUSH2 0x34E JUMP JUMPDEST SWAP1 PUSH1 0x1 DUP1 PUSH1 0x40 SHL SUB DUP3 GT PUSH2 0x579 JUMPI PUSH2 0x4DB DUP3 PUSH2 0x4D5 DUP6 SLOAD PUSH2 0x368 JUMP JUMPDEST DUP6 PUSH2 0x42C JUMP JUMPDEST PUSH1 0x20 SWAP1 PUSH1 0x1F DUP4 GT PUSH1 0x1 EQ PUSH2 0x510 JUMPI SWAP2 DUP1 SWAP2 PUSH2 0x4FF SWAP4 PUSH1 0x0 SWAP3 PUSH2 0x504 JUMPI JUMPDEST POP POP PUSH2 0x49D JUMP JUMPDEST SWAP1 SSTORE JUMPDEST JUMP JUMPDEST SWAP1 SWAP2 POP ADD MLOAD CODESIZE DUP1 PUSH2 0x4F8 JUMP JUMPDEST PUSH1 0x1F NOT DUP4 AND SWAP2 PUSH2 0x51F DUP6 PUSH2 0x392 JUMP JUMPDEST SWAP3 PUSH1 0x0 JUMPDEST DUP2 DUP2 LT PUSH2 0x561 JUMPI POP SWAP2 PUSH1 0x2 SWAP4 SWAP2 DUP6 PUSH1 0x1 SWAP7 SWAP5 LT PUSH2 0x547 JUMPI JUMPDEST POP POP POP MUL ADD SWAP1 SSTORE PUSH2 0x502 JUMP JUMPDEST PUSH2 0x557 SWAP2 ADD MLOAD PUSH1 0x1F DUP5 AND SWAP1 PUSH2 0x487 JUMP JUMPDEST SWAP1 SSTORE CODESIZE DUP1 DUP1 PUSH2 0x53B JUMP JUMPDEST SWAP2 SWAP4 PUSH1 0x20 PUSH1 0x1 DUP2 SWAP3 DUP8 DUP8 ADD MLOAD DUP2 SSTORE ADD SWAP6 ADD SWAP3 ADD PUSH2 0x523 JUMP JUMPDEST PUSH2 0x66 JUMP JUMPDEST SWAP1 PUSH2 0x588 SWAP2 PUSH2 0x4AF JUMP JUMPDEST JUMP JUMPDEST MLOAD SWAP1 JUMP JUMPDEST PUSH1 0x20 ADD SWAP1 JUMP JUMPDEST SLOAD SWAP1 JUMP JUMPDEST PUSH4 0x4E487B71 PUSH1 0xE0 SHL PUSH1 0x0 MSTORE PUSH1 0x11 PUSH1 0x4 MSTORE PUSH1 0x24 PUSH1 0x0 REVERT JUMPDEST PUSH2 0x5BD PUSH2 0x5C3 SWAP2 SWAP4 SWAP3 SWAP4 PUSH2 0x3A JUMP JUMPDEST SWAP3 PUSH2 0x3A JUMP JUMPDEST SWAP2 PUSH2 0x5CF DUP4 DUP3 MUL PUSH2 0x3A JUMP JUMPDEST SWAP3 DUP2 DUP5 DIV EQ SWAP1 ISZERO OR ISZERO PUSH2 0x5DE JUMPI JUMP JUMPDEST PUSH2 0x598 JUMP JUMPDEST PUSH2 0x5EE SWAP1 PUSH1 0x3 PUSH2 0x5AE JUMP JUMPDEST SWAP1 JUMP JUMPDEST PUSH1 0x0 MSTORE PUSH1 0x20 PUSH1 0x0 KECCAK256 SWAP1 JUMP JUMPDEST SWAP1 PUSH2 0x610 SWAP1 PUSH1 0x0 NOT SWAP1 PUSH1 0x20 SUB PUSH1 0x8 MUL PUSH2 0x483 JUMP JUMPDEST DUP2 SLOAD AND SWAP1 SSTORE JUMP JUMPDEST SWAP1 PUSH1 0x0 SWAP2 PUSH2 0x62F PUSH2 0x627 DUP3 PUSH2 0x392 JUMP JUMPDEST SWAP3 DUP4 SLOAD PUSH2 0x49D JUMP JUMPDEST SWAP1 SSTORE SSTORE JUMP JUMPDEST SWAP2 SWAP3 SWAP1 PUSH1 0x20 DUP3 LT PUSH1 0x0 EQ PUSH2 0x68E JUMPI PUSH1 0x1F DUP5 GT PUSH1 0x1 EQ PUSH2 0x65E JUMPI PUSH2 0x658 SWAP3 SWAP4 POP PUSH2 0x49D JUMP JUMPDEST SWAP1 SSTORE JUMPDEST JUMPDEST JUMP JUMPDEST POP SWAP1 PUSH2 0x684 PUSH2 0x689 SWAP4 PUSH1 0x1 PUSH2 0x67B PUSH2 0x675 DUP6 PUSH2 0x392 JUMP JUMPDEST SWAP3 PUSH2 0x39D JUMP JUMPDEST DUP3 ADD SWAP2 ADD PUSH2 0x40C JUMP JUMPDEST PUSH2 0x617 JUMP JUMPDEST PUSH2 0x65B JUMP JUMPDEST POP PUSH2 0x6C5 DUP3 SWAP4 PUSH2 0x69F PUSH1 0x1 SWAP5 PUSH2 0x392 JUMP JUMPDEST PUSH2 0x6BE PUSH2 0x6AB DUP6 PUSH2 0x39D JUMP JUMPDEST DUP3 ADD SWAP3 PUSH1 0x1F DUP7 AND DUP1 PUSH2 0x6D0 JUMPI JUMPDEST POP PUSH2 0x39D JUMP JUMPDEST ADD SWAP1 PUSH2 0x40C JUMP JUMPDEST PUSH1 0x2 MUL OR SWAP1 SSTORE PUSH2 0x65C JUMP JUMPDEST PUSH2 0x6DC SWAP1 DUP9 DUP7 SUB PUSH2 0x5FC JUMP JUMPDEST CODESIZE PUSH2 0x6B8 JUMP JUMPDEST SWAP3 SWAP1 SWAP2 PUSH9 0x10000000000000000 DUP3 GT PUSH2 0x744 JUMPI PUSH1 0x20 GT PUSH1 0x0 EQ PUSH2 0x735 JUMPI PUSH1 0x20 DUP2 LT PUSH1 0x0 EQ PUSH2 0x719 JUMPI PUSH2 0x713 SWAP2 PUSH2 0x49D JUMP JUMPDEST SWAP1 SSTORE JUMPDEST JUMPDEST JUMP JUMPDEST PUSH1 0x1 SWAP2 PUSH1 0xFF NOT AND PUSH2 0x729 DUP5 PUSH2 0x392 JUMP JUMPDEST SSTORE PUSH1 0x2 MUL ADD SWAP1 SSTORE PUSH2 0x716 JUMP JUMPDEST PUSH1 0x1 SWAP2 POP PUSH1 0x2 MUL ADD SWAP1 SSTORE PUSH2 0x717 JUMP JUMPDEST PUSH2 0x66 JUMP JUMPDEST SWAP1 DUP2 SLOAD PUSH2 0x755 DUP2 PUSH2 0x368 JUMP JUMPDEST SWAP1 DUP2 DUP4 GT PUSH2 0x77E JUMPI JUMPDEST DUP2 DUP4 LT PUSH2 0x76C JUMPI JUMPDEST POP POP POP POP JUMP JUMPDEST PUSH2 0x775 SWAP4 PUSH2 0x634 JUMP JUMPDEST CODESIZE DUP1 DUP1 DUP1 PUSH2 0x766 JUMP JUMPDEST PUSH2 0x78A DUP4 DUP4 DUP4 DUP8 PUSH2 0x6E2 JUMP JUMPDEST PUSH2 0x75E JUMP JUMPDEST PUSH1 0x0 PUSH2 0x79A SWAP2 PUSH2 0x749 JUMP JUMPDEST JUMP JUMPDEST SWAP1 PUSH1 0x0 SUB PUSH2 0x7AF JUMPI PUSH2 0x7AD SWAP1 PUSH2 0x78F JUMP JUMPDEST JUMP JUMPDEST PUSH2 0x2CB JUMP JUMPDEST PUSH1 0x0 PUSH1 0x2 PUSH2 0x7DB SWAP3 PUSH2 0x7C8 DUP4 DUP1 DUP4 ADD PUSH2 0x3F8 JUMP JUMPDEST PUSH2 0x7D5 DUP4 PUSH1 0x1 DUP4 ADD PUSH2 0x79C JUMP JUMPDEST ADD PUSH2 0x3F8 JUMP JUMPDEST JUMP JUMPDEST SWAP1 PUSH1 0x0 SUB PUSH2 0x7F0 JUMPI PUSH2 0x7EE SWAP1 PUSH2 0x7B4 JUMP JUMPDEST JUMP JUMPDEST PUSH2 0x2CB JUMP JUMPDEST JUMPDEST DUP2 DUP2 LT PUSH2 0x801 JUMPI POP POP JUMP JUMPDEST DUP1 PUSH2 0x80F PUSH1 0x0 PUSH1 0x3 SWAP4 PUSH2 0x7DD JUMP JUMPDEST ADD PUSH2 0x7F6 JUMP JUMPDEST SWAP1 SWAP2 DUP3 DUP2 LT PUSH2 0x824 JUMPI JUMPDEST POP POP POP JUMP JUMPDEST PUSH2 0x842 PUSH2 0x83C PUSH2 0x836 PUSH2 0x84D SWAP6 PUSH2 0x5E3 JUMP JUMPDEST SWAP3 PUSH2 0x5E3 JUMP JUMPDEST SWAP3 PUSH2 0x5F1 JUMP JUMPDEST SWAP2 DUP3 ADD SWAP2 ADD SWAP1 PUSH2 0x7F5 JUMP JUMPDEST CODESIZE DUP1 DUP1 PUSH2 0x81F JUMP JUMPDEST SWAP1 PUSH9 0x10000000000000000 DUP2 GT PUSH2 0x87E JUMPI DUP2 PUSH2 0x873 PUSH2 0x87C SWAP4 PUSH2 0x594 JUMP JUMPDEST SWAP1 DUP3 DUP2 SSTORE PUSH2 0x815 JUMP JUMPDEST JUMP JUMPDEST PUSH2 0x66 JUMP JUMPDEST MLOAD SWAP1 JUMP JUMPDEST MLOAD SWAP1 JUMP JUMPDEST SWAP1 PUSH2 0x8D1 PUSH1 0x40 PUSH1 0x2 PUSH2 0x8D7 SWAP5 PUSH2 0x8B0 PUSH1 0x0 DUP3 ADD PUSH2 0x8AA PUSH1 0x0 DUP9 ADD PUSH2 0x2E1 JUMP JUMPDEST SWAP1 PUSH2 0x32A JUMP JUMPDEST PUSH2 0x8C9 PUSH1 0x1 DUP3 ADD PUSH2 0x8C3 PUSH1 0x20 DUP9 ADD PUSH2 0x34A JUMP JUMPDEST SWAP1 PUSH2 0x57E JUMP JUMPDEST ADD SWAP3 ADD PUSH2 0x2E1 JUMP JUMPDEST SWAP1 PUSH2 0x32A JUMP JUMPDEST JUMP JUMPDEST SWAP1 PUSH2 0x8E3 SWAP2 PUSH2 0x88B JUMP JUMPDEST JUMP JUMPDEST PUSH2 0x90A PUSH2 0x904 PUSH2 0x8F4 DUP5 PUSH2 0x883 JUMP JUMPDEST SWAP4 PUSH2 0x8FF DUP6 DUP6 PUSH2 0x855 JUMP JUMPDEST PUSH2 0x58E JUMP JUMPDEST SWAP2 PUSH2 0x5F1 JUMP JUMPDEST PUSH1 0x0 SWAP2 JUMPDEST DUP4 DUP4 LT PUSH2 0x91B JUMPI POP POP POP POP JUMP JUMPDEST PUSH1 0x3 PUSH1 0x20 DUP3 PUSH2 0x934 PUSH2 0x92E PUSH1 0x1 SWAP6 PUSH2 0x887 JUMP JUMPDEST DUP7 PUSH2 0x8D9 JUMP JUMPDEST ADD SWAP3 ADD SWAP3 ADD SWAP2 SWAP1 PUSH2 0x90E JUMP JUMPDEST SWAP1 PUSH2 0x94A SWAP2 PUSH2 0x8E5 JUMP JUMPDEST JUMP JUMPDEST SWAP1 PUSH2 0x9AB PUSH1 0x60 PUSH1 0x3 PUSH2 0x9B1 SWAP5 PUSH2 0x971 PUSH1 0x0 DUP3 ADD PUSH2 0x96B PUSH1 0x0 DUP9 ADD PUSH2 0x2E1 JUMP JUMPDEST SWAP1 PUSH2 0x32A JUMP JUMPDEST PUSH2 0x98A PUSH1 0x1 DUP3 ADD PUSH2 0x984 PUSH1 0x20 DUP9 ADD PUSH2 0x34A JUMP JUMPDEST SWAP1 PUSH2 0x57E JUMP JUMPDEST PUSH2 0x9A3 PUSH1 0x2 DUP3 ADD PUSH2 0x99D PUSH1 0x40 DUP9 ADD PUSH2 0x34A JUMP JUMPDEST SWAP1 PUSH2 0x57E JUMP JUMPDEST ADD SWAP3 ADD PUSH2 0x58A JUMP JUMPDEST SWAP1 PUSH2 0x940 JUMP JUMPDEST JUMP JUMPDEST SWAP2 SWAP1 PUSH2 0x9C4 JUMPI PUSH2 0x9C2 SWAP2 PUSH2 0x94C JUMP JUMPDEST JUMP JUMPDEST PUSH2 0x2CB JUMP JUMPDEST SWAP1 DUP2 SLOAD SWAP2 PUSH9 0x10000000000000000 DUP4 LT ISZERO PUSH2 0x9F9 JUMPI DUP3 PUSH2 0x9F1 SWAP2 PUSH1 0x1 PUSH2 0x9F7 SWAP6 ADD DUP2 SSTORE PUSH2 0x2A2 JUMP JUMPDEST SWAP1 PUSH2 0x9B3 JUMP JUMPDEST JUMP JUMPDEST PUSH2 0x66 JUMP JUMPDEST PUSH1 0x0 PUSH32 0x50726F706F73616C203100000000000000000000000000000000000000000000 SWAP2 ADD MSTORE JUMP JUMPDEST PUSH2 0xA30 PUSH1 0xA PUSH2 0x1C5 JUMP JUMPDEST SWAP1 PUSH2 0xA3D PUSH1 0x20 DUP4 ADD PUSH2 0x9FE JUMP JUMPDEST JUMP JUMPDEST PUSH2 0xA47 PUSH2 0xA26 JUMP JUMPDEST SWAP1 JUMP JUMPDEST PUSH1 0x0 PUSH32 0x50726F706F73616C203200000000000000000000000000000000000000000000 SWAP2 ADD MSTORE JUMP JUMPDEST PUSH2 0xA7C PUSH1 0xA PUSH2 0x1C5 JUMP JUMPDEST SWAP1 PUSH2 0xA89 PUSH1 0x20 DUP4 ADD PUSH2 0xA4A JUMP JUMPDEST JUMP JUMPDEST PUSH2 0xA93 PUSH2 0xA72 JUMP JUMPDEST SWAP1 JUMP JUMPDEST PUSH1 0x0 PUSH32 0x50726F706F73616C203300000000000000000000000000000000000000000000 SWAP2 ADD MSTORE JUMP JUMPDEST PUSH2 0xAC8 PUSH1 0xA PUSH2 0x1C5 JUMP JUMPDEST SWAP1 PUSH2 0xAD5 PUSH1 0x20 DUP4 ADD PUSH2 0xA96 JUMP JUMPDEST JUMP JUMPDEST PUSH2 0xADF PUSH2 0xABE JUMP JUMPDEST SWAP1 JUMP JUMPDEST PUSH2 0xB59 PUSH1 0x0 PUSH2 0xB4A PUSH2 0xAFC PUSH2 0xAF7 PUSH1 0x0 PUSH2 0x40 JUMP JUMPDEST PUSH2 0x162 JUMP JUMPDEST PUSH2 0xB19 PUSH2 0xB10 PUSH2 0xB0A PUSH2 0x189 JUMP JUMPDEST SWAP5 PUSH2 0x40 JUMP JUMPDEST PUSH1 0x0 DUP6 ADD PUSH2 0x196 JUMP JUMPDEST PUSH2 0xB2D PUSH2 0xB24 PUSH2 0x21D JUMP JUMPDEST PUSH1 0x20 DUP6 ADD PUSH2 0x228 JUMP JUMPDEST PUSH2 0xB41 PUSH2 0xB38 PUSH2 0x26C JUMP JUMPDEST PUSH1 0x40 DUP6 ADD PUSH2 0x228 JUMP JUMPDEST PUSH1 0x60 DUP4 ADD PUSH2 0x277 JUMP JUMPDEST PUSH2 0xB54 PUSH1 0x0 PUSH2 0x27A JUMP JUMPDEST PUSH2 0x9C9 JUMP JUMPDEST PUSH2 0xB74 PUSH2 0xB66 PUSH1 0x0 PUSH2 0x40 JUMP JUMPDEST PUSH2 0xB6E PUSH2 0xA3F JUMP JUMPDEST SWAP1 PUSH2 0xC77 JUMP JUMPDEST PUSH2 0xB8F PUSH2 0xB81 PUSH1 0x0 PUSH2 0x40 JUMP JUMPDEST PUSH2 0xB89 PUSH2 0xA8B JUMP JUMPDEST SWAP1 PUSH2 0xC77 JUMP JUMPDEST PUSH2 0xBAA PUSH2 0xB9C PUSH1 0x0 PUSH2 0x40 JUMP JUMPDEST PUSH2 0xBA4 PUSH2 0xAD7 JUMP JUMPDEST SWAP1 PUSH2 0xC77 JUMP JUMPDEST JUMP JUMPDEST SLOAD SWAP1 JUMP JUMPDEST PUSH1 0x0 MSTORE PUSH1 0x20 PUSH1 0x0 KECCAK256 SWAP1 JUMP JUMPDEST PUSH2 0xBC4 DUP2 PUSH2 0xBAC JUMP JUMPDEST DUP3 LT ISZERO PUSH2 0xBDF JUMPI PUSH2 0xBD6 PUSH1 0x4 SWAP2 PUSH2 0xBB0 JUMP JUMPDEST SWAP2 MUL ADD SWAP1 PUSH1 0x0 SWAP1 JUMP JUMPDEST PUSH2 0x288 JUMP JUMPDEST SWAP1 JUMP JUMPDEST PUSH2 0xBF1 PUSH1 0x60 PUSH2 0xA3 JUMP JUMPDEST SWAP1 JUMP JUMPDEST PUSH1 0x0 MSTORE PUSH1 0x20 PUSH1 0x0 KECCAK256 SWAP1 JUMP JUMPDEST SLOAD SWAP1 JUMP JUMPDEST PUSH2 0xC0C DUP2 PUSH2 0xBFF JUMP JUMPDEST DUP3 LT ISZERO PUSH2 0xC27 JUMPI PUSH2 0xC1E PUSH1 0x3 SWAP2 PUSH2 0xBF4 JUMP JUMPDEST SWAP2 MUL ADD SWAP1 PUSH1 0x0 SWAP1 JUMP JUMPDEST PUSH2 0x288 JUMP JUMPDEST SWAP2 SWAP1 PUSH2 0xC3D JUMPI PUSH2 0xC3B SWAP2 PUSH2 0x88B JUMP JUMPDEST JUMP JUMPDEST PUSH2 0x2CB JUMP JUMPDEST SWAP1 DUP2 SLOAD SWAP2 PUSH9 0x10000000000000000 DUP4 LT ISZERO PUSH2 0xC72 JUMPI DUP3 PUSH2 0xC6A SWAP2 PUSH1 0x1 PUSH2 0xC70 SWAP6 ADD DUP2 SSTORE PUSH2 0xC03 JUMP JUMPDEST SWAP1 PUSH2 0xC2C JUMP JUMPDEST JUMP JUMPDEST PUSH2 0x66 JUMP JUMPDEST SWAP1 PUSH2 0xCE8 SWAP2 PUSH2 0xCE3 PUSH2 0xCDA PUSH2 0xCB0 PUSH1 0x3 PUSH2 0xCA9 PUSH2 0xCA1 DUP3 PUSH2 0xC9A PUSH1 0x0 DUP10 SWAP1 PUSH2 0xBBB JUMP JUMPDEST POP ADD PUSH2 0xBE4 JUMP JUMPDEST SWAP6 PUSH1 0x0 PUSH2 0xBBB JUMP JUMPDEST POP ADD PUSH2 0x594 JUMP JUMPDEST SWAP4 PUSH2 0xCD5 PUSH1 0x0 SWAP2 PUSH2 0xCCC PUSH2 0xCC2 PUSH2 0xBE7 JUMP JUMPDEST SWAP8 PUSH1 0x0 DUP10 ADD PUSH2 0x196 JUMP JUMPDEST PUSH1 0x20 DUP8 ADD PUSH2 0x228 JUMP JUMPDEST PUSH2 0x40 JUMP JUMPDEST PUSH1 0x40 DUP5 ADD PUSH2 0x196 JUMP JUMPDEST PUSH2 0xC42 JUMP JUMPDEST JUMP INVALID PUSH1 0x80 PUSH1 0x40 MSTORE PUSH1 0x4 CALLDATASIZE LT ISZERO PUSH2 0x13 JUMPI JUMPDEST PUSH2 0xC89 JUMP JUMPDEST PUSH2 0x1E PUSH1 0x0 CALLDATALOAD PUSH2 0xAD JUMP JUMPDEST DUP1 PUSH4 0x2D52FA4 EQ PUSH2 0xA8 JUMPI DUP1 PUSH4 0x42545825 EQ PUSH2 0xA3 JUMPI DUP1 PUSH4 0x5E6FEF01 EQ PUSH2 0x9E JUMPI DUP1 PUSH4 0x7FA67B13 EQ PUSH2 0x99 JUMPI DUP1 PUSH4 0x84303277 EQ PUSH2 0x94 JUMPI DUP1 PUSH4 0x9D710777 EQ PUSH2 0x8F JUMPI DUP1 PUSH4 0x9F3A7F52 EQ PUSH2 0x8A JUMPI DUP1 PUSH4 0xAD1539B6 EQ PUSH2 0x85 JUMPI PUSH4 0xB384ABEF SUB PUSH2 0xE JUMPI PUSH2 0xC55 JUMP JUMPDEST PUSH2 0xBEF JUMP JUMPDEST PUSH2 0xB78 JUMP JUMPDEST PUSH2 0x9D7 JUMP JUMPDEST PUSH2 0x83C JUMP JUMPDEST PUSH2 0x6D0 JUMP JUMPDEST PUSH2 0x698 JUMP JUMPDEST PUSH2 0x3C5 JUMP JUMPDEST PUSH2 0x22B JUMP JUMPDEST PUSH1 0xE0 SHR SWAP1 JUMP JUMPDEST PUSH1 0x40 MLOAD SWAP1 JUMP JUMPDEST PUSH1 0x0 DUP1 REVERT JUMPDEST PUSH1 0x0 DUP1 REVERT JUMPDEST PUSH1 0x0 DUP1 REVERT JUMPDEST SWAP1 JUMP JUMPDEST PUSH2 0xD4 DUP2 PUSH2 0xC8 JUMP JUMPDEST SUB PUSH2 0xDB JUMPI JUMP JUMPDEST PUSH1 0x0 DUP1 REVERT JUMPDEST SWAP1 POP CALLDATALOAD SWAP1 PUSH2 0xED DUP3 PUSH2 0xCB JUMP JUMPDEST JUMP JUMPDEST PUSH1 0x0 DUP1 REVERT JUMPDEST PUSH1 0x0 DUP1 REVERT JUMPDEST PUSH1 0x1F DUP1 NOT SWAP2 ADD AND SWAP1 JUMP JUMPDEST PUSH4 0x4E487B71 PUSH1 0xE0 SHL PUSH1 0x0 MSTORE PUSH1 0x41 PUSH1 0x4 MSTORE PUSH1 0x24 PUSH1 0x0 REVERT JUMPDEST SWAP1 PUSH2 0x123 SWAP1 PUSH2 0xF9 JUMP JUMPDEST DUP2 ADD SWAP1 DUP2 LT PUSH8 0xFFFFFFFFFFFFFFFF DUP3 GT OR PUSH2 0x13D JUMPI PUSH1 0x40 MSTORE JUMP JUMPDEST PUSH2 0x103 JUMP JUMPDEST SWAP1 PUSH2 0x155 PUSH2 0x14E PUSH2 0xB3 JUMP JUMPDEST SWAP3 DUP4 PUSH2 0x119 JUMP JUMPDEST JUMP JUMPDEST PUSH8 0xFFFFFFFFFFFFFFFF DUP2 GT PUSH2 0x175 JUMPI PUSH2 0x171 PUSH1 0x20 SWAP2 PUSH2 0xF9 JUMP JUMPDEST ADD SWAP1 JUMP JUMPDEST PUSH2 0x103 JUMP JUMPDEST SWAP1 DUP3 PUSH1 0x0 SWAP4 SWAP3 DUP3 CALLDATACOPY ADD MSTORE JUMP JUMPDEST SWAP1 SWAP3 SWAP2 SWAP3 PUSH2 0x19B PUSH2 0x196 DUP3 PUSH2 0x157 JUMP JUMPDEST PUSH2 0x142 JUMP JUMPDEST SWAP4 DUP2 DUP6 MSTORE PUSH1 0x20 DUP6 ADD SWAP1 DUP3 DUP5 ADD GT PUSH2 0x1B7 JUMPI PUSH2 0x1B5 SWAP3 PUSH2 0x17A JUMP JUMPDEST JUMP JUMPDEST PUSH2 0xF4 JUMP JUMPDEST SWAP1 DUP1 PUSH1 0x1F DUP4 ADD SLT ISZERO PUSH2 0x1DA JUMPI DUP2 PUSH1 0x20 PUSH2 0x1D7 SWAP4 CALLDATALOAD SWAP2 ADD PUSH2 0x186 JUMP JUMPDEST SWAP1 JUMP JUMPDEST PUSH2 0xEF JUMP JUMPDEST SWAP2 SWAP1 SWAP2 PUSH1 0x40 DUP2 DUP5 SUB SLT PUSH2 0x220 JUMPI PUSH2 0x1F9 DUP4 PUSH1 0x0 DUP4 ADD PUSH2 0xE0 JUMP JUMPDEST SWAP3 PUSH1 0x20 DUP3 ADD CALLDATALOAD PUSH8 0xFFFFFFFFFFFFFFFF DUP2 GT PUSH2 0x21B JUMPI PUSH2 0x218 SWAP3 ADD PUSH2 0x1BC JUMP JUMPDEST SWAP1 JUMP JUMPDEST PUSH2 0xC3 JUMP JUMPDEST PUSH2 0xBE JUMP JUMPDEST PUSH1 0x0 ADD SWAP1 JUMP JUMPDEST CALLVALUE PUSH2 0x25A JUMPI PUSH2 0x244 PUSH2 0x23E CALLDATASIZE PUSH1 0x4 PUSH2 0x1DF JUMP JUMPDEST SWAP1 PUSH2 0xFF5 JUMP JUMPDEST PUSH2 0x24C PUSH2 0xB3 JUMP JUMPDEST DUP1 PUSH2 0x256 DUP2 PUSH2 0x225 JUMP JUMPDEST SUB SWAP1 RETURN JUMPDEST PUSH2 0xB9 JUMP JUMPDEST PUSH1 0x1 DUP1 PUSH1 0xA0 SHL SUB AND SWAP1 JUMP JUMPDEST PUSH2 0x273 SWAP1 PUSH2 0x25F JUMP JUMPDEST SWAP1 JUMP JUMPDEST PUSH2 0x27F DUP2 PUSH2 0x26A JUMP JUMPDEST SUB PUSH2 0x286 JUMPI JUMP JUMPDEST PUSH1 0x0 DUP1 REVERT JUMPDEST SWAP1 POP CALLDATALOAD SWAP1 PUSH2 0x298 DUP3 PUSH2 0x276 JUMP JUMPDEST JUMP JUMPDEST SWAP2 SWAP1 PUSH1 0x40 DUP4 DUP3 SUB SLT PUSH2 0x2C3 JUMPI DUP1 PUSH2 0x2B7 PUSH2 0x2C0 SWAP3 PUSH1 0x0 DUP7 ADD PUSH2 0x28B JUMP JUMPDEST SWAP4 PUSH1 0x20 ADD PUSH2 0xE0 JUMP JUMPDEST SWAP1 JUMP JUMPDEST PUSH2 0xBE JUMP JUMPDEST SWAP1 JUMP JUMPDEST PUSH2 0x2DF PUSH2 0x2DA PUSH2 0x2E4 SWAP3 PUSH2 0x25F JUMP JUMPDEST PUSH2 0x2C8 JUMP JUMPDEST PUSH2 0x25F JUMP JUMPDEST SWAP1 JUMP JUMPDEST PUSH2 0x2F0 SWAP1 PUSH2 0x2CB JUMP JUMPDEST SWAP1 JUMP JUMPDEST PUSH2 0x2FC SWAP1 PUSH2 0x2E7 JUMP JUMPDEST SWAP1 JUMP JUMPDEST SWAP1 PUSH2 0x309 SWAP1 PUSH2 0x2F3 JUMP JUMPDEST PUSH1 0x0 MSTORE PUSH1 0x20 MSTORE PUSH1 0x40 PUSH1 0x0 KECCAK256 SWAP1 JUMP JUMPDEST PUSH2 0x32B PUSH2 0x326 PUSH2 0x330 SWAP3 PUSH2 0xC8 JUMP JUMPDEST PUSH2 0x2C8 JUMP JUMPDEST PUSH2 0xC8 JUMP JUMPDEST SWAP1 JUMP JUMPDEST SWAP1 PUSH2 0x33D SWAP1 PUSH2 0x317 JUMP JUMPDEST PUSH1 0x0 MSTORE PUSH1 0x20 MSTORE PUSH1 0x40 PUSH1 0x0 KECCAK256 SWAP1 JUMP JUMPDEST SHR SWAP1 JUMP JUMPDEST PUSH1 0xFF AND SWAP1 JUMP JUMPDEST PUSH2 0x365 SWAP1 PUSH1 0x8 PUSH2 0x36A SWAP4 MUL PUSH2 0x34B JUMP JUMPDEST PUSH2 0x34F JUMP JUMPDEST SWAP1 JUMP JUMPDEST SWAP1 PUSH2 0x378 SWAP2 SLOAD PUSH2 0x355 JUMP JUMPDEST SWAP1 JUMP JUMPDEST PUSH2 0x395 PUSH2 0x39A SWAP3 PUSH2 0x390 PUSH1 0x1 SWAP4 PUSH1 0x0 SWAP5 PUSH2 0x2FF JUMP JUMPDEST PUSH2 0x333 JUMP JUMPDEST PUSH2 0x36D JUMP JUMPDEST SWAP1 JUMP JUMPDEST ISZERO ISZERO SWAP1 JUMP JUMPDEST PUSH2 0x3AB SWAP1 PUSH2 0x39D JUMP JUMPDEST SWAP1 MSTORE JUMP JUMPDEST SWAP2 SWAP1 PUSH2 0x3C3 SWAP1 PUSH1 0x0 PUSH1 0x20 DUP6 ADD SWAP5 ADD SWAP1 PUSH2 0x3A2 JUMP JUMPDEST JUMP JUMPDEST CALLVALUE PUSH2 0x3F6 JUMPI PUSH2 0x3F2 PUSH2 0x3E1 PUSH2 0x3DB CALLDATASIZE PUSH1 0x4 PUSH2 0x29A JUMP JUMPDEST SWAP1 PUSH2 0x37B JUMP JUMPDEST PUSH2 0x3E9 PUSH2 0xB3 JUMP JUMPDEST SWAP2 DUP3 SWAP2 DUP3 PUSH2 0x3AF JUMP JUMPDEST SUB SWAP1 RETURN JUMPDEST PUSH2 0xB9 JUMP JUMPDEST SWAP1 PUSH1 0x20 DUP3 DUP3 SUB SLT PUSH2 0x415 JUMPI PUSH2 0x412 SWAP2 PUSH1 0x0 ADD PUSH2 0xE0 JUMP JUMPDEST SWAP1 JUMP JUMPDEST PUSH2 0xBE JUMP JUMPDEST PUSH4 0x4E487B71 PUSH1 0xE0 SHL PUSH1 0x0 MSTORE PUSH1 0x32 PUSH1 0x4 MSTORE PUSH1 0x24 PUSH1 0x0 REVERT JUMPDEST SLOAD SWAP1 JUMP JUMPDEST PUSH1 0x0 MSTORE PUSH1 0x20 PUSH1 0x0 KECCAK256 SWAP1 JUMP JUMPDEST PUSH2 0x448 DUP2 PUSH2 0x430 JUMP JUMPDEST DUP3 LT ISZERO PUSH2 0x463 JUMPI PUSH2 0x45A PUSH1 0x4 SWAP2 PUSH2 0x434 JUMP JUMPDEST SWAP2 MUL ADD SWAP1 PUSH1 0x0 SWAP1 JUMP JUMPDEST PUSH2 0x41A JUMP JUMPDEST PUSH1 0x0 SHR SWAP1 JUMP JUMPDEST SWAP1 JUMP JUMPDEST PUSH2 0x47D PUSH2 0x482 SWAP2 PUSH2 0x468 JUMP JUMPDEST PUSH2 0x46E JUMP JUMPDEST SWAP1 JUMP JUMPDEST PUSH2 0x48F SWAP1 SLOAD PUSH2 0x471 JUMP JUMPDEST SWAP1 JUMP JUMPDEST PUSH4 0x4E487B71 PUSH1 0xE0 SHL PUSH1 0x0 MSTORE PUSH1 0x22 PUSH1 0x4 MSTORE PUSH1 0x24 PUSH1 0x0 REVERT JUMPDEST SWAP1 PUSH1 0x1 PUSH1 0x2 DUP4 DIV SWAP3 AND DUP1 ISZERO PUSH2 0x4C8 JUMPI JUMPDEST PUSH1 0x20 DUP4 LT EQ PUSH2 0x4C3 JUMPI JUMP JUMPDEST PUSH2 0x492 JUMP JUMPDEST SWAP2 PUSH1 0x7F AND SWAP2 PUSH2 0x4B8 JUMP JUMPDEST PUSH1 0x20 SWAP2 DUP2 MSTORE ADD SWAP1 JUMP JUMPDEST PUSH1 0x0 MSTORE PUSH1 0x20 PUSH1 0x0 KECCAK256 SWAP1 JUMP JUMPDEST SWAP1 PUSH1 0x0 SWAP3 SWAP2 DUP1 SLOAD SWAP1 PUSH2 0x501 PUSH2 0x4FA DUP4 PUSH2 0x4A8 JUMP JUMPDEST DUP1 SWAP5 PUSH2 0x4D2 JUMP JUMPDEST SWAP2 PUSH1 0x1 DUP2 AND SWAP1 DUP2 PUSH1 0x0 EQ PUSH2 0x55A JUMPI POP PUSH1 0x1 EQ PUSH2 0x51D JUMPI JUMPDEST POP POP POP JUMP JUMPDEST PUSH2 0x52A SWAP2 SWAP3 SWAP4 SWAP5 POP PUSH2 0x4DB JUMP JUMPDEST SWAP2 PUSH1 0x0 SWAP3 JUMPDEST DUP2 DUP5 LT PUSH2 0x542 JUMPI POP POP ADD SWAP1 CODESIZE DUP1 DUP1 PUSH2 0x518 JUMP JUMPDEST PUSH1 0x1 DUP2 PUSH1 0x20 SWAP3 SWAP6 SWAP4 SWAP6 SLOAD DUP5 DUP7 ADD MSTORE ADD SWAP2 ADD SWAP3 SWAP1 PUSH2 0x52F JUMP JUMPDEST SWAP3 SWAP5 SWAP6 POP POP POP PUSH1 0xFF NOT AND DUP3 MSTORE ISZERO ISZERO PUSH1 0x20 MUL ADD SWAP1 CODESIZE DUP1 DUP1 PUSH2 0x518 JUMP JUMPDEST SWAP1 PUSH2 0x57F SWAP2 PUSH2 0x4E6 JUMP JUMPDEST SWAP1 JUMP JUMPDEST SWAP1 PUSH2 0x5A2 PUSH2 0x59B SWAP3 PUSH2 0x592 PUSH2 0xB3 JUMP JUMPDEST SWAP4 DUP5 DUP1 SWAP3 PUSH2 0x575 JUMP JUMPDEST SUB DUP4 PUSH2 0x119 JUMP JUMPDEST JUMP JUMPDEST PUSH1 0x0 SWAP1 PUSH2 0x5B0 DUP3 PUSH2 0x430 JUMP JUMPDEST DUP2 LT ISZERO PUSH2 0x5E9 JUMPI PUSH2 0x5C0 SWAP2 PUSH2 0x43F JUMP JUMPDEST POP PUSH2 0x5CD PUSH1 0x0 DUP3 ADD PUSH2 0x485 JUMP JUMPDEST SWAP2 PUSH2 0x5E6 PUSH1 0x2 PUSH2 0x5DF PUSH1 0x1 DUP6 ADD PUSH2 0x582 JUMP JUMPDEST SWAP4 ADD PUSH2 0x582 JUMP JUMPDEST SWAP1 JUMP JUMPDEST PUSH1 0x0 DUP1 REVERT JUMPDEST PUSH2 0x5F7 SWAP1 PUSH2 0xC8 JUMP JUMPDEST SWAP1 MSTORE JUMP JUMPDEST MLOAD SWAP1 JUMP JUMPDEST PUSH1 0x20 SWAP2 DUP2 MSTORE ADD SWAP1 JUMP JUMPDEST PUSH1 0x0 JUMPDEST DUP4 DUP2 LT PUSH2 0x61C JUMPI POP POP SWAP1 PUSH1 0x0 SWAP2 ADD MSTORE JUMP JUMPDEST DUP1 PUSH1 0x20 SWAP2 DUP4 ADD MLOAD DUP2 DUP6 ADD MSTORE ADD PUSH2 0x60B JUMP JUMPDEST PUSH2 0x64C PUSH2 0x655 PUSH1 0x20 SWAP4 PUSH2 0x65A SWAP4 PUSH2 0x643 DUP2 PUSH2 0x5FB JUMP JUMPDEST SWAP4 DUP5 DUP1 SWAP4 PUSH2 0x5FF JUMP JUMPDEST SWAP6 DUP7 SWAP2 ADD PUSH2 0x608 JUMP JUMPDEST PUSH2 0xF9 JUMP JUMPDEST ADD SWAP1 JUMP JUMPDEST SWAP2 PUSH2 0x695 SWAP4 SWAP2 PUSH2 0x687 SWAP2 PUSH2 0x67A PUSH1 0x60 DUP7 ADD SWAP3 PUSH1 0x0 DUP8 ADD SWAP1 PUSH2 0x5EE JUMP JUMPDEST DUP5 DUP3 SUB PUSH1 0x20 DUP7 ADD MSTORE PUSH2 0x62D JUMP JUMPDEST SWAP2 PUSH1 0x40 DUP2 DUP5 SUB SWAP2 ADD MSTORE PUSH2 0x62D JUMP JUMPDEST SWAP1 JUMP JUMPDEST CALLVALUE PUSH2 0x6CB JUMPI PUSH2 0x6C7 PUSH2 0x6B3 PUSH2 0x6AE CALLDATASIZE PUSH1 0x4 PUSH2 0x3FB JUMP JUMPDEST PUSH2 0x5A4 JUMP JUMPDEST PUSH2 0x6BE SWAP4 SWAP2 SWAP4 PUSH2 0xB3 JUMP JUMPDEST SWAP4 DUP5 SWAP4 DUP5 PUSH2 0x65E JUMP JUMPDEST SUB SWAP1 RETURN JUMPDEST PUSH2 0xB9 JUMP JUMPDEST CALLVALUE PUSH2 0x700 JUMPI PUSH2 0x6FC PUSH2 0x6EB PUSH2 0x6E6 CALLDATASIZE PUSH1 0x4 PUSH2 0x3FB JUMP JUMPDEST PUSH2 0x1112 JUMP JUMPDEST PUSH2 0x6F3 PUSH2 0xB3 JUMP JUMPDEST SWAP2 DUP3 SWAP2 DUP3 PUSH2 0x3AF JUMP JUMPDEST SUB SWAP1 RETURN JUMPDEST PUSH2 0xB9 JUMP JUMPDEST PUSH8 0xFFFFFFFFFFFFFFFF DUP2 GT PUSH2 0x71D JUMPI PUSH1 0x20 DUP1 SWAP2 MUL ADD SWAP1 JUMP JUMPDEST PUSH2 0x103 JUMP JUMPDEST PUSH1 0x0 DUP1 REVERT JUMPDEST SWAP3 SWAP2 SWAP1 PUSH2 0x73B PUSH2 0x736 DUP3 PUSH2 0x705 JUMP JUMPDEST PUSH2 0x142 JUMP JUMPDEST SWAP4 DUP2 DUP6 MSTORE PUSH1 0x20 DUP1 DUP7 ADD SWAP3 MUL DUP2 ADD SWAP2 DUP4 DUP4 GT PUSH2 0x792 JUMPI DUP2 SWAP1 JUMPDEST DUP4 DUP3 LT PUSH2 0x761 JUMPI POP POP POP POP POP JUMP JUMPDEST DUP2 CALLDATALOAD PUSH8 0xFFFFFFFFFFFFFFFF DUP2 GT PUSH2 0x78D JUMPI PUSH1 0x20 SWAP2 PUSH2 0x782 DUP8 DUP5 SWAP4 DUP8 ADD PUSH2 0x1BC JUMP JUMPDEST DUP2 MSTORE ADD SWAP2 ADD SWAP1 PUSH2 0x753 JUMP JUMPDEST PUSH2 0xEF JUMP JUMPDEST PUSH2 0x722 JUMP JUMPDEST SWAP1 DUP1 PUSH1 0x1F DUP4 ADD SLT ISZERO PUSH2 0x7B5 JUMPI DUP2 PUSH1 0x20 PUSH2 0x7B2 SWAP4 CALLDATALOAD SWAP2 ADD PUSH2 0x727 JUMP JUMPDEST SWAP1 JUMP JUMPDEST PUSH2 0xEF JUMP JUMPDEST SWAP2 PUSH1 0x60 DUP4 DUP4 SUB SLT PUSH2 0x837 JUMPI PUSH1 0x0 DUP4 ADD CALLDATALOAD PUSH8 0xFFFFFFFFFFFFFFFF DUP2 GT PUSH2 0x832 JUMPI DUP3 PUSH2 0x7E5 SWAP2 DUP6 ADD PUSH2 0x1BC JUMP JUMPDEST SWAP3 PUSH1 0x20 DUP2 ADD CALLDATALOAD PUSH8 0xFFFFFFFFFFFFFFFF DUP2 GT PUSH2 0x82D JUMPI DUP4 PUSH2 0x806 SWAP2 DUP4 ADD PUSH2 0x1BC JUMP JUMPDEST SWAP3 PUSH1 0x40 DUP3 ADD CALLDATALOAD PUSH8 0xFFFFFFFFFFFFFFFF DUP2 GT PUSH2 0x828 JUMPI PUSH2 0x825 SWAP3 ADD PUSH2 0x797 JUMP JUMPDEST SWAP1 JUMP JUMPDEST PUSH2 0xC3 JUMP JUMPDEST PUSH2 0xC3 JUMP JUMPDEST PUSH2 0xC3 JUMP JUMPDEST PUSH2 0xBE JUMP JUMPDEST CALLVALUE PUSH2 0x86B JUMPI PUSH2 0x855 PUSH2 0x84F CALLDATASIZE PUSH1 0x4 PUSH2 0x7BA JUMP JUMPDEST SWAP2 PUSH2 0x16D0 JUMP JUMPDEST PUSH2 0x85D PUSH2 0xB3 JUMP JUMPDEST DUP1 PUSH2 0x867 DUP2 PUSH2 0x225 JUMP JUMPDEST SUB SWAP1 RETURN JUMPDEST PUSH2 0xB9 JUMP JUMPDEST MLOAD SWAP1 JUMP JUMPDEST PUSH1 0x20 SWAP2 DUP2 MSTORE ADD SWAP1 JUMP JUMPDEST PUSH1 0x20 ADD SWAP1 JUMP JUMPDEST PUSH2 0x88C SWAP1 PUSH2 0xC8 JUMP JUMPDEST SWAP1 MSTORE JUMP JUMPDEST PUSH2 0x8AF PUSH2 0x8B8 PUSH1 0x20 SWAP4 PUSH2 0x8BD SWAP4 PUSH2 0x8A6 DUP2 PUSH2 0x5FB JUMP JUMPDEST SWAP4 DUP5 DUP1 SWAP4 PUSH2 0x4D2 JUMP JUMPDEST SWAP6 DUP7 SWAP2 ADD PUSH2 0x608 JUMP JUMPDEST PUSH2 0xF9 JUMP JUMPDEST ADD SWAP1 JUMP JUMPDEST SWAP1 PUSH2 0x8FF SWAP1 PUSH1 0x40 DUP1 PUSH2 0x8F4 PUSH1 0x60 DUP5 ADD PUSH2 0x8E2 PUSH1 0x0 DUP9 ADD MLOAD PUSH1 0x0 DUP8 ADD SWAP1 PUSH2 0x883 JUMP JUMPDEST PUSH1 0x20 DUP8 ADD MLOAD DUP6 DUP3 SUB PUSH1 0x20 DUP8 ADD MSTORE PUSH2 0x890 JUMP JUMPDEST SWAP5 ADD MLOAD SWAP2 ADD SWAP1 PUSH2 0x883 JUMP JUMPDEST SWAP1 JUMP JUMPDEST SWAP1 PUSH2 0x90C SWAP2 PUSH2 0x8C1 JUMP JUMPDEST SWAP1 JUMP JUMPDEST PUSH1 0x20 ADD SWAP1 JUMP JUMPDEST SWAP1 PUSH2 0x929 PUSH2 0x922 DUP4 PUSH2 0x870 JUMP JUMPDEST DUP1 SWAP3 PUSH2 0x874 JUMP JUMPDEST SWAP1 DUP2 PUSH2 0x93A PUSH1 0x20 DUP4 MUL DUP5 ADD SWAP5 PUSH2 0x87D JUMP JUMPDEST SWAP3 PUSH1 0x0 SWAP2 JUMPDEST DUP4 DUP4 LT PUSH2 0x94E JUMPI POP POP POP POP POP SWAP1 JUMP JUMPDEST SWAP1 SWAP2 SWAP3 SWAP4 SWAP5 PUSH1 0x20 PUSH2 0x970 PUSH2 0x96A DUP4 DUP6 PUSH1 0x1 SWAP6 SUB DUP8 MSTORE DUP10 MLOAD PUSH2 0x902 JUMP JUMPDEST SWAP8 PUSH2 0x90F JUMP JUMPDEST SWAP4 ADD SWAP4 ADD SWAP2 SWAP4 SWAP3 SWAP1 PUSH2 0x93F JUMP JUMPDEST SWAP6 SWAP5 SWAP3 SWAP4 PUSH2 0x9BF PUSH2 0x9D5 SWAP6 PUSH2 0x9B1 DUP10 PUSH1 0x80 SWAP7 PUSH2 0x9A4 PUSH2 0x9CD SWAP8 PUSH1 0x0 PUSH1 0xA0 DUP6 ADD SWAP5 ADD SWAP1 PUSH2 0x5EE JUMP JUMPDEST DUP12 DUP3 SUB PUSH1 0x20 DUP14 ADD MSTORE PUSH2 0x62D JUMP JUMPDEST SWAP1 DUP10 DUP3 SUB PUSH1 0x40 DUP12 ADD MSTORE PUSH2 0x62D JUMP JUMPDEST SWAP1 DUP8 DUP3 SUB PUSH1 0x60 DUP10 ADD MSTORE PUSH2 0x915 JUMP JUMPDEST SWAP5 ADD SWAP1 PUSH2 0x3A2 JUMP JUMPDEST JUMP JUMPDEST CALLVALUE PUSH2 0xA0B JUMPI PUSH2 0xA07 PUSH2 0x9F2 PUSH2 0x9ED CALLDATASIZE PUSH1 0x4 PUSH2 0x3FB JUMP JUMPDEST PUSH2 0x18A7 JUMP JUMPDEST SWAP2 PUSH2 0x9FE SWAP6 SWAP4 SWAP6 PUSH2 0xB3 JUMP JUMPDEST SWAP6 DUP7 SWAP6 DUP7 PUSH2 0x97D JUMP JUMPDEST SUB SWAP1 RETURN JUMPDEST PUSH2 0xB9 JUMP JUMPDEST PUSH1 0x0 SWAP2 SUB SLT PUSH2 0xA1B JUMPI JUMP JUMPDEST PUSH2 0xBE JUMP JUMPDEST MLOAD SWAP1 JUMP JUMPDEST PUSH1 0x20 SWAP2 DUP2 MSTORE ADD SWAP1 JUMP JUMPDEST PUSH1 0x20 ADD SWAP1 JUMP JUMPDEST SWAP1 PUSH2 0xA40 DUP2 PUSH1 0x20 SWAP4 PUSH2 0x883 JUMP JUMPDEST ADD SWAP1 JUMP JUMPDEST PUSH1 0x20 ADD SWAP1 JUMP JUMPDEST SWAP1 PUSH2 0xA67 PUSH2 0xA61 PUSH2 0xA5A DUP5 PUSH2 0xA20 JUMP JUMPDEST DUP1 SWAP4 PUSH2 0xA24 JUMP JUMPDEST SWAP3 PUSH2 0xA2D JUMP JUMPDEST SWAP1 PUSH1 0x0 JUMPDEST DUP2 DUP2 LT PUSH2 0xA78 JUMPI POP POP POP SWAP1 JUMP JUMPDEST SWAP1 SWAP2 SWAP3 PUSH2 0xA91 PUSH2 0xA8B PUSH1 0x1 SWAP3 DUP7 MLOAD PUSH2 0xA33 JUMP JUMPDEST SWAP5 PUSH2 0xA44 JUMP JUMPDEST SWAP2 ADD SWAP2 SWAP1 SWAP2 PUSH2 0xA6B JUMP JUMPDEST MLOAD SWAP1 JUMP JUMPDEST PUSH1 0x20 SWAP2 DUP2 MSTORE ADD SWAP1 JUMP JUMPDEST PUSH1 0x20 ADD SWAP1 JUMP JUMPDEST SWAP1 PUSH2 0xAB8 SWAP2 PUSH2 0x890 JUMP JUMPDEST SWAP1 JUMP JUMPDEST PUSH1 0x20 ADD SWAP1 JUMP JUMPDEST SWAP1 PUSH2 0xAD5 PUSH2 0xACE DUP4 PUSH2 0xA9B JUMP JUMPDEST DUP1 SWAP3 PUSH2 0xA9F JUMP JUMPDEST SWAP1 DUP2 PUSH2 0xAE6 PUSH1 0x20 DUP4 MUL DUP5 ADD SWAP5 PUSH2 0xAA8 JUMP JUMPDEST SWAP3 PUSH1 0x0 SWAP2 JUMPDEST DUP4 DUP4 LT PUSH2 0xAFA JUMPI POP POP POP POP POP SWAP1 JUMP JUMPDEST SWAP1 SWAP2 SWAP3 SWAP4 SWAP5 PUSH1 0x20 PUSH2 0xB1C PUSH2 0xB16 DUP4 DUP6 PUSH1 0x1 SWAP6 SUB DUP8 MSTORE DUP10 MLOAD PUSH2 0xAAE JUMP JUMPDEST SWAP8 PUSH2 0xABB JUMP JUMPDEST SWAP4 ADD SWAP4 ADD SWAP2 SWAP4 SWAP3 SWAP1 PUSH2 0xAEB JUMP JUMPDEST SWAP3 PUSH2 0xB59 PUSH2 0xB75 SWAP6 SWAP4 PUSH2 0xB4B PUSH2 0xB67 SWAP5 PUSH1 0x80 DUP9 ADD SWAP1 DUP9 DUP3 SUB PUSH1 0x0 DUP11 ADD MSTORE PUSH2 0xA4A JUMP JUMPDEST SWAP1 DUP7 DUP3 SUB PUSH1 0x20 DUP9 ADD MSTORE PUSH2 0xAC1 JUMP JUMPDEST SWAP1 DUP5 DUP3 SUB PUSH1 0x40 DUP7 ADD MSTORE PUSH2 0xAC1 JUMP JUMPDEST SWAP2 PUSH1 0x60 DUP2 DUP5 SUB SWAP2 ADD MSTORE PUSH2 0xA4A JUMP JUMPDEST SWAP1 JUMP JUMPDEST CALLVALUE PUSH2 0xBAC JUMPI PUSH2 0xB88 CALLDATASIZE PUSH1 0x4 PUSH2 0xA10 JUMP JUMPDEST PUSH2 0xBA8 PUSH2 0xB93 PUSH2 0x1A51 JUMP JUMPDEST SWAP1 PUSH2 0xB9F SWAP5 SWAP3 SWAP5 PUSH2 0xB3 JUMP JUMPDEST SWAP5 DUP6 SWAP5 DUP6 PUSH2 0xB29 JUMP JUMPDEST SUB SWAP1 RETURN JUMPDEST PUSH2 0xB9 JUMP JUMPDEST SWAP2 PUSH2 0xBDE SWAP1 PUSH2 0xBD0 PUSH2 0xBEC SWAP6 SWAP4 PUSH1 0x60 DUP7 ADD SWAP1 DUP7 DUP3 SUB PUSH1 0x0 DUP9 ADD MSTORE PUSH2 0xA4A JUMP JUMPDEST SWAP1 DUP5 DUP3 SUB PUSH1 0x20 DUP7 ADD MSTORE PUSH2 0xAC1 JUMP JUMPDEST SWAP2 PUSH1 0x40 DUP2 DUP5 SUB SWAP2 ADD MSTORE PUSH2 0xA4A JUMP JUMPDEST SWAP1 JUMP JUMPDEST CALLVALUE PUSH2 0xC22 JUMPI PUSH2 0xC1E PUSH2 0xC0A PUSH2 0xC05 CALLDATASIZE PUSH1 0x4 PUSH2 0x3FB JUMP JUMPDEST PUSH2 0x1BA0 JUMP JUMPDEST PUSH2 0xC15 SWAP4 SWAP2 SWAP4 PUSH2 0xB3 JUMP JUMPDEST SWAP4 DUP5 SWAP4 DUP5 PUSH2 0xBB1 JUMP JUMPDEST SUB SWAP1 RETURN JUMPDEST PUSH2 0xB9 JUMP JUMPDEST SWAP2 SWAP1 PUSH1 0x40 DUP4 DUP3 SUB SLT PUSH2 0xC50 JUMPI DUP1 PUSH2 0xC44 PUSH2 0xC4D SWAP3 PUSH1 0x0 DUP7 ADD PUSH2 0xE0 JUMP JUMPDEST SWAP4 PUSH1 0x20 ADD PUSH2 0xE0 JUMP JUMPDEST SWAP1 JUMP JUMPDEST PUSH2 0xBE JUMP JUMPDEST CALLVALUE PUSH2 0xC84 JUMPI PUSH2 0xC6E PUSH2 0xC68 CALLDATASIZE PUSH1 0x4 PUSH2 0xC27 JUMP JUMPDEST SWAP1 PUSH2 0x1EE9 JUMP JUMPDEST PUSH2 0xC76 PUSH2 0xB3 JUMP JUMPDEST DUP1 PUSH2 0xC80 DUP2 PUSH2 0x225 JUMP JUMPDEST SUB SWAP1 RETURN JUMPDEST PUSH2 0xB9 JUMP JUMPDEST PUSH1 0x0 DUP1 REVERT JUMPDEST SWAP1 JUMP JUMPDEST SLOAD SWAP1 JUMP JUMPDEST PUSH2 0xC9F PUSH1 0x60 PUSH2 0x142 JUMP JUMPDEST SWAP1 JUMP JUMPDEST SWAP1 PUSH2 0xCAC SWAP1 PUSH2 0xC8 JUMP JUMPDEST SWAP1 MSTORE JUMP JUMPDEST MSTORE JUMP JUMPDEST SWAP1 JUMP JUMPDEST PUSH2 0xCCA PUSH2 0xCC5 PUSH2 0xCCF SWAP3 PUSH2 0xCB3 JUMP JUMPDEST PUSH2 0x2C8 JUMP JUMPDEST PUSH2 0xC8 JUMP JUMPDEST SWAP1 JUMP JUMPDEST PUSH1 0x0 MSTORE PUSH1 0x20 PUSH1 0x0 KECCAK256 SWAP1 JUMP JUMPDEST SLOAD SWAP1 JUMP JUMPDEST PUSH2 0xCEA DUP2 PUSH2 0xCDD JUMP JUMPDEST DUP3 LT ISZERO PUSH2 0xD05 JUMPI PUSH2 0xCFC PUSH1 0x3 SWAP2 PUSH2 0xCD2 JUMP JUMPDEST SWAP2 MUL ADD SWAP1 PUSH1 0x0 SWAP1 JUMP JUMPDEST PUSH2 0x41A JUMP JUMPDEST PUSH4 0x4E487B71 PUSH1 0xE0 SHL PUSH1 0x0 MSTORE PUSH1 0x0 PUSH1 0x4 MSTORE PUSH1 0x24 PUSH1 0x0 REVERT JUMPDEST PUSH2 0xD2A SWAP1 MLOAD PUSH2 0xC8 JUMP JUMPDEST SWAP1 JUMP JUMPDEST PUSH1 0x0 SHL SWAP1 JUMP JUMPDEST SWAP1 PUSH2 0xD40 PUSH1 0x0 NOT SWAP2 PUSH2 0xD2D JUMP JUMPDEST SWAP2 DUP2 NOT AND SWAP2 AND OR SWAP1 JUMP JUMPDEST SWAP1 JUMP JUMPDEST SWAP1 PUSH2 0xD62 PUSH2 0xD5D PUSH2 0xD69 SWAP3 PUSH2 0x317 JUMP JUMPDEST PUSH2 0xD4A JUMP JUMPDEST DUP3 SLOAD PUSH2 0xD33 JUMP JUMPDEST SWAP1 SSTORE JUMP JUMPDEST MLOAD SWAP1 JUMP JUMPDEST PUSH1 0x1F PUSH1 0x20 SWAP2 ADD DIV SWAP1 JUMP JUMPDEST SHL SWAP1 JUMP JUMPDEST SWAP2 SWAP1 PUSH1 0x8 PUSH2 0xD9B SWAP2 MUL SWAP2 PUSH2 0xD95 PUSH1 0x0 NOT DUP5 PUSH2 0xD7B JUMP JUMPDEST SWAP3 PUSH2 0xD7B JUMP JUMPDEST SWAP2 DUP2 NOT AND SWAP2 AND OR SWAP1 JUMP JUMPDEST SWAP2 SWAP1 PUSH2 0xDBB PUSH2 0xDB6 PUSH2 0xDC3 SWAP4 PUSH2 0x317 JUMP JUMPDEST PUSH2 0xD4A JUMP JUMPDEST SWAP1 DUP4 SLOAD PUSH2 0xD7F JUMP JUMPDEST SWAP1 SSTORE JUMP JUMPDEST PUSH1 0x0 SWAP1 JUMP JUMPDEST PUSH2 0xDDE SWAP2 PUSH2 0xDD8 PUSH2 0xDC7 JUMP JUMPDEST SWAP2 PUSH2 0xDA5 JUMP JUMPDEST JUMP JUMPDEST JUMPDEST DUP2 DUP2 LT PUSH2 0xDEC JUMPI POP POP JUMP JUMPDEST DUP1 PUSH2 0xDFA PUSH1 0x0 PUSH1 0x1 SWAP4 PUSH2 0xDCC JUMP JUMPDEST ADD PUSH2 0xDE1 JUMP JUMPDEST SWAP2 SWAP1 PUSH1 0x1F DUP2 GT PUSH2 0xE10 JUMPI JUMPDEST POP POP POP JUMP JUMPDEST PUSH2 0xE1C PUSH2 0xE41 SWAP4 PUSH2 0x4DB JUMP JUMPDEST SWAP1 PUSH1 0x20 PUSH2 0xE28 DUP5 PUSH2 0xD71 JUMP JUMPDEST DUP4 ADD SWAP4 LT PUSH2 0xE49 JUMPI JUMPDEST PUSH2 0xE3A SWAP1 PUSH2 0xD71 JUMP JUMPDEST ADD SWAP1 PUSH2 0xDE0 JUMP JUMPDEST CODESIZE DUP1 DUP1 PUSH2 0xE0B JUMP JUMPDEST SWAP2 POP PUSH2 0xE3A DUP2 SWAP3 SWAP1 POP PUSH2 0xE31 JUMP JUMPDEST SWAP1 PUSH2 0xE68 SWAP1 PUSH1 0x0 NOT SWAP1 PUSH1 0x8 MUL PUSH2 0x34B JUMP JUMPDEST NOT AND SWAP1 JUMP JUMPDEST DUP2 PUSH2 0xE77 SWAP2 PUSH2 0xE57 JUMP JUMPDEST SWAP1 PUSH1 0x2 MUL OR SWAP1 JUMP JUMPDEST SWAP1 PUSH2 0xE89 DUP2 PUSH2 0x5FB JUMP JUMPDEST SWAP1 PUSH8 0xFFFFFFFFFFFFFFFF DUP3 GT PUSH2 0xF4B JUMPI PUSH2 0xEAD DUP3 PUSH2 0xEA7 DUP6 SLOAD PUSH2 0x4A8 JUMP JUMPDEST DUP6 PUSH2 0xE00 JUMP JUMPDEST PUSH1 0x20 SWAP1 PUSH1 0x1F DUP4 GT PUSH1 0x1 EQ PUSH2 0xEE2 JUMPI SWAP2 DUP1 SWAP2 PUSH2 0xED1 SWAP4 PUSH1 0x0 SWAP3 PUSH2 0xED6 JUMPI JUMPDEST POP POP PUSH2 0xE6D JUMP JUMPDEST SWAP1 SSTORE JUMPDEST JUMP JUMPDEST SWAP1 SWAP2 POP ADD MLOAD CODESIZE DUP1 PUSH2 0xECA JUMP JUMPDEST PUSH1 0x1F NOT DUP4 AND SWAP2 PUSH2 0xEF1 DUP6 PUSH2 0x4DB JUMP JUMPDEST SWAP3 PUSH1 0x0 JUMPDEST DUP2 DUP2 LT PUSH2 0xF33 JUMPI POP SWAP2 PUSH1 0x2 SWAP4 SWAP2 DUP6 PUSH1 0x1 SWAP7 SWAP5 LT PUSH2 0xF19 JUMPI JUMPDEST POP POP POP MUL ADD SWAP1 SSTORE PUSH2 0xED4 JUMP JUMPDEST PUSH2 0xF29 SWAP2 ADD MLOAD PUSH1 0x1F DUP5 AND SWAP1 PUSH2 0xE57 JUMP JUMPDEST SWAP1 SSTORE CODESIZE DUP1 DUP1 PUSH2 0xF0D JUMP JUMPDEST SWAP2 SWAP4 PUSH1 0x20 PUSH1 0x1 DUP2 SWAP3 DUP8 DUP8 ADD MLOAD DUP2 SSTORE ADD SWAP6 ADD SWAP3 ADD PUSH2 0xEF5 JUMP JUMPDEST PUSH2 0x103 JUMP JUMPDEST SWAP1 PUSH2 0xF5A SWAP2 PUSH2 0xE7F JUMP JUMPDEST JUMP JUMPDEST SWAP1 PUSH2 0xFA2 PUSH1 0x40 PUSH1 0x2 PUSH2 0xFA8 SWAP5 PUSH2 0xF81 PUSH1 0x0 DUP3 ADD PUSH2 0xF7B PUSH1 0x0 DUP9 ADD PUSH2 0xD20 JUMP JUMPDEST SWAP1 PUSH2 0xD4D JUMP JUMPDEST PUSH2 0xF9A PUSH1 0x1 DUP3 ADD PUSH2 0xF94 PUSH1 0x20 DUP9 ADD PUSH2 0xD6D JUMP JUMPDEST SWAP1 PUSH2 0xF50 JUMP JUMPDEST ADD SWAP3 ADD PUSH2 0xD20 JUMP JUMPDEST SWAP1 PUSH2 0xD4D JUMP JUMPDEST JUMP JUMPDEST SWAP2 SWAP1 PUSH2 0xFBB JUMPI PUSH2 0xFB9 SWAP2 PUSH2 0xF5C JUMP JUMPDEST JUMP JUMPDEST PUSH2 0xD0A JUMP JUMPDEST SWAP1 DUP2 SLOAD SWAP2 PUSH9 0x10000000000000000 DUP4 LT ISZERO PUSH2 0xFF0 JUMPI DUP3 PUSH2 0xFE8 SWAP2 PUSH1 0x1 PUSH2 0xFEE SWAP6 ADD DUP2 SSTORE PUSH2 0xCE1 JUMP JUMPDEST SWAP1 PUSH2 0xFAA JUMP JUMPDEST JUMP JUMPDEST PUSH2 0x103 JUMP JUMPDEST SWAP1 PUSH2 0x1066 SWAP2 PUSH2 0x1061 PUSH2 0x1058 PUSH2 0x102E PUSH1 0x3 PUSH2 0x1027 PUSH2 0x101F DUP3 PUSH2 0x1018 PUSH1 0x0 DUP10 SWAP1 PUSH2 0x43F JUMP JUMPDEST POP ADD PUSH2 0xC8E JUMP JUMPDEST SWAP6 PUSH1 0x0 PUSH2 0x43F JUMP JUMPDEST POP ADD PUSH2 0xC91 JUMP JUMPDEST SWAP4 PUSH2 0x1053 PUSH1 0x0 SWAP2 PUSH2 0x104A PUSH2 0x1040 PUSH2 0xC95 JUMP JUMPDEST SWAP8 PUSH1 0x0 DUP10 ADD PUSH2 0xCA2 JUMP JUMPDEST PUSH1 0x20 DUP8 ADD PUSH2 0xCB0 JUMP JUMPDEST PUSH2 0xCB6 JUMP JUMPDEST PUSH1 0x40 DUP5 ADD PUSH2 0xCA2 JUMP JUMPDEST PUSH2 0xFC0 JUMP JUMPDEST JUMP JUMPDEST PUSH1 0x0 SWAP1 JUMP JUMPDEST PUSH1 0x0 PUSH32 0x496E76616C696420656C656374696F6E20494400000000000000000000000000 SWAP2 ADD MSTORE JUMP JUMPDEST PUSH2 0x10A2 PUSH1 0x13 PUSH1 0x20 SWAP3 PUSH2 0x5FF JUMP JUMPDEST PUSH2 0x10AB DUP2 PUSH2 0x106D JUMP JUMPDEST ADD SWAP1 JUMP JUMPDEST PUSH2 0x10C5 SWAP1 PUSH1 0x20 DUP2 ADD SWAP1 PUSH1 0x0 DUP2 DUP4 SUB SWAP2 ADD MSTORE PUSH2 0x1095 JUMP JUMPDEST SWAP1 JUMP JUMPDEST ISZERO PUSH2 0x10CF JUMPI JUMP JUMPDEST PUSH2 0x10D7 PUSH2 0xB3 JUMP JUMPDEST PUSH3 0x461BCD PUSH1 0xE5 SHL DUP2 MSTORE DUP1 PUSH2 0x10ED PUSH1 0x4 DUP3 ADD PUSH2 0x10AF JUMP JUMPDEST SUB SWAP1 REVERT JUMPDEST PUSH2 0x10FD PUSH2 0x1102 SWAP2 PUSH2 0x468 JUMP JUMPDEST PUSH2 0x34F JUMP JUMPDEST SWAP1 JUMP JUMPDEST PUSH2 0x110F SWAP1 SLOAD PUSH2 0x10F1 JUMP JUMPDEST SWAP1 JUMP JUMPDEST PUSH2 0x1158 PUSH2 0x115D SWAP2 PUSH2 0x1121 PUSH2 0x1068 JUMP JUMPDEST POP PUSH2 0x1147 DUP2 PUSH2 0x1141 PUSH2 0x113B PUSH2 0x1136 PUSH1 0x0 PUSH2 0x430 JUMP JUMPDEST PUSH2 0xC8 JUMP JUMPDEST SWAP2 PUSH2 0xC8 JUMP JUMPDEST LT PUSH2 0x10C8 JUMP JUMPDEST PUSH2 0x1153 PUSH1 0x1 CALLER SWAP1 PUSH2 0x2FF JUMP JUMPDEST PUSH2 0x333 JUMP JUMPDEST PUSH2 0x1105 JUMP JUMPDEST PUSH2 0x1166 JUMPI PUSH1 0x0 SWAP1 JUMP JUMPDEST PUSH1 0x1 SWAP1 JUMP JUMPDEST PUSH8 0xFFFFFFFFFFFFFFFF DUP2 GT PUSH2 0x1183 JUMPI PUSH1 0x20 DUP1 SWAP2 MUL ADD SWAP1 JUMP JUMPDEST PUSH2 0x103 JUMP JUMPDEST SWAP1 PUSH2 0x119A PUSH2 0x1195 DUP4 PUSH2 0x116B JUMP JUMPDEST PUSH2 0x142 JUMP JUMPDEST SWAP2 DUP3 MSTORE JUMP JUMPDEST PUSH2 0x11A9 PUSH1 0x60 PUSH2 0x142 JUMP JUMPDEST SWAP1 JUMP JUMPDEST PUSH1 0x0 SWAP1 JUMP JUMPDEST PUSH1 0x60 SWAP1 JUMP JUMPDEST PUSH2 0x11BE PUSH2 0x119F JUMP JUMPDEST SWAP1 PUSH1 0x20 DUP1 DUP1 DUP5 PUSH2 0x11CC PUSH2 0x11AC JUMP JUMPDEST DUP2 MSTORE ADD PUSH2 0x11D7 PUSH2 0x11B1 JUMP JUMPDEST DUP2 MSTORE ADD PUSH2 0x11E2 PUSH2 0x11AC JUMP JUMPDEST DUP2 MSTORE POP POP JUMP JUMPDEST PUSH2 0x11F0 PUSH2 0x11B6 JUMP JUMPDEST SWAP1 JUMP JUMPDEST PUSH1 0x0 JUMPDEST DUP3 DUP2 LT PUSH2 0x1202 JUMPI POP POP POP JUMP JUMPDEST PUSH1 0x20 SWAP1 PUSH2 0x120D PUSH2 0x11E8 JUMP JUMPDEST DUP2 DUP5 ADD MSTORE ADD PUSH2 0x11F6 JUMP JUMPDEST SWAP1 PUSH2 0x123C PUSH2 0x1224 DUP4 PUSH2 0x1188 JUMP JUMPDEST SWAP3 PUSH1 0x20 DUP1 PUSH2 0x1232 DUP7 SWAP4 PUSH2 0x116B JUMP JUMPDEST SWAP3 ADD SWAP2 SUB SWAP1 PUSH2 0x11F3 JUMP JUMPDEST JUMP JUMPDEST PUSH2 0x1248 PUSH1 0x80 PUSH2 0x142 JUMP JUMPDEST SWAP1 JUMP JUMPDEST MSTORE JUMP JUMPDEST SWAP1 JUMP JUMPDEST PUSH1 0x0 MSTORE PUSH1 0x20 PUSH1 0x0 KECCAK256 SWAP1 JUMP JUMPDEST SLOAD SWAP1 JUMP JUMPDEST PUSH2 0x1269 DUP2 PUSH2 0x125C JUMP JUMPDEST DUP3 LT ISZERO PUSH2 0x1284 JUMPI PUSH2 0x127B PUSH1 0x4 SWAP2 PUSH2 0x1251 JUMP JUMPDEST SWAP2 MUL ADD SWAP1 PUSH1 0x0 SWAP1 JUMP JUMPDEST PUSH2 0x41A JUMP JUMPDEST MLOAD SWAP1 JUMP JUMPDEST PUSH4 0x4E487B71 PUSH1 0xE0 SHL PUSH1 0x0 MSTORE PUSH1 0x11 PUSH1 0x4 MSTORE PUSH1 0x24 PUSH1 0x0 REVERT JUMPDEST PUSH2 0x12B2 PUSH2 0x12B8 SWAP2 SWAP4 SWAP3 SWAP4 PUSH2 0xC8 JUMP JUMPDEST SWAP3 PUSH2 0xC8 JUMP JUMPDEST SWAP2 PUSH2 0x12C4 DUP4 DUP3 MUL PUSH2 0xC8 JUMP JUMPDEST SWAP3 DUP2 DUP5 DIV EQ SWAP1 ISZERO OR ISZERO PUSH2 0x12D3 JUMPI JUMP JUMPDEST PUSH2 0x128D JUMP JUMPDEST PUSH2 0x12E3 SWAP1 PUSH1 0x3 PUSH2 0x12A3 JUMP JUMPDEST SWAP1 JUMP JUMPDEST PUSH1 0x0 MSTORE PUSH1 0x20 PUSH1 0x0 KECCAK256 SWAP1 JUMP JUMPDEST SWAP1 PUSH2 0x1305 SWAP1 PUSH1 0x0 NOT SWAP1 PUSH1 0x20 SUB PUSH1 0x8 MUL PUSH2 0x34B JUMP JUMPDEST DUP2 SLOAD AND SWAP1 SSTORE JUMP JUMPDEST SWAP1 PUSH1 0x0 SWAP2 PUSH2 0x1324 PUSH2 0x131C DUP3 PUSH2 0x4DB JUMP JUMPDEST SWAP3 DUP4 SLOAD PUSH2 0xE6D JUMP JUMPDEST SWAP1 SSTORE SSTORE JUMP JUMPDEST SWAP2 SWAP3 SWAP1 PUSH1 0x20 DUP3 LT PUSH1 0x0 EQ PUSH2 0x1383 JUMPI PUSH1 0x1F DUP5 GT PUSH1 0x1 EQ PUSH2 0x1353 JUMPI PUSH2 0x134D SWAP3 SWAP4 POP PUSH2 0xE6D JUMP JUMPDEST SWAP1 SSTORE JUMPDEST JUMPDEST JUMP JUMPDEST POP SWAP1 PUSH2 0x1379 PUSH2 0x137E SWAP4 PUSH1 0x1 PUSH2 0x1370 PUSH2 0x136A DUP6 PUSH2 0x4DB JUMP JUMPDEST SWAP3 PUSH2 0xD71 JUMP JUMPDEST DUP3 ADD SWAP2 ADD PUSH2 0xDE0 JUMP JUMPDEST PUSH2 0x130C JUMP JUMPDEST PUSH2 0x1350 JUMP JUMPDEST POP PUSH2 0x13BA DUP3 SWAP4 PUSH2 0x1394 PUSH1 0x1 SWAP5 PUSH2 0x4DB JUMP JUMPDEST PUSH2 0x13B3 PUSH2 0x13A0 DUP6 PUSH2 0xD71 JUMP JUMPDEST DUP3 ADD SWAP3 PUSH1 0x1F DUP7 AND DUP1 PUSH2 0x13C5 JUMPI JUMPDEST POP PUSH2 0xD71 JUMP JUMPDEST ADD SWAP1 PUSH2 0xDE0 JUMP JUMPDEST PUSH1 0x2 MUL OR SWAP1 SSTORE PUSH2 0x1351 JUMP JUMPDEST PUSH2 0x13D1 SWAP1 DUP9 DUP7 SUB PUSH2 0x12F1 JUMP JUMPDEST CODESIZE PUSH2 0x13AD JUMP JUMPDEST SWAP3 SWAP1 SWAP2 PUSH9 0x10000000000000000 DUP3 GT PUSH2 0x1439 JUMPI PUSH1 0x20 GT PUSH1 0x0 EQ PUSH2 0x142A JUMPI PUSH1 0x20 DUP2 LT PUSH1 0x0 EQ PUSH2 0x140E JUMPI PUSH2 0x1408 SWAP2 PUSH2 0xE6D JUMP JUMPDEST SWAP1 SSTORE JUMPDEST JUMPDEST JUMP JUMPDEST PUSH1 0x1 SWAP2 PUSH1 0xFF NOT AND PUSH2 0x141E DUP5 PUSH2 0x4DB JUMP JUMPDEST SSTORE PUSH1 0x2 MUL ADD SWAP1 SSTORE PUSH2 0x140B JUMP JUMPDEST PUSH1 0x1 SWAP2 POP PUSH1 0x2 MUL ADD SWAP1 SSTORE PUSH2 0x140C JUMP JUMPDEST PUSH2 0x103 JUMP JUMPDEST SWAP1 DUP2 SLOAD PUSH2 0x144A DUP2 PUSH2 0x4A8 JUMP JUMPDEST SWAP1 DUP2 DUP4 GT PUSH2 0x1473 JUMPI JUMPDEST DUP2 DUP4 LT PUSH2 0x1461 JUMPI JUMPDEST POP POP POP POP JUMP JUMPDEST PUSH2 0x146A SWAP4 PUSH2 0x1329 JUMP JUMPDEST CODESIZE DUP1 DUP1 DUP1 PUSH2 0x145B JUMP JUMPDEST PUSH2 0x147F DUP4 DUP4 DUP4 DUP8 PUSH2 0x13D7 JUMP JUMPDEST PUSH2 0x1453 JUMP JUMPDEST PUSH1 0x0 PUSH2 0x148F SWAP2 PUSH2 0x143E JUMP JUMPDEST JUMP JUMPDEST SWAP1 PUSH1 0x0 SUB PUSH2 0x14A4 JUMPI PUSH2 0x14A2 SWAP1 PUSH2 0x1484 JUMP JUMPDEST JUMP JUMPDEST PUSH2 0xD0A JUMP JUMPDEST PUSH1 0x0 PUSH1 0x2 PUSH2 0x14D0 SWAP3 PUSH2 0x14BD DUP4 DUP1 DUP4 ADD PUSH2 0xDCC JUMP JUMPDEST PUSH2 0x14CA DUP4 PUSH1 0x1 DUP4 ADD PUSH2 0x1491 JUMP JUMPDEST ADD PUSH2 0xDCC JUMP JUMPDEST JUMP JUMPDEST SWAP1 PUSH1 0x0 SUB PUSH2 0x14E5 JUMPI PUSH2 0x14E3 SWAP1 PUSH2 0x14A9 JUMP JUMPDEST JUMP JUMPDEST PUSH2 0xD0A JUMP JUMPDEST JUMPDEST DUP2 DUP2 LT PUSH2 0x14F6 JUMPI POP POP JUMP JUMPDEST DUP1 PUSH2 0x1504 PUSH1 0x0 PUSH1 0x3 SWAP4 PUSH2 0x14D2 JUMP JUMPDEST ADD PUSH2 0x14EB JUMP JUMPDEST SWAP1 SWAP2 DUP3 DUP2 LT PUSH2 0x1519 JUMPI JUMPDEST POP POP POP JUMP JUMPDEST PUSH2 0x1537 PUSH2 0x1531 PUSH2 0x152B PUSH2 0x1542 SWAP6 PUSH2 0x12D8 JUMP JUMPDEST SWAP3 PUSH2 0x12D8 JUMP JUMPDEST SWAP3 PUSH2 0x12E6 JUMP JUMPDEST SWAP2 DUP3 ADD SWAP2 ADD SWAP1 PUSH2 0x14EA JUMP JUMPDEST CODESIZE DUP1 DUP1 PUSH2 0x1514 JUMP JUMPDEST SWAP1 PUSH9 0x10000000000000000 DUP2 GT PUSH2 0x1573 JUMPI DUP2 PUSH2 0x1568 PUSH2 0x1571 SWAP4 PUSH2 0xC91 JUMP JUMPDEST SWAP1 DUP3 DUP2 SSTORE PUSH2 0x150A JUMP JUMPDEST JUMP JUMPDEST PUSH2 0x103 JUMP JUMPDEST MLOAD SWAP1 JUMP JUMPDEST SWAP1 PUSH2 0x1586 SWAP2 PUSH2 0xF5C JUMP JUMPDEST JUMP JUMPDEST PUSH2 0x15AD PUSH2 0x15A7 PUSH2 0x1597 DUP5 PUSH2 0x870 JUMP JUMPDEST SWAP4 PUSH2 0x15A2 DUP6 DUP6 PUSH2 0x154A JUMP JUMPDEST PUSH2 0x87D JUMP JUMPDEST SWAP2 PUSH2 0x12E6 JUMP JUMPDEST PUSH1 0x0 SWAP2 JUMPDEST DUP4 DUP4 LT PUSH2 0x15BE JUMPI POP POP POP POP JUMP JUMPDEST PUSH1 0x3 PUSH1 0x20 DUP3 PUSH2 0x15D7 PUSH2 0x15D1 PUSH1 0x1 SWAP6 PUSH2 0x1578 JUMP JUMPDEST DUP7 PUSH2 0x157C JUMP JUMPDEST ADD SWAP3 ADD SWAP3 ADD SWAP2 SWAP1 PUSH2 0x15B1 JUMP JUMPDEST SWAP1 PUSH2 0x15ED SWAP2 PUSH2 0x1588 JUMP JUMPDEST JUMP JUMPDEST SWAP1 PUSH2 0x164E PUSH1 0x60 PUSH1 0x3 PUSH2 0x1654 SWAP5 PUSH2 0x1614 PUSH1 0x0 DUP3 ADD PUSH2 0x160E PUSH1 0x0 DUP9 ADD PUSH2 0xD20 JUMP JUMPDEST SWAP1 PUSH2 0xD4D JUMP JUMPDEST PUSH2 0x162D PUSH1 0x1 DUP3 ADD PUSH2 0x1627 PUSH1 0x20 DUP9 ADD PUSH2 0xD6D JUMP JUMPDEST SWAP1 PUSH2 0xF50 JUMP JUMPDEST PUSH2 0x1646 PUSH1 0x2 DUP3 ADD PUSH2 0x1640 PUSH1 0x40 DUP9 ADD PUSH2 0xD6D JUMP JUMPDEST SWAP1 PUSH2 0xF50 JUMP JUMPDEST ADD SWAP3 ADD PUSH2 0x1289 JUMP JUMPDEST SWAP1 PUSH2 0x15E3 JUMP JUMPDEST JUMP JUMPDEST SWAP2 SWAP1 PUSH2 0x1667 JUMPI PUSH2 0x1665 SWAP2 PUSH2 0x15EF JUMP JUMPDEST JUMP JUMPDEST PUSH2 0xD0A JUMP JUMPDEST SWAP1 DUP2 SLOAD SWAP2 PUSH9 0x10000000000000000 DUP4 LT ISZERO PUSH2 0x169C JUMPI DUP3 PUSH2 0x1694 SWAP2 PUSH1 0x1 PUSH2 0x169A SWAP6 ADD DUP2 SSTORE PUSH2 0x1260 JUMP JUMPDEST SWAP1 PUSH2 0x1656 JUMP JUMPDEST JUMP JUMPDEST PUSH2 0x103 JUMP JUMPDEST PUSH1 0x1 PUSH2 0x16AD SWAP2 ADD PUSH2 0xC8 JUMP JUMPDEST SWAP1 JUMP JUMPDEST SWAP1 PUSH2 0x16BA DUP3 PUSH2 0xA9B JUMP JUMPDEST DUP2 LT ISZERO PUSH2 0x16CB JUMPI PUSH1 0x20 DUP1 SWAP2 MUL ADD ADD SWAP1 JUMP JUMPDEST PUSH2 0x41A JUMP JUMPDEST SWAP3 SWAP2 SWAP1 SWAP2 PUSH2 0x16DE PUSH1 0x0 PUSH2 0x430 JUMP JUMPDEST SWAP4 PUSH2 0x1740 DUP6 PUSH2 0x1731 DUP4 PUSH2 0x1728 DUP9 PUSH2 0x171F PUSH2 0x1700 PUSH2 0x16FB PUSH1 0x0 PUSH2 0xCB6 JUMP JUMPDEST PUSH2 0x1217 JUMP JUMPDEST SWAP4 PUSH2 0x1716 PUSH2 0x170C PUSH2 0x123E JUMP JUMPDEST SWAP8 PUSH1 0x0 DUP10 ADD PUSH2 0xCA2 JUMP JUMPDEST PUSH1 0x20 DUP8 ADD PUSH2 0xCB0 JUMP JUMPDEST PUSH1 0x40 DUP6 ADD PUSH2 0xCB0 JUMP JUMPDEST PUSH1 0x60 DUP4 ADD PUSH2 0x124B JUMP JUMPDEST PUSH2 0x173B PUSH1 0x0 PUSH2 0x124E JUMP JUMPDEST PUSH2 0x166C JUMP JUMPDEST PUSH2 0x174A PUSH1 0x0 PUSH2 0xCB6 JUMP JUMPDEST JUMPDEST DUP1 PUSH2 0x1766 PUSH2 0x1760 PUSH2 0x175B DUP8 PUSH2 0xA9B JUMP JUMPDEST PUSH2 0xC8 JUMP JUMPDEST SWAP2 PUSH2 0xC8 JUMP JUMPDEST LT ISZERO PUSH2 0x1790 JUMPI PUSH2 0x178B SWAP1 PUSH2 0x1786 DUP8 PUSH2 0x177F DUP8 DUP5 SWAP1 PUSH2 0x16B0 JUMP JUMPDEST MLOAD SWAP1 PUSH2 0xFF5 JUMP JUMPDEST PUSH2 0x16A1 JUMP JUMPDEST PUSH2 0x174B JUMP JUMPDEST POP SWAP3 SWAP2 POP SWAP3 SWAP2 SWAP1 SWAP2 PUSH2 0x17CE PUSH32 0xEAF9C9DABC2A68B717E3095068D04A84ECACE13A1AB18B4499A913C3AB3D2869 SWAP4 PUSH2 0x17C5 PUSH2 0xB3 JUMP JUMPDEST SWAP4 DUP5 SWAP4 DUP5 PUSH2 0x65E JUMP JUMPDEST SUB SWAP1 LOG1 JUMP JUMPDEST PUSH1 0x60 SWAP1 JUMP JUMPDEST PUSH1 0x60 SWAP1 JUMP JUMPDEST SWAP1 JUMP JUMPDEST PUSH2 0x17E9 SWAP1 PUSH2 0x582 JUMP JUMPDEST SWAP1 JUMP JUMPDEST SWAP1 PUSH2 0x183D PUSH2 0x1834 PUSH1 0x2 PUSH2 0x17FD PUSH2 0x119F JUMP JUMPDEST SWAP5 PUSH2 0x1816 PUSH2 0x180D PUSH1 0x0 DUP4 ADD PUSH2 0x485 JUMP JUMPDEST PUSH1 0x0 DUP9 ADD PUSH2 0xCA2 JUMP JUMPDEST PUSH2 0x182E PUSH2 0x1825 PUSH1 0x1 DUP4 ADD PUSH2 0x582 JUMP JUMPDEST PUSH1 0x20 DUP9 ADD PUSH2 0xCB0 JUMP JUMPDEST ADD PUSH2 0x485 JUMP JUMPDEST PUSH1 0x40 DUP5 ADD PUSH2 0xCA2 JUMP JUMPDEST JUMP JUMPDEST PUSH2 0x1848 SWAP1 PUSH2 0x17EC JUMP JUMPDEST SWAP1 JUMP JUMPDEST SWAP1 PUSH2 0x1855 DUP3 PUSH2 0xC91 JUMP JUMPDEST PUSH2 0x185E DUP2 PUSH2 0x1188 JUMP JUMPDEST SWAP3 PUSH2 0x186C PUSH1 0x20 DUP6 ADD SWAP2 PUSH2 0x12E6 JUMP JUMPDEST PUSH1 0x0 SWAP2 JUMPDEST DUP4 DUP4 LT PUSH2 0x187D JUMPI POP POP POP POP JUMP JUMPDEST PUSH1 0x3 PUSH1 0x20 PUSH1 0x1 SWAP3 PUSH2 0x188D DUP6 PUSH2 0x183F JUMP JUMPDEST DUP2 MSTORE ADD SWAP3 ADD SWAP3 ADD SWAP2 SWAP1 PUSH2 0x1870 JUMP JUMPDEST PUSH2 0x18A4 SWAP1 PUSH2 0x184B JUMP JUMPDEST SWAP1 JUMP JUMPDEST PUSH2 0x18AF PUSH2 0xDC7 JUMP JUMPDEST POP PUSH2 0x18B8 PUSH2 0x17D3 JUMP JUMPDEST POP PUSH2 0x18C1 PUSH2 0x17D3 JUMP JUMPDEST POP PUSH2 0x18CA PUSH2 0x17D8 JUMP JUMPDEST POP PUSH2 0x18D3 PUSH2 0x1068 JUMP JUMPDEST POP PUSH2 0x18F9 DUP2 PUSH2 0x18F3 PUSH2 0x18ED PUSH2 0x18E8 PUSH1 0x0 PUSH2 0x430 JUMP JUMPDEST PUSH2 0xC8 JUMP JUMPDEST SWAP2 PUSH2 0xC8 JUMP JUMPDEST LT PUSH2 0x10C8 JUMP JUMPDEST PUSH2 0x190E PUSH2 0x1908 PUSH1 0x0 DUP4 SWAP1 PUSH2 0x43F JUMP JUMPDEST POP PUSH2 0x17DD JUMP JUMPDEST SWAP1 PUSH2 0x191B PUSH1 0x0 DUP4 ADD PUSH2 0x485 JUMP JUMPDEST PUSH1 0x1 DUP4 ADD SWAP4 PUSH2 0x1961 PUSH2 0x195B PUSH2 0x1955 PUSH2 0x194E PUSH2 0x1949 PUSH1 0x3 PUSH1 0x2 DUP11 ADD SWAP10 ADD SWAP8 PUSH2 0x1944 PUSH1 0x1 CALLER SWAP1 PUSH2 0x2FF JUMP JUMPDEST PUSH2 0x333 JUMP JUMPDEST PUSH2 0x1105 JUMP JUMPDEST SWAP5 SWAP8 PUSH2 0x17E0 JUMP JUMPDEST SWAP6 PUSH2 0x17E0 JUMP JUMPDEST SWAP4 PUSH2 0x189B JUMP JUMPDEST SWAP2 SWAP1 JUMP JUMPDEST PUSH1 0x60 SWAP1 JUMP JUMPDEST PUSH1 0x60 SWAP1 JUMP JUMPDEST PUSH8 0xFFFFFFFFFFFFFFFF DUP2 GT PUSH2 0x1987 JUMPI PUSH1 0x20 DUP1 SWAP2 MUL ADD SWAP1 JUMP JUMPDEST PUSH2 0x103 JUMP JUMPDEST SWAP1 PUSH2 0x199E PUSH2 0x1999 DUP4 PUSH2 0x196F JUMP JUMPDEST PUSH2 0x142 JUMP JUMPDEST SWAP2 DUP3 MSTORE JUMP JUMPDEST CALLDATASIZE SWAP1 CALLDATACOPY JUMP JUMPDEST SWAP1 PUSH2 0x19CD PUSH2 0x19B5 DUP4 PUSH2 0x198C JUMP JUMPDEST SWAP3 PUSH1 0x20 DUP1 PUSH2 0x19C3 DUP7 SWAP4 PUSH2 0x196F JUMP JUMPDEST SWAP3 ADD SWAP2 SUB SWAP1 PUSH2 0x19A3 JUMP JUMPDEST JUMP JUMPDEST SWAP1 PUSH2 0x19E1 PUSH2 0x19DC DUP4 PUSH2 0x705 JUMP JUMPDEST PUSH2 0x142 JUMP JUMPDEST SWAP2 DUP3 MSTORE JUMP JUMPDEST PUSH1 0x0 JUMPDEST DUP3 DUP2 LT PUSH2 0x19F5 JUMPI POP POP POP JUMP JUMPDEST PUSH1 0x20 SWAP1 PUSH2 0x1A00 PUSH2 0x11B1 JUMP JUMPDEST DUP2 DUP5 ADD MSTORE ADD PUSH2 0x19E9 JUMP JUMPDEST SWAP1 PUSH2 0x1A2F PUSH2 0x1A17 DUP4 PUSH2 0x19CF JUMP JUMPDEST SWAP3 PUSH1 0x20 DUP1 PUSH2 0x1A25 DUP7 SWAP4 PUSH2 0x705 JUMP JUMPDEST SWAP3 ADD SWAP2 SUB SWAP1 PUSH2 0x19E6 JUMP JUMPDEST JUMP JUMPDEST SWAP1 PUSH2 0x1A3B DUP3 PUSH2 0xA20 JUMP JUMPDEST DUP2 LT ISZERO PUSH2 0x1A4C JUMPI PUSH1 0x20 DUP1 SWAP2 MUL ADD ADD SWAP1 JUMP JUMPDEST PUSH2 0x41A JUMP JUMPDEST PUSH2 0x1A59 PUSH2 0x1965 JUMP JUMPDEST POP PUSH2 0x1A62 PUSH2 0x196A JUMP JUMPDEST POP PUSH2 0x1A6B PUSH2 0x196A JUMP JUMPDEST POP PUSH2 0x1A74 PUSH2 0x1965 JUMP JUMPDEST POP PUSH2 0x1A7F PUSH1 0x0 PUSH2 0x430 JUMP JUMPDEST PUSH2 0x1A88 DUP2 PUSH2 0x19A8 JUMP JUMPDEST SWAP2 PUSH2 0x1A92 DUP3 PUSH2 0x1A0A JUMP JUMPDEST PUSH2 0x1A9B DUP4 PUSH2 0x1A0A JUMP JUMPDEST SWAP4 PUSH2 0x1AA5 DUP5 PUSH2 0x19A8 JUMP JUMPDEST SWAP3 PUSH2 0x1AB0 PUSH1 0x0 PUSH2 0xCB6 JUMP JUMPDEST JUMPDEST DUP1 PUSH2 0x1AC4 PUSH2 0x1ABE DUP9 PUSH2 0xC8 JUMP JUMPDEST SWAP2 PUSH2 0xC8 JUMP JUMPDEST LT ISZERO PUSH2 0x1B91 JUMPI PUSH2 0x1B8C SWAP1 PUSH2 0x1AFA PUSH2 0x1AE8 PUSH1 0x0 PUSH2 0x1AE1 DUP2 DUP6 SWAP1 PUSH2 0x43F JUMP JUMPDEST POP ADD PUSH2 0x485 JUMP JUMPDEST PUSH2 0x1AF5 DUP7 SWAP2 DUP5 SWAP1 SWAP3 PUSH2 0x1A31 JUMP JUMPDEST PUSH2 0xCA2 JUMP JUMPDEST PUSH2 0x1B28 PUSH1 0x1 PUSH2 0x1B0B PUSH1 0x0 DUP5 SWAP1 PUSH2 0x43F JUMP JUMPDEST POP ADD DUP7 PUSH2 0x1B18 DUP5 SWAP3 PUSH2 0x17E0 JUMP JUMPDEST PUSH2 0x1B22 DUP4 DUP4 PUSH2 0x16B0 JUMP JUMPDEST MSTORE PUSH2 0x16B0 JUMP JUMPDEST MLOAD POP PUSH2 0x1B58 PUSH1 0x2 PUSH2 0x1B3B PUSH1 0x0 DUP5 SWAP1 PUSH2 0x43F JUMP JUMPDEST POP ADD DUP10 PUSH2 0x1B48 DUP5 SWAP3 PUSH2 0x17E0 JUMP JUMPDEST PUSH2 0x1B52 DUP4 DUP4 PUSH2 0x16B0 JUMP JUMPDEST MSTORE PUSH2 0x16B0 JUMP JUMPDEST MLOAD POP PUSH2 0x1B87 PUSH2 0x1B75 PUSH1 0x3 PUSH2 0x1B6E PUSH1 0x0 DUP6 SWAP1 PUSH2 0x43F JUMP JUMPDEST POP ADD PUSH2 0xC91 JUMP JUMPDEST PUSH2 0x1B82 DUP9 SWAP2 DUP5 SWAP1 SWAP3 PUSH2 0x1A31 JUMP JUMPDEST PUSH2 0xCA2 JUMP JUMPDEST PUSH2 0x16A1 JUMP JUMPDEST PUSH2 0x1AB1 JUMP JUMPDEST POP SWAP2 SWAP3 SWAP4 POP SWAP2 SWAP4 SWAP3 SWAP2 SWAP4 SWAP3 SWAP2 SWAP1 JUMP JUMPDEST PUSH1 0x3 PUSH2 0x1BF0 PUSH2 0x1BF7 SWAP3 PUSH2 0x1BB1 PUSH2 0x1965 JUMP JUMPDEST POP PUSH2 0x1BBA PUSH2 0x196A JUMP JUMPDEST POP PUSH2 0x1BC3 PUSH2 0x1965 JUMP JUMPDEST POP PUSH2 0x1BE9 DUP2 PUSH2 0x1BE3 PUSH2 0x1BDD PUSH2 0x1BD8 PUSH1 0x0 PUSH2 0x430 JUMP JUMPDEST PUSH2 0xC8 JUMP JUMPDEST SWAP2 PUSH2 0xC8 JUMP JUMPDEST LT PUSH2 0x10C8 JUMP JUMPDEST PUSH1 0x0 PUSH2 0x43F JUMP JUMPDEST POP ADD PUSH2 0xC8E JUMP JUMPDEST PUSH2 0x1C00 DUP2 PUSH2 0xCDD JUMP JUMPDEST SWAP1 PUSH2 0x1C0A DUP3 PUSH2 0x19A8 JUMP JUMPDEST PUSH2 0x1C13 DUP4 PUSH2 0x1A0A JUMP JUMPDEST SWAP1 PUSH2 0x1C1D DUP5 PUSH2 0x19A8 JUMP JUMPDEST SWAP5 PUSH2 0x1C28 PUSH1 0x0 PUSH2 0xCB6 JUMP JUMPDEST JUMPDEST DUP1 PUSH2 0x1C3C PUSH2 0x1C36 DUP9 PUSH2 0xC8 JUMP JUMPDEST SWAP2 PUSH2 0xC8 JUMP JUMPDEST LT ISZERO PUSH2 0x1CD7 JUMPI PUSH2 0x1CD2 SWAP1 PUSH2 0x1C72 PUSH2 0x1C60 PUSH1 0x0 PUSH2 0x1C59 DUP10 DUP6 SWAP1 PUSH2 0xCE1 JUMP JUMPDEST POP ADD PUSH2 0x485 JUMP JUMPDEST PUSH2 0x1C6D DUP7 SWAP2 DUP5 SWAP1 SWAP3 PUSH2 0x1A31 JUMP JUMPDEST PUSH2 0xCA2 JUMP JUMPDEST PUSH2 0x1C9F PUSH1 0x1 PUSH2 0x1C82 DUP9 DUP5 SWAP1 PUSH2 0xCE1 JUMP JUMPDEST POP ADD DUP7 PUSH2 0x1C8F DUP5 SWAP3 PUSH2 0x17E0 JUMP JUMPDEST PUSH2 0x1C99 DUP4 DUP4 PUSH2 0x16B0 JUMP JUMPDEST MSTORE PUSH2 0x16B0 JUMP JUMPDEST MLOAD POP PUSH2 0x1CCD PUSH2 0x1CBB PUSH1 0x2 PUSH2 0x1CB4 DUP10 DUP6 SWAP1 PUSH2 0xCE1 JUMP JUMPDEST POP ADD PUSH2 0x485 JUMP JUMPDEST PUSH2 0x1CC8 DUP11 SWAP2 DUP5 SWAP1 SWAP3 PUSH2 0x1A31 JUMP JUMPDEST PUSH2 0xCA2 JUMP JUMPDEST PUSH2 0x16A1 JUMP JUMPDEST PUSH2 0x1C29 JUMP JUMPDEST POP SWAP3 POP SWAP1 SWAP3 POP SWAP2 SWAP3 SWAP2 SWAP3 SWAP2 SWAP1 JUMP JUMPDEST PUSH1 0x0 PUSH32 0x496E76616C69642070726F706F73616C20494400000000000000000000000000 SWAP2 ADD MSTORE JUMP JUMPDEST PUSH2 0x1D1A PUSH1 0x13 PUSH1 0x20 SWAP3 PUSH2 0x5FF JUMP JUMPDEST PUSH2 0x1D23 DUP2 PUSH2 0x1CE5 JUMP JUMPDEST ADD SWAP1 JUMP JUMPDEST PUSH2 0x1D3D SWAP1 PUSH1 0x20 DUP2 ADD SWAP1 PUSH1 0x0 DUP2 DUP4 SUB SWAP2 ADD MSTORE PUSH2 0x1D0D JUMP JUMPDEST SWAP1 JUMP JUMPDEST ISZERO PUSH2 0x1D47 JUMPI JUMP JUMPDEST PUSH2 0x1D4F PUSH2 0xB3 JUMP JUMPDEST PUSH3 0x461BCD PUSH1 0xE5 SHL DUP2 MSTORE DUP1 PUSH2 0x1D65 PUSH1 0x4 DUP3 ADD PUSH2 0x1D27 JUMP JUMPDEST SUB SWAP1 REVERT JUMPDEST PUSH1 0x20 PUSH32 0x6C656374696F6E00000000000000000000000000000000000000000000000000 SWAP2 PUSH32 0x596F75206861766520616C726561647920766F74656420696E20746869732065 PUSH1 0x0 DUP3 ADD MSTORE ADD MSTORE JUMP JUMPDEST PUSH2 0x1DC4 PUSH1 0x27 PUSH1 0x40 SWAP3 PUSH2 0x5FF JUMP JUMPDEST PUSH2 0x1DCD DUP2 PUSH2 0x1D69 JUMP JUMPDEST ADD SWAP1 JUMP JUMPDEST PUSH2 0x1DE7 SWAP1 PUSH1 0x20 DUP2 ADD SWAP1 PUSH1 0x0 DUP2 DUP4 SUB SWAP2 ADD MSTORE PUSH2 0x1DB7 JUMP JUMPDEST SWAP1 JUMP JUMPDEST ISZERO PUSH2 0x1DF1 JUMPI JUMP JUMPDEST PUSH2 0x1DF9 PUSH2 0xB3 JUMP JUMPDEST PUSH3 0x461BCD PUSH1 0xE5 SHL DUP2 MSTORE DUP1 PUSH2 0x1E0F PUSH1 0x4 DUP3 ADD PUSH2 0x1DD1 JUMP JUMPDEST SUB SWAP1 REVERT JUMPDEST SWAP1 JUMP JUMPDEST PUSH2 0x1E2A PUSH2 0x1E25 PUSH2 0x1E2F SWAP3 PUSH2 0x1E13 JUMP JUMPDEST PUSH2 0x2C8 JUMP JUMPDEST PUSH2 0xC8 JUMP JUMPDEST SWAP1 JUMP JUMPDEST PUSH2 0x1E3B DUP2 PUSH2 0xC91 JUMP JUMPDEST DUP3 LT ISZERO PUSH2 0x1E56 JUMPI PUSH2 0x1E4D PUSH1 0x3 SWAP2 PUSH2 0x12E6 JUMP JUMPDEST SWAP2 MUL ADD SWAP1 PUSH1 0x0 SWAP1 JUMP JUMPDEST PUSH2 0x41A JUMP JUMPDEST PUSH2 0x1E6A PUSH2 0x1E70 SWAP2 SWAP4 SWAP3 SWAP4 PUSH2 0xC8 JUMP JUMPDEST SWAP3 PUSH2 0xC8 JUMP JUMPDEST DUP3 ADD DUP1 SWAP3 GT PUSH2 0x1E7B JUMPI JUMP JUMPDEST PUSH2 0x128D JUMP JUMPDEST SWAP1 PUSH2 0x1E8C PUSH1 0xFF SWAP2 PUSH2 0xD2D JUMP JUMPDEST SWAP2 DUP2 NOT AND SWAP2 AND OR SWAP1 JUMP JUMPDEST PUSH2 0x1E9F SWAP1 PUSH2 0x39D JUMP JUMPDEST SWAP1 JUMP JUMPDEST SWAP1 JUMP JUMPDEST SWAP1 PUSH2 0x1EBA PUSH2 0x1EB5 PUSH2 0x1EC1 SWAP3 PUSH2 0x1E96 JUMP JUMPDEST PUSH2 0x1EA2 JUMP JUMPDEST DUP3 SLOAD PUSH2 0x1E80 JUMP JUMPDEST SWAP1 SSTORE JUMP JUMPDEST SWAP2 PUSH1 0x20 PUSH2 0x1EE7 SWAP3 SWAP5 SWAP4 PUSH2 0x1EE0 PUSH1 0x40 DUP3 ADD SWAP7 PUSH1 0x0 DUP4 ADD SWAP1 PUSH2 0x5EE JUMP JUMPDEST ADD SWAP1 PUSH2 0x5EE JUMP JUMPDEST JUMP JUMPDEST PUSH2 0x1F0E DUP2 PUSH2 0x1F08 PUSH2 0x1F02 PUSH2 0x1EFD PUSH1 0x0 PUSH2 0x430 JUMP JUMPDEST PUSH2 0xC8 JUMP JUMPDEST SWAP2 PUSH2 0xC8 JUMP JUMPDEST LT PUSH2 0x10C8 JUMP JUMPDEST PUSH2 0x1F41 DUP3 PUSH2 0x1F3B PUSH2 0x1F35 PUSH2 0x1F30 PUSH1 0x3 PUSH2 0x1F29 PUSH1 0x0 DUP9 SWAP1 PUSH2 0x43F JUMP JUMPDEST POP ADD PUSH2 0xC91 JUMP JUMPDEST PUSH2 0xC8 JUMP JUMPDEST SWAP2 PUSH2 0xC8 JUMP JUMPDEST LT PUSH2 0x1D40 JUMP JUMPDEST PUSH2 0x1F70 PUSH2 0x1F6B PUSH2 0x1F65 PUSH2 0x1F60 PUSH2 0x1F59 PUSH1 0x1 CALLER SWAP1 PUSH2 0x2FF JUMP JUMPDEST DUP6 SWAP1 PUSH2 0x333 JUMP JUMPDEST PUSH2 0x1105 JUMP JUMPDEST ISZERO PUSH2 0x39D JUMP JUMPDEST PUSH2 0x1DEA JUMP JUMPDEST PUSH2 0x1FB3 PUSH2 0x1F7D PUSH1 0x1 PUSH2 0x1E16 JUMP JUMPDEST PUSH2 0x1FAD PUSH1 0x2 PUSH2 0x1F9C PUSH1 0x3 PUSH2 0x1F93 PUSH1 0x0 DUP9 SWAP1 PUSH2 0x43F JUMP JUMPDEST POP ADD DUP8 SWAP1 PUSH2 0x1E32 JUMP JUMPDEST POP ADD SWAP2 PUSH2 0x1FA8 DUP4 PUSH2 0x485 JUMP JUMPDEST PUSH2 0x1E5B JUMP JUMPDEST SWAP1 PUSH2 0xD4D JUMP JUMPDEST PUSH2 0x1FD3 PUSH1 0x1 PUSH2 0x1FCE PUSH2 0x1FC7 PUSH1 0x1 CALLER SWAP1 PUSH2 0x2FF JUMP JUMPDEST DUP5 SWAP1 PUSH2 0x333 JUMP JUMPDEST PUSH2 0x1EA5 JUMP JUMPDEST CALLER SWAP1 SWAP2 PUSH2 0x2000 PUSH32 0xB4CFECF70861B7B150D8337780D34FB4CBC2114B5FB1FE51A5C5FCA1849F7274 SWAP3 PUSH2 0x2F3 JUMP JUMPDEST SWAP3 PUSH2 0x2015 PUSH2 0x200C PUSH2 0xB3 JUMP JUMPDEST SWAP3 DUP4 SWAP3 DUP4 PUSH2 0x1EC5 JUMP JUMPDEST SUB SWAP1 LOG2 JUMP INVALID LOG2 PUSH5 0x6970667358 0x22 SLT KECCAK256 0x24 0xD0 BALANCE 0xC2 ISZERO ORIGIN CALL 0xC8 0x22 0xF 0xD DUP14 0xEF 0xB6 0x2B 0xAA GT 0xED PUSH27 0xC6FA32B6FF0CF48F7BAA71728564736F6C634300081C0033000000 "},"methodIdentifiers":{"createElection(string,string,string[])":"84303277","createProposal(uint256,string)":"02d52fa4","elections(uint256)":"5e6fef01","getElection(uint256)":"9d710777","getElections()":"9f3a7f52","getProposalsByElectionId(uint256)":"ad1539b6","hasAlreadyVoted(uint256)":"7fa67b13","hasVoted(address,uint256)":"42545825","vote(uint256,uint256)":"b384abef"}}}}}