{"contracts/voting.sol":{"Voting":{"abi":[{"inputs":[],"stateMutability":"nonpayable","type":"constructor"},{"anonymous":false,"inputs":[{"indexed":false,"internalType":"uint256","name":"id","type":"uint256"},{"indexed":false,"internalType":"string","name":"name","type":"string"},{"indexed":false,"internalType":"string","name":"description","type":"string"}],"name":"ElectionCreated","type":"event"},{"anonymous":false,"inputs":[{"indexed":true,"internalType":"address","name":"voter","type":"address"},{"indexed":false,"internalType":"uint256","name":"electionId","type":"uint256"},{"indexed":false,"internalType":"uint256","name":"proposalId","type":"uint256"}],"name":"VoteCast","type":"event"},{"inputs":[{"internalType":"string","name":"name","type":"string"},{"internalType":"string","name":"description","type":"string"},{"internalType":"string[]","name":"proposalNames","type":"string[]"}],"name":"createElection","outputs":[],"stateMutability":"nonpayable","type":"function"},{"inputs":[{"internalType":"uint256","name":"electionId","type":"uint256"},{"internalType":"string","name":"name","type":"string"}],"name":"createProposal","outputs":[],"stateMutability":"nonpayable","type":"function"},{"inputs":[{"internalType":"uint256","name":"","type":"uint256"}],"name":"elections","outputs":[{"internalType":"uint256","name":"id","type":"uint256"},{"internalType":"string","name":"name","type":"string"},{"internalType":"string","name":"description","type":"string"}],"stateMutability":"view","type":"function"},{"inputs":[{"internalType":"uint256","name":"electionId","type":"uint256"}],"name":"getElection","outputs":[{"internalType":"uint256","name":"id","type":"uint256"},{"internalType":"string","name":"name","type":"string"},{"internalType":"string","name":"description","type":"string"},{"internalType":"uint256","name":"proposalCount","type":"uint256"}],"stateMutability":"view","type":"function"},{"inputs":[],"name":"getElections","outputs":[{"internalType":"uint256[]","name":"ids","type":"uint256[]"},{"internalType":"string[]","name":"names","type":"string[]"},{"internalType":"string[]","name":"descriptions","type":"string[]"},{"internalType":"uint256[]","name":"proposalCounts","type":"uint256[]"}],"stateMutability":"view","type":"function"},{"inputs":[{"internalType":"uint256","name":"electionId","type":"uint256"}],"name":"getProposalsByElectionId","outputs":[{"internalType":"uint256[]","name":"ids","type":"uint256[]"},{"internalType":"string[]","name":"names","type":"string[]"},{"internalType":"uint256[]","name":"votecounts","type":"uint256[]"}],"stateMutability":"view","type":"function"},{"inputs":[{"internalType":"address","name":"","type":"address"},{"internalType":"uint256","name":"","type":"uint256"}],"name":"hasVoted","outputs":[{"internalType":"bool","name":"","type":"bool"}],"stateMutability":"view","type":"function"},{"inputs":[{"internalType":"uint256","name":"electionId","type":"uint256"},{"internalType":"uint256","name":"proposalId","type":"uint256"}],"name":"vote","outputs":[],"stateMutability":"nonpayable","type":"function"}],"evm":{"bytecode":{"linkReferences":{},"object":"60806040523461002757610011610ae2565b61001961002c565b611ded610ceb8239611ded90f35b610032565b60405190565b600080fd5b90565b90565b90565b61005461004f61005992610037565b61003d565b61003a565b90565b601f801991011690565b634e487b7160e01b600052604160045260246000fd5b906100869061005c565b810190811060018060401b0382111761009e57604052565b610066565b906100b66100af61002c565b928361007c565b565b60018060401b0381116100ce5760208091020190565b610066565b906100e56100e0836100b8565b6100a3565b918252565b6100f460606100a3565b90565b600090565b606090565b6101096100ea565b9060208080846101176100f7565b8152016101226100fc565b81520161012d6100f7565b81525050565b61013b610101565b90565b60005b82811061014d57505050565b602090610158610133565b8184015201610141565b9061018761016f836100d3565b9260208061017d86936100b8565b920191039061013e565b565b61019360806100a3565b90565b906101a09061003a565b9052565b60018060401b0381116101c0576101bc60209161005c565b0190565b610066565b906101d76101d2836101a4565b6100a3565b918252565b60007f456c656374696f6e203100000000000000000000000000000000000000000000910152565b61020e600a6101c5565b9061021b602083016101dc565b565b610225610204565b90565b52565b60007f466972737420656c656374696f6e000000000000000000000000000000000000910152565b61025d600e6101c5565b9061026a6020830161022b565b565b610274610253565b90565b52565b90565b600052602060002090565b634e487b7160e01b600052603260045260246000fd5b5490565b6102ab8161029e565b8210156102c6576102bd60049161027d565b91020190600090565b610288565b634e487b7160e01b600052600060045260246000fd5b6102eb905161003a565b90565b60001b90565b90610301600019916102ee565b9181191691161790565b61031f61031a6103249261003a565b61003d565b61003a565b90565b90565b9061033f61033a6103469261030b565b610327565b82546102f4565b9055565b5190565b5190565b634e487b7160e01b600052602260045260246000fd5b9060016002830492168015610388575b602083101461038357565b610352565b91607f1691610378565b600052602060002090565b601f602091010490565b1b90565b919060086103c79102916103c1600019846103a7565b926103a7565b9181191691161790565b91906103e76103e26103ef9361030b565b610327565b9083546103ab565b9055565b600090565b61040a916104046103f3565b916103d1565b565b5b818110610418575050565b8061042660006001936103f8565b0161040d565b9190601f811161043c575b505050565b61044861046d93610392565b9060206104548461039d565b83019310610475575b6104669061039d565b019061040c565b388080610437565b91506104668192905061045d565b1c90565b906104989060001990600802610483565b191690565b816104a791610487565b906002021790565b906104b98161034e565b9060018060401b038211610579576104db826104d58554610368565b8561042c565b602090601f8311600114610510579180916104ff93600092610504575b505061049d565b90555b565b909150015138806104f8565b601f1983169161051f85610392565b9260005b81811061056157509160029391856001969410610547575b50505002019055610502565b610557910151601f841690610487565b905538808061053b565b91936020600181928787015181550195019201610523565b610066565b90610588916104af565b565b5190565b60200190565b5490565b634e487b7160e01b600052601160045260246000fd5b6105bd6105c39193929361003a565b9261003a565b916105cf83820261003a565b9281840414901517156105de57565b610598565b6105ee9060036105ae565b90565b600052602060002090565b906106109060001990602003600802610483565b8154169055565b9060009161062f61062782610392565b92835461049d565b905555565b9192906020821060001461068e57601f841160011461065e5761065892935061049d565b90555b5b565b509061068461068993600161067b61067585610392565b9261039d565b8201910161040c565b610617565b61065b565b506106c5829361069f600194610392565b6106be6106ab8561039d565b820192601f8616806106d0575b5061039d565b019061040c565b60020217905561065c565b6106dc908886036105fc565b386106b8565b929091680100000000000000008211610744576020116000146107355760208110600014610719576107139161049d565b90555b5b565b60019160ff191661072984610392565b55600202019055610716565b60019150600202019055610717565b610066565b90815461075581610368565b9081831161077e575b81831061076c575b50505050565b61077593610634565b38808080610766565b61078a838383876106e2565b61075e565b600061079a91610749565b565b906000036107af576107ad9061078f565b565b6102cb565b600060026107db926107c8838083016103f8565b6107d5836001830161079c565b016103f8565b565b906000036107f0576107ee906107b4565b565b6102cb565b5b818110610801575050565b8061080f60006003936107dd565b016107f6565b9091828110610824575b505050565b61084261083c61083661084d956105e3565b926105e3565b926105f1565b9182019101906107f5565b38808061081f565b9068010000000000000000811161087e578161087361087c93610594565b90828155610815565b565b610066565b5190565b5190565b906108d1604060026108d7946108b0600082016108aa600088016102e1565b9061032a565b6108c9600182016108c36020880161034a565b9061057e565b0192016102e1565b9061032a565b565b906108e39161088b565b565b61090a6109046108f484610883565b936108ff8585610855565b61058e565b916105f1565b6000915b83831061091b5750505050565b600360208261093461092e600195610887565b866108d9565b0192019201919061090e565b9061094a916108e5565b565b906109ab606060036109b1946109716000820161096b600088016102e1565b9061032a565b61098a600182016109846020880161034a565b9061057e565b6109a36002820161099d6040880161034a565b9061057e565b01920161058a565b90610940565b565b91906109c4576109c29161094c565b565b6102cb565b90815491680100000000000000008310156109f957826109f19160016109f7950181556102a2565b906109b3565b565b610066565b60007f50726f706f73616c203100000000000000000000000000000000000000000000910152565b610a30600a6101c5565b90610a3d602083016109fe565b565b610a47610a26565b90565b60007f50726f706f73616c203200000000000000000000000000000000000000000000910152565b610a7c600a6101c5565b90610a8960208301610a4a565b565b610a93610a72565b90565b60007f50726f706f73616c203300000000000000000000000000000000000000000000910152565b610ac8600a6101c5565b90610ad560208301610a96565b565b610adf610abe565b90565b610b596000610b4a610afc610af76000610040565b610162565b610b19610b10610b0a610189565b94610040565b60008501610196565b610b2d610b2461021d565b60208501610228565b610b41610b3861026c565b60408501610228565b60608301610277565b610b54600061027a565b6109c9565b610b74610b666000610040565b610b6e610a3f565b90610c77565b610b8f610b816000610040565b610b89610a8b565b90610c77565b610baa610b9c6000610040565b610ba4610ad7565b90610c77565b565b5490565b600052602060002090565b610bc481610bac565b821015610bdf57610bd6600491610bb0565b91020190600090565b610288565b90565b610bf160606100a3565b90565b600052602060002090565b5490565b610c0c81610bff565b821015610c2757610c1e600391610bf4565b91020190600090565b610288565b9190610c3d57610c3b9161088b565b565b6102cb565b9081549168010000000000000000831015610c725782610c6a916001610c7095018155610c03565b90610c2c565b565b610066565b90610ce891610ce3610cda610cb06003610ca9610ca182610c9a60008990610bbb565b5001610be4565b956000610bbb565b5001610594565b93610cd5600091610ccc610cc2610be7565b9760008901610196565b60208701610228565b610040565b60408401610196565b610c42565b56fe60806040526004361015610013575b610b63565b61001e60003561009d565b806302d52fa41461009857806342545825146100935780635e6fef011461008e57806384303277146100895780639d710777146100845780639f3a7f521461007f578063ad1539b61461007a5763b384abef0361000e57610b2f565b610ac9565b610a52565b610873565b6107f7565b610688565b6103b5565b61021b565b60e01c90565b60405190565b600080fd5b600080fd5b600080fd5b90565b6100c4816100b8565b036100cb57565b600080fd5b905035906100dd826100bb565b565b600080fd5b600080fd5b601f801991011690565b634e487b7160e01b600052604160045260246000fd5b90610113906100e9565b810190811067ffffffffffffffff82111761012d57604052565b6100f3565b9061014561013e6100a3565b9283610109565b565b67ffffffffffffffff8111610165576101616020916100e9565b0190565b6100f3565b90826000939282370152565b9092919261018b61018682610147565b610132565b938185526020850190828401116101a7576101a59261016a565b565b6100e4565b9080601f830112156101ca578160206101c793359101610176565b90565b6100df565b919091604081840312610210576101e983600083016100d0565b92602082013567ffffffffffffffff811161020b5761020892016101ac565b90565b6100b3565b6100ae565b60000190565b3461024a5761023461022e3660046101cf565b90610ecf565b61023c6100a3565b8061024681610215565b0390f35b6100a9565b60018060a01b031690565b6102639061024f565b90565b61026f8161025a565b0361027657565b600080fd5b9050359061028882610266565b565b91906040838203126102b357806102a76102b0926000860161027b565b936020016100d0565b90565b6100ae565b90565b6102cf6102ca6102d49261024f565b6102b8565b61024f565b90565b6102e0906102bb565b90565b6102ec906102d7565b90565b906102f9906102e3565b600052602052604060002090565b61031b610316610320926100b8565b6102b8565b6100b8565b90565b9061032d90610307565b600052602052604060002090565b1c90565b60ff1690565b61035590600861035a930261033b565b61033f565b90565b906103689154610345565b90565b61038561038a926103806001936000946102ef565b610323565b61035d565b90565b151590565b61039b9061038d565b9052565b91906103b390600060208501940190610392565b565b346103e6576103e26103d16103cb36600461028a565b9061036b565b6103d96100a3565b9182918261039f565b0390f35b6100a9565b9060208282031261040557610402916000016100d0565b90565b6100ae565b634e487b7160e01b600052603260045260246000fd5b5490565b600052602060002090565b61043881610420565b8210156104535761044a600491610424565b91020190600090565b61040a565b60001c90565b90565b61046d61047291610458565b61045e565b90565b61047f9054610461565b90565b634e487b7160e01b600052602260045260246000fd5b90600160028304921680156104b8575b60208310146104b357565b610482565b91607f16916104a8565b60209181520190565b600052602060002090565b90600092918054906104f16104ea83610498565b80946104c2565b9160018116908160001461054a575060011461050d575b505050565b61051a91929394506104cb565b916000925b8184106105325750500190388080610508565b6001816020929593955484860152019101929061051f565b92949550505060ff1916825215156020020190388080610508565b9061056f916104d6565b90565b9061059261058b926105826100a3565b93848092610565565b0383610109565b565b6000906105a082610420565b8110156105d9576105b09161042f565b506105bd60008201610475565b916105d660026105cf60018501610572565b9301610572565b90565b600080fd5b6105e7906100b8565b9052565b5190565b60209181520190565b60005b83811061060c575050906000910152565b8060209183015181850152016105fb565b61063c61064560209361064a93610633816105eb565b938480936105ef565b958691016105f8565b6100e9565b0190565b9161068593916106779161066a606086019260008701906105de565b848203602086015261061d565b91604081840391015261061d565b90565b346106bb576106b76106a361069e3660046103eb565b610594565b6106ae9391936100a3565b9384938461064e565b0390f35b6100a9565b67ffffffffffffffff81116106d85760208091020190565b6100f3565b600080fd5b9291906106f66106f1826106c0565b610132565b938185526020808601920281019183831161074d5781905b83821061071c575050505050565b813567ffffffffffffffff81116107485760209161073d87849387016101ac565b81520191019061070e565b6100df565b6106dd565b9080601f830112156107705781602061076d933591016106e2565b90565b6100df565b916060838303126107f257600083013567ffffffffffffffff81116107ed57826107a09185016101ac565b92602081013567ffffffffffffffff81116107e857836107c19183016101ac565b92604082013567ffffffffffffffff81116107e3576107e09201610752565b90565b6100b3565b6100b3565b6100b3565b6100ae565b346108265761081061080a366004610775565b916114b1565b6108186100a3565b8061082281610215565b0390f35b6100a9565b9493916108719361085b6060936108699361084e60808b019260008c01906105de565b89820360208b015261061d565b90878203604089015261061d565b9401906105de565b565b346108a7576108a361088e6108893660046103eb565b61164c565b9061089a9492946100a3565b9485948561082b565b0390f35b6100a9565b60009103126108b757565b6100ae565b5190565b60209181520190565b60200190565b6108d8906100b8565b9052565b906108e9816020936108cf565b0190565b60200190565b9061091061090a610903846108bc565b80936108c0565b926108c9565b9060005b8181106109215750505090565b90919261093a61093460019286516108dc565b946108ed565b9101919091610914565b5190565b60209181520190565b60200190565b61097661097f6020936109849361096d816105eb565b938480936104c2565b958691016105f8565b6100e9565b0190565b9061099291610957565b90565b60200190565b906109af6109a883610944565b8092610948565b90816109c060208302840194610951565b926000915b8383106109d457505050505090565b909192939460206109f66109f083856001950387528951610988565b97610995565b93019301919392906109c5565b92610a33610a4f9593610a25610a4194608088019088820360008a01526108f3565b90868203602088015261099b565b90848203604086015261099b565b9160608184039101526108f3565b90565b34610a8657610a623660046108ac565b610a82610a6d6117cd565b90610a799492946100a3565b94859485610a03565b0390f35b6100a9565b91610ab890610aaa610ac69593606086019086820360008801526108f3565b90848203602086015261099b565b9160408184039101526108f3565b90565b34610afc57610af8610ae4610adf3660046103eb565b61191c565b610aef9391936100a3565b93849384610a8b565b0390f35b6100a9565b9190604083820312610b2a5780610b1e610b2792600086016100d0565b936020016100d0565b90565b6100ae565b34610b5e57610b48610b42366004610b01565b90611c86565b610b506100a3565b80610b5a81610215565b0390f35b6100a9565b600080fd5b90565b5490565b610b796060610132565b90565b90610b86906100b8565b9052565b52565b90565b610ba4610b9f610ba992610b8d565b6102b8565b6100b8565b90565b600052602060002090565b5490565b610bc481610bb7565b821015610bdf57610bd6600391610bac565b91020190600090565b61040a565b634e487b7160e01b600052600060045260246000fd5b610c0490516100b8565b90565b60001b90565b90610c1a60001991610c07565b9181191691161790565b90565b90610c3c610c37610c4392610307565b610c24565b8254610c0d565b9055565b5190565b601f602091010490565b1b90565b91906008610c75910291610c6f60001984610c55565b92610c55565b9181191691161790565b9190610c95610c90610c9d93610307565b610c24565b908354610c59565b9055565b600090565b610cb891610cb2610ca1565b91610c7f565b565b5b818110610cc6575050565b80610cd46000600193610ca6565b01610cbb565b9190601f8111610cea575b505050565b610cf6610d1b936104cb565b906020610d0284610c4b565b83019310610d23575b610d1490610c4b565b0190610cba565b388080610ce5565b9150610d1481929050610d0b565b90610d42906000199060080261033b565b191690565b81610d5191610d31565b906002021790565b90610d63816105eb565b9067ffffffffffffffff8211610e2557610d8782610d818554610498565b85610cda565b602090601f8311600114610dbc57918091610dab93600092610db0575b5050610d47565b90555b565b90915001513880610da4565b601f19831691610dcb856104cb565b9260005b818110610e0d57509160029391856001969410610df3575b50505002019055610dae565b610e03910151601f841690610d31565b9055388080610de7565b91936020600181928787015181550195019201610dcf565b6100f3565b90610e3491610d59565b565b90610e7c60406002610e8294610e5b60008201610e5560008801610bfa565b90610c27565b610e7460018201610e6e60208801610c47565b90610e2a565b019201610bfa565b90610c27565b565b9190610e9557610e9391610e36565b565b610be4565b9081549168010000000000000000831015610eca5782610ec2916001610ec895018155610bbb565b90610e84565b565b6100f3565b90610f4091610f3b610f32610f086003610f01610ef982610ef26000899061042f565b5001610b68565b95600061042f565b5001610b6b565b93610f2d600091610f24610f1a610b6f565b9760008901610b7c565b60208701610b8a565b610b90565b60408401610b7c565b610e9a565b565b67ffffffffffffffff8111610f5a5760208091020190565b6100f3565b90610f71610f6c83610f42565b610132565b918252565b610f806060610132565b90565b600090565b606090565b610f95610f76565b906020808084610fa3610f83565b815201610fae610f88565b815201610fb9610f83565b81525050565b610fc7610f8d565b90565b60005b828110610fd957505050565b602090610fe4610fbf565b8184015201610fcd565b90611013610ffb83610f5f565b926020806110098693610f42565b9201910390610fca565b565b61101f6080610132565b90565b52565b90565b600052602060002090565b5490565b61104081611033565b82101561105b57611052600491611028565b91020190600090565b61040a565b5190565b60200190565b634e487b7160e01b600052601160045260246000fd5b61108f611095919392936100b8565b926100b8565b916110a18382026100b8565b9281840414901517156110b057565b61106a565b6110c0906003611080565b90565b600052602060002090565b906110e2906000199060200360080261033b565b8154169055565b906000916111016110f9826104cb565b928354610d47565b905555565b9192906020821060001461116057601f84116001146111305761112a929350610d47565b90555b5b565b509061115661115b93600161114d611147856104cb565b92610c4b565b82019101610cba565b6110e9565b61112d565b5061119782936111716001946104cb565b61119061117d85610c4b565b820192601f8616806111a2575b50610c4b565b0190610cba565b60020217905561112e565b6111ae908886036110ce565b3861118a565b9290916801000000000000000082116112165760201160001461120757602081106000146111eb576111e591610d47565b90555b5b565b60019160ff19166111fb846104cb565b556002020190556111e8565b600191506002020190556111e9565b6100f3565b90815461122781610498565b90818311611250575b81831061123e575b50505050565b61124793611106565b38808080611238565b61125c838383876111b4565b611230565b600061126c9161121b565b565b906000036112815761127f90611261565b565b610be4565b600060026112ad9261129a83808301610ca6565b6112a7836001830161126e565b01610ca6565b565b906000036112c2576112c090611286565b565b610be4565b5b8181106112d3575050565b806112e160006003936112af565b016112c8565b90918281106112f6575b505050565b61131461130e61130861131f956110b5565b926110b5565b926110c3565b9182019101906112c7565b3880806112f1565b90680100000000000000008111611350578161134561134e93610b6b565b908281556112e7565b565b6100f3565b5190565b5190565b9061136791610e36565b565b61138e61138861137884611355565b936113838585611327565b611064565b916110c3565b6000915b83831061139f5750505050565b60036020826113b86113b2600195611359565b8661135d565b01920192019190611392565b906113ce91611369565b565b9061142f60606003611435946113f5600082016113ef60008801610bfa565b90610c27565b61140e6001820161140860208801610c47565b90610e2a565b6114276002820161142160408801610c47565b90610e2a565b019201611060565b906113c4565b565b919061144857611446916113d0565b565b610be4565b908154916801000000000000000083101561147d578261147591600161147b95018155611037565b90611437565b565b6100f3565b600161148e91016100b8565b90565b9061149b82610944565b8110156114ac576020809102010190565b61040a565b929190916114bf6000610420565b936115218561151283611509886115006114e16114dc6000610b90565b610fee565b936114f76114ed611015565b9760008901610b7c565b60208701610b8a565b60408501610b8a565b60608301611022565b61151c6000611025565b61144d565b61152b6000610b90565b5b8061154761154161153c87610944565b6100b8565b916100b8565b10156115715761156c9061156787611560878490611491565b5190610ecf565b611482565b61152c565b50929150929190916115af7feaf9c9dabc2a68b717e3095068d04a84ecace13a1ab18b4499a913c3ab3d2869936115a66100a3565b9384938461064e565b0390a1565b606090565b60007f496e76616c696420656c656374696f6e20494400000000000000000000000000910152565b6115ee60136020926105ef565b6115f7816115b9565b0190565b61161190602081019060008183039101526115e1565b90565b1561161b57565b6116236100a3565b62461bcd60e51b815280611639600482016115fb565b0390fd5b90565b61164990610572565b90565b6116a36116a99161165b610ca1565b506116646115b4565b5061166d6115b4565b50611676610ca1565b5061169c8161169661169061168b6000610420565b6100b8565b916100b8565b10611614565b600061042f565b5061163d565b6116b560008201610475565b60018201926116dd6116d76116d06003600287019601610b6b565b9395611640565b93611640565b9190565b606090565b606090565b67ffffffffffffffff81116117035760208091020190565b6100f3565b9061171a611715836116eb565b610132565b918252565b369037565b9061174961173183611708565b9260208061173f86936116eb565b920191039061171f565b565b9061175d611758836106c0565b610132565b918252565b60005b82811061177157505050565b60209061177c610f88565b8184015201611765565b906117ab6117938361174b565b926020806117a186936106c0565b9201910390611762565b565b906117b7826108bc565b8110156117c8576020809102010190565b61040a565b6117d56116e1565b506117de6116e6565b506117e76116e6565b506117f06116e1565b506117fb6000610420565b61180481611724565b9161180e82611786565b61181783611786565b9361182184611724565b9261182c6000610b90565b5b8061184061183a886100b8565b916100b8565b101561190d5761190890611876611864600061185d81859061042f565b5001610475565b61187186918490926117ad565b610b7c565b6118a460016118876000849061042f565b5001866118948492611640565b61189e8383611491565b52611491565b51506118d460026118b76000849061042f565b5001896118c48492611640565b6118ce8383611491565b52611491565b51506119036118f160036118ea6000859061042f565b5001610b6b565b6118fe88918490926117ad565b610b7c565b611482565b61182d565b50919293509193929193929190565b600361196c6119739261192d6116e1565b506119366116e6565b5061193f6116e1565b506119658161195f6119596119546000610420565b6100b8565b916100b8565b10611614565b600061042f565b5001610b68565b61197c81610bb7565b9061198682611724565b61198f83611786565b9061199984611724565b946119a46000610b90565b5b806119b86119b2886100b8565b916100b8565b1015611a5357611a4e906119ee6119dc60006119d5898590610bbb565b5001610475565b6119e986918490926117ad565b610b7c565b611a1b60016119fe888490610bbb565b500186611a0b8492611640565b611a158383611491565b52611491565b5150611a49611a376002611a30898590610bbb565b5001610475565b611a448a918490926117ad565b610b7c565b611482565b6119a5565b509250909250919291929190565b60007f496e76616c69642070726f706f73616c20494400000000000000000000000000910152565b611a9660136020926105ef565b611a9f81611a61565b0190565b611ab99060208101906000818303910152611a89565b90565b15611ac357565b611acb6100a3565b62461bcd60e51b815280611ae160048201611aa3565b0390fd5b611af1611af691610458565b61033f565b90565b611b039054611ae5565b90565b60207f6c656374696f6e00000000000000000000000000000000000000000000000000917f596f75206861766520616c726561647920766f74656420696e2074686973206560008201520152565b611b6160276040926105ef565b611b6a81611b06565b0190565b611b849060208101906000818303910152611b54565b90565b15611b8e57565b611b966100a3565b62461bcd60e51b815280611bac60048201611b6e565b0390fd5b90565b611bc7611bc2611bcc92611bb0565b6102b8565b6100b8565b90565b611bd881610b6b565b821015611bf357611bea6003916110c3565b91020190600090565b61040a565b611c07611c0d919392936100b8565b926100b8565b8201809211611c1857565b61106a565b90611c2960ff91610c07565b9181191691161790565b611c3c9061038d565b90565b90565b90611c57611c52611c5e92611c33565b611c3f565b8254611c1d565b9055565b916020611c84929493611c7d604082019660008301906105de565b01906105de565b565b611cab81611ca5611c9f611c9a6000610420565b6100b8565b916100b8565b10611614565b611cde82611cd8611cd2611ccd6003611cc66000889061042f565b5001610b6b565b6100b8565b916100b8565b10611abc565b611d0d611d08611d02611cfd611cf6600133906102ef565b8590610323565b611af9565b1561038d565b611b87565b611d50611d1a6001611bb3565b611d4a6002611d396003611d306000889061042f565b50018790611bcf565b500191611d4583610475565b611bf8565b90610c27565b611d706001611d6b611d64600133906102ef565b8490610323565b611c42565b339091611d9d7fb4cfecf70861b7b150d8337780d34fb4cbc2114b5fb1fe51a5c5fca1849f7274926102e3565b92611db2611da96100a3565b92839283611c62565b0390a256fea264697066735822122032a45c2b49642be89890dc5c6fc64ce4ba973438dbba8147aad4db12512c18e164736f6c634300081c0033","opcodes":"PUSH1 0x80 PUSH1 0x40 MSTORE CALLVALUE PUSH2 0x27 JUMPI PUSH2 0x11 PUSH2 0xAE2 JUMP JUMPDEST PUSH2 0x19 PUSH2 0x2C JUMP JUMPDEST PUSH2 0x1DED PUSH2 0xCEB DUP3 CODECOPY PUSH2 0x1DED SWAP1 RETURN JUMPDEST PUSH2 0x32 JUMP JUMPDEST PUSH1 0x40 MLOAD SWAP1 JUMP JUMPDEST PUSH1 0x0 DUP1 REVERT JUMPDEST SWAP1 JUMP JUMPDEST SWAP1 JUMP JUMPDEST SWAP1 JUMP JUMPDEST PUSH2 0x54 PUSH2 0x4F PUSH2 0x59 SWAP3 PUSH2 0x37 JUMP JUMPDEST PUSH2 0x3D JUMP JUMPDEST PUSH2 0x3A JUMP JUMPDEST SWAP1 JUMP JUMPDEST PUSH1 0x1F DUP1 NOT SWAP2 ADD AND SWAP1 JUMP JUMPDEST PUSH4 0x4E487B71 PUSH1 0xE0 SHL PUSH1 0x0 MSTORE PUSH1 0x41 PUSH1 0x4 MSTORE PUSH1 0x24 PUSH1 0x0 REVERT JUMPDEST SWAP1 PUSH2 0x86 SWAP1 PUSH2 0x5C JUMP JUMPDEST DUP2 ADD SWAP1 DUP2 LT PUSH1 0x1 DUP1 PUSH1 0x40 SHL SUB DUP3 GT OR PUSH2 0x9E JUMPI PUSH1 0x40 MSTORE JUMP JUMPDEST PUSH2 0x66 JUMP JUMPDEST SWAP1 PUSH2 0xB6 PUSH2 0xAF PUSH2 0x2C JUMP JUMPDEST SWAP3 DUP4 PUSH2 0x7C JUMP JUMPDEST JUMP JUMPDEST PUSH1 0x1 DUP1 PUSH1 0x40 SHL SUB DUP2 GT PUSH2 0xCE JUMPI PUSH1 0x20 DUP1 SWAP2 MUL ADD SWAP1 JUMP JUMPDEST PUSH2 0x66 JUMP JUMPDEST SWAP1 PUSH2 0xE5 PUSH2 0xE0 DUP4 PUSH2 0xB8 JUMP JUMPDEST PUSH2 0xA3 JUMP JUMPDEST SWAP2 DUP3 MSTORE JUMP JUMPDEST PUSH2 0xF4 PUSH1 0x60 PUSH2 0xA3 JUMP JUMPDEST SWAP1 JUMP JUMPDEST PUSH1 0x0 SWAP1 JUMP JUMPDEST PUSH1 0x60 SWAP1 JUMP JUMPDEST PUSH2 0x109 PUSH2 0xEA JUMP JUMPDEST SWAP1 PUSH1 0x20 DUP1 DUP1 DUP5 PUSH2 0x117 PUSH2 0xF7 JUMP JUMPDEST DUP2 MSTORE ADD PUSH2 0x122 PUSH2 0xFC JUMP JUMPDEST DUP2 MSTORE ADD PUSH2 0x12D PUSH2 0xF7 JUMP JUMPDEST DUP2 MSTORE POP POP JUMP JUMPDEST PUSH2 0x13B PUSH2 0x101 JUMP JUMPDEST SWAP1 JUMP JUMPDEST PUSH1 0x0 JUMPDEST DUP3 DUP2 LT PUSH2 0x14D JUMPI POP POP POP JUMP JUMPDEST PUSH1 0x20 SWAP1 PUSH2 0x158 PUSH2 0x133 JUMP JUMPDEST DUP2 DUP5 ADD MSTORE ADD PUSH2 0x141 JUMP JUMPDEST SWAP1 PUSH2 0x187 PUSH2 0x16F DUP4 PUSH2 0xD3 JUMP JUMPDEST SWAP3 PUSH1 0x20 DUP1 PUSH2 0x17D DUP7 SWAP4 PUSH2 0xB8 JUMP JUMPDEST SWAP3 ADD SWAP2 SUB SWAP1 PUSH2 0x13E JUMP JUMPDEST JUMP JUMPDEST PUSH2 0x193 PUSH1 0x80 PUSH2 0xA3 JUMP JUMPDEST SWAP1 JUMP JUMPDEST SWAP1 PUSH2 0x1A0 SWAP1 PUSH2 0x3A JUMP JUMPDEST SWAP1 MSTORE JUMP JUMPDEST PUSH1 0x1 DUP1 PUSH1 0x40 SHL SUB DUP2 GT PUSH2 0x1C0 JUMPI PUSH2 0x1BC PUSH1 0x20 SWAP2 PUSH2 0x5C JUMP JUMPDEST ADD SWAP1 JUMP JUMPDEST PUSH2 0x66 JUMP JUMPDEST SWAP1 PUSH2 0x1D7 PUSH2 0x1D2 DUP4 PUSH2 0x1A4 JUMP JUMPDEST PUSH2 0xA3 JUMP JUMPDEST SWAP2 DUP3 MSTORE JUMP JUMPDEST PUSH1 0x0 PUSH32 0x456C656374696F6E203100000000000000000000000000000000000000000000 SWAP2 ADD MSTORE JUMP JUMPDEST PUSH2 0x20E PUSH1 0xA PUSH2 0x1C5 JUMP JUMPDEST SWAP1 PUSH2 0x21B PUSH1 0x20 DUP4 ADD PUSH2 0x1DC JUMP JUMPDEST JUMP JUMPDEST PUSH2 0x225 PUSH2 0x204 JUMP JUMPDEST SWAP1 JUMP JUMPDEST MSTORE JUMP JUMPDEST PUSH1 0x0 PUSH32 0x466972737420656C656374696F6E000000000000000000000000000000000000 SWAP2 ADD MSTORE JUMP JUMPDEST PUSH2 0x25D PUSH1 0xE PUSH2 0x1C5 JUMP JUMPDEST SWAP1 PUSH2 0x26A PUSH1 0x20 DUP4 ADD PUSH2 0x22B JUMP JUMPDEST JUMP JUMPDEST PUSH2 0x274 PUSH2 0x253 JUMP JUMPDEST SWAP1 JUMP JUMPDEST MSTORE JUMP JUMPDEST SWAP1 JUMP JUMPDEST PUSH1 0x0 MSTORE PUSH1 0x20 PUSH1 0x0 KECCAK256 SWAP1 JUMP JUMPDEST PUSH4 0x4E487B71 PUSH1 0xE0 SHL PUSH1 0x0 MSTORE PUSH1 0x32 PUSH1 0x4 MSTORE PUSH1 0x24 PUSH1 0x0 REVERT JUMPDEST SLOAD SWAP1 JUMP JUMPDEST PUSH2 0x2AB DUP2 PUSH2 0x29E JUMP JUMPDEST DUP3 LT ISZERO PUSH2 0x2C6 JUMPI PUSH2 0x2BD PUSH1 0x4 SWAP2 PUSH2 0x27D JUMP JUMPDEST SWAP2 MUL ADD SWAP1 PUSH1 0x0 SWAP1 JUMP JUMPDEST PUSH2 0x288 JUMP JUMPDEST PUSH4 0x4E487B71 PUSH1 0xE0 SHL PUSH1 0x0 MSTORE PUSH1 0x0 PUSH1 0x4 MSTORE PUSH1 0x24 PUSH1 0x0 REVERT JUMPDEST PUSH2 0x2EB SWAP1 MLOAD PUSH2 0x3A JUMP JUMPDEST SWAP1 JUMP JUMPDEST PUSH1 0x0 SHL SWAP1 JUMP JUMPDEST SWAP1 PUSH2 0x301 PUSH1 0x0 NOT SWAP2 PUSH2 0x2EE JUMP JUMPDEST SWAP2 DUP2 NOT AND SWAP2 AND OR SWAP1 JUMP JUMPDEST PUSH2 0x31F PUSH2 0x31A PUSH2 0x324 SWAP3 PUSH2 0x3A JUMP JUMPDEST PUSH2 0x3D JUMP JUMPDEST PUSH2 0x3A JUMP JUMPDEST SWAP1 JUMP JUMPDEST SWAP1 JUMP JUMPDEST SWAP1 PUSH2 0x33F PUSH2 0x33A PUSH2 0x346 SWAP3 PUSH2 0x30B JUMP JUMPDEST PUSH2 0x327 JUMP JUMPDEST DUP3 SLOAD PUSH2 0x2F4 JUMP JUMPDEST SWAP1 SSTORE JUMP JUMPDEST MLOAD SWAP1 JUMP JUMPDEST MLOAD SWAP1 JUMP JUMPDEST PUSH4 0x4E487B71 PUSH1 0xE0 SHL PUSH1 0x0 MSTORE PUSH1 0x22 PUSH1 0x4 MSTORE PUSH1 0x24 PUSH1 0x0 REVERT JUMPDEST SWAP1 PUSH1 0x1 PUSH1 0x2 DUP4 DIV SWAP3 AND DUP1 ISZERO PUSH2 0x388 JUMPI JUMPDEST PUSH1 0x20 DUP4 LT EQ PUSH2 0x383 JUMPI JUMP JUMPDEST PUSH2 0x352 JUMP JUMPDEST SWAP2 PUSH1 0x7F AND SWAP2 PUSH2 0x378 JUMP JUMPDEST PUSH1 0x0 MSTORE PUSH1 0x20 PUSH1 0x0 KECCAK256 SWAP1 JUMP JUMPDEST PUSH1 0x1F PUSH1 0x20 SWAP2 ADD DIV SWAP1 JUMP JUMPDEST SHL SWAP1 JUMP JUMPDEST SWAP2 SWAP1 PUSH1 0x8 PUSH2 0x3C7 SWAP2 MUL SWAP2 PUSH2 0x3C1 PUSH1 0x0 NOT DUP5 PUSH2 0x3A7 JUMP JUMPDEST SWAP3 PUSH2 0x3A7 JUMP JUMPDEST SWAP2 DUP2 NOT AND SWAP2 AND OR SWAP1 JUMP JUMPDEST SWAP2 SWAP1 PUSH2 0x3E7 PUSH2 0x3E2 PUSH2 0x3EF SWAP4 PUSH2 0x30B JUMP JUMPDEST PUSH2 0x327 JUMP JUMPDEST SWAP1 DUP4 SLOAD PUSH2 0x3AB JUMP JUMPDEST SWAP1 SSTORE JUMP JUMPDEST PUSH1 0x0 SWAP1 JUMP JUMPDEST PUSH2 0x40A SWAP2 PUSH2 0x404 PUSH2 0x3F3 JUMP JUMPDEST SWAP2 PUSH2 0x3D1 JUMP JUMPDEST JUMP JUMPDEST JUMPDEST DUP2 DUP2 LT PUSH2 0x418 JUMPI POP POP JUMP JUMPDEST DUP1 PUSH2 0x426 PUSH1 0x0 PUSH1 0x1 SWAP4 PUSH2 0x3F8 JUMP JUMPDEST ADD PUSH2 0x40D JUMP JUMPDEST SWAP2 SWAP1 PUSH1 0x1F DUP2 GT PUSH2 0x43C JUMPI JUMPDEST POP POP POP JUMP JUMPDEST PUSH2 0x448 PUSH2 0x46D SWAP4 PUSH2 0x392 JUMP JUMPDEST SWAP1 PUSH1 0x20 PUSH2 0x454 DUP5 PUSH2 0x39D JUMP JUMPDEST DUP4 ADD SWAP4 LT PUSH2 0x475 JUMPI JUMPDEST PUSH2 0x466 SWAP1 PUSH2 0x39D JUMP JUMPDEST ADD SWAP1 PUSH2 0x40C JUMP JUMPDEST CODESIZE DUP1 DUP1 PUSH2 0x437 JUMP JUMPDEST SWAP2 POP PUSH2 0x466 DUP2 SWAP3 SWAP1 POP PUSH2 0x45D JUMP JUMPDEST SHR SWAP1 JUMP JUMPDEST SWAP1 PUSH2 0x498 SWAP1 PUSH1 0x0 NOT SWAP1 PUSH1 0x8 MUL PUSH2 0x483 JUMP JUMPDEST NOT AND SWAP1 JUMP JUMPDEST DUP2 PUSH2 0x4A7 SWAP2 PUSH2 0x487 JUMP JUMPDEST SWAP1 PUSH1 0x2 MUL OR SWAP1 JUMP JUMPDEST SWAP1 PUSH2 0x4B9 DUP2 PUSH2 0x34E JUMP JUMPDEST SWAP1 PUSH1 0x1 DUP1 PUSH1 0x40 SHL SUB DUP3 GT PUSH2 0x579 JUMPI PUSH2 0x4DB DUP3 PUSH2 0x4D5 DUP6 SLOAD PUSH2 0x368 JUMP JUMPDEST DUP6 PUSH2 0x42C JUMP JUMPDEST PUSH1 0x20 SWAP1 PUSH1 0x1F DUP4 GT PUSH1 0x1 EQ PUSH2 0x510 JUMPI SWAP2 DUP1 SWAP2 PUSH2 0x4FF SWAP4 PUSH1 0x0 SWAP3 PUSH2 0x504 JUMPI JUMPDEST POP POP PUSH2 0x49D JUMP JUMPDEST SWAP1 SSTORE JUMPDEST JUMP JUMPDEST SWAP1 SWAP2 POP ADD MLOAD CODESIZE DUP1 PUSH2 0x4F8 JUMP JUMPDEST PUSH1 0x1F NOT DUP4 AND SWAP2 PUSH2 0x51F DUP6 PUSH2 0x392 JUMP JUMPDEST SWAP3 PUSH1 0x0 JUMPDEST DUP2 DUP2 LT PUSH2 0x561 JUMPI POP SWAP2 PUSH1 0x2 SWAP4 SWAP2 DUP6 PUSH1 0x1 SWAP7 SWAP5 LT PUSH2 0x547 JUMPI JUMPDEST POP POP POP MUL ADD SWAP1 SSTORE PUSH2 0x502 JUMP JUMPDEST PUSH2 0x557 SWAP2 ADD MLOAD PUSH1 0x1F DUP5 AND SWAP1 PUSH2 0x487 JUMP JUMPDEST SWAP1 SSTORE CODESIZE DUP1 DUP1 PUSH2 0x53B JUMP JUMPDEST SWAP2 SWAP4 PUSH1 0x20 PUSH1 0x1 DUP2 SWAP3 DUP8 DUP8 ADD MLOAD DUP2 SSTORE ADD SWAP6 ADD SWAP3 ADD PUSH2 0x523 JUMP JUMPDEST PUSH2 0x66 JUMP JUMPDEST SWAP1 PUSH2 0x588 SWAP2 PUSH2 0x4AF JUMP JUMPDEST JUMP JUMPDEST MLOAD SWAP1 JUMP JUMPDEST PUSH1 0x20 ADD SWAP1 JUMP JUMPDEST SLOAD SWAP1 JUMP JUMPDEST PUSH4 0x4E487B71 PUSH1 0xE0 SHL PUSH1 0x0 MSTORE PUSH1 0x11 PUSH1 0x4 MSTORE PUSH1 0x24 PUSH1 0x0 REVERT JUMPDEST PUSH2 0x5BD PUSH2 0x5C3 SWAP2 SWAP4 SWAP3 SWAP4 PUSH2 0x3A JUMP JUMPDEST SWAP3 PUSH2 0x3A JUMP JUMPDEST SWAP2 PUSH2 0x5CF DUP4 DUP3 MUL PUSH2 0x3A JUMP JUMPDEST SWAP3 DUP2 DUP5 DIV EQ SWAP1 ISZERO OR ISZERO PUSH2 0x5DE JUMPI JUMP JUMPDEST PUSH2 0x598 JUMP JUMPDEST PUSH2 0x5EE SWAP1 PUSH1 0x3 PUSH2 0x5AE JUMP JUMPDEST SWAP1 JUMP JUMPDEST PUSH1 0x0 MSTORE PUSH1 0x20 PUSH1 0x0 KECCAK256 SWAP1 JUMP JUMPDEST SWAP1 PUSH2 0x610 SWAP1 PUSH1 0x0 NOT SWAP1 PUSH1 0x20 SUB PUSH1 0x8 MUL PUSH2 0x483 JUMP JUMPDEST DUP2 SLOAD AND SWAP1 SSTORE JUMP JUMPDEST SWAP1 PUSH1 0x0 SWAP2 PUSH2 0x62F PUSH2 0x627 DUP3 PUSH2 0x392 JUMP JUMPDEST SWAP3 DUP4 SLOAD PUSH2 0x49D JUMP JUMPDEST SWAP1 SSTORE SSTORE JUMP JUMPDEST SWAP2 SWAP3 SWAP1 PUSH1 0x20 DUP3 LT PUSH1 0x0 EQ PUSH2 0x68E JUMPI PUSH1 0x1F DUP5 GT PUSH1 0x1 EQ PUSH2 0x65E JUMPI PUSH2 0x658 SWAP3 SWAP4 POP PUSH2 0x49D JUMP JUMPDEST SWAP1 SSTORE JUMPDEST JUMPDEST JUMP JUMPDEST POP SWAP1 PUSH2 0x684 PUSH2 0x689 SWAP4 PUSH1 0x1 PUSH2 0x67B PUSH2 0x675 DUP6 PUSH2 0x392 JUMP JUMPDEST SWAP3 PUSH2 0x39D JUMP JUMPDEST DUP3 ADD SWAP2 ADD PUSH2 0x40C JUMP JUMPDEST PUSH2 0x617 JUMP JUMPDEST PUSH2 0x65B JUMP JUMPDEST POP PUSH2 0x6C5 DUP3 SWAP4 PUSH2 0x69F PUSH1 0x1 SWAP5 PUSH2 0x392 JUMP JUMPDEST PUSH2 0x6BE PUSH2 0x6AB DUP6 PUSH2 0x39D JUMP JUMPDEST DUP3 ADD SWAP3 PUSH1 0x1F DUP7 AND DUP1 PUSH2 0x6D0 JUMPI JUMPDEST POP PUSH2 0x39D JUMP JUMPDEST ADD SWAP1 PUSH2 0x40C JUMP JUMPDEST PUSH1 0x2 MUL OR SWAP1 SSTORE PUSH2 0x65C JUMP JUMPDEST PUSH2 0x6DC SWAP1 DUP9 DUP7 SUB PUSH2 0x5FC JUMP JUMPDEST CODESIZE PUSH2 0x6B8 JUMP JUMPDEST SWAP3 SWAP1 SWAP2 PUSH9 0x10000000000000000 DUP3 GT PUSH2 0x744 JUMPI PUSH1 0x20 GT PUSH1 0x0 EQ PUSH2 0x735 JUMPI PUSH1 0x20 DUP2 LT PUSH1 0x0 EQ PUSH2 0x719 JUMPI PUSH2 0x713 SWAP2 PUSH2 0x49D JUMP JUMPDEST SWAP1 SSTORE JUMPDEST JUMPDEST JUMP JUMPDEST PUSH1 0x1 SWAP2 PUSH1 0xFF NOT AND PUSH2 0x729 DUP5 PUSH2 0x392 JUMP JUMPDEST SSTORE PUSH1 0x2 MUL ADD SWAP1 SSTORE PUSH2 0x716 JUMP JUMPDEST PUSH1 0x1 SWAP2 POP PUSH1 0x2 MUL ADD SWAP1 SSTORE PUSH2 0x717 JUMP JUMPDEST PUSH2 0x66 JUMP JUMPDEST SWAP1 DUP2 SLOAD PUSH2 0x755 DUP2 PUSH2 0x368 JUMP JUMPDEST SWAP1 DUP2 DUP4 GT PUSH2 0x77E JUMPI JUMPDEST DUP2 DUP4 LT PUSH2 0x76C JUMPI JUMPDEST POP POP POP POP JUMP JUMPDEST PUSH2 0x775 SWAP4 PUSH2 0x634 JUMP JUMPDEST CODESIZE DUP1 DUP1 DUP1 PUSH2 0x766 JUMP JUMPDEST PUSH2 0x78A DUP4 DUP4 DUP4 DUP8 PUSH2 0x6E2 JUMP JUMPDEST PUSH2 0x75E JUMP JUMPDEST PUSH1 0x0 PUSH2 0x79A SWAP2 PUSH2 0x749 JUMP JUMPDEST JUMP JUMPDEST SWAP1 PUSH1 0x0 SUB PUSH2 0x7AF JUMPI PUSH2 0x7AD SWAP1 PUSH2 0x78F JUMP JUMPDEST JUMP JUMPDEST PUSH2 0x2CB JUMP JUMPDEST PUSH1 0x0 PUSH1 0x2 PUSH2 0x7DB SWAP3 PUSH2 0x7C8 DUP4 DUP1 DUP4 ADD PUSH2 0x3F8 JUMP JUMPDEST PUSH2 0x7D5 DUP4 PUSH1 0x1 DUP4 ADD PUSH2 0x79C JUMP JUMPDEST ADD PUSH2 0x3F8 JUMP JUMPDEST JUMP JUMPDEST SWAP1 PUSH1 0x0 SUB PUSH2 0x7F0 JUMPI PUSH2 0x7EE SWAP1 PUSH2 0x7B4 JUMP JUMPDEST JUMP JUMPDEST PUSH2 0x2CB JUMP JUMPDEST JUMPDEST DUP2 DUP2 LT PUSH2 0x801 JUMPI POP POP JUMP JUMPDEST DUP1 PUSH2 0x80F PUSH1 0x0 PUSH1 0x3 SWAP4 PUSH2 0x7DD JUMP JUMPDEST ADD PUSH2 0x7F6 JUMP JUMPDEST SWAP1 SWAP2 DUP3 DUP2 LT PUSH2 0x824 JUMPI JUMPDEST POP POP POP JUMP JUMPDEST PUSH2 0x842 PUSH2 0x83C PUSH2 0x836 PUSH2 0x84D SWAP6 PUSH2 0x5E3 JUMP JUMPDEST SWAP3 PUSH2 0x5E3 JUMP JUMPDEST SWAP3 PUSH2 0x5F1 JUMP JUMPDEST SWAP2 DUP3 ADD SWAP2 ADD SWAP1 PUSH2 0x7F5 JUMP JUMPDEST CODESIZE DUP1 DUP1 PUSH2 0x81F JUMP JUMPDEST SWAP1 PUSH9 0x10000000000000000 DUP2 GT PUSH2 0x87E JUMPI DUP2 PUSH2 0x873 PUSH2 0x87C SWAP4 PUSH2 0x594 JUMP JUMPDEST SWAP1 DUP3 DUP2 SSTORE PUSH2 0x815 JUMP JUMPDEST JUMP JUMPDEST PUSH2 0x66 JUMP JUMPDEST MLOAD SWAP1 JUMP JUMPDEST MLOAD SWAP1 JUMP JUMPDEST SWAP1 PUSH2 0x8D1 PUSH1 0x40 PUSH1 0x2 PUSH2 0x8D7 SWAP5 PUSH2 0x8B0 PUSH1 0x0 DUP3 ADD PUSH2 0x8AA PUSH1 0x0 DUP9 ADD PUSH2 0x2E1 JUMP JUMPDEST SWAP1 PUSH2 0x32A JUMP JUMPDEST PUSH2 0x8C9 PUSH1 0x1 DUP3 ADD PUSH2 0x8C3 PUSH1 0x20 DUP9 ADD PUSH2 0x34A JUMP JUMPDEST SWAP1 PUSH2 0x57E JUMP JUMPDEST ADD SWAP3 ADD PUSH2 0x2E1 JUMP JUMPDEST SWAP1 PUSH2 0x32A JUMP JUMPDEST JUMP JUMPDEST SWAP1 PUSH2 0x8E3 SWAP2 PUSH2 0x88B JUMP JUMPDEST JUMP JUMPDEST PUSH2 0x90A PUSH2 0x904 PUSH2 0x8F4 DUP5 PUSH2 0x883 JUMP JUMPDEST SWAP4 PUSH2 0x8FF DUP6 DUP6 PUSH2 0x855 JUMP JUMPDEST PUSH2 0x58E JUMP JUMPDEST SWAP2 PUSH2 0x5F1 JUMP JUMPDEST PUSH1 0x0 SWAP2 JUMPDEST DUP4 DUP4 LT PUSH2 0x91B JUMPI POP POP POP POP JUMP JUMPDEST PUSH1 0x3 PUSH1 0x20 DUP3 PUSH2 0x934 PUSH2 0x92E PUSH1 0x1 SWAP6 PUSH2 0x887 JUMP JUMPDEST DUP7 PUSH2 0x8D9 JUMP JUMPDEST ADD SWAP3 ADD SWAP3 ADD SWAP2 SWAP1 PUSH2 0x90E JUMP JUMPDEST SWAP1 PUSH2 0x94A SWAP2 PUSH2 0x8E5 JUMP JUMPDEST JUMP JUMPDEST SWAP1 PUSH2 0x9AB PUSH1 0x60 PUSH1 0x3 PUSH2 0x9B1 SWAP5 PUSH2 0x971 PUSH1 0x0 DUP3 ADD PUSH2 0x96B PUSH1 0x0 DUP9 ADD PUSH2 0x2E1 JUMP JUMPDEST SWAP1 PUSH2 0x32A JUMP JUMPDEST PUSH2 0x98A PUSH1 0x1 DUP3 ADD PUSH2 0x984 PUSH1 0x20 DUP9 ADD PUSH2 0x34A JUMP JUMPDEST SWAP1 PUSH2 0x57E JUMP JUMPDEST PUSH2 0x9A3 PUSH1 0x2 DUP3 ADD PUSH2 0x99D PUSH1 0x40 DUP9 ADD PUSH2 0x34A JUMP JUMPDEST SWAP1 PUSH2 0x57E JUMP JUMPDEST ADD SWAP3 ADD PUSH2 0x58A JUMP JUMPDEST SWAP1 PUSH2 0x940 JUMP JUMPDEST JUMP JUMPDEST SWAP2 SWAP1 PUSH2 0x9C4 JUMPI PUSH2 0x9C2 SWAP2 PUSH2 0x94C JUMP JUMPDEST JUMP JUMPDEST PUSH2 0x2CB JUMP JUMPDEST SWAP1 DUP2 SLOAD SWAP2 PUSH9 0x10000000000000000 DUP4 LT ISZERO PUSH2 0x9F9 JUMPI DUP3 PUSH2 0x9F1 SWAP2 PUSH1 0x1 PUSH2 0x9F7 SWAP6 ADD DUP2 SSTORE PUSH2 0x2A2 JUMP JUMPDEST SWAP1 PUSH2 0x9B3 JUMP JUMPDEST JUMP JUMPDEST PUSH2 0x66 JUMP JUMPDEST PUSH1 0x0 PUSH32 0x50726F706F73616C203100000000000000000000000000000000000000000000 SWAP2 ADD MSTORE JUMP JUMPDEST PUSH2 0xA30 PUSH1 0xA PUSH2 0x1C5 JUMP JUMPDEST SWAP1 PUSH2 0xA3D PUSH1 0x20 DUP4 ADD PUSH2 0x9FE JUMP JUMPDEST JUMP JUMPDEST PUSH2 0xA47 PUSH2 0xA26 JUMP JUMPDEST SWAP1 JUMP JUMPDEST PUSH1 0x0 PUSH32 0x50726F706F73616C203200000000000000000000000000000000000000000000 SWAP2 ADD MSTORE JUMP JUMPDEST PUSH2 0xA7C PUSH1 0xA PUSH2 0x1C5 JUMP JUMPDEST SWAP1 PUSH2 0xA89 PUSH1 0x20 DUP4 ADD PUSH2 0xA4A JUMP JUMPDEST JUMP JUMPDEST PUSH2 0xA93 PUSH2 0xA72 JUMP JUMPDEST SWAP1 JUMP JUMPDEST PUSH1 0x0 PUSH32 0x50726F706F73616C203300000000000000000000000000000000000000000000 SWAP2 ADD MSTORE JUMP JUMPDEST PUSH2 0xAC8 PUSH1 0xA PUSH2 0x1C5 JUMP JUMPDEST SWAP1 PUSH2 0xAD5 PUSH1 0x20 DUP4 ADD PUSH2 0xA96 JUMP JUMPDEST JUMP JUMPDEST PUSH2 0xADF PUSH2 0xABE JUMP JUMPDEST SWAP1 JUMP JUMPDEST PUSH2 0xB59 PUSH1 0x0 PUSH2 0xB4A PUSH2 0xAFC PUSH2 0xAF7 PUSH1 0x0 PUSH2 0x40 JUMP JUMPDEST PUSH2 0x162 JUMP JUMPDEST PUSH2 0xB19 PUSH2 0xB10 PUSH2 0xB0A PUSH2 0x189 JUMP JUMPDEST SWAP5 PUSH2 0x40 JUMP JUMPDEST PUSH1 0x0 DUP6 ADD PUSH2 0x196 JUMP JUMPDEST PUSH2 0xB2D PUSH2 0xB24 PUSH2 0x21D JUMP JUMPDEST PUSH1 0x20 DUP6 ADD PUSH2 0x228 JUMP JUMPDEST PUSH2 0xB41 PUSH2 0xB38 PUSH2 0x26C JUMP JUMPDEST PUSH1 0x40 DUP6 ADD PUSH2 0x228 JUMP JUMPDEST PUSH1 0x60 DUP4 ADD PUSH2 0x277 JUMP JUMPDEST PUSH2 0xB54 PUSH1 0x0 PUSH2 0x27A JUMP JUMPDEST PUSH2 0x9C9 JUMP JUMPDEST PUSH2 0xB74 PUSH2 0xB66 PUSH1 0x0 PUSH2 0x40 JUMP JUMPDEST PUSH2 0xB6E PUSH2 0xA3F JUMP JUMPDEST SWAP1 PUSH2 0xC77 JUMP JUMPDEST PUSH2 0xB8F PUSH2 0xB81 PUSH1 0x0 PUSH2 0x40 JUMP JUMPDEST PUSH2 0xB89 PUSH2 0xA8B JUMP JUMPDEST SWAP1 PUSH2 0xC77 JUMP JUMPDEST PUSH2 0xBAA PUSH2 0xB9C PUSH1 0x0 PUSH2 0x40 JUMP JUMPDEST PUSH2 0xBA4 PUSH2 0xAD7 JUMP JUMPDEST SWAP1 PUSH2 0xC77 JUMP JUMPDEST JUMP JUMPDEST SLOAD SWAP1 JUMP JUMPDEST PUSH1 0x0 MSTORE PUSH1 0x20 PUSH1 0x0 KECCAK256 SWAP1 JUMP JUMPDEST PUSH2 0xBC4 DUP2 PUSH2 0xBAC JUMP JUMPDEST DUP3 LT ISZERO PUSH2 0xBDF JUMPI PUSH2 0xBD6 PUSH1 0x4 SWAP2 PUSH2 0xBB0 JUMP JUMPDEST SWAP2 MUL ADD SWAP1 PUSH1 0x0 SWAP1 JUMP JUMPDEST PUSH2 0x288 JUMP JUMPDEST SWAP1 JUMP JUMPDEST PUSH2 0xBF1 PUSH1 0x60 PUSH2 0xA3 JUMP JUMPDEST SWAP1 JUMP JUMPDEST PUSH1 0x0 MSTORE PUSH1 0x20 PUSH1 0x0 KECCAK256 SWAP1 JUMP JUMPDEST SLOAD SWAP1 JUMP JUMPDEST PUSH2 0xC0C DUP2 PUSH2 0xBFF JUMP JUMPDEST DUP3 LT ISZERO PUSH2 0xC27 JUMPI PUSH2 0xC1E PUSH1 0x3 SWAP2 PUSH2 0xBF4 JUMP JUMPDEST SWAP2 MUL ADD SWAP1 PUSH1 0x0 SWAP1 JUMP JUMPDEST PUSH2 0x288 JUMP JUMPDEST SWAP2 SWAP1 PUSH2 0xC3D JUMPI PUSH2 0xC3B SWAP2 PUSH2 0x88B JUMP JUMPDEST JUMP JUMPDEST PUSH2 0x2CB JUMP JUMPDEST SWAP1 DUP2 SLOAD SWAP2 PUSH9 0x10000000000000000 DUP4 LT ISZERO PUSH2 0xC72 JUMPI DUP3 PUSH2 0xC6A SWAP2 PUSH1 0x1 PUSH2 0xC70 SWAP6 ADD DUP2 SSTORE PUSH2 0xC03 JUMP JUMPDEST SWAP1 PUSH2 0xC2C JUMP JUMPDEST JUMP JUMPDEST PUSH2 0x66 JUMP JUMPDEST SWAP1 PUSH2 0xCE8 SWAP2 PUSH2 0xCE3 PUSH2 0xCDA PUSH2 0xCB0 PUSH1 0x3 PUSH2 0xCA9 PUSH2 0xCA1 DUP3 PUSH2 0xC9A PUSH1 0x0 DUP10 SWAP1 PUSH2 0xBBB JUMP JUMPDEST POP ADD PUSH2 0xBE4 JUMP JUMPDEST SWAP6 PUSH1 0x0 PUSH2 0xBBB JUMP JUMPDEST POP ADD PUSH2 0x594 JUMP JUMPDEST SWAP4 PUSH2 0xCD5 PUSH1 0x0 SWAP2 PUSH2 0xCCC PUSH2 0xCC2 PUSH2 0xBE7 JUMP JUMPDEST SWAP8 PUSH1 0x0 DUP10 ADD PUSH2 0x196 JUMP JUMPDEST PUSH1 0x20 DUP8 ADD PUSH2 0x228 JUMP JUMPDEST PUSH2 0x40 JUMP JUMPDEST PUSH1 0x40 DUP5 ADD PUSH2 0x196 JUMP JUMPDEST PUSH2 0xC42 JUMP JUMPDEST JUMP INVALID PUSH1 0x80 PUSH1 0x40 MSTORE PUSH1 0x4 CALLDATASIZE LT ISZERO PUSH2 0x13 JUMPI JUMPDEST PUSH2 0xB63 JUMP JUMPDEST PUSH2 0x1E PUSH1 0x0 CALLDATALOAD PUSH2 0x9D JUMP JUMPDEST DUP1 PUSH4 0x2D52FA4 EQ PUSH2 0x98 JUMPI DUP1 PUSH4 0x42545825 EQ PUSH2 0x93 JUMPI DUP1 PUSH4 0x5E6FEF01 EQ PUSH2 0x8E JUMPI DUP1 PUSH4 0x84303277 EQ PUSH2 0x89 JUMPI DUP1 PUSH4 0x9D710777 EQ PUSH2 0x84 JUMPI DUP1 PUSH4 0x9F3A7F52 EQ PUSH2 0x7F JUMPI DUP1 PUSH4 0xAD1539B6 EQ PUSH2 0x7A JUMPI PUSH4 0xB384ABEF SUB PUSH2 0xE JUMPI PUSH2 0xB2F JUMP JUMPDEST PUSH2 0xAC9 JUMP JUMPDEST PUSH2 0xA52 JUMP JUMPDEST PUSH2 0x873 JUMP JUMPDEST PUSH2 0x7F7 JUMP JUMPDEST PUSH2 0x688 JUMP JUMPDEST PUSH2 0x3B5 JUMP JUMPDEST PUSH2 0x21B JUMP JUMPDEST PUSH1 0xE0 SHR SWAP1 JUMP JUMPDEST PUSH1 0x40 MLOAD SWAP1 JUMP JUMPDEST PUSH1 0x0 DUP1 REVERT JUMPDEST PUSH1 0x0 DUP1 REVERT JUMPDEST PUSH1 0x0 DUP1 REVERT JUMPDEST SWAP1 JUMP JUMPDEST PUSH2 0xC4 DUP2 PUSH2 0xB8 JUMP JUMPDEST SUB PUSH2 0xCB JUMPI JUMP JUMPDEST PUSH1 0x0 DUP1 REVERT JUMPDEST SWAP1 POP CALLDATALOAD SWAP1 PUSH2 0xDD DUP3 PUSH2 0xBB JUMP JUMPDEST JUMP JUMPDEST PUSH1 0x0 DUP1 REVERT JUMPDEST PUSH1 0x0 DUP1 REVERT JUMPDEST PUSH1 0x1F DUP1 NOT SWAP2 ADD AND SWAP1 JUMP JUMPDEST PUSH4 0x4E487B71 PUSH1 0xE0 SHL PUSH1 0x0 MSTORE PUSH1 0x41 PUSH1 0x4 MSTORE PUSH1 0x24 PUSH1 0x0 REVERT JUMPDEST SWAP1 PUSH2 0x113 SWAP1 PUSH2 0xE9 JUMP JUMPDEST DUP2 ADD SWAP1 DUP2 LT PUSH8 0xFFFFFFFFFFFFFFFF DUP3 GT OR PUSH2 0x12D JUMPI PUSH1 0x40 MSTORE JUMP JUMPDEST PUSH2 0xF3 JUMP JUMPDEST SWAP1 PUSH2 0x145 PUSH2 0x13E PUSH2 0xA3 JUMP JUMPDEST SWAP3 DUP4 PUSH2 0x109 JUMP JUMPDEST JUMP JUMPDEST PUSH8 0xFFFFFFFFFFFFFFFF DUP2 GT PUSH2 0x165 JUMPI PUSH2 0x161 PUSH1 0x20 SWAP2 PUSH2 0xE9 JUMP JUMPDEST ADD SWAP1 JUMP JUMPDEST PUSH2 0xF3 JUMP JUMPDEST SWAP1 DUP3 PUSH1 0x0 SWAP4 SWAP3 DUP3 CALLDATACOPY ADD MSTORE JUMP JUMPDEST SWAP1 SWAP3 SWAP2 SWAP3 PUSH2 0x18B PUSH2 0x186 DUP3 PUSH2 0x147 JUMP JUMPDEST PUSH2 0x132 JUMP JUMPDEST SWAP4 DUP2 DUP6 MSTORE PUSH1 0x20 DUP6 ADD SWAP1 DUP3 DUP5 ADD GT PUSH2 0x1A7 JUMPI PUSH2 0x1A5 SWAP3 PUSH2 0x16A JUMP JUMPDEST JUMP JUMPDEST PUSH2 0xE4 JUMP JUMPDEST SWAP1 DUP1 PUSH1 0x1F DUP4 ADD SLT ISZERO PUSH2 0x1CA JUMPI DUP2 PUSH1 0x20 PUSH2 0x1C7 SWAP4 CALLDATALOAD SWAP2 ADD PUSH2 0x176 JUMP JUMPDEST SWAP1 JUMP JUMPDEST PUSH2 0xDF JUMP JUMPDEST SWAP2 SWAP1 SWAP2 PUSH1 0x40 DUP2 DUP5 SUB SLT PUSH2 0x210 JUMPI PUSH2 0x1E9 DUP4 PUSH1 0x0 DUP4 ADD PUSH2 0xD0 JUMP JUMPDEST SWAP3 PUSH1 0x20 DUP3 ADD CALLDATALOAD PUSH8 0xFFFFFFFFFFFFFFFF DUP2 GT PUSH2 0x20B JUMPI PUSH2 0x208 SWAP3 ADD PUSH2 0x1AC JUMP JUMPDEST SWAP1 JUMP JUMPDEST PUSH2 0xB3 JUMP JUMPDEST PUSH2 0xAE JUMP JUMPDEST PUSH1 0x0 ADD SWAP1 JUMP JUMPDEST CALLVALUE PUSH2 0x24A JUMPI PUSH2 0x234 PUSH2 0x22E CALLDATASIZE PUSH1 0x4 PUSH2 0x1CF JUMP JUMPDEST SWAP1 PUSH2 0xECF JUMP JUMPDEST PUSH2 0x23C PUSH2 0xA3 JUMP JUMPDEST DUP1 PUSH2 0x246 DUP2 PUSH2 0x215 JUMP JUMPDEST SUB SWAP1 RETURN JUMPDEST PUSH2 0xA9 JUMP JUMPDEST PUSH1 0x1 DUP1 PUSH1 0xA0 SHL SUB AND SWAP1 JUMP JUMPDEST PUSH2 0x263 SWAP1 PUSH2 0x24F JUMP JUMPDEST SWAP1 JUMP JUMPDEST PUSH2 0x26F DUP2 PUSH2 0x25A JUMP JUMPDEST SUB PUSH2 0x276 JUMPI JUMP JUMPDEST PUSH1 0x0 DUP1 REVERT JUMPDEST SWAP1 POP CALLDATALOAD SWAP1 PUSH2 0x288 DUP3 PUSH2 0x266 JUMP JUMPDEST JUMP JUMPDEST SWAP2 SWAP1 PUSH1 0x40 DUP4 DUP3 SUB SLT PUSH2 0x2B3 JUMPI DUP1 PUSH2 0x2A7 PUSH2 0x2B0 SWAP3 PUSH1 0x0 DUP7 ADD PUSH2 0x27B JUMP JUMPDEST SWAP4 PUSH1 0x20 ADD PUSH2 0xD0 JUMP JUMPDEST SWAP1 JUMP JUMPDEST PUSH2 0xAE JUMP JUMPDEST SWAP1 JUMP JUMPDEST PUSH2 0x2CF PUSH2 0x2CA PUSH2 0x2D4 SWAP3 PUSH2 0x24F JUMP JUMPDEST PUSH2 0x2B8 JUMP JUMPDEST PUSH2 0x24F JUMP JUMPDEST SWAP1 JUMP JUMPDEST PUSH2 0x2E0 SWAP1 PUSH2 0x2BB JUMP JUMPDEST SWAP1 JUMP JUMPDEST PUSH2 0x2EC SWAP1 PUSH2 0x2D7 JUMP JUMPDEST SWAP1 JUMP JUMPDEST SWAP1 PUSH2 0x2F9 SWAP1 PUSH2 0x2E3 JUMP JUMPDEST PUSH1 0x0 MSTORE PUSH1 0x20 MSTORE PUSH1 0x40 PUSH1 0x0 KECCAK256 SWAP1 JUMP JUMPDEST PUSH2 0x31B PUSH2 0x316 PUSH2 0x320 SWAP3 PUSH2 0xB8 JUMP JUMPDEST PUSH2 0x2B8 JUMP JUMPDEST PUSH2 0xB8 JUMP JUMPDEST SWAP1 JUMP JUMPDEST SWAP1 PUSH2 0x32D SWAP1 PUSH2 0x307 JUMP JUMPDEST PUSH1 0x0 MSTORE PUSH1 0x20 MSTORE PUSH1 0x40 PUSH1 0x0 KECCAK256 SWAP1 JUMP JUMPDEST SHR SWAP1 JUMP JUMPDEST PUSH1 0xFF AND SWAP1 JUMP JUMPDEST PUSH2 0x355 SWAP1 PUSH1 0x8 PUSH2 0x35A SWAP4 MUL PUSH2 0x33B JUMP JUMPDEST PUSH2 0x33F JUMP JUMPDEST SWAP1 JUMP JUMPDEST SWAP1 PUSH2 0x368 SWAP2 SLOAD PUSH2 0x345 JUMP JUMPDEST SWAP1 JUMP JUMPDEST PUSH2 0x385 PUSH2 0x38A SWAP3 PUSH2 0x380 PUSH1 0x1 SWAP4 PUSH1 0x0 SWAP5 PUSH2 0x2EF JUMP JUMPDEST PUSH2 0x323 JUMP JUMPDEST PUSH2 0x35D JUMP JUMPDEST SWAP1 JUMP JUMPDEST ISZERO ISZERO SWAP1 JUMP JUMPDEST PUSH2 0x39B SWAP1 PUSH2 0x38D JUMP JUMPDEST SWAP1 MSTORE JUMP JUMPDEST SWAP2 SWAP1 PUSH2 0x3B3 SWAP1 PUSH1 0x0 PUSH1 0x20 DUP6 ADD SWAP5 ADD SWAP1 PUSH2 0x392 JUMP JUMPDEST JUMP JUMPDEST CALLVALUE PUSH2 0x3E6 JUMPI PUSH2 0x3E2 PUSH2 0x3D1 PUSH2 0x3CB CALLDATASIZE PUSH1 0x4 PUSH2 0x28A JUMP JUMPDEST SWAP1 PUSH2 0x36B JUMP JUMPDEST PUSH2 0x3D9 PUSH2 0xA3 JUMP JUMPDEST SWAP2 DUP3 SWAP2 DUP3 PUSH2 0x39F JUMP JUMPDEST SUB SWAP1 RETURN JUMPDEST PUSH2 0xA9 JUMP JUMPDEST SWAP1 PUSH1 0x20 DUP3 DUP3 SUB SLT PUSH2 0x405 JUMPI PUSH2 0x402 SWAP2 PUSH1 0x0 ADD PUSH2 0xD0 JUMP JUMPDEST SWAP1 JUMP JUMPDEST PUSH2 0xAE JUMP JUMPDEST PUSH4 0x4E487B71 PUSH1 0xE0 SHL PUSH1 0x0 MSTORE PUSH1 0x32 PUSH1 0x4 MSTORE PUSH1 0x24 PUSH1 0x0 REVERT JUMPDEST SLOAD SWAP1 JUMP JUMPDEST PUSH1 0x0 MSTORE PUSH1 0x20 PUSH1 0x0 KECCAK256 SWAP1 JUMP JUMPDEST PUSH2 0x438 DUP2 PUSH2 0x420 JUMP JUMPDEST DUP3 LT ISZERO PUSH2 0x453 JUMPI PUSH2 0x44A PUSH1 0x4 SWAP2 PUSH2 0x424 JUMP JUMPDEST SWAP2 MUL ADD SWAP1 PUSH1 0x0 SWAP1 JUMP JUMPDEST PUSH2 0x40A JUMP JUMPDEST PUSH1 0x0 SHR SWAP1 JUMP JUMPDEST SWAP1 JUMP JUMPDEST PUSH2 0x46D PUSH2 0x472 SWAP2 PUSH2 0x458 JUMP JUMPDEST PUSH2 0x45E JUMP JUMPDEST SWAP1 JUMP JUMPDEST PUSH2 0x47F SWAP1 SLOAD PUSH2 0x461 JUMP JUMPDEST SWAP1 JUMP JUMPDEST PUSH4 0x4E487B71 PUSH1 0xE0 SHL PUSH1 0x0 MSTORE PUSH1 0x22 PUSH1 0x4 MSTORE PUSH1 0x24 PUSH1 0x0 REVERT JUMPDEST SWAP1 PUSH1 0x1 PUSH1 0x2 DUP4 DIV SWAP3 AND DUP1 ISZERO PUSH2 0x4B8 JUMPI JUMPDEST PUSH1 0x20 DUP4 LT EQ PUSH2 0x4B3 JUMPI JUMP JUMPDEST PUSH2 0x482 JUMP JUMPDEST SWAP2 PUSH1 0x7F AND SWAP2 PUSH2 0x4A8 JUMP JUMPDEST PUSH1 0x20 SWAP2 DUP2 MSTORE ADD SWAP1 JUMP JUMPDEST PUSH1 0x0 MSTORE PUSH1 0x20 PUSH1 0x0 KECCAK256 SWAP1 JUMP JUMPDEST SWAP1 PUSH1 0x0 SWAP3 SWAP2 DUP1 SLOAD SWAP1 PUSH2 0x4F1 PUSH2 0x4EA DUP4 PUSH2 0x498 JUMP JUMPDEST DUP1 SWAP5 PUSH2 0x4C2 JUMP JUMPDEST SWAP2 PUSH1 0x1 DUP2 AND SWAP1 DUP2 PUSH1 0x0 EQ PUSH2 0x54A JUMPI POP PUSH1 0x1 EQ PUSH2 0x50D JUMPI JUMPDEST POP POP POP JUMP JUMPDEST PUSH2 0x51A SWAP2 SWAP3 SWAP4 SWAP5 POP PUSH2 0x4CB JUMP JUMPDEST SWAP2 PUSH1 0x0 SWAP3 JUMPDEST DUP2 DUP5 LT PUSH2 0x532 JUMPI POP POP ADD SWAP1 CODESIZE DUP1 DUP1 PUSH2 0x508 JUMP JUMPDEST PUSH1 0x1 DUP2 PUSH1 0x20 SWAP3 SWAP6 SWAP4 SWAP6 SLOAD DUP5 DUP7 ADD MSTORE ADD SWAP2 ADD SWAP3 SWAP1 PUSH2 0x51F JUMP JUMPDEST SWAP3 SWAP5 SWAP6 POP POP POP PUSH1 0xFF NOT AND DUP3 MSTORE ISZERO ISZERO PUSH1 0x20 MUL ADD SWAP1 CODESIZE DUP1 DUP1 PUSH2 0x508 JUMP JUMPDEST SWAP1 PUSH2 0x56F SWAP2 PUSH2 0x4D6 JUMP JUMPDEST SWAP1 JUMP JUMPDEST SWAP1 PUSH2 0x592 PUSH2 0x58B SWAP3 PUSH2 0x582 PUSH2 0xA3 JUMP JUMPDEST SWAP4 DUP5 DUP1 SWAP3 PUSH2 0x565 JUMP JUMPDEST SUB DUP4 PUSH2 0x109 JUMP JUMPDEST JUMP JUMPDEST PUSH1 0x0 SWAP1 PUSH2 0x5A0 DUP3 PUSH2 0x420 JUMP JUMPDEST DUP2 LT ISZERO PUSH2 0x5D9 JUMPI PUSH2 0x5B0 SWAP2 PUSH2 0x42F JUMP JUMPDEST POP PUSH2 0x5BD PUSH1 0x0 DUP3 ADD PUSH2 0x475 JUMP JUMPDEST SWAP2 PUSH2 0x5D6 PUSH1 0x2 PUSH2 0x5CF PUSH1 0x1 DUP6 ADD PUSH2 0x572 JUMP JUMPDEST SWAP4 ADD PUSH2 0x572 JUMP JUMPDEST SWAP1 JUMP JUMPDEST PUSH1 0x0 DUP1 REVERT JUMPDEST PUSH2 0x5E7 SWAP1 PUSH2 0xB8 JUMP JUMPDEST SWAP1 MSTORE JUMP JUMPDEST MLOAD SWAP1 JUMP JUMPDEST PUSH1 0x20 SWAP2 DUP2 MSTORE ADD SWAP1 JUMP JUMPDEST PUSH1 0x0 JUMPDEST DUP4 DUP2 LT PUSH2 0x60C JUMPI POP POP SWAP1 PUSH1 0x0 SWAP2 ADD MSTORE JUMP JUMPDEST DUP1 PUSH1 0x20 SWAP2 DUP4 ADD MLOAD DUP2 DUP6 ADD MSTORE ADD PUSH2 0x5FB JUMP JUMPDEST PUSH2 0x63C PUSH2 0x645 PUSH1 0x20 SWAP4 PUSH2 0x64A SWAP4 PUSH2 0x633 DUP2 PUSH2 0x5EB JUMP JUMPDEST SWAP4 DUP5 DUP1 SWAP4 PUSH2 0x5EF JUMP JUMPDEST SWAP6 DUP7 SWAP2 ADD PUSH2 0x5F8 JUMP JUMPDEST PUSH2 0xE9 JUMP JUMPDEST ADD SWAP1 JUMP JUMPDEST SWAP2 PUSH2 0x685 SWAP4 SWAP2 PUSH2 0x677 SWAP2 PUSH2 0x66A PUSH1 0x60 DUP7 ADD SWAP3 PUSH1 0x0 DUP8 ADD SWAP1 PUSH2 0x5DE JUMP JUMPDEST DUP5 DUP3 SUB PUSH1 0x20 DUP7 ADD MSTORE PUSH2 0x61D JUMP JUMPDEST SWAP2 PUSH1 0x40 DUP2 DUP5 SUB SWAP2 ADD MSTORE PUSH2 0x61D JUMP JUMPDEST SWAP1 JUMP JUMPDEST CALLVALUE PUSH2 0x6BB JUMPI PUSH2 0x6B7 PUSH2 0x6A3 PUSH2 0x69E CALLDATASIZE PUSH1 0x4 PUSH2 0x3EB JUMP JUMPDEST PUSH2 0x594 JUMP JUMPDEST PUSH2 0x6AE SWAP4 SWAP2 SWAP4 PUSH2 0xA3 JUMP JUMPDEST SWAP4 DUP5 SWAP4 DUP5 PUSH2 0x64E JUMP JUMPDEST SUB SWAP1 RETURN JUMPDEST PUSH2 0xA9 JUMP JUMPDEST PUSH8 0xFFFFFFFFFFFFFFFF DUP2 GT PUSH2 0x6D8 JUMPI PUSH1 0x20 DUP1 SWAP2 MUL ADD SWAP1 JUMP JUMPDEST PUSH2 0xF3 JUMP JUMPDEST PUSH1 0x0 DUP1 REVERT JUMPDEST SWAP3 SWAP2 SWAP1 PUSH2 0x6F6 PUSH2 0x6F1 DUP3 PUSH2 0x6C0 JUMP JUMPDEST PUSH2 0x132 JUMP JUMPDEST SWAP4 DUP2 DUP6 MSTORE PUSH1 0x20 DUP1 DUP7 ADD SWAP3 MUL DUP2 ADD SWAP2 DUP4 DUP4 GT PUSH2 0x74D JUMPI DUP2 SWAP1 JUMPDEST DUP4 DUP3 LT PUSH2 0x71C JUMPI POP POP POP POP POP JUMP JUMPDEST DUP2 CALLDATALOAD PUSH8 0xFFFFFFFFFFFFFFFF DUP2 GT PUSH2 0x748 JUMPI PUSH1 0x20 SWAP2 PUSH2 0x73D DUP8 DUP5 SWAP4 DUP8 ADD PUSH2 0x1AC JUMP JUMPDEST DUP2 MSTORE ADD SWAP2 ADD SWAP1 PUSH2 0x70E JUMP JUMPDEST PUSH2 0xDF JUMP JUMPDEST PUSH2 0x6DD JUMP JUMPDEST SWAP1 DUP1 PUSH1 0x1F DUP4 ADD SLT ISZERO PUSH2 0x770 JUMPI DUP2 PUSH1 0x20 PUSH2 0x76D SWAP4 CALLDATALOAD SWAP2 ADD PUSH2 0x6E2 JUMP JUMPDEST SWAP1 JUMP JUMPDEST PUSH2 0xDF JUMP JUMPDEST SWAP2 PUSH1 0x60 DUP4 DUP4 SUB SLT PUSH2 0x7F2 JUMPI PUSH1 0x0 DUP4 ADD CALLDATALOAD PUSH8 0xFFFFFFFFFFFFFFFF DUP2 GT PUSH2 0x7ED JUMPI DUP3 PUSH2 0x7A0 SWAP2 DUP6 ADD PUSH2 0x1AC JUMP JUMPDEST SWAP3 PUSH1 0x20 DUP2 ADD CALLDATALOAD PUSH8 0xFFFFFFFFFFFFFFFF DUP2 GT PUSH2 0x7E8 JUMPI DUP4 PUSH2 0x7C1 SWAP2 DUP4 ADD PUSH2 0x1AC JUMP JUMPDEST SWAP3 PUSH1 0x40 DUP3 ADD CALLDATALOAD PUSH8 0xFFFFFFFFFFFFFFFF DUP2 GT PUSH2 0x7E3 JUMPI PUSH2 0x7E0 SWAP3 ADD PUSH2 0x752 JUMP JUMPDEST SWAP1 JUMP JUMPDEST PUSH2 0xB3 JUMP JUMPDEST PUSH2 0xB3 JUMP JUMPDEST PUSH2 0xB3 JUMP JUMPDEST PUSH2 0xAE JUMP JUMPDEST CALLVALUE PUSH2 0x826 JUMPI PUSH2 0x810 PUSH2 0x80A CALLDATASIZE PUSH1 0x4 PUSH2 0x775 JUMP JUMPDEST SWAP2 PUSH2 0x14B1 JUMP JUMPDEST PUSH2 0x818 PUSH2 0xA3 JUMP JUMPDEST DUP1 PUSH2 0x822 DUP2 PUSH2 0x215 JUMP JUMPDEST SUB SWAP1 RETURN JUMPDEST PUSH2 0xA9 JUMP JUMPDEST SWAP5 SWAP4 SWAP2 PUSH2 0x871 SWAP4 PUSH2 0x85B PUSH1 0x60 SWAP4 PUSH2 0x869 SWAP4 PUSH2 0x84E PUSH1 0x80 DUP12 ADD SWAP3 PUSH1 0x0 DUP13 ADD SWAP1 PUSH2 0x5DE JUMP JUMPDEST DUP10 DUP3 SUB PUSH1 0x20 DUP12 ADD MSTORE PUSH2 0x61D JUMP JUMPDEST SWAP1 DUP8 DUP3 SUB PUSH1 0x40 DUP10 ADD MSTORE PUSH2 0x61D JUMP JUMPDEST SWAP5 ADD SWAP1 PUSH2 0x5DE JUMP JUMPDEST JUMP JUMPDEST CALLVALUE PUSH2 0x8A7 JUMPI PUSH2 0x8A3 PUSH2 0x88E PUSH2 0x889 CALLDATASIZE PUSH1 0x4 PUSH2 0x3EB JUMP JUMPDEST PUSH2 0x164C JUMP JUMPDEST SWAP1 PUSH2 0x89A SWAP5 SWAP3 SWAP5 PUSH2 0xA3 JUMP JUMPDEST SWAP5 DUP6 SWAP5 DUP6 PUSH2 0x82B JUMP JUMPDEST SUB SWAP1 RETURN JUMPDEST PUSH2 0xA9 JUMP JUMPDEST PUSH1 0x0 SWAP2 SUB SLT PUSH2 0x8B7 JUMPI JUMP JUMPDEST PUSH2 0xAE JUMP JUMPDEST MLOAD SWAP1 JUMP JUMPDEST PUSH1 0x20 SWAP2 DUP2 MSTORE ADD SWAP1 JUMP JUMPDEST PUSH1 0x20 ADD SWAP1 JUMP JUMPDEST PUSH2 0x8D8 SWAP1 PUSH2 0xB8 JUMP JUMPDEST SWAP1 MSTORE JUMP JUMPDEST SWAP1 PUSH2 0x8E9 DUP2 PUSH1 0x20 SWAP4 PUSH2 0x8CF JUMP JUMPDEST ADD SWAP1 JUMP JUMPDEST PUSH1 0x20 ADD SWAP1 JUMP JUMPDEST SWAP1 PUSH2 0x910 PUSH2 0x90A PUSH2 0x903 DUP5 PUSH2 0x8BC JUMP JUMPDEST DUP1 SWAP4 PUSH2 0x8C0 JUMP JUMPDEST SWAP3 PUSH2 0x8C9 JUMP JUMPDEST SWAP1 PUSH1 0x0 JUMPDEST DUP2 DUP2 LT PUSH2 0x921 JUMPI POP POP POP SWAP1 JUMP JUMPDEST SWAP1 SWAP2 SWAP3 PUSH2 0x93A PUSH2 0x934 PUSH1 0x1 SWAP3 DUP7 MLOAD PUSH2 0x8DC JUMP JUMPDEST SWAP5 PUSH2 0x8ED JUMP JUMPDEST SWAP2 ADD SWAP2 SWAP1 SWAP2 PUSH2 0x914 JUMP JUMPDEST MLOAD SWAP1 JUMP JUMPDEST PUSH1 0x20 SWAP2 DUP2 MSTORE ADD SWAP1 JUMP JUMPDEST PUSH1 0x20 ADD SWAP1 JUMP JUMPDEST PUSH2 0x976 PUSH2 0x97F PUSH1 0x20 SWAP4 PUSH2 0x984 SWAP4 PUSH2 0x96D DUP2 PUSH2 0x5EB JUMP JUMPDEST SWAP4 DUP5 DUP1 SWAP4 PUSH2 0x4C2 JUMP JUMPDEST SWAP6 DUP7 SWAP2 ADD PUSH2 0x5F8 JUMP JUMPDEST PUSH2 0xE9 JUMP JUMPDEST ADD SWAP1 JUMP JUMPDEST SWAP1 PUSH2 0x992 SWAP2 PUSH2 0x957 JUMP JUMPDEST SWAP1 JUMP JUMPDEST PUSH1 0x20 ADD SWAP1 JUMP JUMPDEST SWAP1 PUSH2 0x9AF PUSH2 0x9A8 DUP4 PUSH2 0x944 JUMP JUMPDEST DUP1 SWAP3 PUSH2 0x948 JUMP JUMPDEST SWAP1 DUP2 PUSH2 0x9C0 PUSH1 0x20 DUP4 MUL DUP5 ADD SWAP5 PUSH2 0x951 JUMP JUMPDEST SWAP3 PUSH1 0x0 SWAP2 JUMPDEST DUP4 DUP4 LT PUSH2 0x9D4 JUMPI POP POP POP POP POP SWAP1 JUMP JUMPDEST SWAP1 SWAP2 SWAP3 SWAP4 SWAP5 PUSH1 0x20 PUSH2 0x9F6 PUSH2 0x9F0 DUP4 DUP6 PUSH1 0x1 SWAP6 SUB DUP8 MSTORE DUP10 MLOAD PUSH2 0x988 JUMP JUMPDEST SWAP8 PUSH2 0x995 JUMP JUMPDEST SWAP4 ADD SWAP4 ADD SWAP2 SWAP4 SWAP3 SWAP1 PUSH2 0x9C5 JUMP JUMPDEST SWAP3 PUSH2 0xA33 PUSH2 0xA4F SWAP6 SWAP4 PUSH2 0xA25 PUSH2 0xA41 SWAP5 PUSH1 0x80 DUP9 ADD SWAP1 DUP9 DUP3 SUB PUSH1 0x0 DUP11 ADD MSTORE PUSH2 0x8F3 JUMP JUMPDEST SWAP1 DUP7 DUP3 SUB PUSH1 0x20 DUP9 ADD MSTORE PUSH2 0x99B JUMP JUMPDEST SWAP1 DUP5 DUP3 SUB PUSH1 0x40 DUP7 ADD MSTORE PUSH2 0x99B JUMP JUMPDEST SWAP2 PUSH1 0x60 DUP2 DUP5 SUB SWAP2 ADD MSTORE PUSH2 0x8F3 JUMP JUMPDEST SWAP1 JUMP JUMPDEST CALLVALUE PUSH2 0xA86 JUMPI PUSH2 0xA62 CALLDATASIZE PUSH1 0x4 PUSH2 0x8AC JUMP JUMPDEST PUSH2 0xA82 PUSH2 0xA6D PUSH2 0x17CD JUMP JUMPDEST SWAP1 PUSH2 0xA79 SWAP5 SWAP3 SWAP5 PUSH2 0xA3 JUMP JUMPDEST SWAP5 DUP6 SWAP5 DUP6 PUSH2 0xA03 JUMP JUMPDEST SUB SWAP1 RETURN JUMPDEST PUSH2 0xA9 JUMP JUMPDEST SWAP2 PUSH2 0xAB8 SWAP1 PUSH2 0xAAA PUSH2 0xAC6 SWAP6 SWAP4 PUSH1 0x60 DUP7 ADD SWAP1 DUP7 DUP3 SUB PUSH1 0x0 DUP9 ADD MSTORE PUSH2 0x8F3 JUMP JUMPDEST SWAP1 DUP5 DUP3 SUB PUSH1 0x20 DUP7 ADD MSTORE PUSH2 0x99B JUMP JUMPDEST SWAP2 PUSH1 0x40 DUP2 DUP5 SUB SWAP2 ADD MSTORE PUSH2 0x8F3 JUMP JUMPDEST SWAP1 JUMP JUMPDEST CALLVALUE PUSH2 0xAFC JUMPI PUSH2 0xAF8 PUSH2 0xAE4 PUSH2 0xADF CALLDATASIZE PUSH1 0x4 PUSH2 0x3EB JUMP JUMPDEST PUSH2 0x191C JUMP JUMPDEST PUSH2 0xAEF SWAP4 SWAP2 SWAP4 PUSH2 0xA3 JUMP JUMPDEST SWAP4 DUP5 SWAP4 DUP5 PUSH2 0xA8B JUMP JUMPDEST SUB SWAP1 RETURN JUMPDEST PUSH2 0xA9 JUMP JUMPDEST SWAP2 SWAP1 PUSH1 0x40 DUP4 DUP3 SUB SLT PUSH2 0xB2A JUMPI DUP1 PUSH2 0xB1E PUSH2 0xB27 SWAP3 PUSH1 0x0 DUP7 ADD PUSH2 0xD0 JUMP JUMPDEST SWAP4 PUSH1 0x20 ADD PUSH2 0xD0 JUMP JUMPDEST SWAP1 JUMP JUMPDEST PUSH2 0xAE JUMP JUMPDEST CALLVALUE PUSH2 0xB5E JUMPI PUSH2 0xB48 PUSH2 0xB42 CALLDATASIZE PUSH1 0x4 PUSH2 0xB01 JUMP JUMPDEST SWAP1 PUSH2 0x1C86 JUMP JUMPDEST PUSH2 0xB50 PUSH2 0xA3 JUMP JUMPDEST DUP1 PUSH2 0xB5A DUP2 PUSH2 0x215 JUMP JUMPDEST SUB SWAP1 RETURN JUMPDEST PUSH2 0xA9 JUMP JUMPDEST PUSH1 0x0 DUP1 REVERT JUMPDEST SWAP1 JUMP JUMPDEST SLOAD SWAP1 JUMP JUMPDEST PUSH2 0xB79 PUSH1 0x60 PUSH2 0x132 JUMP JUMPDEST SWAP1 JUMP JUMPDEST SWAP1 PUSH2 0xB86 SWAP1 PUSH2 0xB8 JUMP JUMPDEST SWAP1 MSTORE JUMP JUMPDEST MSTORE JUMP JUMPDEST SWAP1 JUMP JUMPDEST PUSH2 0xBA4 PUSH2 0xB9F PUSH2 0xBA9 SWAP3 PUSH2 0xB8D JUMP JUMPDEST PUSH2 0x2B8 JUMP JUMPDEST PUSH2 0xB8 JUMP JUMPDEST SWAP1 JUMP JUMPDEST PUSH1 0x0 MSTORE PUSH1 0x20 PUSH1 0x0 KECCAK256 SWAP1 JUMP JUMPDEST SLOAD SWAP1 JUMP JUMPDEST PUSH2 0xBC4 DUP2 PUSH2 0xBB7 JUMP JUMPDEST DUP3 LT ISZERO PUSH2 0xBDF JUMPI PUSH2 0xBD6 PUSH1 0x3 SWAP2 PUSH2 0xBAC JUMP JUMPDEST SWAP2 MUL ADD SWAP1 PUSH1 0x0 SWAP1 JUMP JUMPDEST PUSH2 0x40A JUMP JUMPDEST PUSH4 0x4E487B71 PUSH1 0xE0 SHL PUSH1 0x0 MSTORE PUSH1 0x0 PUSH1 0x4 MSTORE PUSH1 0x24 PUSH1 0x0 REVERT JUMPDEST PUSH2 0xC04 SWAP1 MLOAD PUSH2 0xB8 JUMP JUMPDEST SWAP1 JUMP JUMPDEST PUSH1 0x0 SHL SWAP1 JUMP JUMPDEST SWAP1 PUSH2 0xC1A PUSH1 0x0 NOT SWAP2 PUSH2 0xC07 JUMP JUMPDEST SWAP2 DUP2 NOT AND SWAP2 AND OR SWAP1 JUMP JUMPDEST SWAP1 JUMP JUMPDEST SWAP1 PUSH2 0xC3C PUSH2 0xC37 PUSH2 0xC43 SWAP3 PUSH2 0x307 JUMP JUMPDEST PUSH2 0xC24 JUMP JUMPDEST DUP3 SLOAD PUSH2 0xC0D JUMP JUMPDEST SWAP1 SSTORE JUMP JUMPDEST MLOAD SWAP1 JUMP JUMPDEST PUSH1 0x1F PUSH1 0x20 SWAP2 ADD DIV SWAP1 JUMP JUMPDEST SHL SWAP1 JUMP JUMPDEST SWAP2 SWAP1 PUSH1 0x8 PUSH2 0xC75 SWAP2 MUL SWAP2 PUSH2 0xC6F PUSH1 0x0 NOT DUP5 PUSH2 0xC55 JUMP JUMPDEST SWAP3 PUSH2 0xC55 JUMP JUMPDEST SWAP2 DUP2 NOT AND SWAP2 AND OR SWAP1 JUMP JUMPDEST SWAP2 SWAP1 PUSH2 0xC95 PUSH2 0xC90 PUSH2 0xC9D SWAP4 PUSH2 0x307 JUMP JUMPDEST PUSH2 0xC24 JUMP JUMPDEST SWAP1 DUP4 SLOAD PUSH2 0xC59 JUMP JUMPDEST SWAP1 SSTORE JUMP JUMPDEST PUSH1 0x0 SWAP1 JUMP JUMPDEST PUSH2 0xCB8 SWAP2 PUSH2 0xCB2 PUSH2 0xCA1 JUMP JUMPDEST SWAP2 PUSH2 0xC7F JUMP JUMPDEST JUMP JUMPDEST JUMPDEST DUP2 DUP2 LT PUSH2 0xCC6 JUMPI POP POP JUMP JUMPDEST DUP1 PUSH2 0xCD4 PUSH1 0x0 PUSH1 0x1 SWAP4 PUSH2 0xCA6 JUMP JUMPDEST ADD PUSH2 0xCBB JUMP JUMPDEST SWAP2 SWAP1 PUSH1 0x1F DUP2 GT PUSH2 0xCEA JUMPI JUMPDEST POP POP POP JUMP JUMPDEST PUSH2 0xCF6 PUSH2 0xD1B SWAP4 PUSH2 0x4CB JUMP JUMPDEST SWAP1 PUSH1 0x20 PUSH2 0xD02 DUP5 PUSH2 0xC4B JUMP JUMPDEST DUP4 ADD SWAP4 LT PUSH2 0xD23 JUMPI JUMPDEST PUSH2 0xD14 SWAP1 PUSH2 0xC4B JUMP JUMPDEST ADD SWAP1 PUSH2 0xCBA JUMP JUMPDEST CODESIZE DUP1 DUP1 PUSH2 0xCE5 JUMP JUMPDEST SWAP2 POP PUSH2 0xD14 DUP2 SWAP3 SWAP1 POP PUSH2 0xD0B JUMP JUMPDEST SWAP1 PUSH2 0xD42 SWAP1 PUSH1 0x0 NOT SWAP1 PUSH1 0x8 MUL PUSH2 0x33B JUMP JUMPDEST NOT AND SWAP1 JUMP JUMPDEST DUP2 PUSH2 0xD51 SWAP2 PUSH2 0xD31 JUMP JUMPDEST SWAP1 PUSH1 0x2 MUL OR SWAP1 JUMP JUMPDEST SWAP1 PUSH2 0xD63 DUP2 PUSH2 0x5EB JUMP JUMPDEST SWAP1 PUSH8 0xFFFFFFFFFFFFFFFF DUP3 GT PUSH2 0xE25 JUMPI PUSH2 0xD87 DUP3 PUSH2 0xD81 DUP6 SLOAD PUSH2 0x498 JUMP JUMPDEST DUP6 PUSH2 0xCDA JUMP JUMPDEST PUSH1 0x20 SWAP1 PUSH1 0x1F DUP4 GT PUSH1 0x1 EQ PUSH2 0xDBC JUMPI SWAP2 DUP1 SWAP2 PUSH2 0xDAB SWAP4 PUSH1 0x0 SWAP3 PUSH2 0xDB0 JUMPI JUMPDEST POP POP PUSH2 0xD47 JUMP JUMPDEST SWAP1 SSTORE JUMPDEST JUMP JUMPDEST SWAP1 SWAP2 POP ADD MLOAD CODESIZE DUP1 PUSH2 0xDA4 JUMP JUMPDEST PUSH1 0x1F NOT DUP4 AND SWAP2 PUSH2 0xDCB DUP6 PUSH2 0x4CB JUMP JUMPDEST SWAP3 PUSH1 0x0 JUMPDEST DUP2 DUP2 LT PUSH2 0xE0D JUMPI POP SWAP2 PUSH1 0x2 SWAP4 SWAP2 DUP6 PUSH1 0x1 SWAP7 SWAP5 LT PUSH2 0xDF3 JUMPI JUMPDEST POP POP POP MUL ADD SWAP1 SSTORE PUSH2 0xDAE JUMP JUMPDEST PUSH2 0xE03 SWAP2 ADD MLOAD PUSH1 0x1F DUP5 AND SWAP1 PUSH2 0xD31 JUMP JUMPDEST SWAP1 SSTORE CODESIZE DUP1 DUP1 PUSH2 0xDE7 JUMP JUMPDEST SWAP2 SWAP4 PUSH1 0x20 PUSH1 0x1 DUP2 SWAP3 DUP8 DUP8 ADD MLOAD DUP2 SSTORE ADD SWAP6 ADD SWAP3 ADD PUSH2 0xDCF JUMP JUMPDEST PUSH2 0xF3 JUMP JUMPDEST SWAP1 PUSH2 0xE34 SWAP2 PUSH2 0xD59 JUMP JUMPDEST JUMP JUMPDEST SWAP1 PUSH2 0xE7C PUSH1 0x40 PUSH1 0x2 PUSH2 0xE82 SWAP5 PUSH2 0xE5B PUSH1 0x0 DUP3 ADD PUSH2 0xE55 PUSH1 0x0 DUP9 ADD PUSH2 0xBFA JUMP JUMPDEST SWAP1 PUSH2 0xC27 JUMP JUMPDEST PUSH2 0xE74 PUSH1 0x1 DUP3 ADD PUSH2 0xE6E PUSH1 0x20 DUP9 ADD PUSH2 0xC47 JUMP JUMPDEST SWAP1 PUSH2 0xE2A JUMP JUMPDEST ADD SWAP3 ADD PUSH2 0xBFA JUMP JUMPDEST SWAP1 PUSH2 0xC27 JUMP JUMPDEST JUMP JUMPDEST SWAP2 SWAP1 PUSH2 0xE95 JUMPI PUSH2 0xE93 SWAP2 PUSH2 0xE36 JUMP JUMPDEST JUMP JUMPDEST PUSH2 0xBE4 JUMP JUMPDEST SWAP1 DUP2 SLOAD SWAP2 PUSH9 0x10000000000000000 DUP4 LT ISZERO PUSH2 0xECA JUMPI DUP3 PUSH2 0xEC2 SWAP2 PUSH1 0x1 PUSH2 0xEC8 SWAP6 ADD DUP2 SSTORE PUSH2 0xBBB JUMP JUMPDEST SWAP1 PUSH2 0xE84 JUMP JUMPDEST JUMP JUMPDEST PUSH2 0xF3 JUMP JUMPDEST SWAP1 PUSH2 0xF40 SWAP2 PUSH2 0xF3B PUSH2 0xF32 PUSH2 0xF08 PUSH1 0x3 PUSH2 0xF01 PUSH2 0xEF9 DUP3 PUSH2 0xEF2 PUSH1 0x0 DUP10 SWAP1 PUSH2 0x42F JUMP JUMPDEST POP ADD PUSH2 0xB68 JUMP JUMPDEST SWAP6 PUSH1 0x0 PUSH2 0x42F JUMP JUMPDEST POP ADD PUSH2 0xB6B JUMP JUMPDEST SWAP4 PUSH2 0xF2D PUSH1 0x0 SWAP2 PUSH2 0xF24 PUSH2 0xF1A PUSH2 0xB6F JUMP JUMPDEST SWAP8 PUSH1 0x0 DUP10 ADD PUSH2 0xB7C JUMP JUMPDEST PUSH1 0x20 DUP8 ADD PUSH2 0xB8A JUMP JUMPDEST PUSH2 0xB90 JUMP JUMPDEST PUSH1 0x40 DUP5 ADD PUSH2 0xB7C JUMP JUMPDEST PUSH2 0xE9A JUMP JUMPDEST JUMP JUMPDEST PUSH8 0xFFFFFFFFFFFFFFFF DUP2 GT PUSH2 0xF5A JUMPI PUSH1 0x20 DUP1 SWAP2 MUL ADD SWAP1 JUMP JUMPDEST PUSH2 0xF3 JUMP JUMPDEST SWAP1 PUSH2 0xF71 PUSH2 0xF6C DUP4 PUSH2 0xF42 JUMP JUMPDEST PUSH2 0x132 JUMP JUMPDEST SWAP2 DUP3 MSTORE JUMP JUMPDEST PUSH2 0xF80 PUSH1 0x60 PUSH2 0x132 JUMP JUMPDEST SWAP1 JUMP JUMPDEST PUSH1 0x0 SWAP1 JUMP JUMPDEST PUSH1 0x60 SWAP1 JUMP JUMPDEST PUSH2 0xF95 PUSH2 0xF76 JUMP JUMPDEST SWAP1 PUSH1 0x20 DUP1 DUP1 DUP5 PUSH2 0xFA3 PUSH2 0xF83 JUMP JUMPDEST DUP2 MSTORE ADD PUSH2 0xFAE PUSH2 0xF88 JUMP JUMPDEST DUP2 MSTORE ADD PUSH2 0xFB9 PUSH2 0xF83 JUMP JUMPDEST DUP2 MSTORE POP POP JUMP JUMPDEST PUSH2 0xFC7 PUSH2 0xF8D JUMP JUMPDEST SWAP1 JUMP JUMPDEST PUSH1 0x0 JUMPDEST DUP3 DUP2 LT PUSH2 0xFD9 JUMPI POP POP POP JUMP JUMPDEST PUSH1 0x20 SWAP1 PUSH2 0xFE4 PUSH2 0xFBF JUMP JUMPDEST DUP2 DUP5 ADD MSTORE ADD PUSH2 0xFCD JUMP JUMPDEST SWAP1 PUSH2 0x1013 PUSH2 0xFFB DUP4 PUSH2 0xF5F JUMP JUMPDEST SWAP3 PUSH1 0x20 DUP1 PUSH2 0x1009 DUP7 SWAP4 PUSH2 0xF42 JUMP JUMPDEST SWAP3 ADD SWAP2 SUB SWAP1 PUSH2 0xFCA JUMP JUMPDEST JUMP JUMPDEST PUSH2 0x101F PUSH1 0x80 PUSH2 0x132 JUMP JUMPDEST SWAP1 JUMP JUMPDEST MSTORE JUMP JUMPDEST SWAP1 JUMP JUMPDEST PUSH1 0x0 MSTORE PUSH1 0x20 PUSH1 0x0 KECCAK256 SWAP1 JUMP JUMPDEST SLOAD SWAP1 JUMP JUMPDEST PUSH2 0x1040 DUP2 PUSH2 0x1033 JUMP JUMPDEST DUP3 LT ISZERO PUSH2 0x105B JUMPI PUSH2 0x1052 PUSH1 0x4 SWAP2 PUSH2 0x1028 JUMP JUMPDEST SWAP2 MUL ADD SWAP1 PUSH1 0x0 SWAP1 JUMP JUMPDEST PUSH2 0x40A JUMP JUMPDEST MLOAD SWAP1 JUMP JUMPDEST PUSH1 0x20 ADD SWAP1 JUMP JUMPDEST PUSH4 0x4E487B71 PUSH1 0xE0 SHL PUSH1 0x0 MSTORE PUSH1 0x11 PUSH1 0x4 MSTORE PUSH1 0x24 PUSH1 0x0 REVERT JUMPDEST PUSH2 0x108F PUSH2 0x1095 SWAP2 SWAP4 SWAP3 SWAP4 PUSH2 0xB8 JUMP JUMPDEST SWAP3 PUSH2 0xB8 JUMP JUMPDEST SWAP2 PUSH2 0x10A1 DUP4 DUP3 MUL PUSH2 0xB8 JUMP JUMPDEST SWAP3 DUP2 DUP5 DIV EQ SWAP1 ISZERO OR ISZERO PUSH2 0x10B0 JUMPI JUMP JUMPDEST PUSH2 0x106A JUMP JUMPDEST PUSH2 0x10C0 SWAP1 PUSH1 0x3 PUSH2 0x1080 JUMP JUMPDEST SWAP1 JUMP JUMPDEST PUSH1 0x0 MSTORE PUSH1 0x20 PUSH1 0x0 KECCAK256 SWAP1 JUMP JUMPDEST SWAP1 PUSH2 0x10E2 SWAP1 PUSH1 0x0 NOT SWAP1 PUSH1 0x20 SUB PUSH1 0x8 MUL PUSH2 0x33B JUMP JUMPDEST DUP2 SLOAD AND SWAP1 SSTORE JUMP JUMPDEST SWAP1 PUSH1 0x0 SWAP2 PUSH2 0x1101 PUSH2 0x10F9 DUP3 PUSH2 0x4CB JUMP JUMPDEST SWAP3 DUP4 SLOAD PUSH2 0xD47 JUMP JUMPDEST SWAP1 SSTORE SSTORE JUMP JUMPDEST SWAP2 SWAP3 SWAP1 PUSH1 0x20 DUP3 LT PUSH1 0x0 EQ PUSH2 0x1160 JUMPI PUSH1 0x1F DUP5 GT PUSH1 0x1 EQ PUSH2 0x1130 JUMPI PUSH2 0x112A SWAP3 SWAP4 POP PUSH2 0xD47 JUMP JUMPDEST SWAP1 SSTORE JUMPDEST JUMPDEST JUMP JUMPDEST POP SWAP1 PUSH2 0x1156 PUSH2 0x115B SWAP4 PUSH1 0x1 PUSH2 0x114D PUSH2 0x1147 DUP6 PUSH2 0x4CB JUMP JUMPDEST SWAP3 PUSH2 0xC4B JUMP JUMPDEST DUP3 ADD SWAP2 ADD PUSH2 0xCBA JUMP JUMPDEST PUSH2 0x10E9 JUMP JUMPDEST PUSH2 0x112D JUMP JUMPDEST POP PUSH2 0x1197 DUP3 SWAP4 PUSH2 0x1171 PUSH1 0x1 SWAP5 PUSH2 0x4CB JUMP JUMPDEST PUSH2 0x1190 PUSH2 0x117D DUP6 PUSH2 0xC4B JUMP JUMPDEST DUP3 ADD SWAP3 PUSH1 0x1F DUP7 AND DUP1 PUSH2 0x11A2 JUMPI JUMPDEST POP PUSH2 0xC4B JUMP JUMPDEST ADD SWAP1 PUSH2 0xCBA JUMP JUMPDEST PUSH1 0x2 MUL OR SWAP1 SSTORE PUSH2 0x112E JUMP JUMPDEST PUSH2 0x11AE SWAP1 DUP9 DUP7 SUB PUSH2 0x10CE JUMP JUMPDEST CODESIZE PUSH2 0x118A JUMP JUMPDEST SWAP3 SWAP1 SWAP2 PUSH9 0x10000000000000000 DUP3 GT PUSH2 0x1216 JUMPI PUSH1 0x20 GT PUSH1 0x0 EQ PUSH2 0x1207 JUMPI PUSH1 0x20 DUP2 LT PUSH1 0x0 EQ PUSH2 0x11EB JUMPI PUSH2 0x11E5 SWAP2 PUSH2 0xD47 JUMP JUMPDEST SWAP1 SSTORE JUMPDEST JUMPDEST JUMP JUMPDEST PUSH1 0x1 SWAP2 PUSH1 0xFF NOT AND PUSH2 0x11FB DUP5 PUSH2 0x4CB JUMP JUMPDEST SSTORE PUSH1 0x2 MUL ADD SWAP1 SSTORE PUSH2 0x11E8 JUMP JUMPDEST PUSH1 0x1 SWAP2 POP PUSH1 0x2 MUL ADD SWAP1 SSTORE PUSH2 0x11E9 JUMP JUMPDEST PUSH2 0xF3 JUMP JUMPDEST SWAP1 DUP2 SLOAD PUSH2 0x1227 DUP2 PUSH2 0x498 JUMP JUMPDEST SWAP1 DUP2 DUP4 GT PUSH2 0x1250 JUMPI JUMPDEST DUP2 DUP4 LT PUSH2 0x123E JUMPI JUMPDEST POP POP POP POP JUMP JUMPDEST PUSH2 0x1247 SWAP4 PUSH2 0x1106 JUMP JUMPDEST CODESIZE DUP1 DUP1 DUP1 PUSH2 0x1238 JUMP JUMPDEST PUSH2 0x125C DUP4 DUP4 DUP4 DUP8 PUSH2 0x11B4 JUMP JUMPDEST PUSH2 0x1230 JUMP JUMPDEST PUSH1 0x0 PUSH2 0x126C SWAP2 PUSH2 0x121B JUMP JUMPDEST JUMP JUMPDEST SWAP1 PUSH1 0x0 SUB PUSH2 0x1281 JUMPI PUSH2 0x127F SWAP1 PUSH2 0x1261 JUMP JUMPDEST JUMP JUMPDEST PUSH2 0xBE4 JUMP JUMPDEST PUSH1 0x0 PUSH1 0x2 PUSH2 0x12AD SWAP3 PUSH2 0x129A DUP4 DUP1 DUP4 ADD PUSH2 0xCA6 JUMP JUMPDEST PUSH2 0x12A7 DUP4 PUSH1 0x1 DUP4 ADD PUSH2 0x126E JUMP JUMPDEST ADD PUSH2 0xCA6 JUMP JUMPDEST JUMP JUMPDEST SWAP1 PUSH1 0x0 SUB PUSH2 0x12C2 JUMPI PUSH2 0x12C0 SWAP1 PUSH2 0x1286 JUMP JUMPDEST JUMP JUMPDEST PUSH2 0xBE4 JUMP JUMPDEST JUMPDEST DUP2 DUP2 LT PUSH2 0x12D3 JUMPI POP POP JUMP JUMPDEST DUP1 PUSH2 0x12E1 PUSH1 0x0 PUSH1 0x3 SWAP4 PUSH2 0x12AF JUMP JUMPDEST ADD PUSH2 0x12C8 JUMP JUMPDEST SWAP1 SWAP2 DUP3 DUP2 LT PUSH2 0x12F6 JUMPI JUMPDEST POP POP POP JUMP JUMPDEST PUSH2 0x1314 PUSH2 0x130E PUSH2 0x1308 PUSH2 0x131F SWAP6 PUSH2 0x10B5 JUMP JUMPDEST SWAP3 PUSH2 0x10B5 JUMP JUMPDEST SWAP3 PUSH2 0x10C3 JUMP JUMPDEST SWAP2 DUP3 ADD SWAP2 ADD SWAP1 PUSH2 0x12C7 JUMP JUMPDEST CODESIZE DUP1 DUP1 PUSH2 0x12F1 JUMP JUMPDEST SWAP1 PUSH9 0x10000000000000000 DUP2 GT PUSH2 0x1350 JUMPI DUP2 PUSH2 0x1345 PUSH2 0x134E SWAP4 PUSH2 0xB6B JUMP JUMPDEST SWAP1 DUP3 DUP2 SSTORE PUSH2 0x12E7 JUMP JUMPDEST JUMP JUMPDEST PUSH2 0xF3 JUMP JUMPDEST MLOAD SWAP1 JUMP JUMPDEST MLOAD SWAP1 JUMP JUMPDEST SWAP1 PUSH2 0x1367 SWAP2 PUSH2 0xE36 JUMP JUMPDEST JUMP JUMPDEST PUSH2 0x138E PUSH2 0x1388 PUSH2 0x1378 DUP5 PUSH2 0x1355 JUMP JUMPDEST SWAP4 PUSH2 0x1383 DUP6 DUP6 PUSH2 0x1327 JUMP JUMPDEST PUSH2 0x1064 JUMP JUMPDEST SWAP2 PUSH2 0x10C3 JUMP JUMPDEST PUSH1 0x0 SWAP2 JUMPDEST DUP4 DUP4 LT PUSH2 0x139F JUMPI POP POP POP POP JUMP JUMPDEST PUSH1 0x3 PUSH1 0x20 DUP3 PUSH2 0x13B8 PUSH2 0x13B2 PUSH1 0x1 SWAP6 PUSH2 0x1359 JUMP JUMPDEST DUP7 PUSH2 0x135D JUMP JUMPDEST ADD SWAP3 ADD SWAP3 ADD SWAP2 SWAP1 PUSH2 0x1392 JUMP JUMPDEST SWAP1 PUSH2 0x13CE SWAP2 PUSH2 0x1369 JUMP JUMPDEST JUMP JUMPDEST SWAP1 PUSH2 0x142F PUSH1 0x60 PUSH1 0x3 PUSH2 0x1435 SWAP5 PUSH2 0x13F5 PUSH1 0x0 DUP3 ADD PUSH2 0x13EF PUSH1 0x0 DUP9 ADD PUSH2 0xBFA JUMP JUMPDEST SWAP1 PUSH2 0xC27 JUMP JUMPDEST PUSH2 0x140E PUSH1 0x1 DUP3 ADD PUSH2 0x1408 PUSH1 0x20 DUP9 ADD PUSH2 0xC47 JUMP JUMPDEST SWAP1 PUSH2 0xE2A JUMP JUMPDEST PUSH2 0x1427 PUSH1 0x2 DUP3 ADD PUSH2 0x1421 PUSH1 0x40 DUP9 ADD PUSH2 0xC47 JUMP JUMPDEST SWAP1 PUSH2 0xE2A JUMP JUMPDEST ADD SWAP3 ADD PUSH2 0x1060 JUMP JUMPDEST SWAP1 PUSH2 0x13C4 JUMP JUMPDEST JUMP JUMPDEST SWAP2 SWAP1 PUSH2 0x1448 JUMPI PUSH2 0x1446 SWAP2 PUSH2 0x13D0 JUMP JUMPDEST JUMP JUMPDEST PUSH2 0xBE4 JUMP JUMPDEST SWAP1 DUP2 SLOAD SWAP2 PUSH9 0x10000000000000000 DUP4 LT ISZERO PUSH2 0x147D JUMPI DUP3 PUSH2 0x1475 SWAP2 PUSH1 0x1 PUSH2 0x147B SWAP6 ADD DUP2 SSTORE PUSH2 0x1037 JUMP JUMPDEST SWAP1 PUSH2 0x1437 JUMP JUMPDEST JUMP JUMPDEST PUSH2 0xF3 JUMP JUMPDEST PUSH1 0x1 PUSH2 0x148E SWAP2 ADD PUSH2 0xB8 JUMP JUMPDEST SWAP1 JUMP JUMPDEST SWAP1 PUSH2 0x149B DUP3 PUSH2 0x944 JUMP JUMPDEST DUP2 LT ISZERO PUSH2 0x14AC JUMPI PUSH1 0x20 DUP1 SWAP2 MUL ADD ADD SWAP1 JUMP JUMPDEST PUSH2 0x40A JUMP JUMPDEST SWAP3 SWAP2 SWAP1 SWAP2 PUSH2 0x14BF PUSH1 0x0 PUSH2 0x420 JUMP JUMPDEST SWAP4 PUSH2 0x1521 DUP6 PUSH2 0x1512 DUP4 PUSH2 0x1509 DUP9 PUSH2 0x1500 PUSH2 0x14E1 PUSH2 0x14DC PUSH1 0x0 PUSH2 0xB90 JUMP JUMPDEST PUSH2 0xFEE JUMP JUMPDEST SWAP4 PUSH2 0x14F7 PUSH2 0x14ED PUSH2 0x1015 JUMP JUMPDEST SWAP8 PUSH1 0x0 DUP10 ADD PUSH2 0xB7C JUMP JUMPDEST PUSH1 0x20 DUP8 ADD PUSH2 0xB8A JUMP JUMPDEST PUSH1 0x40 DUP6 ADD PUSH2 0xB8A JUMP JUMPDEST PUSH1 0x60 DUP4 ADD PUSH2 0x1022 JUMP JUMPDEST PUSH2 0x151C PUSH1 0x0 PUSH2 0x1025 JUMP JUMPDEST PUSH2 0x144D JUMP JUMPDEST PUSH2 0x152B PUSH1 0x0 PUSH2 0xB90 JUMP JUMPDEST JUMPDEST DUP1 PUSH2 0x1547 PUSH2 0x1541 PUSH2 0x153C DUP8 PUSH2 0x944 JUMP JUMPDEST PUSH2 0xB8 JUMP JUMPDEST SWAP2 PUSH2 0xB8 JUMP JUMPDEST LT ISZERO PUSH2 0x1571 JUMPI PUSH2 0x156C SWAP1 PUSH2 0x1567 DUP8 PUSH2 0x1560 DUP8 DUP5 SWAP1 PUSH2 0x1491 JUMP JUMPDEST MLOAD SWAP1 PUSH2 0xECF JUMP JUMPDEST PUSH2 0x1482 JUMP JUMPDEST PUSH2 0x152C JUMP JUMPDEST POP SWAP3 SWAP2 POP SWAP3 SWAP2 SWAP1 SWAP2 PUSH2 0x15AF PUSH32 0xEAF9C9DABC2A68B717E3095068D04A84ECACE13A1AB18B4499A913C3AB3D2869 SWAP4 PUSH2 0x15A6 PUSH2 0xA3 JUMP JUMPDEST SWAP4 DUP5 SWAP4 DUP5 PUSH2 0x64E JUMP JUMPDEST SUB SWAP1 LOG1 JUMP JUMPDEST PUSH1 0x60 SWAP1 JUMP JUMPDEST PUSH1 0x0 PUSH32 0x496E76616C696420656C656374696F6E20494400000000000000000000000000 SWAP2 ADD MSTORE JUMP JUMPDEST PUSH2 0x15EE PUSH1 0x13 PUSH1 0x20 SWAP3 PUSH2 0x5EF JUMP JUMPDEST PUSH2 0x15F7 DUP2 PUSH2 0x15B9 JUMP JUMPDEST ADD SWAP1 JUMP JUMPDEST PUSH2 0x1611 SWAP1 PUSH1 0x20 DUP2 ADD SWAP1 PUSH1 0x0 DUP2 DUP4 SUB SWAP2 ADD MSTORE PUSH2 0x15E1 JUMP JUMPDEST SWAP1 JUMP JUMPDEST ISZERO PUSH2 0x161B JUMPI JUMP JUMPDEST PUSH2 0x1623 PUSH2 0xA3 JUMP JUMPDEST PUSH3 0x461BCD PUSH1 0xE5 SHL DUP2 MSTORE DUP1 PUSH2 0x1639 PUSH1 0x4 DUP3 ADD PUSH2 0x15FB JUMP JUMPDEST SUB SWAP1 REVERT JUMPDEST SWAP1 JUMP JUMPDEST PUSH2 0x1649 SWAP1 PUSH2 0x572 JUMP JUMPDEST SWAP1 JUMP JUMPDEST PUSH2 0x16A3 PUSH2 0x16A9 SWAP2 PUSH2 0x165B PUSH2 0xCA1 JUMP JUMPDEST POP PUSH2 0x1664 PUSH2 0x15B4 JUMP JUMPDEST POP PUSH2 0x166D PUSH2 0x15B4 JUMP JUMPDEST POP PUSH2 0x1676 PUSH2 0xCA1 JUMP JUMPDEST POP PUSH2 0x169C DUP2 PUSH2 0x1696 PUSH2 0x1690 PUSH2 0x168B PUSH1 0x0 PUSH2 0x420 JUMP JUMPDEST PUSH2 0xB8 JUMP JUMPDEST SWAP2 PUSH2 0xB8 JUMP JUMPDEST LT PUSH2 0x1614 JUMP JUMPDEST PUSH1 0x0 PUSH2 0x42F JUMP JUMPDEST POP PUSH2 0x163D JUMP JUMPDEST PUSH2 0x16B5 PUSH1 0x0 DUP3 ADD PUSH2 0x475 JUMP JUMPDEST PUSH1 0x1 DUP3 ADD SWAP3 PUSH2 0x16DD PUSH2 0x16D7 PUSH2 0x16D0 PUSH1 0x3 PUSH1 0x2 DUP8 ADD SWAP7 ADD PUSH2 0xB6B JUMP JUMPDEST SWAP4 SWAP6 PUSH2 0x1640 JUMP JUMPDEST SWAP4 PUSH2 0x1640 JUMP JUMPDEST SWAP2 SWAP1 JUMP JUMPDEST PUSH1 0x60 SWAP1 JUMP JUMPDEST PUSH1 0x60 SWAP1 JUMP JUMPDEST PUSH8 0xFFFFFFFFFFFFFFFF DUP2 GT PUSH2 0x1703 JUMPI PUSH1 0x20 DUP1 SWAP2 MUL ADD SWAP1 JUMP JUMPDEST PUSH2 0xF3 JUMP JUMPDEST SWAP1 PUSH2 0x171A PUSH2 0x1715 DUP4 PUSH2 0x16EB JUMP JUMPDEST PUSH2 0x132 JUMP JUMPDEST SWAP2 DUP3 MSTORE JUMP JUMPDEST CALLDATASIZE SWAP1 CALLDATACOPY JUMP JUMPDEST SWAP1 PUSH2 0x1749 PUSH2 0x1731 DUP4 PUSH2 0x1708 JUMP JUMPDEST SWAP3 PUSH1 0x20 DUP1 PUSH2 0x173F DUP7 SWAP4 PUSH2 0x16EB JUMP JUMPDEST SWAP3 ADD SWAP2 SUB SWAP1 PUSH2 0x171F JUMP JUMPDEST JUMP JUMPDEST SWAP1 PUSH2 0x175D PUSH2 0x1758 DUP4 PUSH2 0x6C0 JUMP JUMPDEST PUSH2 0x132 JUMP JUMPDEST SWAP2 DUP3 MSTORE JUMP JUMPDEST PUSH1 0x0 JUMPDEST DUP3 DUP2 LT PUSH2 0x1771 JUMPI POP POP POP JUMP JUMPDEST PUSH1 0x20 SWAP1 PUSH2 0x177C PUSH2 0xF88 JUMP JUMPDEST DUP2 DUP5 ADD MSTORE ADD PUSH2 0x1765 JUMP JUMPDEST SWAP1 PUSH2 0x17AB PUSH2 0x1793 DUP4 PUSH2 0x174B JUMP JUMPDEST SWAP3 PUSH1 0x20 DUP1 PUSH2 0x17A1 DUP7 SWAP4 PUSH2 0x6C0 JUMP JUMPDEST SWAP3 ADD SWAP2 SUB SWAP1 PUSH2 0x1762 JUMP JUMPDEST JUMP JUMPDEST SWAP1 PUSH2 0x17B7 DUP3 PUSH2 0x8BC JUMP JUMPDEST DUP2 LT ISZERO PUSH2 0x17C8 JUMPI PUSH1 0x20 DUP1 SWAP2 MUL ADD ADD SWAP1 JUMP JUMPDEST PUSH2 0x40A JUMP JUMPDEST PUSH2 0x17D5 PUSH2 0x16E1 JUMP JUMPDEST POP PUSH2 0x17DE PUSH2 0x16E6 JUMP JUMPDEST POP PUSH2 0x17E7 PUSH2 0x16E6 JUMP JUMPDEST POP PUSH2 0x17F0 PUSH2 0x16E1 JUMP JUMPDEST POP PUSH2 0x17FB PUSH1 0x0 PUSH2 0x420 JUMP JUMPDEST PUSH2 0x1804 DUP2 PUSH2 0x1724 JUMP JUMPDEST SWAP2 PUSH2 0x180E DUP3 PUSH2 0x1786 JUMP JUMPDEST PUSH2 0x1817 DUP4 PUSH2 0x1786 JUMP JUMPDEST SWAP4 PUSH2 0x1821 DUP5 PUSH2 0x1724 JUMP JUMPDEST SWAP3 PUSH2 0x182C PUSH1 0x0 PUSH2 0xB90 JUMP JUMPDEST JUMPDEST DUP1 PUSH2 0x1840 PUSH2 0x183A DUP9 PUSH2 0xB8 JUMP JUMPDEST SWAP2 PUSH2 0xB8 JUMP JUMPDEST LT ISZERO PUSH2 0x190D JUMPI PUSH2 0x1908 SWAP1 PUSH2 0x1876 PUSH2 0x1864 PUSH1 0x0 PUSH2 0x185D DUP2 DUP6 SWAP1 PUSH2 0x42F JUMP JUMPDEST POP ADD PUSH2 0x475 JUMP JUMPDEST PUSH2 0x1871 DUP7 SWAP2 DUP5 SWAP1 SWAP3 PUSH2 0x17AD JUMP JUMPDEST PUSH2 0xB7C JUMP JUMPDEST PUSH2 0x18A4 PUSH1 0x1 PUSH2 0x1887 PUSH1 0x0 DUP5 SWAP1 PUSH2 0x42F JUMP JUMPDEST POP ADD DUP7 PUSH2 0x1894 DUP5 SWAP3 PUSH2 0x1640 JUMP JUMPDEST PUSH2 0x189E DUP4 DUP4 PUSH2 0x1491 JUMP JUMPDEST MSTORE PUSH2 0x1491 JUMP JUMPDEST MLOAD POP PUSH2 0x18D4 PUSH1 0x2 PUSH2 0x18B7 PUSH1 0x0 DUP5 SWAP1 PUSH2 0x42F JUMP JUMPDEST POP ADD DUP10 PUSH2 0x18C4 DUP5 SWAP3 PUSH2 0x1640 JUMP JUMPDEST PUSH2 0x18CE DUP4 DUP4 PUSH2 0x1491 JUMP JUMPDEST MSTORE PUSH2 0x1491 JUMP JUMPDEST MLOAD POP PUSH2 0x1903 PUSH2 0x18F1 PUSH1 0x3 PUSH2 0x18EA PUSH1 0x0 DUP6 SWAP1 PUSH2 0x42F JUMP JUMPDEST POP ADD PUSH2 0xB6B JUMP JUMPDEST PUSH2 0x18FE DUP9 SWAP2 DUP5 SWAP1 SWAP3 PUSH2 0x17AD JUMP JUMPDEST PUSH2 0xB7C JUMP JUMPDEST PUSH2 0x1482 JUMP JUMPDEST PUSH2 0x182D JUMP JUMPDEST POP SWAP2 SWAP3 SWAP4 POP SWAP2 SWAP4 SWAP3 SWAP2 SWAP4 SWAP3 SWAP2 SWAP1 JUMP JUMPDEST PUSH1 0x3 PUSH2 0x196C PUSH2 0x1973 SWAP3 PUSH2 0x192D PUSH2 0x16E1 JUMP JUMPDEST POP PUSH2 0x1936 PUSH2 0x16E6 JUMP JUMPDEST POP PUSH2 0x193F PUSH2 0x16E1 JUMP JUMPDEST POP PUSH2 0x1965 DUP2 PUSH2 0x195F PUSH2 0x1959 PUSH2 0x1954 PUSH1 0x0 PUSH2 0x420 JUMP JUMPDEST PUSH2 0xB8 JUMP JUMPDEST SWAP2 PUSH2 0xB8 JUMP JUMPDEST LT PUSH2 0x1614 JUMP JUMPDEST PUSH1 0x0 PUSH2 0x42F JUMP JUMPDEST POP ADD PUSH2 0xB68 JUMP JUMPDEST PUSH2 0x197C DUP2 PUSH2 0xBB7 JUMP JUMPDEST SWAP1 PUSH2 0x1986 DUP3 PUSH2 0x1724 JUMP JUMPDEST PUSH2 0x198F DUP4 PUSH2 0x1786 JUMP JUMPDEST SWAP1 PUSH2 0x1999 DUP5 PUSH2 0x1724 JUMP JUMPDEST SWAP5 PUSH2 0x19A4 PUSH1 0x0 PUSH2 0xB90 JUMP JUMPDEST JUMPDEST DUP1 PUSH2 0x19B8 PUSH2 0x19B2 DUP9 PUSH2 0xB8 JUMP JUMPDEST SWAP2 PUSH2 0xB8 JUMP JUMPDEST LT ISZERO PUSH2 0x1A53 JUMPI PUSH2 0x1A4E SWAP1 PUSH2 0x19EE PUSH2 0x19DC PUSH1 0x0 PUSH2 0x19D5 DUP10 DUP6 SWAP1 PUSH2 0xBBB JUMP JUMPDEST POP ADD PUSH2 0x475 JUMP JUMPDEST PUSH2 0x19E9 DUP7 SWAP2 DUP5 SWAP1 SWAP3 PUSH2 0x17AD JUMP JUMPDEST PUSH2 0xB7C JUMP JUMPDEST PUSH2 0x1A1B PUSH1 0x1 PUSH2 0x19FE DUP9 DUP5 SWAP1 PUSH2 0xBBB JUMP JUMPDEST POP ADD DUP7 PUSH2 0x1A0B DUP5 SWAP3 PUSH2 0x1640 JUMP JUMPDEST PUSH2 0x1A15 DUP4 DUP4 PUSH2 0x1491 JUMP JUMPDEST MSTORE PUSH2 0x1491 JUMP JUMPDEST MLOAD POP PUSH2 0x1A49 PUSH2 0x1A37 PUSH1 0x2 PUSH2 0x1A30 DUP10 DUP6 SWAP1 PUSH2 0xBBB JUMP JUMPDEST POP ADD PUSH2 0x475 JUMP JUMPDEST PUSH2 0x1A44 DUP11 SWAP2 DUP5 SWAP1 SWAP3 PUSH2 0x17AD JUMP JUMPDEST PUSH2 0xB7C JUMP JUMPDEST PUSH2 0x1482 JUMP JUMPDEST PUSH2 0x19A5 JUMP JUMPDEST POP SWAP3 POP SWAP1 SWAP3 POP SWAP2 SWAP3 SWAP2 SWAP3 SWAP2 SWAP1 JUMP JUMPDEST PUSH1 0x0 PUSH32 0x496E76616C69642070726F706F73616C20494400000000000000000000000000 SWAP2 ADD MSTORE JUMP JUMPDEST PUSH2 0x1A96 PUSH1 0x13 PUSH1 0x20 SWAP3 PUSH2 0x5EF JUMP JUMPDEST PUSH2 0x1A9F DUP2 PUSH2 0x1A61 JUMP JUMPDEST ADD SWAP1 JUMP JUMPDEST PUSH2 0x1AB9 SWAP1 PUSH1 0x20 DUP2 ADD SWAP1 PUSH1 0x0 DUP2 DUP4 SUB SWAP2 ADD MSTORE PUSH2 0x1A89 JUMP JUMPDEST SWAP1 JUMP JUMPDEST ISZERO PUSH2 0x1AC3 JUMPI JUMP JUMPDEST PUSH2 0x1ACB PUSH2 0xA3 JUMP JUMPDEST PUSH3 0x461BCD PUSH1 0xE5 SHL DUP2 MSTORE DUP1 PUSH2 0x1AE1 PUSH1 0x4 DUP3 ADD PUSH2 0x1AA3 JUMP JUMPDEST SUB SWAP1 REVERT JUMPDEST PUSH2 0x1AF1 PUSH2 0x1AF6 SWAP2 PUSH2 0x458 JUMP JUMPDEST PUSH2 0x33F JUMP JUMPDEST SWAP1 JUMP JUMPDEST PUSH2 0x1B03 SWAP1 SLOAD PUSH2 0x1AE5 JUMP JUMPDEST SWAP1 JUMP JUMPDEST PUSH1 0x20 PUSH32 0x6C656374696F6E00000000000000000000000000000000000000000000000000 SWAP2 PUSH32 0x596F75206861766520616C726561647920766F74656420696E20746869732065 PUSH1 0x0 DUP3 ADD MSTORE ADD MSTORE JUMP JUMPDEST PUSH2 0x1B61 PUSH1 0x27 PUSH1 0x40 SWAP3 PUSH2 0x5EF JUMP JUMPDEST PUSH2 0x1B6A DUP2 PUSH2 0x1B06 JUMP JUMPDEST ADD SWAP1 JUMP JUMPDEST PUSH2 0x1B84 SWAP1 PUSH1 0x20 DUP2 ADD SWAP1 PUSH1 0x0 DUP2 DUP4 SUB SWAP2 ADD MSTORE PUSH2 0x1B54 JUMP JUMPDEST SWAP1 JUMP JUMPDEST ISZERO PUSH2 0x1B8E JUMPI JUMP JUMPDEST PUSH2 0x1B96 PUSH2 0xA3 JUMP JUMPDEST PUSH3 0x461BCD PUSH1 0xE5 SHL DUP2 MSTORE DUP1 PUSH2 0x1BAC PUSH1 0x4 DUP3 ADD PUSH2 0x1B6E JUMP JUMPDEST SUB SWAP1 REVERT JUMPDEST SWAP1 JUMP JUMPDEST PUSH2 0x1BC7 PUSH2 0x1BC2 PUSH2 0x1BCC SWAP3 PUSH2 0x1BB0 JUMP JUMPDEST PUSH2 0x2B8 JUMP JUMPDEST PUSH2 0xB8 JUMP JUMPDEST SWAP1 JUMP JUMPDEST PUSH2 0x1BD8 DUP2 PUSH2 0xB6B JUMP JUMPDEST DUP3 LT ISZERO PUSH2 0x1BF3 JUMPI PUSH2 0x1BEA PUSH1 0x3 SWAP2 PUSH2 0x10C3 JUMP JUMPDEST SWAP2 MUL ADD SWAP1 PUSH1 0x0 SWAP1 JUMP JUMPDEST PUSH2 0x40A JUMP JUMPDEST PUSH2 0x1C07 PUSH2 0x1C0D SWAP2 SWAP4 SWAP3 SWAP4 PUSH2 0xB8 JUMP JUMPDEST SWAP3 PUSH2 0xB8 JUMP JUMPDEST DUP3 ADD DUP1 SWAP3 GT PUSH2 0x1C18 JUMPI JUMP JUMPDEST PUSH2 0x106A JUMP JUMPDEST SWAP1 PUSH2 0x1C29 PUSH1 0xFF SWAP2 PUSH2 0xC07 JUMP JUMPDEST SWAP2 DUP2 NOT AND SWAP2 AND OR SWAP1 JUMP JUMPDEST PUSH2 0x1C3C SWAP1 PUSH2 0x38D JUMP JUMPDEST SWAP1 JUMP JUMPDEST SWAP1 JUMP JUMPDEST SWAP1 PUSH2 0x1C57 PUSH2 0x1C52 PUSH2 0x1C5E SWAP3 PUSH2 0x1C33 JUMP JUMPDEST PUSH2 0x1C3F JUMP JUMPDEST DUP3 SLOAD PUSH2 0x1C1D JUMP JUMPDEST SWAP1 SSTORE JUMP JUMPDEST SWAP2 PUSH1 0x20 PUSH2 0x1C84 SWAP3 SWAP5 SWAP4 PUSH2 0x1C7D PUSH1 0x40 DUP3 ADD SWAP7 PUSH1 0x0 DUP4 ADD SWAP1 PUSH2 0x5DE JUMP JUMPDEST ADD SWAP1 PUSH2 0x5DE JUMP JUMPDEST JUMP JUMPDEST PUSH2 0x1CAB DUP2 PUSH2 0x1CA5 PUSH2 0x1C9F PUSH2 0x1C9A PUSH1 0x0 PUSH2 0x420 JUMP JUMPDEST PUSH2 0xB8 JUMP JUMPDEST SWAP2 PUSH2 0xB8 JUMP JUMPDEST LT PUSH2 0x1614 JUMP JUMPDEST PUSH2 0x1CDE DUP3 PUSH2 0x1CD8 PUSH2 0x1CD2 PUSH2 0x1CCD PUSH1 0x3 PUSH2 0x1CC6 PUSH1 0x0 DUP9 SWAP1 PUSH2 0x42F JUMP JUMPDEST POP ADD PUSH2 0xB6B JUMP JUMPDEST PUSH2 0xB8 JUMP JUMPDEST SWAP2 PUSH2 0xB8 JUMP JUMPDEST LT PUSH2 0x1ABC JUMP JUMPDEST PUSH2 0x1D0D PUSH2 0x1D08 PUSH2 0x1D02 PUSH2 0x1CFD PUSH2 0x1CF6 PUSH1 0x1 CALLER SWAP1 PUSH2 0x2EF JUMP JUMPDEST DUP6 SWAP1 PUSH2 0x323 JUMP JUMPDEST PUSH2 0x1AF9 JUMP JUMPDEST ISZERO PUSH2 0x38D JUMP JUMPDEST PUSH2 0x1B87 JUMP JUMPDEST PUSH2 0x1D50 PUSH2 0x1D1A PUSH1 0x1 PUSH2 0x1BB3 JUMP JUMPDEST PUSH2 0x1D4A PUSH1 0x2 PUSH2 0x1D39 PUSH1 0x3 PUSH2 0x1D30 PUSH1 0x0 DUP9 SWAP1 PUSH2 0x42F JUMP JUMPDEST POP ADD DUP8 SWAP1 PUSH2 0x1BCF JUMP JUMPDEST POP ADD SWAP2 PUSH2 0x1D45 DUP4 PUSH2 0x475 JUMP JUMPDEST PUSH2 0x1BF8 JUMP JUMPDEST SWAP1 PUSH2 0xC27 JUMP JUMPDEST PUSH2 0x1D70 PUSH1 0x1 PUSH2 0x1D6B PUSH2 0x1D64 PUSH1 0x1 CALLER SWAP1 PUSH2 0x2EF JUMP JUMPDEST DUP5 SWAP1 PUSH2 0x323 JUMP JUMPDEST PUSH2 0x1C42 JUMP JUMPDEST CALLER SWAP1 SWAP2 PUSH2 0x1D9D PUSH32 0xB4CFECF70861B7B150D8337780D34FB4CBC2114B5FB1FE51A5C5FCA1849F7274 SWAP3 PUSH2 0x2E3 JUMP JUMPDEST SWAP3 PUSH2 0x1DB2 PUSH2 0x1DA9 PUSH2 0xA3 JUMP JUMPDEST SWAP3 DUP4 SWAP3 DUP4 PUSH2 0x1C62 JUMP JUMPDEST SUB SWAP1 LOG2 JUMP INVALID LOG2 PUSH5 0x6970667358 0x22 SLT KECCAK256 ORIGIN LOG4 TLOAD 0x2B BLOBHASH PUSH5 0x2BE89890DC TLOAD PUSH16 0xC64CE4BA973438DBBA8147AAD4DB1251 0x2C XOR 0xE1 PUSH5 0x736F6C6343 STOP ADDMOD SHR STOP CALLER "},"methodIdentifiers":{"createElection(string,string,string[])":"84303277","createProposal(uint256,string)":"02d52fa4","elections(uint256)":"5e6fef01","getElection(uint256)":"9d710777","getElections()":"9f3a7f52","getProposalsByElectionId(uint256)":"ad1539b6","hasVoted(address,uint256)":"42545825","vote(uint256,uint256)":"b384abef"}}}}}