{"contracts/voting.sol":{"Voting":{"abi":[{"inputs":[],"stateMutability":"nonpayable","type":"constructor"},{"anonymous":false,"inputs":[{"indexed":false,"internalType":"uint256","name":"id","type":"uint256"},{"indexed":false,"internalType":"string","name":"name","type":"string"},{"indexed":false,"internalType":"string","name":"description","type":"string"}],"name":"ElectionCreated","type":"event"},{"anonymous":false,"inputs":[{"indexed":true,"internalType":"address","name":"voter","type":"address"},{"indexed":false,"internalType":"uint256","name":"electionId","type":"uint256"},{"indexed":false,"internalType":"uint256","name":"proposalId","type":"uint256"}],"name":"VoteCast","type":"event"},{"inputs":[{"internalType":"string","name":"name","type":"string"},{"internalType":"string","name":"description","type":"string"},{"internalType":"string[]","name":"proposalNames","type":"string[]"}],"name":"createElection","outputs":[],"stateMutability":"nonpayable","type":"function"},{"inputs":[{"internalType":"uint256","name":"electionId","type":"uint256"},{"internalType":"string","name":"name","type":"string"}],"name":"createProposal","outputs":[],"stateMutability":"nonpayable","type":"function"},{"inputs":[{"internalType":"uint256","name":"","type":"uint256"}],"name":"elections","outputs":[{"internalType":"uint256","name":"id","type":"uint256"},{"internalType":"string","name":"name","type":"string"},{"internalType":"string","name":"description","type":"string"}],"stateMutability":"view","type":"function"},{"inputs":[{"internalType":"uint256","name":"electionId","type":"uint256"}],"name":"getElection","outputs":[{"internalType":"uint256","name":"id","type":"uint256"},{"internalType":"string","name":"name","type":"string"},{"internalType":"string","name":"description","type":"string"},{"components":[{"internalType":"uint256","name":"id","type":"uint256"},{"internalType":"string","name":"name","type":"string"},{"internalType":"uint256","name":"votecount","type":"uint256"}],"internalType":"struct Voting.Proposal[]","name":"proposals","type":"tuple[]"},{"internalType":"bool","name":"voted","type":"bool"}],"stateMutability":"view","type":"function"},{"inputs":[],"name":"getElections","outputs":[{"internalType":"uint256[]","name":"ids","type":"uint256[]"},{"internalType":"string[]","name":"names","type":"string[]"},{"internalType":"string[]","name":"descriptions","type":"string[]"},{"internalType":"uint256[]","name":"proposalCounts","type":"uint256[]"}],"stateMutability":"view","type":"function"},{"inputs":[{"internalType":"uint256","name":"electionId","type":"uint256"}],"name":"getProposalsByElectionId","outputs":[{"internalType":"uint256[]","name":"ids","type":"uint256[]"},{"internalType":"string[]","name":"names","type":"string[]"},{"internalType":"uint256[]","name":"votecounts","type":"uint256[]"}],"stateMutability":"view","type":"function"},{"inputs":[{"internalType":"address","name":"","type":"address"},{"internalType":"uint256","name":"","type":"uint256"}],"name":"hasVoted","outputs":[{"internalType":"bool","name":"","type":"bool"}],"stateMutability":"view","type":"function"},{"inputs":[{"internalType":"uint256","name":"electionId","type":"uint256"},{"internalType":"uint256","name":"proposalId","type":"uint256"}],"name":"vote","outputs":[],"stateMutability":"nonpayable","type":"function"}],"evm":{"bytecode":{"linkReferences":{},"object":"60806040523461002757610011610ae2565b61001961002c565b611fb2610ceb8239611fb290f35b610032565b60405190565b600080fd5b90565b90565b90565b61005461004f61005992610037565b61003d565b61003a565b90565b601f801991011690565b634e487b7160e01b600052604160045260246000fd5b906100869061005c565b810190811060018060401b0382111761009e57604052565b610066565b906100b66100af61002c565b928361007c565b565b60018060401b0381116100ce5760208091020190565b610066565b906100e56100e0836100b8565b6100a3565b918252565b6100f460606100a3565b90565b600090565b606090565b6101096100ea565b9060208080846101176100f7565b8152016101226100fc565b81520161012d6100f7565b81525050565b61013b610101565b90565b60005b82811061014d57505050565b602090610158610133565b8184015201610141565b9061018761016f836100d3565b9260208061017d86936100b8565b920191039061013e565b565b61019360806100a3565b90565b906101a09061003a565b9052565b60018060401b0381116101c0576101bc60209161005c565b0190565b610066565b906101d76101d2836101a4565b6100a3565b918252565b60007f456c656374696f6e203100000000000000000000000000000000000000000000910152565b61020e600a6101c5565b9061021b602083016101dc565b565b610225610204565b90565b52565b60007f466972737420656c656374696f6e000000000000000000000000000000000000910152565b61025d600e6101c5565b9061026a6020830161022b565b565b610274610253565b90565b52565b90565b600052602060002090565b634e487b7160e01b600052603260045260246000fd5b5490565b6102ab8161029e565b8210156102c6576102bd60049161027d565b91020190600090565b610288565b634e487b7160e01b600052600060045260246000fd5b6102eb905161003a565b90565b60001b90565b90610301600019916102ee565b9181191691161790565b61031f61031a6103249261003a565b61003d565b61003a565b90565b90565b9061033f61033a6103469261030b565b610327565b82546102f4565b9055565b5190565b5190565b634e487b7160e01b600052602260045260246000fd5b9060016002830492168015610388575b602083101461038357565b610352565b91607f1691610378565b600052602060002090565b601f602091010490565b1b90565b919060086103c79102916103c1600019846103a7565b926103a7565b9181191691161790565b91906103e76103e26103ef9361030b565b610327565b9083546103ab565b9055565b600090565b61040a916104046103f3565b916103d1565b565b5b818110610418575050565b8061042660006001936103f8565b0161040d565b9190601f811161043c575b505050565b61044861046d93610392565b9060206104548461039d565b83019310610475575b6104669061039d565b019061040c565b388080610437565b91506104668192905061045d565b1c90565b906104989060001990600802610483565b191690565b816104a791610487565b906002021790565b906104b98161034e565b9060018060401b038211610579576104db826104d58554610368565b8561042c565b602090601f8311600114610510579180916104ff93600092610504575b505061049d565b90555b565b909150015138806104f8565b601f1983169161051f85610392565b9260005b81811061056157509160029391856001969410610547575b50505002019055610502565b610557910151601f841690610487565b905538808061053b565b91936020600181928787015181550195019201610523565b610066565b90610588916104af565b565b5190565b60200190565b5490565b634e487b7160e01b600052601160045260246000fd5b6105bd6105c39193929361003a565b9261003a565b916105cf83820261003a565b9281840414901517156105de57565b610598565b6105ee9060036105ae565b90565b600052602060002090565b906106109060001990602003600802610483565b8154169055565b9060009161062f61062782610392565b92835461049d565b905555565b9192906020821060001461068e57601f841160011461065e5761065892935061049d565b90555b5b565b509061068461068993600161067b61067585610392565b9261039d565b8201910161040c565b610617565b61065b565b506106c5829361069f600194610392565b6106be6106ab8561039d565b820192601f8616806106d0575b5061039d565b019061040c565b60020217905561065c565b6106dc908886036105fc565b386106b8565b929091680100000000000000008211610744576020116000146107355760208110600014610719576107139161049d565b90555b5b565b60019160ff191661072984610392565b55600202019055610716565b60019150600202019055610717565b610066565b90815461075581610368565b9081831161077e575b81831061076c575b50505050565b61077593610634565b38808080610766565b61078a838383876106e2565b61075e565b600061079a91610749565b565b906000036107af576107ad9061078f565b565b6102cb565b600060026107db926107c8838083016103f8565b6107d5836001830161079c565b016103f8565b565b906000036107f0576107ee906107b4565b565b6102cb565b5b818110610801575050565b8061080f60006003936107dd565b016107f6565b9091828110610824575b505050565b61084261083c61083661084d956105e3565b926105e3565b926105f1565b9182019101906107f5565b38808061081f565b9068010000000000000000811161087e578161087361087c93610594565b90828155610815565b565b610066565b5190565b5190565b906108d1604060026108d7946108b0600082016108aa600088016102e1565b9061032a565b6108c9600182016108c36020880161034a565b9061057e565b0192016102e1565b9061032a565b565b906108e39161088b565b565b61090a6109046108f484610883565b936108ff8585610855565b61058e565b916105f1565b6000915b83831061091b5750505050565b600360208261093461092e600195610887565b866108d9565b0192019201919061090e565b9061094a916108e5565b565b906109ab606060036109b1946109716000820161096b600088016102e1565b9061032a565b61098a600182016109846020880161034a565b9061057e565b6109a36002820161099d6040880161034a565b9061057e565b01920161058a565b90610940565b565b91906109c4576109c29161094c565b565b6102cb565b90815491680100000000000000008310156109f957826109f19160016109f7950181556102a2565b906109b3565b565b610066565b60007f50726f706f73616c203100000000000000000000000000000000000000000000910152565b610a30600a6101c5565b90610a3d602083016109fe565b565b610a47610a26565b90565b60007f50726f706f73616c203200000000000000000000000000000000000000000000910152565b610a7c600a6101c5565b90610a8960208301610a4a565b565b610a93610a72565b90565b60007f50726f706f73616c203300000000000000000000000000000000000000000000910152565b610ac8600a6101c5565b90610ad560208301610a96565b565b610adf610abe565b90565b610b596000610b4a610afc610af76000610040565b610162565b610b19610b10610b0a610189565b94610040565b60008501610196565b610b2d610b2461021d565b60208501610228565b610b41610b3861026c565b60408501610228565b60608301610277565b610b54600061027a565b6109c9565b610b74610b666000610040565b610b6e610a3f565b90610c77565b610b8f610b816000610040565b610b89610a8b565b90610c77565b610baa610b9c6000610040565b610ba4610ad7565b90610c77565b565b5490565b600052602060002090565b610bc481610bac565b821015610bdf57610bd6600491610bb0565b91020190600090565b610288565b90565b610bf160606100a3565b90565b600052602060002090565b5490565b610c0c81610bff565b821015610c2757610c1e600391610bf4565b91020190600090565b610288565b9190610c3d57610c3b9161088b565b565b6102cb565b9081549168010000000000000000831015610c725782610c6a916001610c7095018155610c03565b90610c2c565b565b610066565b90610ce891610ce3610cda610cb06003610ca9610ca182610c9a60008990610bbb565b5001610be4565b956000610bbb565b5001610594565b93610cd5600091610ccc610cc2610be7565b9760008901610196565b60208701610228565b610040565b60408401610196565b610c42565b56fe60806040526004361015610013575b610c44565b61001e60003561009d565b806302d52fa41461009857806342545825146100935780635e6fef011461008e57806384303277146100895780639d710777146100845780639f3a7f521461007f578063ad1539b61461007a5763b384abef0361000e57610c10565b610baa565b610b33565b610992565b6107f7565b610688565b6103b5565b61021b565b60e01c90565b60405190565b600080fd5b600080fd5b600080fd5b90565b6100c4816100b8565b036100cb57565b600080fd5b905035906100dd826100bb565b565b600080fd5b600080fd5b601f801991011690565b634e487b7160e01b600052604160045260246000fd5b90610113906100e9565b810190811067ffffffffffffffff82111761012d57604052565b6100f3565b9061014561013e6100a3565b9283610109565b565b67ffffffffffffffff8111610165576101616020916100e9565b0190565b6100f3565b90826000939282370152565b9092919261018b61018682610147565b610132565b938185526020850190828401116101a7576101a59261016a565b565b6100e4565b9080601f830112156101ca578160206101c793359101610176565b90565b6100df565b919091604081840312610210576101e983600083016100d0565b92602082013567ffffffffffffffff811161020b5761020892016101ac565b90565b6100b3565b6100ae565b60000190565b3461024a5761023461022e3660046101cf565b90610fb0565b61023c6100a3565b8061024681610215565b0390f35b6100a9565b60018060a01b031690565b6102639061024f565b90565b61026f8161025a565b0361027657565b600080fd5b9050359061028882610266565b565b91906040838203126102b357806102a76102b0926000860161027b565b936020016100d0565b90565b6100ae565b90565b6102cf6102ca6102d49261024f565b6102b8565b61024f565b90565b6102e0906102bb565b90565b6102ec906102d7565b90565b906102f9906102e3565b600052602052604060002090565b61031b610316610320926100b8565b6102b8565b6100b8565b90565b9061032d90610307565b600052602052604060002090565b1c90565b60ff1690565b61035590600861035a930261033b565b61033f565b90565b906103689154610345565b90565b61038561038a926103806001936000946102ef565b610323565b61035d565b90565b151590565b61039b9061038d565b9052565b91906103b390600060208501940190610392565b565b346103e6576103e26103d16103cb36600461028a565b9061036b565b6103d96100a3565b9182918261039f565b0390f35b6100a9565b9060208282031261040557610402916000016100d0565b90565b6100ae565b634e487b7160e01b600052603260045260246000fd5b5490565b600052602060002090565b61043881610420565b8210156104535761044a600491610424565b91020190600090565b61040a565b60001c90565b90565b61046d61047291610458565b61045e565b90565b61047f9054610461565b90565b634e487b7160e01b600052602260045260246000fd5b90600160028304921680156104b8575b60208310146104b357565b610482565b91607f16916104a8565b60209181520190565b600052602060002090565b90600092918054906104f16104ea83610498565b80946104c2565b9160018116908160001461054a575060011461050d575b505050565b61051a91929394506104cb565b916000925b8184106105325750500190388080610508565b6001816020929593955484860152019101929061051f565b92949550505060ff1916825215156020020190388080610508565b9061056f916104d6565b90565b9061059261058b926105826100a3565b93848092610565565b0383610109565b565b6000906105a082610420565b8110156105d9576105b09161042f565b506105bd60008201610475565b916105d660026105cf60018501610572565b9301610572565b90565b600080fd5b6105e7906100b8565b9052565b5190565b60209181520190565b60005b83811061060c575050906000910152565b8060209183015181850152016105fb565b61063c61064560209361064a93610633816105eb565b938480936105ef565b958691016105f8565b6100e9565b0190565b9161068593916106779161066a606086019260008701906105de565b848203602086015261061d565b91604081840391015261061d565b90565b346106bb576106b76106a361069e3660046103eb565b610594565b6106ae9391936100a3565b9384938461064e565b0390f35b6100a9565b67ffffffffffffffff81116106d85760208091020190565b6100f3565b600080fd5b9291906106f66106f1826106c0565b610132565b938185526020808601920281019183831161074d5781905b83821061071c575050505050565b813567ffffffffffffffff81116107485760209161073d87849387016101ac565b81520191019061070e565b6100df565b6106dd565b9080601f830112156107705781602061076d933591016106e2565b90565b6100df565b916060838303126107f257600083013567ffffffffffffffff81116107ed57826107a09185016101ac565b92602081013567ffffffffffffffff81116107e857836107c19183016101ac565b92604082013567ffffffffffffffff81116107e3576107e09201610752565b90565b6100b3565b6100b3565b6100b3565b6100ae565b346108265761081061080a366004610775565b91611588565b6108186100a3565b8061082281610215565b0390f35b6100a9565b5190565b60209181520190565b60200190565b610847906100b8565b9052565b61086a61087360209361087893610861816105eb565b938480936104c2565b958691016105f8565b6100e9565b0190565b906108ba906040806108af6060840161089d6000880151600087019061083e565b6020870151858203602087015261084b565b94015191019061083e565b90565b906108c79161087c565b90565b60200190565b906108e46108dd8361082b565b809261082f565b90816108f560208302840194610838565b926000915b83831061090957505050505090565b9091929394602061092b610925838560019503875289516108bd565b976108ca565b93019301919392906108fa565b9594929361097a6109909561096c8960809661095f61098897600060a085019401906105de565b8b820360208d015261061d565b9089820360408b015261061d565b9087820360608901526108d0565b940190610392565b565b346109c6576109c26109ad6109a83660046103eb565b611809565b916109b99593956100a3565b95869586610938565b0390f35b6100a9565b60009103126109d657565b6100ae565b5190565b60209181520190565b60200190565b906109fb8160209361083e565b0190565b60200190565b90610a22610a1c610a15846109db565b80936109df565b926109e8565b9060005b818110610a335750505090565b909192610a4c610a4660019286516109ee565b946109ff565b9101919091610a26565b5190565b60209181520190565b60200190565b90610a739161084b565b90565b60200190565b90610a90610a8983610a56565b8092610a5a565b9081610aa160208302840194610a63565b926000915b838310610ab557505050505090565b90919293946020610ad7610ad183856001950387528951610a69565b97610a76565b9301930191939290610aa6565b92610b14610b309593610b06610b2294608088019088820360008a0152610a05565b908682036020880152610a7c565b908482036040860152610a7c565b916060818403910152610a05565b90565b34610b6757610b433660046109cb565b610b63610b4e6119b3565b90610b5a9492946100a3565b94859485610ae4565b0390f35b6100a9565b91610b9990610b8b610ba7959360608601908682036000880152610a05565b908482036020860152610a7c565b916040818403910152610a05565b90565b34610bdd57610bd9610bc5610bc03660046103eb565b611b02565b610bd09391936100a3565b93849384610b6c565b0390f35b6100a9565b9190604083820312610c0b5780610bff610c0892600086016100d0565b936020016100d0565b90565b6100ae565b34610c3f57610c29610c23366004610be2565b90611e4b565b610c316100a3565b80610c3b81610215565b0390f35b6100a9565b600080fd5b90565b5490565b610c5a6060610132565b90565b90610c67906100b8565b9052565b52565b90565b610c85610c80610c8a92610c6e565b6102b8565b6100b8565b90565b600052602060002090565b5490565b610ca581610c98565b821015610cc057610cb7600391610c8d565b91020190600090565b61040a565b634e487b7160e01b600052600060045260246000fd5b610ce590516100b8565b90565b60001b90565b90610cfb60001991610ce8565b9181191691161790565b90565b90610d1d610d18610d2492610307565b610d05565b8254610cee565b9055565b5190565b601f602091010490565b1b90565b91906008610d56910291610d5060001984610d36565b92610d36565b9181191691161790565b9190610d76610d71610d7e93610307565b610d05565b908354610d3a565b9055565b600090565b610d9991610d93610d82565b91610d60565b565b5b818110610da7575050565b80610db56000600193610d87565b01610d9c565b9190601f8111610dcb575b505050565b610dd7610dfc936104cb565b906020610de384610d2c565b83019310610e04575b610df590610d2c565b0190610d9b565b388080610dc6565b9150610df581929050610dec565b90610e23906000199060080261033b565b191690565b81610e3291610e12565b906002021790565b90610e44816105eb565b9067ffffffffffffffff8211610f0657610e6882610e628554610498565b85610dbb565b602090601f8311600114610e9d57918091610e8c93600092610e91575b5050610e28565b90555b565b90915001513880610e85565b601f19831691610eac856104cb565b9260005b818110610eee57509160029391856001969410610ed4575b50505002019055610e8f565b610ee4910151601f841690610e12565b9055388080610ec8565b91936020600181928787015181550195019201610eb0565b6100f3565b90610f1591610e3a565b565b90610f5d60406002610f6394610f3c60008201610f3660008801610cdb565b90610d08565b610f5560018201610f4f60208801610d28565b90610f0b565b019201610cdb565b90610d08565b565b9190610f7657610f7491610f17565b565b610cc5565b9081549168010000000000000000831015610fab5782610fa3916001610fa995018155610c9c565b90610f65565b565b6100f3565b906110219161101c611013610fe96003610fe2610fda82610fd36000899061042f565b5001610c49565b95600061042f565b5001610c4c565b9361100e600091611005610ffb610c50565b9760008901610c5d565b60208701610c6b565b610c71565b60408401610c5d565b610f7b565b565b67ffffffffffffffff811161103b5760208091020190565b6100f3565b9061105261104d83611023565b610132565b918252565b6110616060610132565b90565b600090565b606090565b611076611057565b906020808084611084611064565b81520161108f611069565b81520161109a611064565b81525050565b6110a861106e565b90565b60005b8281106110ba57505050565b6020906110c56110a0565b81840152016110ae565b906110f46110dc83611040565b926020806110ea8693611023565b92019103906110ab565b565b6111006080610132565b90565b52565b90565b600052602060002090565b5490565b61112181611114565b82101561113c57611133600491611109565b91020190600090565b61040a565b5190565b634e487b7160e01b600052601160045260246000fd5b61116a611170919392936100b8565b926100b8565b9161117c8382026100b8565b92818404149015171561118b57565b611145565b61119b90600361115b565b90565b600052602060002090565b906111bd906000199060200360080261033b565b8154169055565b906000916111dc6111d4826104cb565b928354610e28565b905555565b9192906020821060001461123b57601f841160011461120b57611205929350610e28565b90555b5b565b5090611231611236936001611228611222856104cb565b92610d2c565b82019101610d9b565b6111c4565b611208565b50611272829361124c6001946104cb565b61126b61125885610d2c565b820192601f86168061127d575b50610d2c565b0190610d9b565b600202179055611209565b611289908886036111a9565b38611265565b9290916801000000000000000082116112f1576020116000146112e257602081106000146112c6576112c091610e28565b90555b5b565b60019160ff19166112d6846104cb565b556002020190556112c3565b600191506002020190556112c4565b6100f3565b90815461130281610498565b9081831161132b575b818310611319575b50505050565b611322936111e1565b38808080611313565b6113378383838761128f565b61130b565b6000611347916112f6565b565b9060000361135c5761135a9061133c565b565b610cc5565b600060026113889261137583808301610d87565b6113828360018301611349565b01610d87565b565b9060000361139d5761139b90611361565b565b610cc5565b5b8181106113ae575050565b806113bc600060039361138a565b016113a3565b90918281106113d1575b505050565b6113ef6113e96113e36113fa95611190565b92611190565b9261119e565b9182019101906113a2565b3880806113cc565b9068010000000000000000811161142b578161142061142993610c4c565b908281556113c2565b565b6100f3565b5190565b9061143e91610f17565b565b61146561145f61144f8461082b565b9361145a8585611402565b610838565b9161119e565b6000915b8383106114765750505050565b600360208261148f611489600195611430565b86611434565b01920192019190611469565b906114a591611440565b565b906115066060600361150c946114cc600082016114c660008801610cdb565b90610d08565b6114e5600182016114df60208801610d28565b90610f0b565b6114fe600282016114f860408801610d28565b90610f0b565b019201611141565b9061149b565b565b919061151f5761151d916114a7565b565b610cc5565b9081549168010000000000000000831015611554578261154c91600161155295018155611118565b9061150e565b565b6100f3565b600161156591016100b8565b90565b9061157282610a56565b811015611583576020809102010190565b61040a565b929190916115966000610420565b936115f8856115e9836115e0886115d76115b86115b36000610c71565b6110cf565b936115ce6115c46110f6565b9760008901610c5d565b60208701610c6b565b60408501610c6b565b60608301611103565b6115f36000611106565b611524565b6116026000610c71565b5b8061161e61161861161387610a56565b6100b8565b916100b8565b1015611648576116439061163e87611637878490611568565b5190610fb0565b611559565b611603565b50929150929190916116867feaf9c9dabc2a68b717e3095068d04a84ecace13a1ab18b4499a913c3ab3d28699361167d6100a3565b9384938461064e565b0390a1565b606090565b606090565b600090565b60007f496e76616c696420656c656374696f6e20494400000000000000000000000000910152565b6116cf60136020926105ef565b6116d88161169a565b0190565b6116f290602081019060008183039101526116c2565b90565b156116fc57565b6117046100a3565b62461bcd60e51b81528061171a600482016116dc565b0390fd5b90565b61172d61173291610458565b61033f565b90565b61173f9054611721565b90565b61174b90610572565b90565b9061179f611796600261175f611057565b9461177861176f60008301610475565b60008801610c5d565b61179061178760018301610572565b60208801610c6b565b01610475565b60408401610c5d565b565b6117aa9061174e565b90565b906117b782610c4c565b6117c081611040565b926117ce602085019161119e565b6000915b8383106117df5750505050565b600360206001926117ef856117a1565b8152019201920191906117d2565b611806906117ad565b90565b611811610d82565b5061181a61168b565b5061182361168b565b5061182c611690565b50611835611695565b5061185b8161185561184f61184a6000610420565b6100b8565b916100b8565b106116f5565b61187061186a6000839061042f565b5061171e565b9061187d60008301610475565b60018301936118c36118bd6118b76118b06118ab600360028a019901976118a6600133906102ef565b610323565b611735565b9497611742565b95611742565b936117fd565b9190565b606090565b606090565b67ffffffffffffffff81116118e95760208091020190565b6100f3565b906119006118fb836118d1565b610132565b918252565b369037565b9061192f611917836118ee565b9260208061192586936118d1565b9201910390611905565b565b9061194361193e836106c0565b610132565b918252565b60005b82811061195757505050565b602090611962611069565b818401520161194b565b9061199161197983611931565b9260208061198786936106c0565b9201910390611948565b565b9061199d826109db565b8110156119ae576020809102010190565b61040a565b6119bb6118c7565b506119c46118cc565b506119cd6118cc565b506119d66118c7565b506119e16000610420565b6119ea8161190a565b916119f48261196c565b6119fd8361196c565b93611a078461190a565b92611a126000610c71565b5b80611a26611a20886100b8565b916100b8565b1015611af357611aee90611a5c611a4a6000611a4381859061042f565b5001610475565b611a578691849092611993565b610c5d565b611a8a6001611a6d6000849061042f565b500186611a7a8492611742565b611a848383611568565b52611568565b5150611aba6002611a9d6000849061042f565b500189611aaa8492611742565b611ab48383611568565b52611568565b5150611ae9611ad76003611ad06000859061042f565b5001610c4c565b611ae48891849092611993565b610c5d565b611559565b611a13565b50919293509193929193929190565b6003611b52611b5992611b136118c7565b50611b1c6118cc565b50611b256118c7565b50611b4b81611b45611b3f611b3a6000610420565b6100b8565b916100b8565b106116f5565b600061042f565b5001610c49565b611b6281610c98565b90611b6c8261190a565b611b758361196c565b90611b7f8461190a565b94611b8a6000610c71565b5b80611b9e611b98886100b8565b916100b8565b1015611c3957611c3490611bd4611bc26000611bbb898590610c9c565b5001610475565b611bcf8691849092611993565b610c5d565b611c016001611be4888490610c9c565b500186611bf18492611742565b611bfb8383611568565b52611568565b5150611c2f611c1d6002611c16898590610c9c565b5001610475565b611c2a8a91849092611993565b610c5d565b611559565b611b8b565b509250909250919291929190565b60007f496e76616c69642070726f706f73616c20494400000000000000000000000000910152565b611c7c60136020926105ef565b611c8581611c47565b0190565b611c9f9060208101906000818303910152611c6f565b90565b15611ca957565b611cb16100a3565b62461bcd60e51b815280611cc760048201611c89565b0390fd5b60207f6c656374696f6e00000000000000000000000000000000000000000000000000917f596f75206861766520616c726561647920766f74656420696e2074686973206560008201520152565b611d2660276040926105ef565b611d2f81611ccb565b0190565b611d499060208101906000818303910152611d19565b90565b15611d5357565b611d5b6100a3565b62461bcd60e51b815280611d7160048201611d33565b0390fd5b90565b611d8c611d87611d9192611d75565b6102b8565b6100b8565b90565b611d9d81610c4c565b821015611db857611daf60039161119e565b91020190600090565b61040a565b611dcc611dd2919392936100b8565b926100b8565b8201809211611ddd57565b611145565b90611dee60ff91610ce8565b9181191691161790565b611e019061038d565b90565b90565b90611e1c611e17611e2392611df8565b611e04565b8254611de2565b9055565b916020611e49929493611e42604082019660008301906105de565b01906105de565b565b611e7081611e6a611e64611e5f6000610420565b6100b8565b916100b8565b106116f5565b611ea382611e9d611e97611e926003611e8b6000889061042f565b5001610c4c565b6100b8565b916100b8565b10611ca2565b611ed2611ecd611ec7611ec2611ebb600133906102ef565b8590610323565b611735565b1561038d565b611d4c565b611f15611edf6001611d78565b611f0f6002611efe6003611ef56000889061042f565b50018790611d94565b500191611f0a83610475565b611dbd565b90610d08565b611f356001611f30611f29600133906102ef565b8490610323565b611e07565b339091611f627fb4cfecf70861b7b150d8337780d34fb4cbc2114b5fb1fe51a5c5fca1849f7274926102e3565b92611f77611f6e6100a3565b92839283611e27565b0390a256fea2646970667358221220fb3d586b569f72213759adec7dcc5916a1ddd142dc38c11af7e513c589dc941764736f6c634300081c0033","opcodes":"PUSH1 0x80 PUSH1 0x40 MSTORE CALLVALUE PUSH2 0x27 JUMPI PUSH2 0x11 PUSH2 0xAE2 JUMP JUMPDEST PUSH2 0x19 PUSH2 0x2C JUMP JUMPDEST PUSH2 0x1FB2 PUSH2 0xCEB DUP3 CODECOPY PUSH2 0x1FB2 SWAP1 RETURN JUMPDEST PUSH2 0x32 JUMP JUMPDEST PUSH1 0x40 MLOAD SWAP1 JUMP JUMPDEST PUSH1 0x0 DUP1 REVERT JUMPDEST SWAP1 JUMP JUMPDEST SWAP1 JUMP JUMPDEST SWAP1 JUMP JUMPDEST PUSH2 0x54 PUSH2 0x4F PUSH2 0x59 SWAP3 PUSH2 0x37 JUMP JUMPDEST PUSH2 0x3D JUMP JUMPDEST PUSH2 0x3A JUMP JUMPDEST SWAP1 JUMP JUMPDEST PUSH1 0x1F DUP1 NOT SWAP2 ADD AND SWAP1 JUMP JUMPDEST PUSH4 0x4E487B71 PUSH1 0xE0 SHL PUSH1 0x0 MSTORE PUSH1 0x41 PUSH1 0x4 MSTORE PUSH1 0x24 PUSH1 0x0 REVERT JUMPDEST SWAP1 PUSH2 0x86 SWAP1 PUSH2 0x5C JUMP JUMPDEST DUP2 ADD SWAP1 DUP2 LT PUSH1 0x1 DUP1 PUSH1 0x40 SHL SUB DUP3 GT OR PUSH2 0x9E JUMPI PUSH1 0x40 MSTORE JUMP JUMPDEST PUSH2 0x66 JUMP JUMPDEST SWAP1 PUSH2 0xB6 PUSH2 0xAF PUSH2 0x2C JUMP JUMPDEST SWAP3 DUP4 PUSH2 0x7C JUMP JUMPDEST JUMP JUMPDEST PUSH1 0x1 DUP1 PUSH1 0x40 SHL SUB DUP2 GT PUSH2 0xCE JUMPI PUSH1 0x20 DUP1 SWAP2 MUL ADD SWAP1 JUMP JUMPDEST PUSH2 0x66 JUMP JUMPDEST SWAP1 PUSH2 0xE5 PUSH2 0xE0 DUP4 PUSH2 0xB8 JUMP JUMPDEST PUSH2 0xA3 JUMP JUMPDEST SWAP2 DUP3 MSTORE JUMP JUMPDEST PUSH2 0xF4 PUSH1 0x60 PUSH2 0xA3 JUMP JUMPDEST SWAP1 JUMP JUMPDEST PUSH1 0x0 SWAP1 JUMP JUMPDEST PUSH1 0x60 SWAP1 JUMP JUMPDEST PUSH2 0x109 PUSH2 0xEA JUMP JUMPDEST SWAP1 PUSH1 0x20 DUP1 DUP1 DUP5 PUSH2 0x117 PUSH2 0xF7 JUMP JUMPDEST DUP2 MSTORE ADD PUSH2 0x122 PUSH2 0xFC JUMP JUMPDEST DUP2 MSTORE ADD PUSH2 0x12D PUSH2 0xF7 JUMP JUMPDEST DUP2 MSTORE POP POP JUMP JUMPDEST PUSH2 0x13B PUSH2 0x101 JUMP JUMPDEST SWAP1 JUMP JUMPDEST PUSH1 0x0 JUMPDEST DUP3 DUP2 LT PUSH2 0x14D JUMPI POP POP POP JUMP JUMPDEST PUSH1 0x20 SWAP1 PUSH2 0x158 PUSH2 0x133 JUMP JUMPDEST DUP2 DUP5 ADD MSTORE ADD PUSH2 0x141 JUMP JUMPDEST SWAP1 PUSH2 0x187 PUSH2 0x16F DUP4 PUSH2 0xD3 JUMP JUMPDEST SWAP3 PUSH1 0x20 DUP1 PUSH2 0x17D DUP7 SWAP4 PUSH2 0xB8 JUMP JUMPDEST SWAP3 ADD SWAP2 SUB SWAP1 PUSH2 0x13E JUMP JUMPDEST JUMP JUMPDEST PUSH2 0x193 PUSH1 0x80 PUSH2 0xA3 JUMP JUMPDEST SWAP1 JUMP JUMPDEST SWAP1 PUSH2 0x1A0 SWAP1 PUSH2 0x3A JUMP JUMPDEST SWAP1 MSTORE JUMP JUMPDEST PUSH1 0x1 DUP1 PUSH1 0x40 SHL SUB DUP2 GT PUSH2 0x1C0 JUMPI PUSH2 0x1BC PUSH1 0x20 SWAP2 PUSH2 0x5C JUMP JUMPDEST ADD SWAP1 JUMP JUMPDEST PUSH2 0x66 JUMP JUMPDEST SWAP1 PUSH2 0x1D7 PUSH2 0x1D2 DUP4 PUSH2 0x1A4 JUMP JUMPDEST PUSH2 0xA3 JUMP JUMPDEST SWAP2 DUP3 MSTORE JUMP JUMPDEST PUSH1 0x0 PUSH32 0x456C656374696F6E203100000000000000000000000000000000000000000000 SWAP2 ADD MSTORE JUMP JUMPDEST PUSH2 0x20E PUSH1 0xA PUSH2 0x1C5 JUMP JUMPDEST SWAP1 PUSH2 0x21B PUSH1 0x20 DUP4 ADD PUSH2 0x1DC JUMP JUMPDEST JUMP JUMPDEST PUSH2 0x225 PUSH2 0x204 JUMP JUMPDEST SWAP1 JUMP JUMPDEST MSTORE JUMP JUMPDEST PUSH1 0x0 PUSH32 0x466972737420656C656374696F6E000000000000000000000000000000000000 SWAP2 ADD MSTORE JUMP JUMPDEST PUSH2 0x25D PUSH1 0xE PUSH2 0x1C5 JUMP JUMPDEST SWAP1 PUSH2 0x26A PUSH1 0x20 DUP4 ADD PUSH2 0x22B JUMP JUMPDEST JUMP JUMPDEST PUSH2 0x274 PUSH2 0x253 JUMP JUMPDEST SWAP1 JUMP JUMPDEST MSTORE JUMP JUMPDEST SWAP1 JUMP JUMPDEST PUSH1 0x0 MSTORE PUSH1 0x20 PUSH1 0x0 KECCAK256 SWAP1 JUMP JUMPDEST PUSH4 0x4E487B71 PUSH1 0xE0 SHL PUSH1 0x0 MSTORE PUSH1 0x32 PUSH1 0x4 MSTORE PUSH1 0x24 PUSH1 0x0 REVERT JUMPDEST SLOAD SWAP1 JUMP JUMPDEST PUSH2 0x2AB DUP2 PUSH2 0x29E JUMP JUMPDEST DUP3 LT ISZERO PUSH2 0x2C6 JUMPI PUSH2 0x2BD PUSH1 0x4 SWAP2 PUSH2 0x27D JUMP JUMPDEST SWAP2 MUL ADD SWAP1 PUSH1 0x0 SWAP1 JUMP JUMPDEST PUSH2 0x288 JUMP JUMPDEST PUSH4 0x4E487B71 PUSH1 0xE0 SHL PUSH1 0x0 MSTORE PUSH1 0x0 PUSH1 0x4 MSTORE PUSH1 0x24 PUSH1 0x0 REVERT JUMPDEST PUSH2 0x2EB SWAP1 MLOAD PUSH2 0x3A JUMP JUMPDEST SWAP1 JUMP JUMPDEST PUSH1 0x0 SHL SWAP1 JUMP JUMPDEST SWAP1 PUSH2 0x301 PUSH1 0x0 NOT SWAP2 PUSH2 0x2EE JUMP JUMPDEST SWAP2 DUP2 NOT AND SWAP2 AND OR SWAP1 JUMP JUMPDEST PUSH2 0x31F PUSH2 0x31A PUSH2 0x324 SWAP3 PUSH2 0x3A JUMP JUMPDEST PUSH2 0x3D JUMP JUMPDEST PUSH2 0x3A JUMP JUMPDEST SWAP1 JUMP JUMPDEST SWAP1 JUMP JUMPDEST SWAP1 PUSH2 0x33F PUSH2 0x33A PUSH2 0x346 SWAP3 PUSH2 0x30B JUMP JUMPDEST PUSH2 0x327 JUMP JUMPDEST DUP3 SLOAD PUSH2 0x2F4 JUMP JUMPDEST SWAP1 SSTORE JUMP JUMPDEST MLOAD SWAP1 JUMP JUMPDEST MLOAD SWAP1 JUMP JUMPDEST PUSH4 0x4E487B71 PUSH1 0xE0 SHL PUSH1 0x0 MSTORE PUSH1 0x22 PUSH1 0x4 MSTORE PUSH1 0x24 PUSH1 0x0 REVERT JUMPDEST SWAP1 PUSH1 0x1 PUSH1 0x2 DUP4 DIV SWAP3 AND DUP1 ISZERO PUSH2 0x388 JUMPI JUMPDEST PUSH1 0x20 DUP4 LT EQ PUSH2 0x383 JUMPI JUMP JUMPDEST PUSH2 0x352 JUMP JUMPDEST SWAP2 PUSH1 0x7F AND SWAP2 PUSH2 0x378 JUMP JUMPDEST PUSH1 0x0 MSTORE PUSH1 0x20 PUSH1 0x0 KECCAK256 SWAP1 JUMP JUMPDEST PUSH1 0x1F PUSH1 0x20 SWAP2 ADD DIV SWAP1 JUMP JUMPDEST SHL SWAP1 JUMP JUMPDEST SWAP2 SWAP1 PUSH1 0x8 PUSH2 0x3C7 SWAP2 MUL SWAP2 PUSH2 0x3C1 PUSH1 0x0 NOT DUP5 PUSH2 0x3A7 JUMP JUMPDEST SWAP3 PUSH2 0x3A7 JUMP JUMPDEST SWAP2 DUP2 NOT AND SWAP2 AND OR SWAP1 JUMP JUMPDEST SWAP2 SWAP1 PUSH2 0x3E7 PUSH2 0x3E2 PUSH2 0x3EF SWAP4 PUSH2 0x30B JUMP JUMPDEST PUSH2 0x327 JUMP JUMPDEST SWAP1 DUP4 SLOAD PUSH2 0x3AB JUMP JUMPDEST SWAP1 SSTORE JUMP JUMPDEST PUSH1 0x0 SWAP1 JUMP JUMPDEST PUSH2 0x40A SWAP2 PUSH2 0x404 PUSH2 0x3F3 JUMP JUMPDEST SWAP2 PUSH2 0x3D1 JUMP JUMPDEST JUMP JUMPDEST JUMPDEST DUP2 DUP2 LT PUSH2 0x418 JUMPI POP POP JUMP JUMPDEST DUP1 PUSH2 0x426 PUSH1 0x0 PUSH1 0x1 SWAP4 PUSH2 0x3F8 JUMP JUMPDEST ADD PUSH2 0x40D JUMP JUMPDEST SWAP2 SWAP1 PUSH1 0x1F DUP2 GT PUSH2 0x43C JUMPI JUMPDEST POP POP POP JUMP JUMPDEST PUSH2 0x448 PUSH2 0x46D SWAP4 PUSH2 0x392 JUMP JUMPDEST SWAP1 PUSH1 0x20 PUSH2 0x454 DUP5 PUSH2 0x39D JUMP JUMPDEST DUP4 ADD SWAP4 LT PUSH2 0x475 JUMPI JUMPDEST PUSH2 0x466 SWAP1 PUSH2 0x39D JUMP JUMPDEST ADD SWAP1 PUSH2 0x40C JUMP JUMPDEST CODESIZE DUP1 DUP1 PUSH2 0x437 JUMP JUMPDEST SWAP2 POP PUSH2 0x466 DUP2 SWAP3 SWAP1 POP PUSH2 0x45D JUMP JUMPDEST SHR SWAP1 JUMP JUMPDEST SWAP1 PUSH2 0x498 SWAP1 PUSH1 0x0 NOT SWAP1 PUSH1 0x8 MUL PUSH2 0x483 JUMP JUMPDEST NOT AND SWAP1 JUMP JUMPDEST DUP2 PUSH2 0x4A7 SWAP2 PUSH2 0x487 JUMP JUMPDEST SWAP1 PUSH1 0x2 MUL OR SWAP1 JUMP JUMPDEST SWAP1 PUSH2 0x4B9 DUP2 PUSH2 0x34E JUMP JUMPDEST SWAP1 PUSH1 0x1 DUP1 PUSH1 0x40 SHL SUB DUP3 GT PUSH2 0x579 JUMPI PUSH2 0x4DB DUP3 PUSH2 0x4D5 DUP6 SLOAD PUSH2 0x368 JUMP JUMPDEST DUP6 PUSH2 0x42C JUMP JUMPDEST PUSH1 0x20 SWAP1 PUSH1 0x1F DUP4 GT PUSH1 0x1 EQ PUSH2 0x510 JUMPI SWAP2 DUP1 SWAP2 PUSH2 0x4FF SWAP4 PUSH1 0x0 SWAP3 PUSH2 0x504 JUMPI JUMPDEST POP POP PUSH2 0x49D JUMP JUMPDEST SWAP1 SSTORE JUMPDEST JUMP JUMPDEST SWAP1 SWAP2 POP ADD MLOAD CODESIZE DUP1 PUSH2 0x4F8 JUMP JUMPDEST PUSH1 0x1F NOT DUP4 AND SWAP2 PUSH2 0x51F DUP6 PUSH2 0x392 JUMP JUMPDEST SWAP3 PUSH1 0x0 JUMPDEST DUP2 DUP2 LT PUSH2 0x561 JUMPI POP SWAP2 PUSH1 0x2 SWAP4 SWAP2 DUP6 PUSH1 0x1 SWAP7 SWAP5 LT PUSH2 0x547 JUMPI JUMPDEST POP POP POP MUL ADD SWAP1 SSTORE PUSH2 0x502 JUMP JUMPDEST PUSH2 0x557 SWAP2 ADD MLOAD PUSH1 0x1F DUP5 AND SWAP1 PUSH2 0x487 JUMP JUMPDEST SWAP1 SSTORE CODESIZE DUP1 DUP1 PUSH2 0x53B JUMP JUMPDEST SWAP2 SWAP4 PUSH1 0x20 PUSH1 0x1 DUP2 SWAP3 DUP8 DUP8 ADD MLOAD DUP2 SSTORE ADD SWAP6 ADD SWAP3 ADD PUSH2 0x523 JUMP JUMPDEST PUSH2 0x66 JUMP JUMPDEST SWAP1 PUSH2 0x588 SWAP2 PUSH2 0x4AF JUMP JUMPDEST JUMP JUMPDEST MLOAD SWAP1 JUMP JUMPDEST PUSH1 0x20 ADD SWAP1 JUMP JUMPDEST SLOAD SWAP1 JUMP JUMPDEST PUSH4 0x4E487B71 PUSH1 0xE0 SHL PUSH1 0x0 MSTORE PUSH1 0x11 PUSH1 0x4 MSTORE PUSH1 0x24 PUSH1 0x0 REVERT JUMPDEST PUSH2 0x5BD PUSH2 0x5C3 SWAP2 SWAP4 SWAP3 SWAP4 PUSH2 0x3A JUMP JUMPDEST SWAP3 PUSH2 0x3A JUMP JUMPDEST SWAP2 PUSH2 0x5CF DUP4 DUP3 MUL PUSH2 0x3A JUMP JUMPDEST SWAP3 DUP2 DUP5 DIV EQ SWAP1 ISZERO OR ISZERO PUSH2 0x5DE JUMPI JUMP JUMPDEST PUSH2 0x598 JUMP JUMPDEST PUSH2 0x5EE SWAP1 PUSH1 0x3 PUSH2 0x5AE JUMP JUMPDEST SWAP1 JUMP JUMPDEST PUSH1 0x0 MSTORE PUSH1 0x20 PUSH1 0x0 KECCAK256 SWAP1 JUMP JUMPDEST SWAP1 PUSH2 0x610 SWAP1 PUSH1 0x0 NOT SWAP1 PUSH1 0x20 SUB PUSH1 0x8 MUL PUSH2 0x483 JUMP JUMPDEST DUP2 SLOAD AND SWAP1 SSTORE JUMP JUMPDEST SWAP1 PUSH1 0x0 SWAP2 PUSH2 0x62F PUSH2 0x627 DUP3 PUSH2 0x392 JUMP JUMPDEST SWAP3 DUP4 SLOAD PUSH2 0x49D JUMP JUMPDEST SWAP1 SSTORE SSTORE JUMP JUMPDEST SWAP2 SWAP3 SWAP1 PUSH1 0x20 DUP3 LT PUSH1 0x0 EQ PUSH2 0x68E JUMPI PUSH1 0x1F DUP5 GT PUSH1 0x1 EQ PUSH2 0x65E JUMPI PUSH2 0x658 SWAP3 SWAP4 POP PUSH2 0x49D JUMP JUMPDEST SWAP1 SSTORE JUMPDEST JUMPDEST JUMP JUMPDEST POP SWAP1 PUSH2 0x684 PUSH2 0x689 SWAP4 PUSH1 0x1 PUSH2 0x67B PUSH2 0x675 DUP6 PUSH2 0x392 JUMP JUMPDEST SWAP3 PUSH2 0x39D JUMP JUMPDEST DUP3 ADD SWAP2 ADD PUSH2 0x40C JUMP JUMPDEST PUSH2 0x617 JUMP JUMPDEST PUSH2 0x65B JUMP JUMPDEST POP PUSH2 0x6C5 DUP3 SWAP4 PUSH2 0x69F PUSH1 0x1 SWAP5 PUSH2 0x392 JUMP JUMPDEST PUSH2 0x6BE PUSH2 0x6AB DUP6 PUSH2 0x39D JUMP JUMPDEST DUP3 ADD SWAP3 PUSH1 0x1F DUP7 AND DUP1 PUSH2 0x6D0 JUMPI JUMPDEST POP PUSH2 0x39D JUMP JUMPDEST ADD SWAP1 PUSH2 0x40C JUMP JUMPDEST PUSH1 0x2 MUL OR SWAP1 SSTORE PUSH2 0x65C JUMP JUMPDEST PUSH2 0x6DC SWAP1 DUP9 DUP7 SUB PUSH2 0x5FC JUMP JUMPDEST CODESIZE PUSH2 0x6B8 JUMP JUMPDEST SWAP3 SWAP1 SWAP2 PUSH9 0x10000000000000000 DUP3 GT PUSH2 0x744 JUMPI PUSH1 0x20 GT PUSH1 0x0 EQ PUSH2 0x735 JUMPI PUSH1 0x20 DUP2 LT PUSH1 0x0 EQ PUSH2 0x719 JUMPI PUSH2 0x713 SWAP2 PUSH2 0x49D JUMP JUMPDEST SWAP1 SSTORE JUMPDEST JUMPDEST JUMP JUMPDEST PUSH1 0x1 SWAP2 PUSH1 0xFF NOT AND PUSH2 0x729 DUP5 PUSH2 0x392 JUMP JUMPDEST SSTORE PUSH1 0x2 MUL ADD SWAP1 SSTORE PUSH2 0x716 JUMP JUMPDEST PUSH1 0x1 SWAP2 POP PUSH1 0x2 MUL ADD SWAP1 SSTORE PUSH2 0x717 JUMP JUMPDEST PUSH2 0x66 JUMP JUMPDEST SWAP1 DUP2 SLOAD PUSH2 0x755 DUP2 PUSH2 0x368 JUMP JUMPDEST SWAP1 DUP2 DUP4 GT PUSH2 0x77E JUMPI JUMPDEST DUP2 DUP4 LT PUSH2 0x76C JUMPI JUMPDEST POP POP POP POP JUMP JUMPDEST PUSH2 0x775 SWAP4 PUSH2 0x634 JUMP JUMPDEST CODESIZE DUP1 DUP1 DUP1 PUSH2 0x766 JUMP JUMPDEST PUSH2 0x78A DUP4 DUP4 DUP4 DUP8 PUSH2 0x6E2 JUMP JUMPDEST PUSH2 0x75E JUMP JUMPDEST PUSH1 0x0 PUSH2 0x79A SWAP2 PUSH2 0x749 JUMP JUMPDEST JUMP JUMPDEST SWAP1 PUSH1 0x0 SUB PUSH2 0x7AF JUMPI PUSH2 0x7AD SWAP1 PUSH2 0x78F JUMP JUMPDEST JUMP JUMPDEST PUSH2 0x2CB JUMP JUMPDEST PUSH1 0x0 PUSH1 0x2 PUSH2 0x7DB SWAP3 PUSH2 0x7C8 DUP4 DUP1 DUP4 ADD PUSH2 0x3F8 JUMP JUMPDEST PUSH2 0x7D5 DUP4 PUSH1 0x1 DUP4 ADD PUSH2 0x79C JUMP JUMPDEST ADD PUSH2 0x3F8 JUMP JUMPDEST JUMP JUMPDEST SWAP1 PUSH1 0x0 SUB PUSH2 0x7F0 JUMPI PUSH2 0x7EE SWAP1 PUSH2 0x7B4 JUMP JUMPDEST JUMP JUMPDEST PUSH2 0x2CB JUMP JUMPDEST JUMPDEST DUP2 DUP2 LT PUSH2 0x801 JUMPI POP POP JUMP JUMPDEST DUP1 PUSH2 0x80F PUSH1 0x0 PUSH1 0x3 SWAP4 PUSH2 0x7DD JUMP JUMPDEST ADD PUSH2 0x7F6 JUMP JUMPDEST SWAP1 SWAP2 DUP3 DUP2 LT PUSH2 0x824 JUMPI JUMPDEST POP POP POP JUMP JUMPDEST PUSH2 0x842 PUSH2 0x83C PUSH2 0x836 PUSH2 0x84D SWAP6 PUSH2 0x5E3 JUMP JUMPDEST SWAP3 PUSH2 0x5E3 JUMP JUMPDEST SWAP3 PUSH2 0x5F1 JUMP JUMPDEST SWAP2 DUP3 ADD SWAP2 ADD SWAP1 PUSH2 0x7F5 JUMP JUMPDEST CODESIZE DUP1 DUP1 PUSH2 0x81F JUMP JUMPDEST SWAP1 PUSH9 0x10000000000000000 DUP2 GT PUSH2 0x87E JUMPI DUP2 PUSH2 0x873 PUSH2 0x87C SWAP4 PUSH2 0x594 JUMP JUMPDEST SWAP1 DUP3 DUP2 SSTORE PUSH2 0x815 JUMP JUMPDEST JUMP JUMPDEST PUSH2 0x66 JUMP JUMPDEST MLOAD SWAP1 JUMP JUMPDEST MLOAD SWAP1 JUMP JUMPDEST SWAP1 PUSH2 0x8D1 PUSH1 0x40 PUSH1 0x2 PUSH2 0x8D7 SWAP5 PUSH2 0x8B0 PUSH1 0x0 DUP3 ADD PUSH2 0x8AA PUSH1 0x0 DUP9 ADD PUSH2 0x2E1 JUMP JUMPDEST SWAP1 PUSH2 0x32A JUMP JUMPDEST PUSH2 0x8C9 PUSH1 0x1 DUP3 ADD PUSH2 0x8C3 PUSH1 0x20 DUP9 ADD PUSH2 0x34A JUMP JUMPDEST SWAP1 PUSH2 0x57E JUMP JUMPDEST ADD SWAP3 ADD PUSH2 0x2E1 JUMP JUMPDEST SWAP1 PUSH2 0x32A JUMP JUMPDEST JUMP JUMPDEST SWAP1 PUSH2 0x8E3 SWAP2 PUSH2 0x88B JUMP JUMPDEST JUMP JUMPDEST PUSH2 0x90A PUSH2 0x904 PUSH2 0x8F4 DUP5 PUSH2 0x883 JUMP JUMPDEST SWAP4 PUSH2 0x8FF DUP6 DUP6 PUSH2 0x855 JUMP JUMPDEST PUSH2 0x58E JUMP JUMPDEST SWAP2 PUSH2 0x5F1 JUMP JUMPDEST PUSH1 0x0 SWAP2 JUMPDEST DUP4 DUP4 LT PUSH2 0x91B JUMPI POP POP POP POP JUMP JUMPDEST PUSH1 0x3 PUSH1 0x20 DUP3 PUSH2 0x934 PUSH2 0x92E PUSH1 0x1 SWAP6 PUSH2 0x887 JUMP JUMPDEST DUP7 PUSH2 0x8D9 JUMP JUMPDEST ADD SWAP3 ADD SWAP3 ADD SWAP2 SWAP1 PUSH2 0x90E JUMP JUMPDEST SWAP1 PUSH2 0x94A SWAP2 PUSH2 0x8E5 JUMP JUMPDEST JUMP JUMPDEST SWAP1 PUSH2 0x9AB PUSH1 0x60 PUSH1 0x3 PUSH2 0x9B1 SWAP5 PUSH2 0x971 PUSH1 0x0 DUP3 ADD PUSH2 0x96B PUSH1 0x0 DUP9 ADD PUSH2 0x2E1 JUMP JUMPDEST SWAP1 PUSH2 0x32A JUMP JUMPDEST PUSH2 0x98A PUSH1 0x1 DUP3 ADD PUSH2 0x984 PUSH1 0x20 DUP9 ADD PUSH2 0x34A JUMP JUMPDEST SWAP1 PUSH2 0x57E JUMP JUMPDEST PUSH2 0x9A3 PUSH1 0x2 DUP3 ADD PUSH2 0x99D PUSH1 0x40 DUP9 ADD PUSH2 0x34A JUMP JUMPDEST SWAP1 PUSH2 0x57E JUMP JUMPDEST ADD SWAP3 ADD PUSH2 0x58A JUMP JUMPDEST SWAP1 PUSH2 0x940 JUMP JUMPDEST JUMP JUMPDEST SWAP2 SWAP1 PUSH2 0x9C4 JUMPI PUSH2 0x9C2 SWAP2 PUSH2 0x94C JUMP JUMPDEST JUMP JUMPDEST PUSH2 0x2CB JUMP JUMPDEST SWAP1 DUP2 SLOAD SWAP2 PUSH9 0x10000000000000000 DUP4 LT ISZERO PUSH2 0x9F9 JUMPI DUP3 PUSH2 0x9F1 SWAP2 PUSH1 0x1 PUSH2 0x9F7 SWAP6 ADD DUP2 SSTORE PUSH2 0x2A2 JUMP JUMPDEST SWAP1 PUSH2 0x9B3 JUMP JUMPDEST JUMP JUMPDEST PUSH2 0x66 JUMP JUMPDEST PUSH1 0x0 PUSH32 0x50726F706F73616C203100000000000000000000000000000000000000000000 SWAP2 ADD MSTORE JUMP JUMPDEST PUSH2 0xA30 PUSH1 0xA PUSH2 0x1C5 JUMP JUMPDEST SWAP1 PUSH2 0xA3D PUSH1 0x20 DUP4 ADD PUSH2 0x9FE JUMP JUMPDEST JUMP JUMPDEST PUSH2 0xA47 PUSH2 0xA26 JUMP JUMPDEST SWAP1 JUMP JUMPDEST PUSH1 0x0 PUSH32 0x50726F706F73616C203200000000000000000000000000000000000000000000 SWAP2 ADD MSTORE JUMP JUMPDEST PUSH2 0xA7C PUSH1 0xA PUSH2 0x1C5 JUMP JUMPDEST SWAP1 PUSH2 0xA89 PUSH1 0x20 DUP4 ADD PUSH2 0xA4A JUMP JUMPDEST JUMP JUMPDEST PUSH2 0xA93 PUSH2 0xA72 JUMP JUMPDEST SWAP1 JUMP JUMPDEST PUSH1 0x0 PUSH32 0x50726F706F73616C203300000000000000000000000000000000000000000000 SWAP2 ADD MSTORE JUMP JUMPDEST PUSH2 0xAC8 PUSH1 0xA PUSH2 0x1C5 JUMP JUMPDEST SWAP1 PUSH2 0xAD5 PUSH1 0x20 DUP4 ADD PUSH2 0xA96 JUMP JUMPDEST JUMP JUMPDEST PUSH2 0xADF PUSH2 0xABE JUMP JUMPDEST SWAP1 JUMP JUMPDEST PUSH2 0xB59 PUSH1 0x0 PUSH2 0xB4A PUSH2 0xAFC PUSH2 0xAF7 PUSH1 0x0 PUSH2 0x40 JUMP JUMPDEST PUSH2 0x162 JUMP JUMPDEST PUSH2 0xB19 PUSH2 0xB10 PUSH2 0xB0A PUSH2 0x189 JUMP JUMPDEST SWAP5 PUSH2 0x40 JUMP JUMPDEST PUSH1 0x0 DUP6 ADD PUSH2 0x196 JUMP JUMPDEST PUSH2 0xB2D PUSH2 0xB24 PUSH2 0x21D JUMP JUMPDEST PUSH1 0x20 DUP6 ADD PUSH2 0x228 JUMP JUMPDEST PUSH2 0xB41 PUSH2 0xB38 PUSH2 0x26C JUMP JUMPDEST PUSH1 0x40 DUP6 ADD PUSH2 0x228 JUMP JUMPDEST PUSH1 0x60 DUP4 ADD PUSH2 0x277 JUMP JUMPDEST PUSH2 0xB54 PUSH1 0x0 PUSH2 0x27A JUMP JUMPDEST PUSH2 0x9C9 JUMP JUMPDEST PUSH2 0xB74 PUSH2 0xB66 PUSH1 0x0 PUSH2 0x40 JUMP JUMPDEST PUSH2 0xB6E PUSH2 0xA3F JUMP JUMPDEST SWAP1 PUSH2 0xC77 JUMP JUMPDEST PUSH2 0xB8F PUSH2 0xB81 PUSH1 0x0 PUSH2 0x40 JUMP JUMPDEST PUSH2 0xB89 PUSH2 0xA8B JUMP JUMPDEST SWAP1 PUSH2 0xC77 JUMP JUMPDEST PUSH2 0xBAA PUSH2 0xB9C PUSH1 0x0 PUSH2 0x40 JUMP JUMPDEST PUSH2 0xBA4 PUSH2 0xAD7 JUMP JUMPDEST SWAP1 PUSH2 0xC77 JUMP JUMPDEST JUMP JUMPDEST SLOAD SWAP1 JUMP JUMPDEST PUSH1 0x0 MSTORE PUSH1 0x20 PUSH1 0x0 KECCAK256 SWAP1 JUMP JUMPDEST PUSH2 0xBC4 DUP2 PUSH2 0xBAC JUMP JUMPDEST DUP3 LT ISZERO PUSH2 0xBDF JUMPI PUSH2 0xBD6 PUSH1 0x4 SWAP2 PUSH2 0xBB0 JUMP JUMPDEST SWAP2 MUL ADD SWAP1 PUSH1 0x0 SWAP1 JUMP JUMPDEST PUSH2 0x288 JUMP JUMPDEST SWAP1 JUMP JUMPDEST PUSH2 0xBF1 PUSH1 0x60 PUSH2 0xA3 JUMP JUMPDEST SWAP1 JUMP JUMPDEST PUSH1 0x0 MSTORE PUSH1 0x20 PUSH1 0x0 KECCAK256 SWAP1 JUMP JUMPDEST SLOAD SWAP1 JUMP JUMPDEST PUSH2 0xC0C DUP2 PUSH2 0xBFF JUMP JUMPDEST DUP3 LT ISZERO PUSH2 0xC27 JUMPI PUSH2 0xC1E PUSH1 0x3 SWAP2 PUSH2 0xBF4 JUMP JUMPDEST SWAP2 MUL ADD SWAP1 PUSH1 0x0 SWAP1 JUMP JUMPDEST PUSH2 0x288 JUMP JUMPDEST SWAP2 SWAP1 PUSH2 0xC3D JUMPI PUSH2 0xC3B SWAP2 PUSH2 0x88B JUMP JUMPDEST JUMP JUMPDEST PUSH2 0x2CB JUMP JUMPDEST SWAP1 DUP2 SLOAD SWAP2 PUSH9 0x10000000000000000 DUP4 LT ISZERO PUSH2 0xC72 JUMPI DUP3 PUSH2 0xC6A SWAP2 PUSH1 0x1 PUSH2 0xC70 SWAP6 ADD DUP2 SSTORE PUSH2 0xC03 JUMP JUMPDEST SWAP1 PUSH2 0xC2C JUMP JUMPDEST JUMP JUMPDEST PUSH2 0x66 JUMP JUMPDEST SWAP1 PUSH2 0xCE8 SWAP2 PUSH2 0xCE3 PUSH2 0xCDA PUSH2 0xCB0 PUSH1 0x3 PUSH2 0xCA9 PUSH2 0xCA1 DUP3 PUSH2 0xC9A PUSH1 0x0 DUP10 SWAP1 PUSH2 0xBBB JUMP JUMPDEST POP ADD PUSH2 0xBE4 JUMP JUMPDEST SWAP6 PUSH1 0x0 PUSH2 0xBBB JUMP JUMPDEST POP ADD PUSH2 0x594 JUMP JUMPDEST SWAP4 PUSH2 0xCD5 PUSH1 0x0 SWAP2 PUSH2 0xCCC PUSH2 0xCC2 PUSH2 0xBE7 JUMP JUMPDEST SWAP8 PUSH1 0x0 DUP10 ADD PUSH2 0x196 JUMP JUMPDEST PUSH1 0x20 DUP8 ADD PUSH2 0x228 JUMP JUMPDEST PUSH2 0x40 JUMP JUMPDEST PUSH1 0x40 DUP5 ADD PUSH2 0x196 JUMP JUMPDEST PUSH2 0xC42 JUMP JUMPDEST JUMP INVALID PUSH1 0x80 PUSH1 0x40 MSTORE PUSH1 0x4 CALLDATASIZE LT ISZERO PUSH2 0x13 JUMPI JUMPDEST PUSH2 0xC44 JUMP JUMPDEST PUSH2 0x1E PUSH1 0x0 CALLDATALOAD PUSH2 0x9D JUMP JUMPDEST DUP1 PUSH4 0x2D52FA4 EQ PUSH2 0x98 JUMPI DUP1 PUSH4 0x42545825 EQ PUSH2 0x93 JUMPI DUP1 PUSH4 0x5E6FEF01 EQ PUSH2 0x8E JUMPI DUP1 PUSH4 0x84303277 EQ PUSH2 0x89 JUMPI DUP1 PUSH4 0x9D710777 EQ PUSH2 0x84 JUMPI DUP1 PUSH4 0x9F3A7F52 EQ PUSH2 0x7F JUMPI DUP1 PUSH4 0xAD1539B6 EQ PUSH2 0x7A JUMPI PUSH4 0xB384ABEF SUB PUSH2 0xE JUMPI PUSH2 0xC10 JUMP JUMPDEST PUSH2 0xBAA JUMP JUMPDEST PUSH2 0xB33 JUMP JUMPDEST PUSH2 0x992 JUMP JUMPDEST PUSH2 0x7F7 JUMP JUMPDEST PUSH2 0x688 JUMP JUMPDEST PUSH2 0x3B5 JUMP JUMPDEST PUSH2 0x21B JUMP JUMPDEST PUSH1 0xE0 SHR SWAP1 JUMP JUMPDEST PUSH1 0x40 MLOAD SWAP1 JUMP JUMPDEST PUSH1 0x0 DUP1 REVERT JUMPDEST PUSH1 0x0 DUP1 REVERT JUMPDEST PUSH1 0x0 DUP1 REVERT JUMPDEST SWAP1 JUMP JUMPDEST PUSH2 0xC4 DUP2 PUSH2 0xB8 JUMP JUMPDEST SUB PUSH2 0xCB JUMPI JUMP JUMPDEST PUSH1 0x0 DUP1 REVERT JUMPDEST SWAP1 POP CALLDATALOAD SWAP1 PUSH2 0xDD DUP3 PUSH2 0xBB JUMP JUMPDEST JUMP JUMPDEST PUSH1 0x0 DUP1 REVERT JUMPDEST PUSH1 0x0 DUP1 REVERT JUMPDEST PUSH1 0x1F DUP1 NOT SWAP2 ADD AND SWAP1 JUMP JUMPDEST PUSH4 0x4E487B71 PUSH1 0xE0 SHL PUSH1 0x0 MSTORE PUSH1 0x41 PUSH1 0x4 MSTORE PUSH1 0x24 PUSH1 0x0 REVERT JUMPDEST SWAP1 PUSH2 0x113 SWAP1 PUSH2 0xE9 JUMP JUMPDEST DUP2 ADD SWAP1 DUP2 LT PUSH8 0xFFFFFFFFFFFFFFFF DUP3 GT OR PUSH2 0x12D JUMPI PUSH1 0x40 MSTORE JUMP JUMPDEST PUSH2 0xF3 JUMP JUMPDEST SWAP1 PUSH2 0x145 PUSH2 0x13E PUSH2 0xA3 JUMP JUMPDEST SWAP3 DUP4 PUSH2 0x109 JUMP JUMPDEST JUMP JUMPDEST PUSH8 0xFFFFFFFFFFFFFFFF DUP2 GT PUSH2 0x165 JUMPI PUSH2 0x161 PUSH1 0x20 SWAP2 PUSH2 0xE9 JUMP JUMPDEST ADD SWAP1 JUMP JUMPDEST PUSH2 0xF3 JUMP JUMPDEST SWAP1 DUP3 PUSH1 0x0 SWAP4 SWAP3 DUP3 CALLDATACOPY ADD MSTORE JUMP JUMPDEST SWAP1 SWAP3 SWAP2 SWAP3 PUSH2 0x18B PUSH2 0x186 DUP3 PUSH2 0x147 JUMP JUMPDEST PUSH2 0x132 JUMP JUMPDEST SWAP4 DUP2 DUP6 MSTORE PUSH1 0x20 DUP6 ADD SWAP1 DUP3 DUP5 ADD GT PUSH2 0x1A7 JUMPI PUSH2 0x1A5 SWAP3 PUSH2 0x16A JUMP JUMPDEST JUMP JUMPDEST PUSH2 0xE4 JUMP JUMPDEST SWAP1 DUP1 PUSH1 0x1F DUP4 ADD SLT ISZERO PUSH2 0x1CA JUMPI DUP2 PUSH1 0x20 PUSH2 0x1C7 SWAP4 CALLDATALOAD SWAP2 ADD PUSH2 0x176 JUMP JUMPDEST SWAP1 JUMP JUMPDEST PUSH2 0xDF JUMP JUMPDEST SWAP2 SWAP1 SWAP2 PUSH1 0x40 DUP2 DUP5 SUB SLT PUSH2 0x210 JUMPI PUSH2 0x1E9 DUP4 PUSH1 0x0 DUP4 ADD PUSH2 0xD0 JUMP JUMPDEST SWAP3 PUSH1 0x20 DUP3 ADD CALLDATALOAD PUSH8 0xFFFFFFFFFFFFFFFF DUP2 GT PUSH2 0x20B JUMPI PUSH2 0x208 SWAP3 ADD PUSH2 0x1AC JUMP JUMPDEST SWAP1 JUMP JUMPDEST PUSH2 0xB3 JUMP JUMPDEST PUSH2 0xAE JUMP JUMPDEST PUSH1 0x0 ADD SWAP1 JUMP JUMPDEST CALLVALUE PUSH2 0x24A JUMPI PUSH2 0x234 PUSH2 0x22E CALLDATASIZE PUSH1 0x4 PUSH2 0x1CF JUMP JUMPDEST SWAP1 PUSH2 0xFB0 JUMP JUMPDEST PUSH2 0x23C PUSH2 0xA3 JUMP JUMPDEST DUP1 PUSH2 0x246 DUP2 PUSH2 0x215 JUMP JUMPDEST SUB SWAP1 RETURN JUMPDEST PUSH2 0xA9 JUMP JUMPDEST PUSH1 0x1 DUP1 PUSH1 0xA0 SHL SUB AND SWAP1 JUMP JUMPDEST PUSH2 0x263 SWAP1 PUSH2 0x24F JUMP JUMPDEST SWAP1 JUMP JUMPDEST PUSH2 0x26F DUP2 PUSH2 0x25A JUMP JUMPDEST SUB PUSH2 0x276 JUMPI JUMP JUMPDEST PUSH1 0x0 DUP1 REVERT JUMPDEST SWAP1 POP CALLDATALOAD SWAP1 PUSH2 0x288 DUP3 PUSH2 0x266 JUMP JUMPDEST JUMP JUMPDEST SWAP2 SWAP1 PUSH1 0x40 DUP4 DUP3 SUB SLT PUSH2 0x2B3 JUMPI DUP1 PUSH2 0x2A7 PUSH2 0x2B0 SWAP3 PUSH1 0x0 DUP7 ADD PUSH2 0x27B JUMP JUMPDEST SWAP4 PUSH1 0x20 ADD PUSH2 0xD0 JUMP JUMPDEST SWAP1 JUMP JUMPDEST PUSH2 0xAE JUMP JUMPDEST SWAP1 JUMP JUMPDEST PUSH2 0x2CF PUSH2 0x2CA PUSH2 0x2D4 SWAP3 PUSH2 0x24F JUMP JUMPDEST PUSH2 0x2B8 JUMP JUMPDEST PUSH2 0x24F JUMP JUMPDEST SWAP1 JUMP JUMPDEST PUSH2 0x2E0 SWAP1 PUSH2 0x2BB JUMP JUMPDEST SWAP1 JUMP JUMPDEST PUSH2 0x2EC SWAP1 PUSH2 0x2D7 JUMP JUMPDEST SWAP1 JUMP JUMPDEST SWAP1 PUSH2 0x2F9 SWAP1 PUSH2 0x2E3 JUMP JUMPDEST PUSH1 0x0 MSTORE PUSH1 0x20 MSTORE PUSH1 0x40 PUSH1 0x0 KECCAK256 SWAP1 JUMP JUMPDEST PUSH2 0x31B PUSH2 0x316 PUSH2 0x320 SWAP3 PUSH2 0xB8 JUMP JUMPDEST PUSH2 0x2B8 JUMP JUMPDEST PUSH2 0xB8 JUMP JUMPDEST SWAP1 JUMP JUMPDEST SWAP1 PUSH2 0x32D SWAP1 PUSH2 0x307 JUMP JUMPDEST PUSH1 0x0 MSTORE PUSH1 0x20 MSTORE PUSH1 0x40 PUSH1 0x0 KECCAK256 SWAP1 JUMP JUMPDEST SHR SWAP1 JUMP JUMPDEST PUSH1 0xFF AND SWAP1 JUMP JUMPDEST PUSH2 0x355 SWAP1 PUSH1 0x8 PUSH2 0x35A SWAP4 MUL PUSH2 0x33B JUMP JUMPDEST PUSH2 0x33F JUMP JUMPDEST SWAP1 JUMP JUMPDEST SWAP1 PUSH2 0x368 SWAP2 SLOAD PUSH2 0x345 JUMP JUMPDEST SWAP1 JUMP JUMPDEST PUSH2 0x385 PUSH2 0x38A SWAP3 PUSH2 0x380 PUSH1 0x1 SWAP4 PUSH1 0x0 SWAP5 PUSH2 0x2EF JUMP JUMPDEST PUSH2 0x323 JUMP JUMPDEST PUSH2 0x35D JUMP JUMPDEST SWAP1 JUMP JUMPDEST ISZERO ISZERO SWAP1 JUMP JUMPDEST PUSH2 0x39B SWAP1 PUSH2 0x38D JUMP JUMPDEST SWAP1 MSTORE JUMP JUMPDEST SWAP2 SWAP1 PUSH2 0x3B3 SWAP1 PUSH1 0x0 PUSH1 0x20 DUP6 ADD SWAP5 ADD SWAP1 PUSH2 0x392 JUMP JUMPDEST JUMP JUMPDEST CALLVALUE PUSH2 0x3E6 JUMPI PUSH2 0x3E2 PUSH2 0x3D1 PUSH2 0x3CB CALLDATASIZE PUSH1 0x4 PUSH2 0x28A JUMP JUMPDEST SWAP1 PUSH2 0x36B JUMP JUMPDEST PUSH2 0x3D9 PUSH2 0xA3 JUMP JUMPDEST SWAP2 DUP3 SWAP2 DUP3 PUSH2 0x39F JUMP JUMPDEST SUB SWAP1 RETURN JUMPDEST PUSH2 0xA9 JUMP JUMPDEST SWAP1 PUSH1 0x20 DUP3 DUP3 SUB SLT PUSH2 0x405 JUMPI PUSH2 0x402 SWAP2 PUSH1 0x0 ADD PUSH2 0xD0 JUMP JUMPDEST SWAP1 JUMP JUMPDEST PUSH2 0xAE JUMP JUMPDEST PUSH4 0x4E487B71 PUSH1 0xE0 SHL PUSH1 0x0 MSTORE PUSH1 0x32 PUSH1 0x4 MSTORE PUSH1 0x24 PUSH1 0x0 REVERT JUMPDEST SLOAD SWAP1 JUMP JUMPDEST PUSH1 0x0 MSTORE PUSH1 0x20 PUSH1 0x0 KECCAK256 SWAP1 JUMP JUMPDEST PUSH2 0x438 DUP2 PUSH2 0x420 JUMP JUMPDEST DUP3 LT ISZERO PUSH2 0x453 JUMPI PUSH2 0x44A PUSH1 0x4 SWAP2 PUSH2 0x424 JUMP JUMPDEST SWAP2 MUL ADD SWAP1 PUSH1 0x0 SWAP1 JUMP JUMPDEST PUSH2 0x40A JUMP JUMPDEST PUSH1 0x0 SHR SWAP1 JUMP JUMPDEST SWAP1 JUMP JUMPDEST PUSH2 0x46D PUSH2 0x472 SWAP2 PUSH2 0x458 JUMP JUMPDEST PUSH2 0x45E JUMP JUMPDEST SWAP1 JUMP JUMPDEST PUSH2 0x47F SWAP1 SLOAD PUSH2 0x461 JUMP JUMPDEST SWAP1 JUMP JUMPDEST PUSH4 0x4E487B71 PUSH1 0xE0 SHL PUSH1 0x0 MSTORE PUSH1 0x22 PUSH1 0x4 MSTORE PUSH1 0x24 PUSH1 0x0 REVERT JUMPDEST SWAP1 PUSH1 0x1 PUSH1 0x2 DUP4 DIV SWAP3 AND DUP1 ISZERO PUSH2 0x4B8 JUMPI JUMPDEST PUSH1 0x20 DUP4 LT EQ PUSH2 0x4B3 JUMPI JUMP JUMPDEST PUSH2 0x482 JUMP JUMPDEST SWAP2 PUSH1 0x7F AND SWAP2 PUSH2 0x4A8 JUMP JUMPDEST PUSH1 0x20 SWAP2 DUP2 MSTORE ADD SWAP1 JUMP JUMPDEST PUSH1 0x0 MSTORE PUSH1 0x20 PUSH1 0x0 KECCAK256 SWAP1 JUMP JUMPDEST SWAP1 PUSH1 0x0 SWAP3 SWAP2 DUP1 SLOAD SWAP1 PUSH2 0x4F1 PUSH2 0x4EA DUP4 PUSH2 0x498 JUMP JUMPDEST DUP1 SWAP5 PUSH2 0x4C2 JUMP JUMPDEST SWAP2 PUSH1 0x1 DUP2 AND SWAP1 DUP2 PUSH1 0x0 EQ PUSH2 0x54A JUMPI POP PUSH1 0x1 EQ PUSH2 0x50D JUMPI JUMPDEST POP POP POP JUMP JUMPDEST PUSH2 0x51A SWAP2 SWAP3 SWAP4 SWAP5 POP PUSH2 0x4CB JUMP JUMPDEST SWAP2 PUSH1 0x0 SWAP3 JUMPDEST DUP2 DUP5 LT PUSH2 0x532 JUMPI POP POP ADD SWAP1 CODESIZE DUP1 DUP1 PUSH2 0x508 JUMP JUMPDEST PUSH1 0x1 DUP2 PUSH1 0x20 SWAP3 SWAP6 SWAP4 SWAP6 SLOAD DUP5 DUP7 ADD MSTORE ADD SWAP2 ADD SWAP3 SWAP1 PUSH2 0x51F JUMP JUMPDEST SWAP3 SWAP5 SWAP6 POP POP POP PUSH1 0xFF NOT AND DUP3 MSTORE ISZERO ISZERO PUSH1 0x20 MUL ADD SWAP1 CODESIZE DUP1 DUP1 PUSH2 0x508 JUMP JUMPDEST SWAP1 PUSH2 0x56F SWAP2 PUSH2 0x4D6 JUMP JUMPDEST SWAP1 JUMP JUMPDEST SWAP1 PUSH2 0x592 PUSH2 0x58B SWAP3 PUSH2 0x582 PUSH2 0xA3 JUMP JUMPDEST SWAP4 DUP5 DUP1 SWAP3 PUSH2 0x565 JUMP JUMPDEST SUB DUP4 PUSH2 0x109 JUMP JUMPDEST JUMP JUMPDEST PUSH1 0x0 SWAP1 PUSH2 0x5A0 DUP3 PUSH2 0x420 JUMP JUMPDEST DUP2 LT ISZERO PUSH2 0x5D9 JUMPI PUSH2 0x5B0 SWAP2 PUSH2 0x42F JUMP JUMPDEST POP PUSH2 0x5BD PUSH1 0x0 DUP3 ADD PUSH2 0x475 JUMP JUMPDEST SWAP2 PUSH2 0x5D6 PUSH1 0x2 PUSH2 0x5CF PUSH1 0x1 DUP6 ADD PUSH2 0x572 JUMP JUMPDEST SWAP4 ADD PUSH2 0x572 JUMP JUMPDEST SWAP1 JUMP JUMPDEST PUSH1 0x0 DUP1 REVERT JUMPDEST PUSH2 0x5E7 SWAP1 PUSH2 0xB8 JUMP JUMPDEST SWAP1 MSTORE JUMP JUMPDEST MLOAD SWAP1 JUMP JUMPDEST PUSH1 0x20 SWAP2 DUP2 MSTORE ADD SWAP1 JUMP JUMPDEST PUSH1 0x0 JUMPDEST DUP4 DUP2 LT PUSH2 0x60C JUMPI POP POP SWAP1 PUSH1 0x0 SWAP2 ADD MSTORE JUMP JUMPDEST DUP1 PUSH1 0x20 SWAP2 DUP4 ADD MLOAD DUP2 DUP6 ADD MSTORE ADD PUSH2 0x5FB JUMP JUMPDEST PUSH2 0x63C PUSH2 0x645 PUSH1 0x20 SWAP4 PUSH2 0x64A SWAP4 PUSH2 0x633 DUP2 PUSH2 0x5EB JUMP JUMPDEST SWAP4 DUP5 DUP1 SWAP4 PUSH2 0x5EF JUMP JUMPDEST SWAP6 DUP7 SWAP2 ADD PUSH2 0x5F8 JUMP JUMPDEST PUSH2 0xE9 JUMP JUMPDEST ADD SWAP1 JUMP JUMPDEST SWAP2 PUSH2 0x685 SWAP4 SWAP2 PUSH2 0x677 SWAP2 PUSH2 0x66A PUSH1 0x60 DUP7 ADD SWAP3 PUSH1 0x0 DUP8 ADD SWAP1 PUSH2 0x5DE JUMP JUMPDEST DUP5 DUP3 SUB PUSH1 0x20 DUP7 ADD MSTORE PUSH2 0x61D JUMP JUMPDEST SWAP2 PUSH1 0x40 DUP2 DUP5 SUB SWAP2 ADD MSTORE PUSH2 0x61D JUMP JUMPDEST SWAP1 JUMP JUMPDEST CALLVALUE PUSH2 0x6BB JUMPI PUSH2 0x6B7 PUSH2 0x6A3 PUSH2 0x69E CALLDATASIZE PUSH1 0x4 PUSH2 0x3EB JUMP JUMPDEST PUSH2 0x594 JUMP JUMPDEST PUSH2 0x6AE SWAP4 SWAP2 SWAP4 PUSH2 0xA3 JUMP JUMPDEST SWAP4 DUP5 SWAP4 DUP5 PUSH2 0x64E JUMP JUMPDEST SUB SWAP1 RETURN JUMPDEST PUSH2 0xA9 JUMP JUMPDEST PUSH8 0xFFFFFFFFFFFFFFFF DUP2 GT PUSH2 0x6D8 JUMPI PUSH1 0x20 DUP1 SWAP2 MUL ADD SWAP1 JUMP JUMPDEST PUSH2 0xF3 JUMP JUMPDEST PUSH1 0x0 DUP1 REVERT JUMPDEST SWAP3 SWAP2 SWAP1 PUSH2 0x6F6 PUSH2 0x6F1 DUP3 PUSH2 0x6C0 JUMP JUMPDEST PUSH2 0x132 JUMP JUMPDEST SWAP4 DUP2 DUP6 MSTORE PUSH1 0x20 DUP1 DUP7 ADD SWAP3 MUL DUP2 ADD SWAP2 DUP4 DUP4 GT PUSH2 0x74D JUMPI DUP2 SWAP1 JUMPDEST DUP4 DUP3 LT PUSH2 0x71C JUMPI POP POP POP POP POP JUMP JUMPDEST DUP2 CALLDATALOAD PUSH8 0xFFFFFFFFFFFFFFFF DUP2 GT PUSH2 0x748 JUMPI PUSH1 0x20 SWAP2 PUSH2 0x73D DUP8 DUP5 SWAP4 DUP8 ADD PUSH2 0x1AC JUMP JUMPDEST DUP2 MSTORE ADD SWAP2 ADD SWAP1 PUSH2 0x70E JUMP JUMPDEST PUSH2 0xDF JUMP JUMPDEST PUSH2 0x6DD JUMP JUMPDEST SWAP1 DUP1 PUSH1 0x1F DUP4 ADD SLT ISZERO PUSH2 0x770 JUMPI DUP2 PUSH1 0x20 PUSH2 0x76D SWAP4 CALLDATALOAD SWAP2 ADD PUSH2 0x6E2 JUMP JUMPDEST SWAP1 JUMP JUMPDEST PUSH2 0xDF JUMP JUMPDEST SWAP2 PUSH1 0x60 DUP4 DUP4 SUB SLT PUSH2 0x7F2 JUMPI PUSH1 0x0 DUP4 ADD CALLDATALOAD PUSH8 0xFFFFFFFFFFFFFFFF DUP2 GT PUSH2 0x7ED JUMPI DUP3 PUSH2 0x7A0 SWAP2 DUP6 ADD PUSH2 0x1AC JUMP JUMPDEST SWAP3 PUSH1 0x20 DUP2 ADD CALLDATALOAD PUSH8 0xFFFFFFFFFFFFFFFF DUP2 GT PUSH2 0x7E8 JUMPI DUP4 PUSH2 0x7C1 SWAP2 DUP4 ADD PUSH2 0x1AC JUMP JUMPDEST SWAP3 PUSH1 0x40 DUP3 ADD CALLDATALOAD PUSH8 0xFFFFFFFFFFFFFFFF DUP2 GT PUSH2 0x7E3 JUMPI PUSH2 0x7E0 SWAP3 ADD PUSH2 0x752 JUMP JUMPDEST SWAP1 JUMP JUMPDEST PUSH2 0xB3 JUMP JUMPDEST PUSH2 0xB3 JUMP JUMPDEST PUSH2 0xB3 JUMP JUMPDEST PUSH2 0xAE JUMP JUMPDEST CALLVALUE PUSH2 0x826 JUMPI PUSH2 0x810 PUSH2 0x80A CALLDATASIZE PUSH1 0x4 PUSH2 0x775 JUMP JUMPDEST SWAP2 PUSH2 0x1588 JUMP JUMPDEST PUSH2 0x818 PUSH2 0xA3 JUMP JUMPDEST DUP1 PUSH2 0x822 DUP2 PUSH2 0x215 JUMP JUMPDEST SUB SWAP1 RETURN JUMPDEST PUSH2 0xA9 JUMP JUMPDEST MLOAD SWAP1 JUMP JUMPDEST PUSH1 0x20 SWAP2 DUP2 MSTORE ADD SWAP1 JUMP JUMPDEST PUSH1 0x20 ADD SWAP1 JUMP JUMPDEST PUSH2 0x847 SWAP1 PUSH2 0xB8 JUMP JUMPDEST SWAP1 MSTORE JUMP JUMPDEST PUSH2 0x86A PUSH2 0x873 PUSH1 0x20 SWAP4 PUSH2 0x878 SWAP4 PUSH2 0x861 DUP2 PUSH2 0x5EB JUMP JUMPDEST SWAP4 DUP5 DUP1 SWAP4 PUSH2 0x4C2 JUMP JUMPDEST SWAP6 DUP7 SWAP2 ADD PUSH2 0x5F8 JUMP JUMPDEST PUSH2 0xE9 JUMP JUMPDEST ADD SWAP1 JUMP JUMPDEST SWAP1 PUSH2 0x8BA SWAP1 PUSH1 0x40 DUP1 PUSH2 0x8AF PUSH1 0x60 DUP5 ADD PUSH2 0x89D PUSH1 0x0 DUP9 ADD MLOAD PUSH1 0x0 DUP8 ADD SWAP1 PUSH2 0x83E JUMP JUMPDEST PUSH1 0x20 DUP8 ADD MLOAD DUP6 DUP3 SUB PUSH1 0x20 DUP8 ADD MSTORE PUSH2 0x84B JUMP JUMPDEST SWAP5 ADD MLOAD SWAP2 ADD SWAP1 PUSH2 0x83E JUMP JUMPDEST SWAP1 JUMP JUMPDEST SWAP1 PUSH2 0x8C7 SWAP2 PUSH2 0x87C JUMP JUMPDEST SWAP1 JUMP JUMPDEST PUSH1 0x20 ADD SWAP1 JUMP JUMPDEST SWAP1 PUSH2 0x8E4 PUSH2 0x8DD DUP4 PUSH2 0x82B JUMP JUMPDEST DUP1 SWAP3 PUSH2 0x82F JUMP JUMPDEST SWAP1 DUP2 PUSH2 0x8F5 PUSH1 0x20 DUP4 MUL DUP5 ADD SWAP5 PUSH2 0x838 JUMP JUMPDEST SWAP3 PUSH1 0x0 SWAP2 JUMPDEST DUP4 DUP4 LT PUSH2 0x909 JUMPI POP POP POP POP POP SWAP1 JUMP JUMPDEST SWAP1 SWAP2 SWAP3 SWAP4 SWAP5 PUSH1 0x20 PUSH2 0x92B PUSH2 0x925 DUP4 DUP6 PUSH1 0x1 SWAP6 SUB DUP8 MSTORE DUP10 MLOAD PUSH2 0x8BD JUMP JUMPDEST SWAP8 PUSH2 0x8CA JUMP JUMPDEST SWAP4 ADD SWAP4 ADD SWAP2 SWAP4 SWAP3 SWAP1 PUSH2 0x8FA JUMP JUMPDEST SWAP6 SWAP5 SWAP3 SWAP4 PUSH2 0x97A PUSH2 0x990 SWAP6 PUSH2 0x96C DUP10 PUSH1 0x80 SWAP7 PUSH2 0x95F PUSH2 0x988 SWAP8 PUSH1 0x0 PUSH1 0xA0 DUP6 ADD SWAP5 ADD SWAP1 PUSH2 0x5DE JUMP JUMPDEST DUP12 DUP3 SUB PUSH1 0x20 DUP14 ADD MSTORE PUSH2 0x61D JUMP JUMPDEST SWAP1 DUP10 DUP3 SUB PUSH1 0x40 DUP12 ADD MSTORE PUSH2 0x61D JUMP JUMPDEST SWAP1 DUP8 DUP3 SUB PUSH1 0x60 DUP10 ADD MSTORE PUSH2 0x8D0 JUMP JUMPDEST SWAP5 ADD SWAP1 PUSH2 0x392 JUMP JUMPDEST JUMP JUMPDEST CALLVALUE PUSH2 0x9C6 JUMPI PUSH2 0x9C2 PUSH2 0x9AD PUSH2 0x9A8 CALLDATASIZE PUSH1 0x4 PUSH2 0x3EB JUMP JUMPDEST PUSH2 0x1809 JUMP JUMPDEST SWAP2 PUSH2 0x9B9 SWAP6 SWAP4 SWAP6 PUSH2 0xA3 JUMP JUMPDEST SWAP6 DUP7 SWAP6 DUP7 PUSH2 0x938 JUMP JUMPDEST SUB SWAP1 RETURN JUMPDEST PUSH2 0xA9 JUMP JUMPDEST PUSH1 0x0 SWAP2 SUB SLT PUSH2 0x9D6 JUMPI JUMP JUMPDEST PUSH2 0xAE JUMP JUMPDEST MLOAD SWAP1 JUMP JUMPDEST PUSH1 0x20 SWAP2 DUP2 MSTORE ADD SWAP1 JUMP JUMPDEST PUSH1 0x20 ADD SWAP1 JUMP JUMPDEST SWAP1 PUSH2 0x9FB DUP2 PUSH1 0x20 SWAP4 PUSH2 0x83E JUMP JUMPDEST ADD SWAP1 JUMP JUMPDEST PUSH1 0x20 ADD SWAP1 JUMP JUMPDEST SWAP1 PUSH2 0xA22 PUSH2 0xA1C PUSH2 0xA15 DUP5 PUSH2 0x9DB JUMP JUMPDEST DUP1 SWAP4 PUSH2 0x9DF JUMP JUMPDEST SWAP3 PUSH2 0x9E8 JUMP JUMPDEST SWAP1 PUSH1 0x0 JUMPDEST DUP2 DUP2 LT PUSH2 0xA33 JUMPI POP POP POP SWAP1 JUMP JUMPDEST SWAP1 SWAP2 SWAP3 PUSH2 0xA4C PUSH2 0xA46 PUSH1 0x1 SWAP3 DUP7 MLOAD PUSH2 0x9EE JUMP JUMPDEST SWAP5 PUSH2 0x9FF JUMP JUMPDEST SWAP2 ADD SWAP2 SWAP1 SWAP2 PUSH2 0xA26 JUMP JUMPDEST MLOAD SWAP1 JUMP JUMPDEST PUSH1 0x20 SWAP2 DUP2 MSTORE ADD SWAP1 JUMP JUMPDEST PUSH1 0x20 ADD SWAP1 JUMP JUMPDEST SWAP1 PUSH2 0xA73 SWAP2 PUSH2 0x84B JUMP JUMPDEST SWAP1 JUMP JUMPDEST PUSH1 0x20 ADD SWAP1 JUMP JUMPDEST SWAP1 PUSH2 0xA90 PUSH2 0xA89 DUP4 PUSH2 0xA56 JUMP JUMPDEST DUP1 SWAP3 PUSH2 0xA5A JUMP JUMPDEST SWAP1 DUP2 PUSH2 0xAA1 PUSH1 0x20 DUP4 MUL DUP5 ADD SWAP5 PUSH2 0xA63 JUMP JUMPDEST SWAP3 PUSH1 0x0 SWAP2 JUMPDEST DUP4 DUP4 LT PUSH2 0xAB5 JUMPI POP POP POP POP POP SWAP1 JUMP JUMPDEST SWAP1 SWAP2 SWAP3 SWAP4 SWAP5 PUSH1 0x20 PUSH2 0xAD7 PUSH2 0xAD1 DUP4 DUP6 PUSH1 0x1 SWAP6 SUB DUP8 MSTORE DUP10 MLOAD PUSH2 0xA69 JUMP JUMPDEST SWAP8 PUSH2 0xA76 JUMP JUMPDEST SWAP4 ADD SWAP4 ADD SWAP2 SWAP4 SWAP3 SWAP1 PUSH2 0xAA6 JUMP JUMPDEST SWAP3 PUSH2 0xB14 PUSH2 0xB30 SWAP6 SWAP4 PUSH2 0xB06 PUSH2 0xB22 SWAP5 PUSH1 0x80 DUP9 ADD SWAP1 DUP9 DUP3 SUB PUSH1 0x0 DUP11 ADD MSTORE PUSH2 0xA05 JUMP JUMPDEST SWAP1 DUP7 DUP3 SUB PUSH1 0x20 DUP9 ADD MSTORE PUSH2 0xA7C JUMP JUMPDEST SWAP1 DUP5 DUP3 SUB PUSH1 0x40 DUP7 ADD MSTORE PUSH2 0xA7C JUMP JUMPDEST SWAP2 PUSH1 0x60 DUP2 DUP5 SUB SWAP2 ADD MSTORE PUSH2 0xA05 JUMP JUMPDEST SWAP1 JUMP JUMPDEST CALLVALUE PUSH2 0xB67 JUMPI PUSH2 0xB43 CALLDATASIZE PUSH1 0x4 PUSH2 0x9CB JUMP JUMPDEST PUSH2 0xB63 PUSH2 0xB4E PUSH2 0x19B3 JUMP JUMPDEST SWAP1 PUSH2 0xB5A SWAP5 SWAP3 SWAP5 PUSH2 0xA3 JUMP JUMPDEST SWAP5 DUP6 SWAP5 DUP6 PUSH2 0xAE4 JUMP JUMPDEST SUB SWAP1 RETURN JUMPDEST PUSH2 0xA9 JUMP JUMPDEST SWAP2 PUSH2 0xB99 SWAP1 PUSH2 0xB8B PUSH2 0xBA7 SWAP6 SWAP4 PUSH1 0x60 DUP7 ADD SWAP1 DUP7 DUP3 SUB PUSH1 0x0 DUP9 ADD MSTORE PUSH2 0xA05 JUMP JUMPDEST SWAP1 DUP5 DUP3 SUB PUSH1 0x20 DUP7 ADD MSTORE PUSH2 0xA7C JUMP JUMPDEST SWAP2 PUSH1 0x40 DUP2 DUP5 SUB SWAP2 ADD MSTORE PUSH2 0xA05 JUMP JUMPDEST SWAP1 JUMP JUMPDEST CALLVALUE PUSH2 0xBDD JUMPI PUSH2 0xBD9 PUSH2 0xBC5 PUSH2 0xBC0 CALLDATASIZE PUSH1 0x4 PUSH2 0x3EB JUMP JUMPDEST PUSH2 0x1B02 JUMP JUMPDEST PUSH2 0xBD0 SWAP4 SWAP2 SWAP4 PUSH2 0xA3 JUMP JUMPDEST SWAP4 DUP5 SWAP4 DUP5 PUSH2 0xB6C JUMP JUMPDEST SUB SWAP1 RETURN JUMPDEST PUSH2 0xA9 JUMP JUMPDEST SWAP2 SWAP1 PUSH1 0x40 DUP4 DUP3 SUB SLT PUSH2 0xC0B JUMPI DUP1 PUSH2 0xBFF PUSH2 0xC08 SWAP3 PUSH1 0x0 DUP7 ADD PUSH2 0xD0 JUMP JUMPDEST SWAP4 PUSH1 0x20 ADD PUSH2 0xD0 JUMP JUMPDEST SWAP1 JUMP JUMPDEST PUSH2 0xAE JUMP JUMPDEST CALLVALUE PUSH2 0xC3F JUMPI PUSH2 0xC29 PUSH2 0xC23 CALLDATASIZE PUSH1 0x4 PUSH2 0xBE2 JUMP JUMPDEST SWAP1 PUSH2 0x1E4B JUMP JUMPDEST PUSH2 0xC31 PUSH2 0xA3 JUMP JUMPDEST DUP1 PUSH2 0xC3B DUP2 PUSH2 0x215 JUMP JUMPDEST SUB SWAP1 RETURN JUMPDEST PUSH2 0xA9 JUMP JUMPDEST PUSH1 0x0 DUP1 REVERT JUMPDEST SWAP1 JUMP JUMPDEST SLOAD SWAP1 JUMP JUMPDEST PUSH2 0xC5A PUSH1 0x60 PUSH2 0x132 JUMP JUMPDEST SWAP1 JUMP JUMPDEST SWAP1 PUSH2 0xC67 SWAP1 PUSH2 0xB8 JUMP JUMPDEST SWAP1 MSTORE JUMP JUMPDEST MSTORE JUMP JUMPDEST SWAP1 JUMP JUMPDEST PUSH2 0xC85 PUSH2 0xC80 PUSH2 0xC8A SWAP3 PUSH2 0xC6E JUMP JUMPDEST PUSH2 0x2B8 JUMP JUMPDEST PUSH2 0xB8 JUMP JUMPDEST SWAP1 JUMP JUMPDEST PUSH1 0x0 MSTORE PUSH1 0x20 PUSH1 0x0 KECCAK256 SWAP1 JUMP JUMPDEST SLOAD SWAP1 JUMP JUMPDEST PUSH2 0xCA5 DUP2 PUSH2 0xC98 JUMP JUMPDEST DUP3 LT ISZERO PUSH2 0xCC0 JUMPI PUSH2 0xCB7 PUSH1 0x3 SWAP2 PUSH2 0xC8D JUMP JUMPDEST SWAP2 MUL ADD SWAP1 PUSH1 0x0 SWAP1 JUMP JUMPDEST PUSH2 0x40A JUMP JUMPDEST PUSH4 0x4E487B71 PUSH1 0xE0 SHL PUSH1 0x0 MSTORE PUSH1 0x0 PUSH1 0x4 MSTORE PUSH1 0x24 PUSH1 0x0 REVERT JUMPDEST PUSH2 0xCE5 SWAP1 MLOAD PUSH2 0xB8 JUMP JUMPDEST SWAP1 JUMP JUMPDEST PUSH1 0x0 SHL SWAP1 JUMP JUMPDEST SWAP1 PUSH2 0xCFB PUSH1 0x0 NOT SWAP2 PUSH2 0xCE8 JUMP JUMPDEST SWAP2 DUP2 NOT AND SWAP2 AND OR SWAP1 JUMP JUMPDEST SWAP1 JUMP JUMPDEST SWAP1 PUSH2 0xD1D PUSH2 0xD18 PUSH2 0xD24 SWAP3 PUSH2 0x307 JUMP JUMPDEST PUSH2 0xD05 JUMP JUMPDEST DUP3 SLOAD PUSH2 0xCEE JUMP JUMPDEST SWAP1 SSTORE JUMP JUMPDEST MLOAD SWAP1 JUMP JUMPDEST PUSH1 0x1F PUSH1 0x20 SWAP2 ADD DIV SWAP1 JUMP JUMPDEST SHL SWAP1 JUMP JUMPDEST SWAP2 SWAP1 PUSH1 0x8 PUSH2 0xD56 SWAP2 MUL SWAP2 PUSH2 0xD50 PUSH1 0x0 NOT DUP5 PUSH2 0xD36 JUMP JUMPDEST SWAP3 PUSH2 0xD36 JUMP JUMPDEST SWAP2 DUP2 NOT AND SWAP2 AND OR SWAP1 JUMP JUMPDEST SWAP2 SWAP1 PUSH2 0xD76 PUSH2 0xD71 PUSH2 0xD7E SWAP4 PUSH2 0x307 JUMP JUMPDEST PUSH2 0xD05 JUMP JUMPDEST SWAP1 DUP4 SLOAD PUSH2 0xD3A JUMP JUMPDEST SWAP1 SSTORE JUMP JUMPDEST PUSH1 0x0 SWAP1 JUMP JUMPDEST PUSH2 0xD99 SWAP2 PUSH2 0xD93 PUSH2 0xD82 JUMP JUMPDEST SWAP2 PUSH2 0xD60 JUMP JUMPDEST JUMP JUMPDEST JUMPDEST DUP2 DUP2 LT PUSH2 0xDA7 JUMPI POP POP JUMP JUMPDEST DUP1 PUSH2 0xDB5 PUSH1 0x0 PUSH1 0x1 SWAP4 PUSH2 0xD87 JUMP JUMPDEST ADD PUSH2 0xD9C JUMP JUMPDEST SWAP2 SWAP1 PUSH1 0x1F DUP2 GT PUSH2 0xDCB JUMPI JUMPDEST POP POP POP JUMP JUMPDEST PUSH2 0xDD7 PUSH2 0xDFC SWAP4 PUSH2 0x4CB JUMP JUMPDEST SWAP1 PUSH1 0x20 PUSH2 0xDE3 DUP5 PUSH2 0xD2C JUMP JUMPDEST DUP4 ADD SWAP4 LT PUSH2 0xE04 JUMPI JUMPDEST PUSH2 0xDF5 SWAP1 PUSH2 0xD2C JUMP JUMPDEST ADD SWAP1 PUSH2 0xD9B JUMP JUMPDEST CODESIZE DUP1 DUP1 PUSH2 0xDC6 JUMP JUMPDEST SWAP2 POP PUSH2 0xDF5 DUP2 SWAP3 SWAP1 POP PUSH2 0xDEC JUMP JUMPDEST SWAP1 PUSH2 0xE23 SWAP1 PUSH1 0x0 NOT SWAP1 PUSH1 0x8 MUL PUSH2 0x33B JUMP JUMPDEST NOT AND SWAP1 JUMP JUMPDEST DUP2 PUSH2 0xE32 SWAP2 PUSH2 0xE12 JUMP JUMPDEST SWAP1 PUSH1 0x2 MUL OR SWAP1 JUMP JUMPDEST SWAP1 PUSH2 0xE44 DUP2 PUSH2 0x5EB JUMP JUMPDEST SWAP1 PUSH8 0xFFFFFFFFFFFFFFFF DUP3 GT PUSH2 0xF06 JUMPI PUSH2 0xE68 DUP3 PUSH2 0xE62 DUP6 SLOAD PUSH2 0x498 JUMP JUMPDEST DUP6 PUSH2 0xDBB JUMP JUMPDEST PUSH1 0x20 SWAP1 PUSH1 0x1F DUP4 GT PUSH1 0x1 EQ PUSH2 0xE9D JUMPI SWAP2 DUP1 SWAP2 PUSH2 0xE8C SWAP4 PUSH1 0x0 SWAP3 PUSH2 0xE91 JUMPI JUMPDEST POP POP PUSH2 0xE28 JUMP JUMPDEST SWAP1 SSTORE JUMPDEST JUMP JUMPDEST SWAP1 SWAP2 POP ADD MLOAD CODESIZE DUP1 PUSH2 0xE85 JUMP JUMPDEST PUSH1 0x1F NOT DUP4 AND SWAP2 PUSH2 0xEAC DUP6 PUSH2 0x4CB JUMP JUMPDEST SWAP3 PUSH1 0x0 JUMPDEST DUP2 DUP2 LT PUSH2 0xEEE JUMPI POP SWAP2 PUSH1 0x2 SWAP4 SWAP2 DUP6 PUSH1 0x1 SWAP7 SWAP5 LT PUSH2 0xED4 JUMPI JUMPDEST POP POP POP MUL ADD SWAP1 SSTORE PUSH2 0xE8F JUMP JUMPDEST PUSH2 0xEE4 SWAP2 ADD MLOAD PUSH1 0x1F DUP5 AND SWAP1 PUSH2 0xE12 JUMP JUMPDEST SWAP1 SSTORE CODESIZE DUP1 DUP1 PUSH2 0xEC8 JUMP JUMPDEST SWAP2 SWAP4 PUSH1 0x20 PUSH1 0x1 DUP2 SWAP3 DUP8 DUP8 ADD MLOAD DUP2 SSTORE ADD SWAP6 ADD SWAP3 ADD PUSH2 0xEB0 JUMP JUMPDEST PUSH2 0xF3 JUMP JUMPDEST SWAP1 PUSH2 0xF15 SWAP2 PUSH2 0xE3A JUMP JUMPDEST JUMP JUMPDEST SWAP1 PUSH2 0xF5D PUSH1 0x40 PUSH1 0x2 PUSH2 0xF63 SWAP5 PUSH2 0xF3C PUSH1 0x0 DUP3 ADD PUSH2 0xF36 PUSH1 0x0 DUP9 ADD PUSH2 0xCDB JUMP JUMPDEST SWAP1 PUSH2 0xD08 JUMP JUMPDEST PUSH2 0xF55 PUSH1 0x1 DUP3 ADD PUSH2 0xF4F PUSH1 0x20 DUP9 ADD PUSH2 0xD28 JUMP JUMPDEST SWAP1 PUSH2 0xF0B JUMP JUMPDEST ADD SWAP3 ADD PUSH2 0xCDB JUMP JUMPDEST SWAP1 PUSH2 0xD08 JUMP JUMPDEST JUMP JUMPDEST SWAP2 SWAP1 PUSH2 0xF76 JUMPI PUSH2 0xF74 SWAP2 PUSH2 0xF17 JUMP JUMPDEST JUMP JUMPDEST PUSH2 0xCC5 JUMP JUMPDEST SWAP1 DUP2 SLOAD SWAP2 PUSH9 0x10000000000000000 DUP4 LT ISZERO PUSH2 0xFAB JUMPI DUP3 PUSH2 0xFA3 SWAP2 PUSH1 0x1 PUSH2 0xFA9 SWAP6 ADD DUP2 SSTORE PUSH2 0xC9C JUMP JUMPDEST SWAP1 PUSH2 0xF65 JUMP JUMPDEST JUMP JUMPDEST PUSH2 0xF3 JUMP JUMPDEST SWAP1 PUSH2 0x1021 SWAP2 PUSH2 0x101C PUSH2 0x1013 PUSH2 0xFE9 PUSH1 0x3 PUSH2 0xFE2 PUSH2 0xFDA DUP3 PUSH2 0xFD3 PUSH1 0x0 DUP10 SWAP1 PUSH2 0x42F JUMP JUMPDEST POP ADD PUSH2 0xC49 JUMP JUMPDEST SWAP6 PUSH1 0x0 PUSH2 0x42F JUMP JUMPDEST POP ADD PUSH2 0xC4C JUMP JUMPDEST SWAP4 PUSH2 0x100E PUSH1 0x0 SWAP2 PUSH2 0x1005 PUSH2 0xFFB PUSH2 0xC50 JUMP JUMPDEST SWAP8 PUSH1 0x0 DUP10 ADD PUSH2 0xC5D JUMP JUMPDEST PUSH1 0x20 DUP8 ADD PUSH2 0xC6B JUMP JUMPDEST PUSH2 0xC71 JUMP JUMPDEST PUSH1 0x40 DUP5 ADD PUSH2 0xC5D JUMP JUMPDEST PUSH2 0xF7B JUMP JUMPDEST JUMP JUMPDEST PUSH8 0xFFFFFFFFFFFFFFFF DUP2 GT PUSH2 0x103B JUMPI PUSH1 0x20 DUP1 SWAP2 MUL ADD SWAP1 JUMP JUMPDEST PUSH2 0xF3 JUMP JUMPDEST SWAP1 PUSH2 0x1052 PUSH2 0x104D DUP4 PUSH2 0x1023 JUMP JUMPDEST PUSH2 0x132 JUMP JUMPDEST SWAP2 DUP3 MSTORE JUMP JUMPDEST PUSH2 0x1061 PUSH1 0x60 PUSH2 0x132 JUMP JUMPDEST SWAP1 JUMP JUMPDEST PUSH1 0x0 SWAP1 JUMP JUMPDEST PUSH1 0x60 SWAP1 JUMP JUMPDEST PUSH2 0x1076 PUSH2 0x1057 JUMP JUMPDEST SWAP1 PUSH1 0x20 DUP1 DUP1 DUP5 PUSH2 0x1084 PUSH2 0x1064 JUMP JUMPDEST DUP2 MSTORE ADD PUSH2 0x108F PUSH2 0x1069 JUMP JUMPDEST DUP2 MSTORE ADD PUSH2 0x109A PUSH2 0x1064 JUMP JUMPDEST DUP2 MSTORE POP POP JUMP JUMPDEST PUSH2 0x10A8 PUSH2 0x106E JUMP JUMPDEST SWAP1 JUMP JUMPDEST PUSH1 0x0 JUMPDEST DUP3 DUP2 LT PUSH2 0x10BA JUMPI POP POP POP JUMP JUMPDEST PUSH1 0x20 SWAP1 PUSH2 0x10C5 PUSH2 0x10A0 JUMP JUMPDEST DUP2 DUP5 ADD MSTORE ADD PUSH2 0x10AE JUMP JUMPDEST SWAP1 PUSH2 0x10F4 PUSH2 0x10DC DUP4 PUSH2 0x1040 JUMP JUMPDEST SWAP3 PUSH1 0x20 DUP1 PUSH2 0x10EA DUP7 SWAP4 PUSH2 0x1023 JUMP JUMPDEST SWAP3 ADD SWAP2 SUB SWAP1 PUSH2 0x10AB JUMP JUMPDEST JUMP JUMPDEST PUSH2 0x1100 PUSH1 0x80 PUSH2 0x132 JUMP JUMPDEST SWAP1 JUMP JUMPDEST MSTORE JUMP JUMPDEST SWAP1 JUMP JUMPDEST PUSH1 0x0 MSTORE PUSH1 0x20 PUSH1 0x0 KECCAK256 SWAP1 JUMP JUMPDEST SLOAD SWAP1 JUMP JUMPDEST PUSH2 0x1121 DUP2 PUSH2 0x1114 JUMP JUMPDEST DUP3 LT ISZERO PUSH2 0x113C JUMPI PUSH2 0x1133 PUSH1 0x4 SWAP2 PUSH2 0x1109 JUMP JUMPDEST SWAP2 MUL ADD SWAP1 PUSH1 0x0 SWAP1 JUMP JUMPDEST PUSH2 0x40A JUMP JUMPDEST MLOAD SWAP1 JUMP JUMPDEST PUSH4 0x4E487B71 PUSH1 0xE0 SHL PUSH1 0x0 MSTORE PUSH1 0x11 PUSH1 0x4 MSTORE PUSH1 0x24 PUSH1 0x0 REVERT JUMPDEST PUSH2 0x116A PUSH2 0x1170 SWAP2 SWAP4 SWAP3 SWAP4 PUSH2 0xB8 JUMP JUMPDEST SWAP3 PUSH2 0xB8 JUMP JUMPDEST SWAP2 PUSH2 0x117C DUP4 DUP3 MUL PUSH2 0xB8 JUMP JUMPDEST SWAP3 DUP2 DUP5 DIV EQ SWAP1 ISZERO OR ISZERO PUSH2 0x118B JUMPI JUMP JUMPDEST PUSH2 0x1145 JUMP JUMPDEST PUSH2 0x119B SWAP1 PUSH1 0x3 PUSH2 0x115B JUMP JUMPDEST SWAP1 JUMP JUMPDEST PUSH1 0x0 MSTORE PUSH1 0x20 PUSH1 0x0 KECCAK256 SWAP1 JUMP JUMPDEST SWAP1 PUSH2 0x11BD SWAP1 PUSH1 0x0 NOT SWAP1 PUSH1 0x20 SUB PUSH1 0x8 MUL PUSH2 0x33B JUMP JUMPDEST DUP2 SLOAD AND SWAP1 SSTORE JUMP JUMPDEST SWAP1 PUSH1 0x0 SWAP2 PUSH2 0x11DC PUSH2 0x11D4 DUP3 PUSH2 0x4CB JUMP JUMPDEST SWAP3 DUP4 SLOAD PUSH2 0xE28 JUMP JUMPDEST SWAP1 SSTORE SSTORE JUMP JUMPDEST SWAP2 SWAP3 SWAP1 PUSH1 0x20 DUP3 LT PUSH1 0x0 EQ PUSH2 0x123B JUMPI PUSH1 0x1F DUP5 GT PUSH1 0x1 EQ PUSH2 0x120B JUMPI PUSH2 0x1205 SWAP3 SWAP4 POP PUSH2 0xE28 JUMP JUMPDEST SWAP1 SSTORE JUMPDEST JUMPDEST JUMP JUMPDEST POP SWAP1 PUSH2 0x1231 PUSH2 0x1236 SWAP4 PUSH1 0x1 PUSH2 0x1228 PUSH2 0x1222 DUP6 PUSH2 0x4CB JUMP JUMPDEST SWAP3 PUSH2 0xD2C JUMP JUMPDEST DUP3 ADD SWAP2 ADD PUSH2 0xD9B JUMP JUMPDEST PUSH2 0x11C4 JUMP JUMPDEST PUSH2 0x1208 JUMP JUMPDEST POP PUSH2 0x1272 DUP3 SWAP4 PUSH2 0x124C PUSH1 0x1 SWAP5 PUSH2 0x4CB JUMP JUMPDEST PUSH2 0x126B PUSH2 0x1258 DUP6 PUSH2 0xD2C JUMP JUMPDEST DUP3 ADD SWAP3 PUSH1 0x1F DUP7 AND DUP1 PUSH2 0x127D JUMPI JUMPDEST POP PUSH2 0xD2C JUMP JUMPDEST ADD SWAP1 PUSH2 0xD9B JUMP JUMPDEST PUSH1 0x2 MUL OR SWAP1 SSTORE PUSH2 0x1209 JUMP JUMPDEST PUSH2 0x1289 SWAP1 DUP9 DUP7 SUB PUSH2 0x11A9 JUMP JUMPDEST CODESIZE PUSH2 0x1265 JUMP JUMPDEST SWAP3 SWAP1 SWAP2 PUSH9 0x10000000000000000 DUP3 GT PUSH2 0x12F1 JUMPI PUSH1 0x20 GT PUSH1 0x0 EQ PUSH2 0x12E2 JUMPI PUSH1 0x20 DUP2 LT PUSH1 0x0 EQ PUSH2 0x12C6 JUMPI PUSH2 0x12C0 SWAP2 PUSH2 0xE28 JUMP JUMPDEST SWAP1 SSTORE JUMPDEST JUMPDEST JUMP JUMPDEST PUSH1 0x1 SWAP2 PUSH1 0xFF NOT AND PUSH2 0x12D6 DUP5 PUSH2 0x4CB JUMP JUMPDEST SSTORE PUSH1 0x2 MUL ADD SWAP1 SSTORE PUSH2 0x12C3 JUMP JUMPDEST PUSH1 0x1 SWAP2 POP PUSH1 0x2 MUL ADD SWAP1 SSTORE PUSH2 0x12C4 JUMP JUMPDEST PUSH2 0xF3 JUMP JUMPDEST SWAP1 DUP2 SLOAD PUSH2 0x1302 DUP2 PUSH2 0x498 JUMP JUMPDEST SWAP1 DUP2 DUP4 GT PUSH2 0x132B JUMPI JUMPDEST DUP2 DUP4 LT PUSH2 0x1319 JUMPI JUMPDEST POP POP POP POP JUMP JUMPDEST PUSH2 0x1322 SWAP4 PUSH2 0x11E1 JUMP JUMPDEST CODESIZE DUP1 DUP1 DUP1 PUSH2 0x1313 JUMP JUMPDEST PUSH2 0x1337 DUP4 DUP4 DUP4 DUP8 PUSH2 0x128F JUMP JUMPDEST PUSH2 0x130B JUMP JUMPDEST PUSH1 0x0 PUSH2 0x1347 SWAP2 PUSH2 0x12F6 JUMP JUMPDEST JUMP JUMPDEST SWAP1 PUSH1 0x0 SUB PUSH2 0x135C JUMPI PUSH2 0x135A SWAP1 PUSH2 0x133C JUMP JUMPDEST JUMP JUMPDEST PUSH2 0xCC5 JUMP JUMPDEST PUSH1 0x0 PUSH1 0x2 PUSH2 0x1388 SWAP3 PUSH2 0x1375 DUP4 DUP1 DUP4 ADD PUSH2 0xD87 JUMP JUMPDEST PUSH2 0x1382 DUP4 PUSH1 0x1 DUP4 ADD PUSH2 0x1349 JUMP JUMPDEST ADD PUSH2 0xD87 JUMP JUMPDEST JUMP JUMPDEST SWAP1 PUSH1 0x0 SUB PUSH2 0x139D JUMPI PUSH2 0x139B SWAP1 PUSH2 0x1361 JUMP JUMPDEST JUMP JUMPDEST PUSH2 0xCC5 JUMP JUMPDEST JUMPDEST DUP2 DUP2 LT PUSH2 0x13AE JUMPI POP POP JUMP JUMPDEST DUP1 PUSH2 0x13BC PUSH1 0x0 PUSH1 0x3 SWAP4 PUSH2 0x138A JUMP JUMPDEST ADD PUSH2 0x13A3 JUMP JUMPDEST SWAP1 SWAP2 DUP3 DUP2 LT PUSH2 0x13D1 JUMPI JUMPDEST POP POP POP JUMP JUMPDEST PUSH2 0x13EF PUSH2 0x13E9 PUSH2 0x13E3 PUSH2 0x13FA SWAP6 PUSH2 0x1190 JUMP JUMPDEST SWAP3 PUSH2 0x1190 JUMP JUMPDEST SWAP3 PUSH2 0x119E JUMP JUMPDEST SWAP2 DUP3 ADD SWAP2 ADD SWAP1 PUSH2 0x13A2 JUMP JUMPDEST CODESIZE DUP1 DUP1 PUSH2 0x13CC JUMP JUMPDEST SWAP1 PUSH9 0x10000000000000000 DUP2 GT PUSH2 0x142B JUMPI DUP2 PUSH2 0x1420 PUSH2 0x1429 SWAP4 PUSH2 0xC4C JUMP JUMPDEST SWAP1 DUP3 DUP2 SSTORE PUSH2 0x13C2 JUMP JUMPDEST JUMP JUMPDEST PUSH2 0xF3 JUMP JUMPDEST MLOAD SWAP1 JUMP JUMPDEST SWAP1 PUSH2 0x143E SWAP2 PUSH2 0xF17 JUMP JUMPDEST JUMP JUMPDEST PUSH2 0x1465 PUSH2 0x145F PUSH2 0x144F DUP5 PUSH2 0x82B JUMP JUMPDEST SWAP4 PUSH2 0x145A DUP6 DUP6 PUSH2 0x1402 JUMP JUMPDEST PUSH2 0x838 JUMP JUMPDEST SWAP2 PUSH2 0x119E JUMP JUMPDEST PUSH1 0x0 SWAP2 JUMPDEST DUP4 DUP4 LT PUSH2 0x1476 JUMPI POP POP POP POP JUMP JUMPDEST PUSH1 0x3 PUSH1 0x20 DUP3 PUSH2 0x148F PUSH2 0x1489 PUSH1 0x1 SWAP6 PUSH2 0x1430 JUMP JUMPDEST DUP7 PUSH2 0x1434 JUMP JUMPDEST ADD SWAP3 ADD SWAP3 ADD SWAP2 SWAP1 PUSH2 0x1469 JUMP JUMPDEST SWAP1 PUSH2 0x14A5 SWAP2 PUSH2 0x1440 JUMP JUMPDEST JUMP JUMPDEST SWAP1 PUSH2 0x1506 PUSH1 0x60 PUSH1 0x3 PUSH2 0x150C SWAP5 PUSH2 0x14CC PUSH1 0x0 DUP3 ADD PUSH2 0x14C6 PUSH1 0x0 DUP9 ADD PUSH2 0xCDB JUMP JUMPDEST SWAP1 PUSH2 0xD08 JUMP JUMPDEST PUSH2 0x14E5 PUSH1 0x1 DUP3 ADD PUSH2 0x14DF PUSH1 0x20 DUP9 ADD PUSH2 0xD28 JUMP JUMPDEST SWAP1 PUSH2 0xF0B JUMP JUMPDEST PUSH2 0x14FE PUSH1 0x2 DUP3 ADD PUSH2 0x14F8 PUSH1 0x40 DUP9 ADD PUSH2 0xD28 JUMP JUMPDEST SWAP1 PUSH2 0xF0B JUMP JUMPDEST ADD SWAP3 ADD PUSH2 0x1141 JUMP JUMPDEST SWAP1 PUSH2 0x149B JUMP JUMPDEST JUMP JUMPDEST SWAP2 SWAP1 PUSH2 0x151F JUMPI PUSH2 0x151D SWAP2 PUSH2 0x14A7 JUMP JUMPDEST JUMP JUMPDEST PUSH2 0xCC5 JUMP JUMPDEST SWAP1 DUP2 SLOAD SWAP2 PUSH9 0x10000000000000000 DUP4 LT ISZERO PUSH2 0x1554 JUMPI DUP3 PUSH2 0x154C SWAP2 PUSH1 0x1 PUSH2 0x1552 SWAP6 ADD DUP2 SSTORE PUSH2 0x1118 JUMP JUMPDEST SWAP1 PUSH2 0x150E JUMP JUMPDEST JUMP JUMPDEST PUSH2 0xF3 JUMP JUMPDEST PUSH1 0x1 PUSH2 0x1565 SWAP2 ADD PUSH2 0xB8 JUMP JUMPDEST SWAP1 JUMP JUMPDEST SWAP1 PUSH2 0x1572 DUP3 PUSH2 0xA56 JUMP JUMPDEST DUP2 LT ISZERO PUSH2 0x1583 JUMPI PUSH1 0x20 DUP1 SWAP2 MUL ADD ADD SWAP1 JUMP JUMPDEST PUSH2 0x40A JUMP JUMPDEST SWAP3 SWAP2 SWAP1 SWAP2 PUSH2 0x1596 PUSH1 0x0 PUSH2 0x420 JUMP JUMPDEST SWAP4 PUSH2 0x15F8 DUP6 PUSH2 0x15E9 DUP4 PUSH2 0x15E0 DUP9 PUSH2 0x15D7 PUSH2 0x15B8 PUSH2 0x15B3 PUSH1 0x0 PUSH2 0xC71 JUMP JUMPDEST PUSH2 0x10CF JUMP JUMPDEST SWAP4 PUSH2 0x15CE PUSH2 0x15C4 PUSH2 0x10F6 JUMP JUMPDEST SWAP8 PUSH1 0x0 DUP10 ADD PUSH2 0xC5D JUMP JUMPDEST PUSH1 0x20 DUP8 ADD PUSH2 0xC6B JUMP JUMPDEST PUSH1 0x40 DUP6 ADD PUSH2 0xC6B JUMP JUMPDEST PUSH1 0x60 DUP4 ADD PUSH2 0x1103 JUMP JUMPDEST PUSH2 0x15F3 PUSH1 0x0 PUSH2 0x1106 JUMP JUMPDEST PUSH2 0x1524 JUMP JUMPDEST PUSH2 0x1602 PUSH1 0x0 PUSH2 0xC71 JUMP JUMPDEST JUMPDEST DUP1 PUSH2 0x161E PUSH2 0x1618 PUSH2 0x1613 DUP8 PUSH2 0xA56 JUMP JUMPDEST PUSH2 0xB8 JUMP JUMPDEST SWAP2 PUSH2 0xB8 JUMP JUMPDEST LT ISZERO PUSH2 0x1648 JUMPI PUSH2 0x1643 SWAP1 PUSH2 0x163E DUP8 PUSH2 0x1637 DUP8 DUP5 SWAP1 PUSH2 0x1568 JUMP JUMPDEST MLOAD SWAP1 PUSH2 0xFB0 JUMP JUMPDEST PUSH2 0x1559 JUMP JUMPDEST PUSH2 0x1603 JUMP JUMPDEST POP SWAP3 SWAP2 POP SWAP3 SWAP2 SWAP1 SWAP2 PUSH2 0x1686 PUSH32 0xEAF9C9DABC2A68B717E3095068D04A84ECACE13A1AB18B4499A913C3AB3D2869 SWAP4 PUSH2 0x167D PUSH2 0xA3 JUMP JUMPDEST SWAP4 DUP5 SWAP4 DUP5 PUSH2 0x64E JUMP JUMPDEST SUB SWAP1 LOG1 JUMP JUMPDEST PUSH1 0x60 SWAP1 JUMP JUMPDEST PUSH1 0x60 SWAP1 JUMP JUMPDEST PUSH1 0x0 SWAP1 JUMP JUMPDEST PUSH1 0x0 PUSH32 0x496E76616C696420656C656374696F6E20494400000000000000000000000000 SWAP2 ADD MSTORE JUMP JUMPDEST PUSH2 0x16CF PUSH1 0x13 PUSH1 0x20 SWAP3 PUSH2 0x5EF JUMP JUMPDEST PUSH2 0x16D8 DUP2 PUSH2 0x169A JUMP JUMPDEST ADD SWAP1 JUMP JUMPDEST PUSH2 0x16F2 SWAP1 PUSH1 0x20 DUP2 ADD SWAP1 PUSH1 0x0 DUP2 DUP4 SUB SWAP2 ADD MSTORE PUSH2 0x16C2 JUMP JUMPDEST SWAP1 JUMP JUMPDEST ISZERO PUSH2 0x16FC JUMPI JUMP JUMPDEST PUSH2 0x1704 PUSH2 0xA3 JUMP JUMPDEST PUSH3 0x461BCD PUSH1 0xE5 SHL DUP2 MSTORE DUP1 PUSH2 0x171A PUSH1 0x4 DUP3 ADD PUSH2 0x16DC JUMP JUMPDEST SUB SWAP1 REVERT JUMPDEST SWAP1 JUMP JUMPDEST PUSH2 0x172D PUSH2 0x1732 SWAP2 PUSH2 0x458 JUMP JUMPDEST PUSH2 0x33F JUMP JUMPDEST SWAP1 JUMP JUMPDEST PUSH2 0x173F SWAP1 SLOAD PUSH2 0x1721 JUMP JUMPDEST SWAP1 JUMP JUMPDEST PUSH2 0x174B SWAP1 PUSH2 0x572 JUMP JUMPDEST SWAP1 JUMP JUMPDEST SWAP1 PUSH2 0x179F PUSH2 0x1796 PUSH1 0x2 PUSH2 0x175F PUSH2 0x1057 JUMP JUMPDEST SWAP5 PUSH2 0x1778 PUSH2 0x176F PUSH1 0x0 DUP4 ADD PUSH2 0x475 JUMP JUMPDEST PUSH1 0x0 DUP9 ADD PUSH2 0xC5D JUMP JUMPDEST PUSH2 0x1790 PUSH2 0x1787 PUSH1 0x1 DUP4 ADD PUSH2 0x572 JUMP JUMPDEST PUSH1 0x20 DUP9 ADD PUSH2 0xC6B JUMP JUMPDEST ADD PUSH2 0x475 JUMP JUMPDEST PUSH1 0x40 DUP5 ADD PUSH2 0xC5D JUMP JUMPDEST JUMP JUMPDEST PUSH2 0x17AA SWAP1 PUSH2 0x174E JUMP JUMPDEST SWAP1 JUMP JUMPDEST SWAP1 PUSH2 0x17B7 DUP3 PUSH2 0xC4C JUMP JUMPDEST PUSH2 0x17C0 DUP2 PUSH2 0x1040 JUMP JUMPDEST SWAP3 PUSH2 0x17CE PUSH1 0x20 DUP6 ADD SWAP2 PUSH2 0x119E JUMP JUMPDEST PUSH1 0x0 SWAP2 JUMPDEST DUP4 DUP4 LT PUSH2 0x17DF JUMPI POP POP POP POP JUMP JUMPDEST PUSH1 0x3 PUSH1 0x20 PUSH1 0x1 SWAP3 PUSH2 0x17EF DUP6 PUSH2 0x17A1 JUMP JUMPDEST DUP2 MSTORE ADD SWAP3 ADD SWAP3 ADD SWAP2 SWAP1 PUSH2 0x17D2 JUMP JUMPDEST PUSH2 0x1806 SWAP1 PUSH2 0x17AD JUMP JUMPDEST SWAP1 JUMP JUMPDEST PUSH2 0x1811 PUSH2 0xD82 JUMP JUMPDEST POP PUSH2 0x181A PUSH2 0x168B JUMP JUMPDEST POP PUSH2 0x1823 PUSH2 0x168B JUMP JUMPDEST POP PUSH2 0x182C PUSH2 0x1690 JUMP JUMPDEST POP PUSH2 0x1835 PUSH2 0x1695 JUMP JUMPDEST POP PUSH2 0x185B DUP2 PUSH2 0x1855 PUSH2 0x184F PUSH2 0x184A PUSH1 0x0 PUSH2 0x420 JUMP JUMPDEST PUSH2 0xB8 JUMP JUMPDEST SWAP2 PUSH2 0xB8 JUMP JUMPDEST LT PUSH2 0x16F5 JUMP JUMPDEST PUSH2 0x1870 PUSH2 0x186A PUSH1 0x0 DUP4 SWAP1 PUSH2 0x42F JUMP JUMPDEST POP PUSH2 0x171E JUMP JUMPDEST SWAP1 PUSH2 0x187D PUSH1 0x0 DUP4 ADD PUSH2 0x475 JUMP JUMPDEST PUSH1 0x1 DUP4 ADD SWAP4 PUSH2 0x18C3 PUSH2 0x18BD PUSH2 0x18B7 PUSH2 0x18B0 PUSH2 0x18AB PUSH1 0x3 PUSH1 0x2 DUP11 ADD SWAP10 ADD SWAP8 PUSH2 0x18A6 PUSH1 0x1 CALLER SWAP1 PUSH2 0x2EF JUMP JUMPDEST PUSH2 0x323 JUMP JUMPDEST PUSH2 0x1735 JUMP JUMPDEST SWAP5 SWAP8 PUSH2 0x1742 JUMP JUMPDEST SWAP6 PUSH2 0x1742 JUMP JUMPDEST SWAP4 PUSH2 0x17FD JUMP JUMPDEST SWAP2 SWAP1 JUMP JUMPDEST PUSH1 0x60 SWAP1 JUMP JUMPDEST PUSH1 0x60 SWAP1 JUMP JUMPDEST PUSH8 0xFFFFFFFFFFFFFFFF DUP2 GT PUSH2 0x18E9 JUMPI PUSH1 0x20 DUP1 SWAP2 MUL ADD SWAP1 JUMP JUMPDEST PUSH2 0xF3 JUMP JUMPDEST SWAP1 PUSH2 0x1900 PUSH2 0x18FB DUP4 PUSH2 0x18D1 JUMP JUMPDEST PUSH2 0x132 JUMP JUMPDEST SWAP2 DUP3 MSTORE JUMP JUMPDEST CALLDATASIZE SWAP1 CALLDATACOPY JUMP JUMPDEST SWAP1 PUSH2 0x192F PUSH2 0x1917 DUP4 PUSH2 0x18EE JUMP JUMPDEST SWAP3 PUSH1 0x20 DUP1 PUSH2 0x1925 DUP7 SWAP4 PUSH2 0x18D1 JUMP JUMPDEST SWAP3 ADD SWAP2 SUB SWAP1 PUSH2 0x1905 JUMP JUMPDEST JUMP JUMPDEST SWAP1 PUSH2 0x1943 PUSH2 0x193E DUP4 PUSH2 0x6C0 JUMP JUMPDEST PUSH2 0x132 JUMP JUMPDEST SWAP2 DUP3 MSTORE JUMP JUMPDEST PUSH1 0x0 JUMPDEST DUP3 DUP2 LT PUSH2 0x1957 JUMPI POP POP POP JUMP JUMPDEST PUSH1 0x20 SWAP1 PUSH2 0x1962 PUSH2 0x1069 JUMP JUMPDEST DUP2 DUP5 ADD MSTORE ADD PUSH2 0x194B JUMP JUMPDEST SWAP1 PUSH2 0x1991 PUSH2 0x1979 DUP4 PUSH2 0x1931 JUMP JUMPDEST SWAP3 PUSH1 0x20 DUP1 PUSH2 0x1987 DUP7 SWAP4 PUSH2 0x6C0 JUMP JUMPDEST SWAP3 ADD SWAP2 SUB SWAP1 PUSH2 0x1948 JUMP JUMPDEST JUMP JUMPDEST SWAP1 PUSH2 0x199D DUP3 PUSH2 0x9DB JUMP JUMPDEST DUP2 LT ISZERO PUSH2 0x19AE JUMPI PUSH1 0x20 DUP1 SWAP2 MUL ADD ADD SWAP1 JUMP JUMPDEST PUSH2 0x40A JUMP JUMPDEST PUSH2 0x19BB PUSH2 0x18C7 JUMP JUMPDEST POP PUSH2 0x19C4 PUSH2 0x18CC JUMP JUMPDEST POP PUSH2 0x19CD PUSH2 0x18CC JUMP JUMPDEST POP PUSH2 0x19D6 PUSH2 0x18C7 JUMP JUMPDEST POP PUSH2 0x19E1 PUSH1 0x0 PUSH2 0x420 JUMP JUMPDEST PUSH2 0x19EA DUP2 PUSH2 0x190A JUMP JUMPDEST SWAP2 PUSH2 0x19F4 DUP3 PUSH2 0x196C JUMP JUMPDEST PUSH2 0x19FD DUP4 PUSH2 0x196C JUMP JUMPDEST SWAP4 PUSH2 0x1A07 DUP5 PUSH2 0x190A JUMP JUMPDEST SWAP3 PUSH2 0x1A12 PUSH1 0x0 PUSH2 0xC71 JUMP JUMPDEST JUMPDEST DUP1 PUSH2 0x1A26 PUSH2 0x1A20 DUP9 PUSH2 0xB8 JUMP JUMPDEST SWAP2 PUSH2 0xB8 JUMP JUMPDEST LT ISZERO PUSH2 0x1AF3 JUMPI PUSH2 0x1AEE SWAP1 PUSH2 0x1A5C PUSH2 0x1A4A PUSH1 0x0 PUSH2 0x1A43 DUP2 DUP6 SWAP1 PUSH2 0x42F JUMP JUMPDEST POP ADD PUSH2 0x475 JUMP JUMPDEST PUSH2 0x1A57 DUP7 SWAP2 DUP5 SWAP1 SWAP3 PUSH2 0x1993 JUMP JUMPDEST PUSH2 0xC5D JUMP JUMPDEST PUSH2 0x1A8A PUSH1 0x1 PUSH2 0x1A6D PUSH1 0x0 DUP5 SWAP1 PUSH2 0x42F JUMP JUMPDEST POP ADD DUP7 PUSH2 0x1A7A DUP5 SWAP3 PUSH2 0x1742 JUMP JUMPDEST PUSH2 0x1A84 DUP4 DUP4 PUSH2 0x1568 JUMP JUMPDEST MSTORE PUSH2 0x1568 JUMP JUMPDEST MLOAD POP PUSH2 0x1ABA PUSH1 0x2 PUSH2 0x1A9D PUSH1 0x0 DUP5 SWAP1 PUSH2 0x42F JUMP JUMPDEST POP ADD DUP10 PUSH2 0x1AAA DUP5 SWAP3 PUSH2 0x1742 JUMP JUMPDEST PUSH2 0x1AB4 DUP4 DUP4 PUSH2 0x1568 JUMP JUMPDEST MSTORE PUSH2 0x1568 JUMP JUMPDEST MLOAD POP PUSH2 0x1AE9 PUSH2 0x1AD7 PUSH1 0x3 PUSH2 0x1AD0 PUSH1 0x0 DUP6 SWAP1 PUSH2 0x42F JUMP JUMPDEST POP ADD PUSH2 0xC4C JUMP JUMPDEST PUSH2 0x1AE4 DUP9 SWAP2 DUP5 SWAP1 SWAP3 PUSH2 0x1993 JUMP JUMPDEST PUSH2 0xC5D JUMP JUMPDEST PUSH2 0x1559 JUMP JUMPDEST PUSH2 0x1A13 JUMP JUMPDEST POP SWAP2 SWAP3 SWAP4 POP SWAP2 SWAP4 SWAP3 SWAP2 SWAP4 SWAP3 SWAP2 SWAP1 JUMP JUMPDEST PUSH1 0x3 PUSH2 0x1B52 PUSH2 0x1B59 SWAP3 PUSH2 0x1B13 PUSH2 0x18C7 JUMP JUMPDEST POP PUSH2 0x1B1C PUSH2 0x18CC JUMP JUMPDEST POP PUSH2 0x1B25 PUSH2 0x18C7 JUMP JUMPDEST POP PUSH2 0x1B4B DUP2 PUSH2 0x1B45 PUSH2 0x1B3F PUSH2 0x1B3A PUSH1 0x0 PUSH2 0x420 JUMP JUMPDEST PUSH2 0xB8 JUMP JUMPDEST SWAP2 PUSH2 0xB8 JUMP JUMPDEST LT PUSH2 0x16F5 JUMP JUMPDEST PUSH1 0x0 PUSH2 0x42F JUMP JUMPDEST POP ADD PUSH2 0xC49 JUMP JUMPDEST PUSH2 0x1B62 DUP2 PUSH2 0xC98 JUMP JUMPDEST SWAP1 PUSH2 0x1B6C DUP3 PUSH2 0x190A JUMP JUMPDEST PUSH2 0x1B75 DUP4 PUSH2 0x196C JUMP JUMPDEST SWAP1 PUSH2 0x1B7F DUP5 PUSH2 0x190A JUMP JUMPDEST SWAP5 PUSH2 0x1B8A PUSH1 0x0 PUSH2 0xC71 JUMP JUMPDEST JUMPDEST DUP1 PUSH2 0x1B9E PUSH2 0x1B98 DUP9 PUSH2 0xB8 JUMP JUMPDEST SWAP2 PUSH2 0xB8 JUMP JUMPDEST LT ISZERO PUSH2 0x1C39 JUMPI PUSH2 0x1C34 SWAP1 PUSH2 0x1BD4 PUSH2 0x1BC2 PUSH1 0x0 PUSH2 0x1BBB DUP10 DUP6 SWAP1 PUSH2 0xC9C JUMP JUMPDEST POP ADD PUSH2 0x475 JUMP JUMPDEST PUSH2 0x1BCF DUP7 SWAP2 DUP5 SWAP1 SWAP3 PUSH2 0x1993 JUMP JUMPDEST PUSH2 0xC5D JUMP JUMPDEST PUSH2 0x1C01 PUSH1 0x1 PUSH2 0x1BE4 DUP9 DUP5 SWAP1 PUSH2 0xC9C JUMP JUMPDEST POP ADD DUP7 PUSH2 0x1BF1 DUP5 SWAP3 PUSH2 0x1742 JUMP JUMPDEST PUSH2 0x1BFB DUP4 DUP4 PUSH2 0x1568 JUMP JUMPDEST MSTORE PUSH2 0x1568 JUMP JUMPDEST MLOAD POP PUSH2 0x1C2F PUSH2 0x1C1D PUSH1 0x2 PUSH2 0x1C16 DUP10 DUP6 SWAP1 PUSH2 0xC9C JUMP JUMPDEST POP ADD PUSH2 0x475 JUMP JUMPDEST PUSH2 0x1C2A DUP11 SWAP2 DUP5 SWAP1 SWAP3 PUSH2 0x1993 JUMP JUMPDEST PUSH2 0xC5D JUMP JUMPDEST PUSH2 0x1559 JUMP JUMPDEST PUSH2 0x1B8B JUMP JUMPDEST POP SWAP3 POP SWAP1 SWAP3 POP SWAP2 SWAP3 SWAP2 SWAP3 SWAP2 SWAP1 JUMP JUMPDEST PUSH1 0x0 PUSH32 0x496E76616C69642070726F706F73616C20494400000000000000000000000000 SWAP2 ADD MSTORE JUMP JUMPDEST PUSH2 0x1C7C PUSH1 0x13 PUSH1 0x20 SWAP3 PUSH2 0x5EF JUMP JUMPDEST PUSH2 0x1C85 DUP2 PUSH2 0x1C47 JUMP JUMPDEST ADD SWAP1 JUMP JUMPDEST PUSH2 0x1C9F SWAP1 PUSH1 0x20 DUP2 ADD SWAP1 PUSH1 0x0 DUP2 DUP4 SUB SWAP2 ADD MSTORE PUSH2 0x1C6F JUMP JUMPDEST SWAP1 JUMP JUMPDEST ISZERO PUSH2 0x1CA9 JUMPI JUMP JUMPDEST PUSH2 0x1CB1 PUSH2 0xA3 JUMP JUMPDEST PUSH3 0x461BCD PUSH1 0xE5 SHL DUP2 MSTORE DUP1 PUSH2 0x1CC7 PUSH1 0x4 DUP3 ADD PUSH2 0x1C89 JUMP JUMPDEST SUB SWAP1 REVERT JUMPDEST PUSH1 0x20 PUSH32 0x6C656374696F6E00000000000000000000000000000000000000000000000000 SWAP2 PUSH32 0x596F75206861766520616C726561647920766F74656420696E20746869732065 PUSH1 0x0 DUP3 ADD MSTORE ADD MSTORE JUMP JUMPDEST PUSH2 0x1D26 PUSH1 0x27 PUSH1 0x40 SWAP3 PUSH2 0x5EF JUMP JUMPDEST PUSH2 0x1D2F DUP2 PUSH2 0x1CCB JUMP JUMPDEST ADD SWAP1 JUMP JUMPDEST PUSH2 0x1D49 SWAP1 PUSH1 0x20 DUP2 ADD SWAP1 PUSH1 0x0 DUP2 DUP4 SUB SWAP2 ADD MSTORE PUSH2 0x1D19 JUMP JUMPDEST SWAP1 JUMP JUMPDEST ISZERO PUSH2 0x1D53 JUMPI JUMP JUMPDEST PUSH2 0x1D5B PUSH2 0xA3 JUMP JUMPDEST PUSH3 0x461BCD PUSH1 0xE5 SHL DUP2 MSTORE DUP1 PUSH2 0x1D71 PUSH1 0x4 DUP3 ADD PUSH2 0x1D33 JUMP JUMPDEST SUB SWAP1 REVERT JUMPDEST SWAP1 JUMP JUMPDEST PUSH2 0x1D8C PUSH2 0x1D87 PUSH2 0x1D91 SWAP3 PUSH2 0x1D75 JUMP JUMPDEST PUSH2 0x2B8 JUMP JUMPDEST PUSH2 0xB8 JUMP JUMPDEST SWAP1 JUMP JUMPDEST PUSH2 0x1D9D DUP2 PUSH2 0xC4C JUMP JUMPDEST DUP3 LT ISZERO PUSH2 0x1DB8 JUMPI PUSH2 0x1DAF PUSH1 0x3 SWAP2 PUSH2 0x119E JUMP JUMPDEST SWAP2 MUL ADD SWAP1 PUSH1 0x0 SWAP1 JUMP JUMPDEST PUSH2 0x40A JUMP JUMPDEST PUSH2 0x1DCC PUSH2 0x1DD2 SWAP2 SWAP4 SWAP3 SWAP4 PUSH2 0xB8 JUMP JUMPDEST SWAP3 PUSH2 0xB8 JUMP JUMPDEST DUP3 ADD DUP1 SWAP3 GT PUSH2 0x1DDD JUMPI JUMP JUMPDEST PUSH2 0x1145 JUMP JUMPDEST SWAP1 PUSH2 0x1DEE PUSH1 0xFF SWAP2 PUSH2 0xCE8 JUMP JUMPDEST SWAP2 DUP2 NOT AND SWAP2 AND OR SWAP1 JUMP JUMPDEST PUSH2 0x1E01 SWAP1 PUSH2 0x38D JUMP JUMPDEST SWAP1 JUMP JUMPDEST SWAP1 JUMP JUMPDEST SWAP1 PUSH2 0x1E1C PUSH2 0x1E17 PUSH2 0x1E23 SWAP3 PUSH2 0x1DF8 JUMP JUMPDEST PUSH2 0x1E04 JUMP JUMPDEST DUP3 SLOAD PUSH2 0x1DE2 JUMP JUMPDEST SWAP1 SSTORE JUMP JUMPDEST SWAP2 PUSH1 0x20 PUSH2 0x1E49 SWAP3 SWAP5 SWAP4 PUSH2 0x1E42 PUSH1 0x40 DUP3 ADD SWAP7 PUSH1 0x0 DUP4 ADD SWAP1 PUSH2 0x5DE JUMP JUMPDEST ADD SWAP1 PUSH2 0x5DE JUMP JUMPDEST JUMP JUMPDEST PUSH2 0x1E70 DUP2 PUSH2 0x1E6A PUSH2 0x1E64 PUSH2 0x1E5F PUSH1 0x0 PUSH2 0x420 JUMP JUMPDEST PUSH2 0xB8 JUMP JUMPDEST SWAP2 PUSH2 0xB8 JUMP JUMPDEST LT PUSH2 0x16F5 JUMP JUMPDEST PUSH2 0x1EA3 DUP3 PUSH2 0x1E9D PUSH2 0x1E97 PUSH2 0x1E92 PUSH1 0x3 PUSH2 0x1E8B PUSH1 0x0 DUP9 SWAP1 PUSH2 0x42F JUMP JUMPDEST POP ADD PUSH2 0xC4C JUMP JUMPDEST PUSH2 0xB8 JUMP JUMPDEST SWAP2 PUSH2 0xB8 JUMP JUMPDEST LT PUSH2 0x1CA2 JUMP JUMPDEST PUSH2 0x1ED2 PUSH2 0x1ECD PUSH2 0x1EC7 PUSH2 0x1EC2 PUSH2 0x1EBB PUSH1 0x1 CALLER SWAP1 PUSH2 0x2EF JUMP JUMPDEST DUP6 SWAP1 PUSH2 0x323 JUMP JUMPDEST PUSH2 0x1735 JUMP JUMPDEST ISZERO PUSH2 0x38D JUMP JUMPDEST PUSH2 0x1D4C JUMP JUMPDEST PUSH2 0x1F15 PUSH2 0x1EDF PUSH1 0x1 PUSH2 0x1D78 JUMP JUMPDEST PUSH2 0x1F0F PUSH1 0x2 PUSH2 0x1EFE PUSH1 0x3 PUSH2 0x1EF5 PUSH1 0x0 DUP9 SWAP1 PUSH2 0x42F JUMP JUMPDEST POP ADD DUP8 SWAP1 PUSH2 0x1D94 JUMP JUMPDEST POP ADD SWAP2 PUSH2 0x1F0A DUP4 PUSH2 0x475 JUMP JUMPDEST PUSH2 0x1DBD JUMP JUMPDEST SWAP1 PUSH2 0xD08 JUMP JUMPDEST PUSH2 0x1F35 PUSH1 0x1 PUSH2 0x1F30 PUSH2 0x1F29 PUSH1 0x1 CALLER SWAP1 PUSH2 0x2EF JUMP JUMPDEST DUP5 SWAP1 PUSH2 0x323 JUMP JUMPDEST PUSH2 0x1E07 JUMP JUMPDEST CALLER SWAP1 SWAP2 PUSH2 0x1F62 PUSH32 0xB4CFECF70861B7B150D8337780D34FB4CBC2114B5FB1FE51A5C5FCA1849F7274 SWAP3 PUSH2 0x2E3 JUMP JUMPDEST SWAP3 PUSH2 0x1F77 PUSH2 0x1F6E PUSH2 0xA3 JUMP JUMPDEST SWAP3 DUP4 SWAP3 DUP4 PUSH2 0x1E27 JUMP JUMPDEST SUB SWAP1 LOG2 JUMP INVALID LOG2 PUSH5 0x6970667358 0x22 SLT KECCAK256 0xFB RETURNDATASIZE PC PUSH12 0x569F72213759ADEC7DCC5916 LOG1 0xDD 0xD1 TIMESTAMP 0xDC CODESIZE 0xC1 BYTE 0xF7 0xE5 SGT 0xC5 DUP10 0xDC SWAP5 OR PUSH5 0x736F6C6343 STOP ADDMOD SHR STOP CALLER "},"methodIdentifiers":{"createElection(string,string,string[])":"84303277","createProposal(uint256,string)":"02d52fa4","elections(uint256)":"5e6fef01","getElection(uint256)":"9d710777","getElections()":"9f3a7f52","getProposalsByElectionId(uint256)":"ad1539b6","hasVoted(address,uint256)":"42545825","vote(uint256,uint256)":"b384abef"}}}}}