{
  "_format": "hh-sol-artifact-1",
  "contractName": "Voting",
  "sourceName": "contracts/voting.sol",
  "abi": [
    {
      "inputs": [],
      "stateMutability": "nonpayable",
      "type": "constructor"
    },
    {
      "anonymous": false,
      "inputs": [
        {
          "indexed": false,
          "internalType": "uint256",
          "name": "id",
          "type": "uint256"
        },
        {
          "indexed": false,
          "internalType": "string",
          "name": "name",
          "type": "string"
        },
        {
          "indexed": false,
          "internalType": "string",
          "name": "description",
          "type": "string"
        }
      ],
      "name": "ElectionCreated",
      "type": "event"
    },
    {
      "anonymous": false,
      "inputs": [
        {
          "indexed": true,
          "internalType": "address",
          "name": "voter",
          "type": "address"
        },
        {
          "indexed": false,
          "internalType": "uint256",
          "name": "electionId",
          "type": "uint256"
        },
        {
          "indexed": false,
          "internalType": "uint256",
          "name": "proposalId",
          "type": "uint256"
        }
      ],
      "name": "VoteCast",
      "type": "event"
    },
    {
      "inputs": [
        {
          "internalType": "string",
          "name": "name",
          "type": "string"
        },
        {
          "internalType": "string",
          "name": "description",
          "type": "string"
        },
        {
          "internalType": "string[]",
          "name": "proposalNames",
          "type": "string[]"
        }
      ],
      "name": "createElection",
      "outputs": [],
      "stateMutability": "nonpayable",
      "type": "function"
    },
    {
      "inputs": [
        {
          "internalType": "uint256",
          "name": "electionId",
          "type": "uint256"
        },
        {
          "internalType": "string",
          "name": "name",
          "type": "string"
        }
      ],
      "name": "createProposal",
      "outputs": [],
      "stateMutability": "nonpayable",
      "type": "function"
    },
    {
      "inputs": [
        {
          "internalType": "uint256",
          "name": "",
          "type": "uint256"
        }
      ],
      "name": "elections",
      "outputs": [
        {
          "internalType": "uint256",
          "name": "id",
          "type": "uint256"
        },
        {
          "internalType": "string",
          "name": "name",
          "type": "string"
        },
        {
          "internalType": "string",
          "name": "description",
          "type": "string"
        }
      ],
      "stateMutability": "view",
      "type": "function"
    },
    {
      "inputs": [
        {
          "internalType": "uint256",
          "name": "electionId",
          "type": "uint256"
        }
      ],
      "name": "getElection",
      "outputs": [
        {
          "internalType": "uint256",
          "name": "id",
          "type": "uint256"
        },
        {
          "internalType": "string",
          "name": "name",
          "type": "string"
        },
        {
          "internalType": "string",
          "name": "description",
          "type": "string"
        },
        {
          "internalType": "uint256",
          "name": "proposalCount",
          "type": "uint256"
        }
      ],
      "stateMutability": "view",
      "type": "function"
    },
    {
      "inputs": [],
      "name": "getElections",
      "outputs": [
        {
          "internalType": "uint256[]",
          "name": "ids",
          "type": "uint256[]"
        },
        {
          "internalType": "string[]",
          "name": "names",
          "type": "string[]"
        },
        {
          "internalType": "string[]",
          "name": "descriptions",
          "type": "string[]"
        },
        {
          "internalType": "uint256[]",
          "name": "proposalCounts",
          "type": "uint256[]"
        }
      ],
      "stateMutability": "view",
      "type": "function"
    },
    {
      "inputs": [
        {
          "internalType": "uint256",
          "name": "electionId",
          "type": "uint256"
        }
      ],
      "name": "getProposalsByElectionId",
      "outputs": [
        {
          "internalType": "uint256[]",
          "name": "ids",
          "type": "uint256[]"
        },
        {
          "internalType": "string[]",
          "name": "names",
          "type": "string[]"
        },
        {
          "internalType": "uint256[]",
          "name": "votecounts",
          "type": "uint256[]"
        }
      ],
      "stateMutability": "view",
      "type": "function"
    },
    {
      "inputs": [
        {
          "internalType": "address",
          "name": "",
          "type": "address"
        },
        {
          "internalType": "uint256",
          "name": "",
          "type": "uint256"
        }
      ],
      "name": "hasVoted",
      "outputs": [
        {
          "internalType": "bool",
          "name": "",
          "type": "bool"
        }
      ],
      "stateMutability": "view",
      "type": "function"
    },
    {
      "inputs": [
        {
          "internalType": "uint256",
          "name": "electionId",
          "type": "uint256"
        },
        {
          "internalType": "uint256",
          "name": "proposalId",
          "type": "uint256"
        }
      ],
      "name": "vote",
      "outputs": [],
      "stateMutability": "nonpayable",
      "type": "function"
    }
  ],
  "bytecode": "0x60806040523461002757610011610ae2565b61001961002c565b611ded610ceb8239611ded90f35b610032565b60405190565b600080fd5b90565b90565b90565b61005461004f61005992610037565b61003d565b61003a565b90565b601f801991011690565b634e487b7160e01b600052604160045260246000fd5b906100869061005c565b810190811060018060401b0382111761009e57604052565b610066565b906100b66100af61002c565b928361007c565b565b60018060401b0381116100ce5760208091020190565b610066565b906100e56100e0836100b8565b6100a3565b918252565b6100f460606100a3565b90565b600090565b606090565b6101096100ea565b9060208080846101176100f7565b8152016101226100fc565b81520161012d6100f7565b81525050565b61013b610101565b90565b60005b82811061014d57505050565b602090610158610133565b8184015201610141565b9061018761016f836100d3565b9260208061017d86936100b8565b920191039061013e565b565b61019360806100a3565b90565b906101a09061003a565b9052565b60018060401b0381116101c0576101bc60209161005c565b0190565b610066565b906101d76101d2836101a4565b6100a3565b918252565b60007f456c656374696f6e203100000000000000000000000000000000000000000000910152565b61020e600a6101c5565b9061021b602083016101dc565b565b610225610204565b90565b52565b60007f466972737420656c656374696f6e000000000000000000000000000000000000910152565b61025d600e6101c5565b9061026a6020830161022b565b565b610274610253565b90565b52565b90565b600052602060002090565b634e487b7160e01b600052603260045260246000fd5b5490565b6102ab8161029e565b8210156102c6576102bd60049161027d565b91020190600090565b610288565b634e487b7160e01b600052600060045260246000fd5b6102eb905161003a565b90565b60001b90565b90610301600019916102ee565b9181191691161790565b61031f61031a6103249261003a565b61003d565b61003a565b90565b90565b9061033f61033a6103469261030b565b610327565b82546102f4565b9055565b5190565b5190565b634e487b7160e01b600052602260045260246000fd5b9060016002830492168015610388575b602083101461038357565b610352565b91607f1691610378565b600052602060002090565b601f602091010490565b1b90565b919060086103c79102916103c1600019846103a7565b926103a7565b9181191691161790565b91906103e76103e26103ef9361030b565b610327565b9083546103ab565b9055565b600090565b61040a916104046103f3565b916103d1565b565b5b818110610418575050565b8061042660006001936103f8565b0161040d565b9190601f811161043c575b505050565b61044861046d93610392565b9060206104548461039d565b83019310610475575b6104669061039d565b019061040c565b388080610437565b91506104668192905061045d565b1c90565b906104989060001990600802610483565b191690565b816104a791610487565b906002021790565b906104b98161034e565b9060018060401b038211610579576104db826104d58554610368565b8561042c565b602090601f8311600114610510579180916104ff93600092610504575b505061049d565b90555b565b909150015138806104f8565b601f1983169161051f85610392565b9260005b81811061056157509160029391856001969410610547575b50505002019055610502565b610557910151601f841690610487565b905538808061053b565b91936020600181928787015181550195019201610523565b610066565b90610588916104af565b565b5190565b60200190565b5490565b634e487b7160e01b600052601160045260246000fd5b6105bd6105c39193929361003a565b9261003a565b916105cf83820261003a565b9281840414901517156105de57565b610598565b6105ee9060036105ae565b90565b600052602060002090565b906106109060001990602003600802610483565b8154169055565b9060009161062f61062782610392565b92835461049d565b905555565b9192906020821060001461068e57601f841160011461065e5761065892935061049d565b90555b5b565b509061068461068993600161067b61067585610392565b9261039d565b8201910161040c565b610617565b61065b565b506106c5829361069f600194610392565b6106be6106ab8561039d565b820192601f8616806106d0575b5061039d565b019061040c565b60020217905561065c565b6106dc908886036105fc565b386106b8565b929091680100000000000000008211610744576020116000146107355760208110600014610719576107139161049d565b90555b5b565b60019160ff191661072984610392565b55600202019055610716565b60019150600202019055610717565b610066565b90815461075581610368565b9081831161077e575b81831061076c575b50505050565b61077593610634565b38808080610766565b61078a838383876106e2565b61075e565b600061079a91610749565b565b906000036107af576107ad9061078f565b565b6102cb565b600060026107db926107c8838083016103f8565b6107d5836001830161079c565b016103f8565b565b906000036107f0576107ee906107b4565b565b6102cb565b5b818110610801575050565b8061080f60006003936107dd565b016107f6565b9091828110610824575b505050565b61084261083c61083661084d956105e3565b926105e3565b926105f1565b9182019101906107f5565b38808061081f565b9068010000000000000000811161087e578161087361087c93610594565b90828155610815565b565b610066565b5190565b5190565b906108d1604060026108d7946108b0600082016108aa600088016102e1565b9061032a565b6108c9600182016108c36020880161034a565b9061057e565b0192016102e1565b9061032a565b565b906108e39161088b565b565b61090a6109046108f484610883565b936108ff8585610855565b61058e565b916105f1565b6000915b83831061091b5750505050565b600360208261093461092e600195610887565b866108d9565b0192019201919061090e565b9061094a916108e5565b565b906109ab606060036109b1946109716000820161096b600088016102e1565b9061032a565b61098a600182016109846020880161034a565b9061057e565b6109a36002820161099d6040880161034a565b9061057e565b01920161058a565b90610940565b565b91906109c4576109c29161094c565b565b6102cb565b90815491680100000000000000008310156109f957826109f19160016109f7950181556102a2565b906109b3565b565b610066565b60007f50726f706f73616c203100000000000000000000000000000000000000000000910152565b610a30600a6101c5565b90610a3d602083016109fe565b565b610a47610a26565b90565b60007f50726f706f73616c203200000000000000000000000000000000000000000000910152565b610a7c600a6101c5565b90610a8960208301610a4a565b565b610a93610a72565b90565b60007f50726f706f73616c203300000000000000000000000000000000000000000000910152565b610ac8600a6101c5565b90610ad560208301610a96565b565b610adf610abe565b90565b610b596000610b4a610afc610af76000610040565b610162565b610b19610b10610b0a610189565b94610040565b60008501610196565b610b2d610b2461021d565b60208501610228565b610b41610b3861026c565b60408501610228565b60608301610277565b610b54600061027a565b6109c9565b610b74610b666000610040565b610b6e610a3f565b90610c77565b610b8f610b816000610040565b610b89610a8b565b90610c77565b610baa610b9c6000610040565b610ba4610ad7565b90610c77565b565b5490565b600052602060002090565b610bc481610bac565b821015610bdf57610bd6600491610bb0565b91020190600090565b610288565b90565b610bf160606100a3565b90565b600052602060002090565b5490565b610c0c81610bff565b821015610c2757610c1e600391610bf4565b91020190600090565b610288565b9190610c3d57610c3b9161088b565b565b6102cb565b9081549168010000000000000000831015610c725782610c6a916001610c7095018155610c03565b90610c2c565b565b610066565b90610ce891610ce3610cda610cb06003610ca9610ca182610c9a60008990610bbb565b5001610be4565b956000610bbb565b5001610594565b93610cd5600091610ccc610cc2610be7565b9760008901610196565b60208701610228565b610040565b60408401610196565b610c42565b56fe60806040526004361015610013575b610b63565b61001e60003561009d565b806302d52fa41461009857806342545825146100935780635e6fef011461008e57806384303277146100895780639d710777146100845780639f3a7f521461007f578063ad1539b61461007a5763b384abef0361000e57610b2f565b610ac9565b610a52565b610873565b6107f7565b610688565b6103b5565b61021b565b60e01c90565b60405190565b600080fd5b600080fd5b600080fd5b90565b6100c4816100b8565b036100cb57565b600080fd5b905035906100dd826100bb565b565b600080fd5b600080fd5b601f801991011690565b634e487b7160e01b600052604160045260246000fd5b90610113906100e9565b810190811067ffffffffffffffff82111761012d57604052565b6100f3565b9061014561013e6100a3565b9283610109565b565b67ffffffffffffffff8111610165576101616020916100e9565b0190565b6100f3565b90826000939282370152565b9092919261018b61018682610147565b610132565b938185526020850190828401116101a7576101a59261016a565b565b6100e4565b9080601f830112156101ca578160206101c793359101610176565b90565b6100df565b919091604081840312610210576101e983600083016100d0565b92602082013567ffffffffffffffff811161020b5761020892016101ac565b90565b6100b3565b6100ae565b60000190565b3461024a5761023461022e3660046101cf565b90610ecf565b61023c6100a3565b8061024681610215565b0390f35b6100a9565b60018060a01b031690565b6102639061024f565b90565b61026f8161025a565b0361027657565b600080fd5b9050359061028882610266565b565b91906040838203126102b357806102a76102b0926000860161027b565b936020016100d0565b90565b6100ae565b90565b6102cf6102ca6102d49261024f565b6102b8565b61024f565b90565b6102e0906102bb565b90565b6102ec906102d7565b90565b906102f9906102e3565b600052602052604060002090565b61031b610316610320926100b8565b6102b8565b6100b8565b90565b9061032d90610307565b600052602052604060002090565b1c90565b60ff1690565b61035590600861035a930261033b565b61033f565b90565b906103689154610345565b90565b61038561038a926103806001936000946102ef565b610323565b61035d565b90565b151590565b61039b9061038d565b9052565b91906103b390600060208501940190610392565b565b346103e6576103e26103d16103cb36600461028a565b9061036b565b6103d96100a3565b9182918261039f565b0390f35b6100a9565b9060208282031261040557610402916000016100d0565b90565b6100ae565b634e487b7160e01b600052603260045260246000fd5b5490565b600052602060002090565b61043881610420565b8210156104535761044a600491610424565b91020190600090565b61040a565b60001c90565b90565b61046d61047291610458565b61045e565b90565b61047f9054610461565b90565b634e487b7160e01b600052602260045260246000fd5b90600160028304921680156104b8575b60208310146104b357565b610482565b91607f16916104a8565b60209181520190565b600052602060002090565b90600092918054906104f16104ea83610498565b80946104c2565b9160018116908160001461054a575060011461050d575b505050565b61051a91929394506104cb565b916000925b8184106105325750500190388080610508565b6001816020929593955484860152019101929061051f565b92949550505060ff1916825215156020020190388080610508565b9061056f916104d6565b90565b9061059261058b926105826100a3565b93848092610565565b0383610109565b565b6000906105a082610420565b8110156105d9576105b09161042f565b506105bd60008201610475565b916105d660026105cf60018501610572565b9301610572565b90565b600080fd5b6105e7906100b8565b9052565b5190565b60209181520190565b60005b83811061060c575050906000910152565b8060209183015181850152016105fb565b61063c61064560209361064a93610633816105eb565b938480936105ef565b958691016105f8565b6100e9565b0190565b9161068593916106779161066a606086019260008701906105de565b848203602086015261061d565b91604081840391015261061d565b90565b346106bb576106b76106a361069e3660046103eb565b610594565b6106ae9391936100a3565b9384938461064e565b0390f35b6100a9565b67ffffffffffffffff81116106d85760208091020190565b6100f3565b600080fd5b9291906106f66106f1826106c0565b610132565b938185526020808601920281019183831161074d5781905b83821061071c575050505050565b813567ffffffffffffffff81116107485760209161073d87849387016101ac565b81520191019061070e565b6100df565b6106dd565b9080601f830112156107705781602061076d933591016106e2565b90565b6100df565b916060838303126107f257600083013567ffffffffffffffff81116107ed57826107a09185016101ac565b92602081013567ffffffffffffffff81116107e857836107c19183016101ac565b92604082013567ffffffffffffffff81116107e3576107e09201610752565b90565b6100b3565b6100b3565b6100b3565b6100ae565b346108265761081061080a366004610775565b916114b1565b6108186100a3565b8061082281610215565b0390f35b6100a9565b9493916108719361085b6060936108699361084e60808b019260008c01906105de565b89820360208b015261061d565b90878203604089015261061d565b9401906105de565b565b346108a7576108a361088e6108893660046103eb565b61164c565b9061089a9492946100a3565b9485948561082b565b0390f35b6100a9565b60009103126108b757565b6100ae565b5190565b60209181520190565b60200190565b6108d8906100b8565b9052565b906108e9816020936108cf565b0190565b60200190565b9061091061090a610903846108bc565b80936108c0565b926108c9565b9060005b8181106109215750505090565b90919261093a61093460019286516108dc565b946108ed565b9101919091610914565b5190565b60209181520190565b60200190565b61097661097f6020936109849361096d816105eb565b938480936104c2565b958691016105f8565b6100e9565b0190565b9061099291610957565b90565b60200190565b906109af6109a883610944565b8092610948565b90816109c060208302840194610951565b926000915b8383106109d457505050505090565b909192939460206109f66109f083856001950387528951610988565b97610995565b93019301919392906109c5565b92610a33610a4f9593610a25610a4194608088019088820360008a01526108f3565b90868203602088015261099b565b90848203604086015261099b565b9160608184039101526108f3565b90565b34610a8657610a623660046108ac565b610a82610a6d6117cd565b90610a799492946100a3565b94859485610a03565b0390f35b6100a9565b91610ab890610aaa610ac69593606086019086820360008801526108f3565b90848203602086015261099b565b9160408184039101526108f3565b90565b34610afc57610af8610ae4610adf3660046103eb565b61191c565b610aef9391936100a3565b93849384610a8b565b0390f35b6100a9565b9190604083820312610b2a5780610b1e610b2792600086016100d0565b936020016100d0565b90565b6100ae565b34610b5e57610b48610b42366004610b01565b90611c86565b610b506100a3565b80610b5a81610215565b0390f35b6100a9565b600080fd5b90565b5490565b610b796060610132565b90565b90610b86906100b8565b9052565b52565b90565b610ba4610b9f610ba992610b8d565b6102b8565b6100b8565b90565b600052602060002090565b5490565b610bc481610bb7565b821015610bdf57610bd6600391610bac565b91020190600090565b61040a565b634e487b7160e01b600052600060045260246000fd5b610c0490516100b8565b90565b60001b90565b90610c1a60001991610c07565b9181191691161790565b90565b90610c3c610c37610c4392610307565b610c24565b8254610c0d565b9055565b5190565b601f602091010490565b1b90565b91906008610c75910291610c6f60001984610c55565b92610c55565b9181191691161790565b9190610c95610c90610c9d93610307565b610c24565b908354610c59565b9055565b600090565b610cb891610cb2610ca1565b91610c7f565b565b5b818110610cc6575050565b80610cd46000600193610ca6565b01610cbb565b9190601f8111610cea575b505050565b610cf6610d1b936104cb565b906020610d0284610c4b565b83019310610d23575b610d1490610c4b565b0190610cba565b388080610ce5565b9150610d1481929050610d0b565b90610d42906000199060080261033b565b191690565b81610d5191610d31565b906002021790565b90610d63816105eb565b9067ffffffffffffffff8211610e2557610d8782610d818554610498565b85610cda565b602090601f8311600114610dbc57918091610dab93600092610db0575b5050610d47565b90555b565b90915001513880610da4565b601f19831691610dcb856104cb565b9260005b818110610e0d57509160029391856001969410610df3575b50505002019055610dae565b610e03910151601f841690610d31565b9055388080610de7565b91936020600181928787015181550195019201610dcf565b6100f3565b90610e3491610d59565b565b90610e7c60406002610e8294610e5b60008201610e5560008801610bfa565b90610c27565b610e7460018201610e6e60208801610c47565b90610e2a565b019201610bfa565b90610c27565b565b9190610e9557610e9391610e36565b565b610be4565b9081549168010000000000000000831015610eca5782610ec2916001610ec895018155610bbb565b90610e84565b565b6100f3565b90610f4091610f3b610f32610f086003610f01610ef982610ef26000899061042f565b5001610b68565b95600061042f565b5001610b6b565b93610f2d600091610f24610f1a610b6f565b9760008901610b7c565b60208701610b8a565b610b90565b60408401610b7c565b610e9a565b565b67ffffffffffffffff8111610f5a5760208091020190565b6100f3565b90610f71610f6c83610f42565b610132565b918252565b610f806060610132565b90565b600090565b606090565b610f95610f76565b906020808084610fa3610f83565b815201610fae610f88565b815201610fb9610f83565b81525050565b610fc7610f8d565b90565b60005b828110610fd957505050565b602090610fe4610fbf565b8184015201610fcd565b90611013610ffb83610f5f565b926020806110098693610f42565b9201910390610fca565b565b61101f6080610132565b90565b52565b90565b600052602060002090565b5490565b61104081611033565b82101561105b57611052600491611028565b91020190600090565b61040a565b5190565b60200190565b634e487b7160e01b600052601160045260246000fd5b61108f611095919392936100b8565b926100b8565b916110a18382026100b8565b9281840414901517156110b057565b61106a565b6110c0906003611080565b90565b600052602060002090565b906110e2906000199060200360080261033b565b8154169055565b906000916111016110f9826104cb565b928354610d47565b905555565b9192906020821060001461116057601f84116001146111305761112a929350610d47565b90555b5b565b509061115661115b93600161114d611147856104cb565b92610c4b565b82019101610cba565b6110e9565b61112d565b5061119782936111716001946104cb565b61119061117d85610c4b565b820192601f8616806111a2575b50610c4b565b0190610cba565b60020217905561112e565b6111ae908886036110ce565b3861118a565b9290916801000000000000000082116112165760201160001461120757602081106000146111eb576111e591610d47565b90555b5b565b60019160ff19166111fb846104cb565b556002020190556111e8565b600191506002020190556111e9565b6100f3565b90815461122781610498565b90818311611250575b81831061123e575b50505050565b61124793611106565b38808080611238565b61125c838383876111b4565b611230565b600061126c9161121b565b565b906000036112815761127f90611261565b565b610be4565b600060026112ad9261129a83808301610ca6565b6112a7836001830161126e565b01610ca6565b565b906000036112c2576112c090611286565b565b610be4565b5b8181106112d3575050565b806112e160006003936112af565b016112c8565b90918281106112f6575b505050565b61131461130e61130861131f956110b5565b926110b5565b926110c3565b9182019101906112c7565b3880806112f1565b90680100000000000000008111611350578161134561134e93610b6b565b908281556112e7565b565b6100f3565b5190565b5190565b9061136791610e36565b565b61138e61138861137884611355565b936113838585611327565b611064565b916110c3565b6000915b83831061139f5750505050565b60036020826113b86113b2600195611359565b8661135d565b01920192019190611392565b906113ce91611369565b565b9061142f60606003611435946113f5600082016113ef60008801610bfa565b90610c27565b61140e6001820161140860208801610c47565b90610e2a565b6114276002820161142160408801610c47565b90610e2a565b019201611060565b906113c4565b565b919061144857611446916113d0565b565b610be4565b908154916801000000000000000083101561147d578261147591600161147b95018155611037565b90611437565b565b6100f3565b600161148e91016100b8565b90565b9061149b82610944565b8110156114ac576020809102010190565b61040a565b929190916114bf6000610420565b936115218561151283611509886115006114e16114dc6000610b90565b610fee565b936114f76114ed611015565b9760008901610b7c565b60208701610b8a565b60408501610b8a565b60608301611022565b61151c6000611025565b61144d565b61152b6000610b90565b5b8061154761154161153c87610944565b6100b8565b916100b8565b10156115715761156c9061156787611560878490611491565b5190610ecf565b611482565b61152c565b50929150929190916115af7feaf9c9dabc2a68b717e3095068d04a84ecace13a1ab18b4499a913c3ab3d2869936115a66100a3565b9384938461064e565b0390a1565b606090565b60007f496e76616c696420656c656374696f6e20494400000000000000000000000000910152565b6115ee60136020926105ef565b6115f7816115b9565b0190565b61161190602081019060008183039101526115e1565b90565b1561161b57565b6116236100a3565b62461bcd60e51b815280611639600482016115fb565b0390fd5b90565b61164990610572565b90565b6116a36116a99161165b610ca1565b506116646115b4565b5061166d6115b4565b50611676610ca1565b5061169c8161169661169061168b6000610420565b6100b8565b916100b8565b10611614565b600061042f565b5061163d565b6116b560008201610475565b60018201926116dd6116d76116d06003600287019601610b6b565b9395611640565b93611640565b9190565b606090565b606090565b67ffffffffffffffff81116117035760208091020190565b6100f3565b9061171a611715836116eb565b610132565b918252565b369037565b9061174961173183611708565b9260208061173f86936116eb565b920191039061171f565b565b9061175d611758836106c0565b610132565b918252565b60005b82811061177157505050565b60209061177c610f88565b8184015201611765565b906117ab6117938361174b565b926020806117a186936106c0565b9201910390611762565b565b906117b7826108bc565b8110156117c8576020809102010190565b61040a565b6117d56116e1565b506117de6116e6565b506117e76116e6565b506117f06116e1565b506117fb6000610420565b61180481611724565b9161180e82611786565b61181783611786565b9361182184611724565b9261182c6000610b90565b5b8061184061183a886100b8565b916100b8565b101561190d5761190890611876611864600061185d81859061042f565b5001610475565b61187186918490926117ad565b610b7c565b6118a460016118876000849061042f565b5001866118948492611640565b61189e8383611491565b52611491565b51506118d460026118b76000849061042f565b5001896118c48492611640565b6118ce8383611491565b52611491565b51506119036118f160036118ea6000859061042f565b5001610b6b565b6118fe88918490926117ad565b610b7c565b611482565b61182d565b50919293509193929193929190565b600361196c6119739261192d6116e1565b506119366116e6565b5061193f6116e1565b506119658161195f6119596119546000610420565b6100b8565b916100b8565b10611614565b600061042f565b5001610b68565b61197c81610bb7565b9061198682611724565b61198f83611786565b9061199984611724565b946119a46000610b90565b5b806119b86119b2886100b8565b916100b8565b1015611a5357611a4e906119ee6119dc60006119d5898590610bbb565b5001610475565b6119e986918490926117ad565b610b7c565b611a1b60016119fe888490610bbb565b500186611a0b8492611640565b611a158383611491565b52611491565b5150611a49611a376002611a30898590610bbb565b5001610475565b611a448a918490926117ad565b610b7c565b611482565b6119a5565b509250909250919291929190565b60007f496e76616c69642070726f706f73616c20494400000000000000000000000000910152565b611a9660136020926105ef565b611a9f81611a61565b0190565b611ab99060208101906000818303910152611a89565b90565b15611ac357565b611acb6100a3565b62461bcd60e51b815280611ae160048201611aa3565b0390fd5b611af1611af691610458565b61033f565b90565b611b039054611ae5565b90565b60207f6c656374696f6e00000000000000000000000000000000000000000000000000917f596f75206861766520616c726561647920766f74656420696e2074686973206560008201520152565b611b6160276040926105ef565b611b6a81611b06565b0190565b611b849060208101906000818303910152611b54565b90565b15611b8e57565b611b966100a3565b62461bcd60e51b815280611bac60048201611b6e565b0390fd5b90565b611bc7611bc2611bcc92611bb0565b6102b8565b6100b8565b90565b611bd881610b6b565b821015611bf357611bea6003916110c3565b91020190600090565b61040a565b611c07611c0d919392936100b8565b926100b8565b8201809211611c1857565b61106a565b90611c2960ff91610c07565b9181191691161790565b611c3c9061038d565b90565b90565b90611c57611c52611c5e92611c33565b611c3f565b8254611c1d565b9055565b916020611c84929493611c7d604082019660008301906105de565b01906105de565b565b611cab81611ca5611c9f611c9a6000610420565b6100b8565b916100b8565b10611614565b611cde82611cd8611cd2611ccd6003611cc66000889061042f565b5001610b6b565b6100b8565b916100b8565b10611abc565b611d0d611d08611d02611cfd611cf6600133906102ef565b8590610323565b611af9565b1561038d565b611b87565b611d50611d1a6001611bb3565b611d4a6002611d396003611d306000889061042f565b50018790611bcf565b500191611d4583610475565b611bf8565b90610c27565b611d706001611d6b611d64600133906102ef565b8490610323565b611c42565b339091611d9d7fb4cfecf70861b7b150d8337780d34fb4cbc2114b5fb1fe51a5c5fca1849f7274926102e3565b92611db2611da96100a3565b92839283611c62565b0390a256fea264697066735822122032a45c2b49642be89890dc5c6fc64ce4ba973438dbba8147aad4db12512c18e164736f6c634300081c0033",
  "linkReferences": {},
  "deployedLinkReferences": {}
}