{
  "_format": "hh-sol-artifact-1",
  "contractName": "Voting",
  "sourceName": "contracts/voting.sol",
  "abi": [
    {
      "inputs": [],
      "stateMutability": "nonpayable",
      "type": "constructor"
    },
    {
      "anonymous": false,
      "inputs": [
        {
          "indexed": false,
          "internalType": "uint256",
          "name": "id",
          "type": "uint256"
        },
        {
          "indexed": false,
          "internalType": "string",
          "name": "name",
          "type": "string"
        },
        {
          "indexed": false,
          "internalType": "string",
          "name": "description",
          "type": "string"
        }
      ],
      "name": "ElectionCreated",
      "type": "event"
    },
    {
      "anonymous": false,
      "inputs": [
        {
          "indexed": true,
          "internalType": "address",
          "name": "voter",
          "type": "address"
        },
        {
          "indexed": false,
          "internalType": "uint256",
          "name": "electionId",
          "type": "uint256"
        },
        {
          "indexed": false,
          "internalType": "uint256",
          "name": "proposalId",
          "type": "uint256"
        }
      ],
      "name": "VoteCast",
      "type": "event"
    },
    {
      "inputs": [
        {
          "internalType": "string",
          "name": "name",
          "type": "string"
        },
        {
          "internalType": "string",
          "name": "description",
          "type": "string"
        },
        {
          "internalType": "string[]",
          "name": "proposalNames",
          "type": "string[]"
        }
      ],
      "name": "createElection",
      "outputs": [],
      "stateMutability": "nonpayable",
      "type": "function"
    },
    {
      "inputs": [
        {
          "internalType": "uint256",
          "name": "electionId",
          "type": "uint256"
        },
        {
          "internalType": "string",
          "name": "name",
          "type": "string"
        }
      ],
      "name": "createProposal",
      "outputs": [],
      "stateMutability": "nonpayable",
      "type": "function"
    },
    {
      "inputs": [
        {
          "internalType": "uint256",
          "name": "",
          "type": "uint256"
        }
      ],
      "name": "elections",
      "outputs": [
        {
          "internalType": "uint256",
          "name": "id",
          "type": "uint256"
        },
        {
          "internalType": "string",
          "name": "name",
          "type": "string"
        },
        {
          "internalType": "string",
          "name": "description",
          "type": "string"
        }
      ],
      "stateMutability": "view",
      "type": "function"
    },
    {
      "inputs": [
        {
          "internalType": "uint256",
          "name": "electionId",
          "type": "uint256"
        }
      ],
      "name": "getElection",
      "outputs": [
        {
          "internalType": "uint256",
          "name": "id",
          "type": "uint256"
        },
        {
          "internalType": "string",
          "name": "name",
          "type": "string"
        },
        {
          "internalType": "string",
          "name": "description",
          "type": "string"
        },
        {
          "components": [
            {
              "internalType": "uint256",
              "name": "id",
              "type": "uint256"
            },
            {
              "internalType": "string",
              "name": "name",
              "type": "string"
            },
            {
              "internalType": "uint256",
              "name": "votecount",
              "type": "uint256"
            }
          ],
          "internalType": "struct Voting.Proposal[]",
          "name": "proposals",
          "type": "tuple[]"
        },
        {
          "internalType": "bool",
          "name": "voted",
          "type": "bool"
        }
      ],
      "stateMutability": "view",
      "type": "function"
    },
    {
      "inputs": [],
      "name": "getElections",
      "outputs": [
        {
          "internalType": "uint256[]",
          "name": "ids",
          "type": "uint256[]"
        },
        {
          "internalType": "string[]",
          "name": "names",
          "type": "string[]"
        },
        {
          "internalType": "string[]",
          "name": "descriptions",
          "type": "string[]"
        },
        {
          "internalType": "uint256[]",
          "name": "proposalCounts",
          "type": "uint256[]"
        }
      ],
      "stateMutability": "view",
      "type": "function"
    },
    {
      "inputs": [
        {
          "internalType": "uint256",
          "name": "electionId",
          "type": "uint256"
        }
      ],
      "name": "getProposalsByElectionId",
      "outputs": [
        {
          "internalType": "uint256[]",
          "name": "ids",
          "type": "uint256[]"
        },
        {
          "internalType": "string[]",
          "name": "names",
          "type": "string[]"
        },
        {
          "internalType": "uint256[]",
          "name": "votecounts",
          "type": "uint256[]"
        }
      ],
      "stateMutability": "view",
      "type": "function"
    },
    {
      "inputs": [
        {
          "internalType": "uint256",
          "name": "electionId",
          "type": "uint256"
        }
      ],
      "name": "hasAlreadyVoted",
      "outputs": [
        {
          "internalType": "bool",
          "name": "",
          "type": "bool"
        }
      ],
      "stateMutability": "view",
      "type": "function"
    },
    {
      "inputs": [
        {
          "internalType": "address",
          "name": "",
          "type": "address"
        },
        {
          "internalType": "uint256",
          "name": "",
          "type": "uint256"
        }
      ],
      "name": "hasVoted",
      "outputs": [
        {
          "internalType": "bool",
          "name": "",
          "type": "bool"
        }
      ],
      "stateMutability": "view",
      "type": "function"
    },
    {
      "inputs": [
        {
          "internalType": "uint256",
          "name": "electionId",
          "type": "uint256"
        },
        {
          "internalType": "uint256",
          "name": "proposalId",
          "type": "uint256"
        }
      ],
      "name": "vote",
      "outputs": [],
      "stateMutability": "nonpayable",
      "type": "function"
    }
  ],
  "bytecode": "0x60806040523461002757610011610ae2565b61001961002c565b612050610ceb823961205090f35b610032565b60405190565b600080fd5b90565b90565b90565b61005461004f61005992610037565b61003d565b61003a565b90565b601f801991011690565b634e487b7160e01b600052604160045260246000fd5b906100869061005c565b810190811060018060401b0382111761009e57604052565b610066565b906100b66100af61002c565b928361007c565b565b60018060401b0381116100ce5760208091020190565b610066565b906100e56100e0836100b8565b6100a3565b918252565b6100f460606100a3565b90565b600090565b606090565b6101096100ea565b9060208080846101176100f7565b8152016101226100fc565b81520161012d6100f7565b81525050565b61013b610101565b90565b60005b82811061014d57505050565b602090610158610133565b8184015201610141565b9061018761016f836100d3565b9260208061017d86936100b8565b920191039061013e565b565b61019360806100a3565b90565b906101a09061003a565b9052565b60018060401b0381116101c0576101bc60209161005c565b0190565b610066565b906101d76101d2836101a4565b6100a3565b918252565b60007f456c656374696f6e203100000000000000000000000000000000000000000000910152565b61020e600a6101c5565b9061021b602083016101dc565b565b610225610204565b90565b52565b60007f466972737420656c656374696f6e000000000000000000000000000000000000910152565b61025d600e6101c5565b9061026a6020830161022b565b565b610274610253565b90565b52565b90565b600052602060002090565b634e487b7160e01b600052603260045260246000fd5b5490565b6102ab8161029e565b8210156102c6576102bd60049161027d565b91020190600090565b610288565b634e487b7160e01b600052600060045260246000fd5b6102eb905161003a565b90565b60001b90565b90610301600019916102ee565b9181191691161790565b61031f61031a6103249261003a565b61003d565b61003a565b90565b90565b9061033f61033a6103469261030b565b610327565b82546102f4565b9055565b5190565b5190565b634e487b7160e01b600052602260045260246000fd5b9060016002830492168015610388575b602083101461038357565b610352565b91607f1691610378565b600052602060002090565b601f602091010490565b1b90565b919060086103c79102916103c1600019846103a7565b926103a7565b9181191691161790565b91906103e76103e26103ef9361030b565b610327565b9083546103ab565b9055565b600090565b61040a916104046103f3565b916103d1565b565b5b818110610418575050565b8061042660006001936103f8565b0161040d565b9190601f811161043c575b505050565b61044861046d93610392565b9060206104548461039d565b83019310610475575b6104669061039d565b019061040c565b388080610437565b91506104668192905061045d565b1c90565b906104989060001990600802610483565b191690565b816104a791610487565b906002021790565b906104b98161034e565b9060018060401b038211610579576104db826104d58554610368565b8561042c565b602090601f8311600114610510579180916104ff93600092610504575b505061049d565b90555b565b909150015138806104f8565b601f1983169161051f85610392565b9260005b81811061056157509160029391856001969410610547575b50505002019055610502565b610557910151601f841690610487565b905538808061053b565b91936020600181928787015181550195019201610523565b610066565b90610588916104af565b565b5190565b60200190565b5490565b634e487b7160e01b600052601160045260246000fd5b6105bd6105c39193929361003a565b9261003a565b916105cf83820261003a565b9281840414901517156105de57565b610598565b6105ee9060036105ae565b90565b600052602060002090565b906106109060001990602003600802610483565b8154169055565b9060009161062f61062782610392565b92835461049d565b905555565b9192906020821060001461068e57601f841160011461065e5761065892935061049d565b90555b5b565b509061068461068993600161067b61067585610392565b9261039d565b8201910161040c565b610617565b61065b565b506106c5829361069f600194610392565b6106be6106ab8561039d565b820192601f8616806106d0575b5061039d565b019061040c565b60020217905561065c565b6106dc908886036105fc565b386106b8565b929091680100000000000000008211610744576020116000146107355760208110600014610719576107139161049d565b90555b5b565b60019160ff191661072984610392565b55600202019055610716565b60019150600202019055610717565b610066565b90815461075581610368565b9081831161077e575b81831061076c575b50505050565b61077593610634565b38808080610766565b61078a838383876106e2565b61075e565b600061079a91610749565b565b906000036107af576107ad9061078f565b565b6102cb565b600060026107db926107c8838083016103f8565b6107d5836001830161079c565b016103f8565b565b906000036107f0576107ee906107b4565b565b6102cb565b5b818110610801575050565b8061080f60006003936107dd565b016107f6565b9091828110610824575b505050565b61084261083c61083661084d956105e3565b926105e3565b926105f1565b9182019101906107f5565b38808061081f565b9068010000000000000000811161087e578161087361087c93610594565b90828155610815565b565b610066565b5190565b5190565b906108d1604060026108d7946108b0600082016108aa600088016102e1565b9061032a565b6108c9600182016108c36020880161034a565b9061057e565b0192016102e1565b9061032a565b565b906108e39161088b565b565b61090a6109046108f484610883565b936108ff8585610855565b61058e565b916105f1565b6000915b83831061091b5750505050565b600360208261093461092e600195610887565b866108d9565b0192019201919061090e565b9061094a916108e5565b565b906109ab606060036109b1946109716000820161096b600088016102e1565b9061032a565b61098a600182016109846020880161034a565b9061057e565b6109a36002820161099d6040880161034a565b9061057e565b01920161058a565b90610940565b565b91906109c4576109c29161094c565b565b6102cb565b90815491680100000000000000008310156109f957826109f19160016109f7950181556102a2565b906109b3565b565b610066565b60007f50726f706f73616c203100000000000000000000000000000000000000000000910152565b610a30600a6101c5565b90610a3d602083016109fe565b565b610a47610a26565b90565b60007f50726f706f73616c203200000000000000000000000000000000000000000000910152565b610a7c600a6101c5565b90610a8960208301610a4a565b565b610a93610a72565b90565b60007f50726f706f73616c203300000000000000000000000000000000000000000000910152565b610ac8600a6101c5565b90610ad560208301610a96565b565b610adf610abe565b90565b610b596000610b4a610afc610af76000610040565b610162565b610b19610b10610b0a610189565b94610040565b60008501610196565b610b2d610b2461021d565b60208501610228565b610b41610b3861026c565b60408501610228565b60608301610277565b610b54600061027a565b6109c9565b610b74610b666000610040565b610b6e610a3f565b90610c77565b610b8f610b816000610040565b610b89610a8b565b90610c77565b610baa610b9c6000610040565b610ba4610ad7565b90610c77565b565b5490565b600052602060002090565b610bc481610bac565b821015610bdf57610bd6600491610bb0565b91020190600090565b610288565b90565b610bf160606100a3565b90565b600052602060002090565b5490565b610c0c81610bff565b821015610c2757610c1e600391610bf4565b91020190600090565b610288565b9190610c3d57610c3b9161088b565b565b6102cb565b9081549168010000000000000000831015610c725782610c6a916001610c7095018155610c03565b90610c2c565b565b610066565b90610ce891610ce3610cda610cb06003610ca9610ca182610c9a60008990610bbb565b5001610be4565b956000610bbb565b5001610594565b93610cd5600091610ccc610cc2610be7565b9760008901610196565b60208701610228565b610040565b60408401610196565b610c42565b56fe60806040526004361015610013575b610c89565b61001e6000356100ad565b806302d52fa4146100a857806342545825146100a35780635e6fef011461009e5780637fa67b131461009957806384303277146100945780639d7107771461008f5780639f3a7f521461008a578063ad1539b6146100855763b384abef0361000e57610c55565b610bef565b610b78565b6109d7565b61083c565b6106d0565b610698565b6103c5565b61022b565b60e01c90565b60405190565b600080fd5b600080fd5b600080fd5b90565b6100d4816100c8565b036100db57565b600080fd5b905035906100ed826100cb565b565b600080fd5b600080fd5b601f801991011690565b634e487b7160e01b600052604160045260246000fd5b90610123906100f9565b810190811067ffffffffffffffff82111761013d57604052565b610103565b9061015561014e6100b3565b9283610119565b565b67ffffffffffffffff8111610175576101716020916100f9565b0190565b610103565b90826000939282370152565b9092919261019b61019682610157565b610142565b938185526020850190828401116101b7576101b59261017a565b565b6100f4565b9080601f830112156101da578160206101d793359101610186565b90565b6100ef565b919091604081840312610220576101f983600083016100e0565b92602082013567ffffffffffffffff811161021b5761021892016101bc565b90565b6100c3565b6100be565b60000190565b3461025a5761024461023e3660046101df565b90610ff5565b61024c6100b3565b8061025681610225565b0390f35b6100b9565b60018060a01b031690565b6102739061025f565b90565b61027f8161026a565b0361028657565b600080fd5b9050359061029882610276565b565b91906040838203126102c357806102b76102c0926000860161028b565b936020016100e0565b90565b6100be565b90565b6102df6102da6102e49261025f565b6102c8565b61025f565b90565b6102f0906102cb565b90565b6102fc906102e7565b90565b90610309906102f3565b600052602052604060002090565b61032b610326610330926100c8565b6102c8565b6100c8565b90565b9061033d90610317565b600052602052604060002090565b1c90565b60ff1690565b61036590600861036a930261034b565b61034f565b90565b906103789154610355565b90565b61039561039a926103906001936000946102ff565b610333565b61036d565b90565b151590565b6103ab9061039d565b9052565b91906103c3906000602085019401906103a2565b565b346103f6576103f26103e16103db36600461029a565b9061037b565b6103e96100b3565b918291826103af565b0390f35b6100b9565b9060208282031261041557610412916000016100e0565b90565b6100be565b634e487b7160e01b600052603260045260246000fd5b5490565b600052602060002090565b61044881610430565b8210156104635761045a600491610434565b91020190600090565b61041a565b60001c90565b90565b61047d61048291610468565b61046e565b90565b61048f9054610471565b90565b634e487b7160e01b600052602260045260246000fd5b90600160028304921680156104c8575b60208310146104c357565b610492565b91607f16916104b8565b60209181520190565b600052602060002090565b90600092918054906105016104fa836104a8565b80946104d2565b9160018116908160001461055a575060011461051d575b505050565b61052a91929394506104db565b916000925b8184106105425750500190388080610518565b6001816020929593955484860152019101929061052f565b92949550505060ff1916825215156020020190388080610518565b9061057f916104e6565b90565b906105a261059b926105926100b3565b93848092610575565b0383610119565b565b6000906105b082610430565b8110156105e9576105c09161043f565b506105cd60008201610485565b916105e660026105df60018501610582565b9301610582565b90565b600080fd5b6105f7906100c8565b9052565b5190565b60209181520190565b60005b83811061061c575050906000910152565b80602091830151818501520161060b565b61064c61065560209361065a93610643816105fb565b938480936105ff565b95869101610608565b6100f9565b0190565b9161069593916106879161067a606086019260008701906105ee565b848203602086015261062d565b91604081840391015261062d565b90565b346106cb576106c76106b36106ae3660046103fb565b6105a4565b6106be9391936100b3565b9384938461065e565b0390f35b6100b9565b34610700576106fc6106eb6106e63660046103fb565b611112565b6106f36100b3565b918291826103af565b0390f35b6100b9565b67ffffffffffffffff811161071d5760208091020190565b610103565b600080fd5b92919061073b61073682610705565b610142565b93818552602080860192028101918383116107925781905b838210610761575050505050565b813567ffffffffffffffff811161078d5760209161078287849387016101bc565b815201910190610753565b6100ef565b610722565b9080601f830112156107b5578160206107b293359101610727565b90565b6100ef565b9160608383031261083757600083013567ffffffffffffffff811161083257826107e59185016101bc565b92602081013567ffffffffffffffff811161082d57836108069183016101bc565b92604082013567ffffffffffffffff8111610828576108259201610797565b90565b6100c3565b6100c3565b6100c3565b6100be565b3461086b5761085561084f3660046107ba565b916116d0565b61085d6100b3565b8061086781610225565b0390f35b6100b9565b5190565b60209181520190565b60200190565b61088c906100c8565b9052565b6108af6108b86020936108bd936108a6816105fb565b938480936104d2565b95869101610608565b6100f9565b0190565b906108ff906040806108f4606084016108e260008801516000870190610883565b60208701518582036020870152610890565b940151910190610883565b90565b9061090c916108c1565b90565b60200190565b9061092961092283610870565b8092610874565b908161093a6020830284019461087d565b926000915b83831061094e57505050505090565b9091929394602061097061096a83856001950387528951610902565b9761090f565b930193019193929061093f565b959492936109bf6109d5956109b1896080966109a46109cd97600060a085019401906105ee565b8b820360208d015261062d565b9089820360408b015261062d565b908782036060890152610915565b9401906103a2565b565b34610a0b57610a076109f26109ed3660046103fb565b6118a7565b916109fe9593956100b3565b9586958661097d565b0390f35b6100b9565b6000910312610a1b57565b6100be565b5190565b60209181520190565b60200190565b90610a4081602093610883565b0190565b60200190565b90610a67610a61610a5a84610a20565b8093610a24565b92610a2d565b9060005b818110610a785750505090565b909192610a91610a8b6001928651610a33565b94610a44565b9101919091610a6b565b5190565b60209181520190565b60200190565b90610ab891610890565b90565b60200190565b90610ad5610ace83610a9b565b8092610a9f565b9081610ae660208302840194610aa8565b926000915b838310610afa57505050505090565b90919293946020610b1c610b1683856001950387528951610aae565b97610abb565b9301930191939290610aeb565b92610b59610b759593610b4b610b6794608088019088820360008a0152610a4a565b908682036020880152610ac1565b908482036040860152610ac1565b916060818403910152610a4a565b90565b34610bac57610b88366004610a10565b610ba8610b93611a51565b90610b9f9492946100b3565b94859485610b29565b0390f35b6100b9565b91610bde90610bd0610bec959360608601908682036000880152610a4a565b908482036020860152610ac1565b916040818403910152610a4a565b90565b34610c2257610c1e610c0a610c053660046103fb565b611ba0565b610c159391936100b3565b93849384610bb1565b0390f35b6100b9565b9190604083820312610c505780610c44610c4d92600086016100e0565b936020016100e0565b90565b6100be565b34610c8457610c6e610c68366004610c27565b90611ee9565b610c766100b3565b80610c8081610225565b0390f35b6100b9565b600080fd5b90565b5490565b610c9f6060610142565b90565b90610cac906100c8565b9052565b52565b90565b610cca610cc5610ccf92610cb3565b6102c8565b6100c8565b90565b600052602060002090565b5490565b610cea81610cdd565b821015610d0557610cfc600391610cd2565b91020190600090565b61041a565b634e487b7160e01b600052600060045260246000fd5b610d2a90516100c8565b90565b60001b90565b90610d4060001991610d2d565b9181191691161790565b90565b90610d62610d5d610d6992610317565b610d4a565b8254610d33565b9055565b5190565b601f602091010490565b1b90565b91906008610d9b910291610d9560001984610d7b565b92610d7b565b9181191691161790565b9190610dbb610db6610dc393610317565b610d4a565b908354610d7f565b9055565b600090565b610dde91610dd8610dc7565b91610da5565b565b5b818110610dec575050565b80610dfa6000600193610dcc565b01610de1565b9190601f8111610e10575b505050565b610e1c610e41936104db565b906020610e2884610d71565b83019310610e49575b610e3a90610d71565b0190610de0565b388080610e0b565b9150610e3a81929050610e31565b90610e68906000199060080261034b565b191690565b81610e7791610e57565b906002021790565b90610e89816105fb565b9067ffffffffffffffff8211610f4b57610ead82610ea785546104a8565b85610e00565b602090601f8311600114610ee257918091610ed193600092610ed6575b5050610e6d565b90555b565b90915001513880610eca565b601f19831691610ef1856104db565b9260005b818110610f3357509160029391856001969410610f19575b50505002019055610ed4565b610f29910151601f841690610e57565b9055388080610f0d565b91936020600181928787015181550195019201610ef5565b610103565b90610f5a91610e7f565b565b90610fa260406002610fa894610f8160008201610f7b60008801610d20565b90610d4d565b610f9a60018201610f9460208801610d6d565b90610f50565b019201610d20565b90610d4d565b565b9190610fbb57610fb991610f5c565b565b610d0a565b9081549168010000000000000000831015610ff05782610fe8916001610fee95018155610ce1565b90610faa565b565b610103565b906110669161106161105861102e600361102761101f826110186000899061043f565b5001610c8e565b95600061043f565b5001610c91565b9361105360009161104a611040610c95565b9760008901610ca2565b60208701610cb0565b610cb6565b60408401610ca2565b610fc0565b565b600090565b60007f496e76616c696420656c656374696f6e20494400000000000000000000000000910152565b6110a260136020926105ff565b6110ab8161106d565b0190565b6110c59060208101906000818303910152611095565b90565b156110cf57565b6110d76100b3565b62461bcd60e51b8152806110ed600482016110af565b0390fd5b6110fd61110291610468565b61034f565b90565b61110f90546110f1565b90565b61115861115d91611121611068565b506111478161114161113b6111366000610430565b6100c8565b916100c8565b106110c8565b611153600133906102ff565b610333565b611105565b61116657600090565b600190565b67ffffffffffffffff81116111835760208091020190565b610103565b9061119a6111958361116b565b610142565b918252565b6111a96060610142565b90565b600090565b606090565b6111be61119f565b9060208080846111cc6111ac565b8152016111d76111b1565b8152016111e26111ac565b81525050565b6111f06111b6565b90565b60005b82811061120257505050565b60209061120d6111e8565b81840152016111f6565b9061123c61122483611188565b92602080611232869361116b565b92019103906111f3565b565b6112486080610142565b90565b52565b90565b600052602060002090565b5490565b6112698161125c565b8210156112845761127b600491611251565b91020190600090565b61041a565b5190565b634e487b7160e01b600052601160045260246000fd5b6112b26112b8919392936100c8565b926100c8565b916112c48382026100c8565b9281840414901517156112d357565b61128d565b6112e39060036112a3565b90565b600052602060002090565b90611305906000199060200360080261034b565b8154169055565b9060009161132461131c826104db565b928354610e6d565b905555565b9192906020821060001461138357601f84116001146113535761134d929350610e6d565b90555b5b565b509061137961137e93600161137061136a856104db565b92610d71565b82019101610de0565b61130c565b611350565b506113ba82936113946001946104db565b6113b36113a085610d71565b820192601f8616806113c5575b50610d71565b0190610de0565b600202179055611351565b6113d1908886036112f1565b386113ad565b9290916801000000000000000082116114395760201160001461142a576020811060001461140e5761140891610e6d565b90555b5b565b60019160ff191661141e846104db565b5560020201905561140b565b6001915060020201905561140c565b610103565b90815461144a816104a8565b90818311611473575b818310611461575b50505050565b61146a93611329565b3880808061145b565b61147f838383876113d7565b611453565b600061148f9161143e565b565b906000036114a4576114a290611484565b565b610d0a565b600060026114d0926114bd83808301610dcc565b6114ca8360018301611491565b01610dcc565b565b906000036114e5576114e3906114a9565b565b610d0a565b5b8181106114f6575050565b8061150460006003936114d2565b016114eb565b9091828110611519575b505050565b61153761153161152b611542956112d8565b926112d8565b926112e6565b9182019101906114ea565b388080611514565b90680100000000000000008111611573578161156861157193610c91565b9082815561150a565b565b610103565b5190565b9061158691610f5c565b565b6115ad6115a761159784610870565b936115a2858561154a565b61087d565b916112e6565b6000915b8383106115be5750505050565b60036020826115d76115d1600195611578565b8661157c565b019201920191906115b1565b906115ed91611588565b565b9061164e60606003611654946116146000820161160e60008801610d20565b90610d4d565b61162d6001820161162760208801610d6d565b90610f50565b6116466002820161164060408801610d6d565b90610f50565b019201611289565b906115e3565b565b919061166757611665916115ef565b565b610d0a565b908154916801000000000000000083101561169c578261169491600161169a95018155611260565b90611656565b565b610103565b60016116ad91016100c8565b90565b906116ba82610a9b565b8110156116cb576020809102010190565b61041a565b929190916116de6000610430565b9361174085611731836117288861171f6117006116fb6000610cb6565b611217565b9361171661170c61123e565b9760008901610ca2565b60208701610cb0565b60408501610cb0565b6060830161124b565b61173b600061124e565b61166c565b61174a6000610cb6565b5b8061176661176061175b87610a9b565b6100c8565b916100c8565b10156117905761178b906117868761177f8784906116b0565b5190610ff5565b6116a1565b61174b565b50929150929190916117ce7feaf9c9dabc2a68b717e3095068d04a84ecace13a1ab18b4499a913c3ab3d2869936117c56100b3565b9384938461065e565b0390a1565b606090565b606090565b90565b6117e990610582565b90565b9061183d61183460026117fd61119f565b9461181661180d60008301610485565b60008801610ca2565b61182e61182560018301610582565b60208801610cb0565b01610485565b60408401610ca2565b565b611848906117ec565b90565b9061185582610c91565b61185e81611188565b9261186c60208501916112e6565b6000915b83831061187d5750505050565b6003602060019261188d8561183f565b815201920192019190611870565b6118a49061184b565b90565b6118af610dc7565b506118b86117d3565b506118c16117d3565b506118ca6117d8565b506118d3611068565b506118f9816118f36118ed6118e86000610430565b6100c8565b916100c8565b106110c8565b61190e6119086000839061043f565b506117dd565b9061191b60008301610485565b600183019361196161195b61195561194e611949600360028a01990197611944600133906102ff565b610333565b611105565b94976117e0565b956117e0565b9361189b565b9190565b606090565b606090565b67ffffffffffffffff81116119875760208091020190565b610103565b9061199e6119998361196f565b610142565b918252565b369037565b906119cd6119b58361198c565b926020806119c3869361196f565b92019103906119a3565b565b906119e16119dc83610705565b610142565b918252565b60005b8281106119f557505050565b602090611a006111b1565b81840152016119e9565b90611a2f611a17836119cf565b92602080611a258693610705565b92019103906119e6565b565b90611a3b82610a20565b811015611a4c576020809102010190565b61041a565b611a59611965565b50611a6261196a565b50611a6b61196a565b50611a74611965565b50611a7f6000610430565b611a88816119a8565b91611a9282611a0a565b611a9b83611a0a565b93611aa5846119a8565b92611ab06000610cb6565b5b80611ac4611abe886100c8565b916100c8565b1015611b9157611b8c90611afa611ae86000611ae181859061043f565b5001610485565b611af58691849092611a31565b610ca2565b611b286001611b0b6000849061043f565b500186611b1884926117e0565b611b2283836116b0565b526116b0565b5150611b586002611b3b6000849061043f565b500189611b4884926117e0565b611b5283836116b0565b526116b0565b5150611b87611b756003611b6e6000859061043f565b5001610c91565b611b828891849092611a31565b610ca2565b6116a1565b611ab1565b50919293509193929193929190565b6003611bf0611bf792611bb1611965565b50611bba61196a565b50611bc3611965565b50611be981611be3611bdd611bd86000610430565b6100c8565b916100c8565b106110c8565b600061043f565b5001610c8e565b611c0081610cdd565b90611c0a826119a8565b611c1383611a0a565b90611c1d846119a8565b94611c286000610cb6565b5b80611c3c611c36886100c8565b916100c8565b1015611cd757611cd290611c72611c606000611c59898590610ce1565b5001610485565b611c6d8691849092611a31565b610ca2565b611c9f6001611c82888490610ce1565b500186611c8f84926117e0565b611c9983836116b0565b526116b0565b5150611ccd611cbb6002611cb4898590610ce1565b5001610485565b611cc88a91849092611a31565b610ca2565b6116a1565b611c29565b509250909250919291929190565b60007f496e76616c69642070726f706f73616c20494400000000000000000000000000910152565b611d1a60136020926105ff565b611d2381611ce5565b0190565b611d3d9060208101906000818303910152611d0d565b90565b15611d4757565b611d4f6100b3565b62461bcd60e51b815280611d6560048201611d27565b0390fd5b60207f6c656374696f6e00000000000000000000000000000000000000000000000000917f596f75206861766520616c726561647920766f74656420696e2074686973206560008201520152565b611dc460276040926105ff565b611dcd81611d69565b0190565b611de79060208101906000818303910152611db7565b90565b15611df157565b611df96100b3565b62461bcd60e51b815280611e0f60048201611dd1565b0390fd5b90565b611e2a611e25611e2f92611e13565b6102c8565b6100c8565b90565b611e3b81610c91565b821015611e5657611e4d6003916112e6565b91020190600090565b61041a565b611e6a611e70919392936100c8565b926100c8565b8201809211611e7b57565b61128d565b90611e8c60ff91610d2d565b9181191691161790565b611e9f9061039d565b90565b90565b90611eba611eb5611ec192611e96565b611ea2565b8254611e80565b9055565b916020611ee7929493611ee0604082019660008301906105ee565b01906105ee565b565b611f0e81611f08611f02611efd6000610430565b6100c8565b916100c8565b106110c8565b611f4182611f3b611f35611f306003611f296000889061043f565b5001610c91565b6100c8565b916100c8565b10611d40565b611f70611f6b611f65611f60611f59600133906102ff565b8590610333565b611105565b1561039d565b611dea565b611fb3611f7d6001611e16565b611fad6002611f9c6003611f936000889061043f565b50018790611e32565b500191611fa883610485565b611e5b565b90610d4d565b611fd36001611fce611fc7600133906102ff565b8490610333565b611ea5565b3390916120007fb4cfecf70861b7b150d8337780d34fb4cbc2114b5fb1fe51a5c5fca1849f7274926102f3565b9261201561200c6100b3565b92839283611ec5565b0390a256fea264697066735822122024d031c21532f1c8220f0d8defb62baa11ed7ac6fa32b6ff0cf48f7baa71728564736f6c634300081c0033",
  "linkReferences": {},
  "deployedLinkReferences": {}
}