{
  "_format": "hh-sol-artifact-1",
  "contractName": "Voting",
  "sourceName": "contracts/voting.sol",
  "abi": [
    {
      "inputs": [],
      "stateMutability": "nonpayable",
      "type": "constructor"
    },
    {
      "anonymous": false,
      "inputs": [
        {
          "indexed": true,
          "internalType": "address",
          "name": "voter",
          "type": "address"
        },
        {
          "indexed": false,
          "internalType": "uint256",
          "name": "proposalId",
          "type": "uint256"
        }
      ],
      "name": "VoteCast",
      "type": "event"
    },
    {
      "inputs": [],
      "name": "getProposals",
      "outputs": [
        {
          "components": [
            {
              "internalType": "string",
              "name": "name",
              "type": "string"
            },
            {
              "internalType": "uint256",
              "name": "votecount",
              "type": "uint256"
            }
          ],
          "internalType": "struct Voting.Proposal[]",
          "name": "",
          "type": "tuple[]"
        }
      ],
      "stateMutability": "view",
      "type": "function"
    },
    {
      "inputs": [
        {
          "internalType": "address",
          "name": "",
          "type": "address"
        }
      ],
      "name": "hasVoted",
      "outputs": [
        {
          "internalType": "bool",
          "name": "",
          "type": "bool"
        }
      ],
      "stateMutability": "view",
      "type": "function"
    },
    {
      "inputs": [
        {
          "internalType": "uint256",
          "name": "",
          "type": "uint256"
        }
      ],
      "name": "proposals",
      "outputs": [
        {
          "internalType": "string",
          "name": "name",
          "type": "string"
        },
        {
          "internalType": "uint256",
          "name": "votecount",
          "type": "uint256"
        }
      ],
      "stateMutability": "view",
      "type": "function"
    },
    {
      "inputs": [
        {
          "internalType": "uint256",
          "name": "proposalId",
          "type": "uint256"
        }
      ],
      "name": "vote",
      "outputs": [],
      "stateMutability": "nonpayable",
      "type": "function"
    }
  ],
  "bytecode": "0x608060405234801561001057600080fd5b50600060405180604001604052806040518060400160405280600a81526020017f50726f706f73616c203100000000000000000000000000000000000000000000815250815260200160008152509080600181540180825580915050600190039060005260206000209060020201600090919091909150600082015181600001908161009c919061042e565b50602082015181600101555050600060405180604001604052806040518060400160405280600a81526020017f50726f706f73616c2032000000000000000000000000000000000000000000008152508152602001600081525090806001815401808255809150506001900390600052602060002090600202016000909190919091506000820151816000019081610134919061042e565b50602082015181600101555050600060405180604001604052806040518060400160405280600a81526020017f50726f706f73616c20330000000000000000000000000000000000000000000081525081526020016000815250908060018154018082558091505060019003906000526020600020906002020160009091909190915060008201518160000190816101cc919061042e565b50602082015181600101555050610500565b600081519050919050565b7f4e487b7100000000000000000000000000000000000000000000000000000000600052604160045260246000fd5b7f4e487b7100000000000000000000000000000000000000000000000000000000600052602260045260246000fd5b6000600282049050600182168061025f57607f821691505b60208210810361027257610271610218565b5b50919050565b60008190508160005260206000209050919050565b60006020601f8301049050919050565b600082821b905092915050565b6000600883026102da7fffffffffffffffffffffffffffffffffffffffffffffffffffffffffffffffff8261029d565b6102e4868361029d565b95508019841693508086168417925050509392505050565b6000819050919050565b6000819050919050565b600061032b610326610321846102fc565b610306565b6102fc565b9050919050565b6000819050919050565b61034583610310565b61035961035182610332565b8484546102aa565b825550505050565b600090565b61036e610361565b61037981848461033c565b505050565b5b8181101561039d57610392600082610366565b60018101905061037f565b5050565b601f8211156103e2576103b381610278565b6103bc8461028d565b810160208510156103cb578190505b6103df6103d78561028d565b83018261037e565b50505b505050565b600082821c905092915050565b6000610405600019846008026103e7565b1980831691505092915050565b600061041e83836103f4565b9150826002028217905092915050565b610437826101de565b67ffffffffffffffff8111156104505761044f6101e9565b5b61045a8254610247565b6104658282856103a1565b600060209050601f8311600181146104985760008415610486578287015190505b6104908582610412565b8655506104f8565b601f1984166104a686610278565b60005b828110156104ce578489015182556001820191506020850194506020810190506104a9565b868310156104eb57848901516104e7601f8916826103f4565b8355505b6001600288020188555050505b505050505050565b610a098061050f6000396000f3fe608060405234801561001057600080fd5b506004361061004c5760003560e01c80630121b93f14610051578063013cf08b1461006d57806309eef43e1461009e57806362564c48146100ce575b600080fd5b61006b600480360381019061006691906104b7565b6100ec565b005b610087600480360381019061008291906104b7565b6102a5565b604051610095929190610583565b60405180910390f35b6100b860048036038101906100b39190610611565b610361565b6040516100c59190610659565b60405180910390f35b6100d6610381565b6040516100e391906107cc565b60405180910390f35b6000805490508110610133576040517f08c379a000000000000000000000000000000000000000000000000000000000815260040161012a9061083a565b60405180910390fd5b600160003373ffffffffffffffffffffffffffffffffffffffff1673ffffffffffffffffffffffffffffffffffffffff16815260200190815260200160002060009054906101000a900460ff16156101c0576040517f08c379a00000000000000000000000000000000000000000000000000000000081526004016101b7906108a6565b60405180910390fd5b6001600082815481106101d6576101d56108c6565b5b906000526020600020906002020160010160008282546101f69190610924565b9250508190555060018060003373ffffffffffffffffffffffffffffffffffffffff1673ffffffffffffffffffffffffffffffffffffffff16815260200190815260200160002060006101000a81548160ff0219169083151502179055503373ffffffffffffffffffffffffffffffffffffffff167fa36cc2bebb74db33e9f88110a07ef56e1b31b24b4c4f51b54b1664266e29f45b8260405161029a9190610958565b60405180910390a250565b600081815481106102b557600080fd5b90600052602060002090600202016000915090508060000180546102d8906109a2565b80601f0160208091040260200160405190810160405280929190818152602001828054610304906109a2565b80156103515780601f1061032657610100808354040283529160200191610351565b820191906000526020600020905b81548152906001019060200180831161033457829003601f168201915b5050505050908060010154905082565b60016020528060005260406000206000915054906101000a900460ff1681565b60606000805480602002602001604051908101604052809291908181526020016000905b8282101561047357838290600052602060002090600202016040518060400160405290816000820180546103d8906109a2565b80601f0160208091040260200160405190810160405280929190818152602001828054610404906109a2565b80156104515780601f1061042657610100808354040283529160200191610451565b820191906000526020600020905b81548152906001019060200180831161043457829003601f168201915b50505050508152602001600182015481525050815260200190600101906103a5565b50505050905090565b600080fd5b6000819050919050565b61049481610481565b811461049f57600080fd5b50565b6000813590506104b18161048b565b92915050565b6000602082840312156104cd576104cc61047c565b5b60006104db848285016104a2565b91505092915050565b600081519050919050565b600082825260208201905092915050565b60005b8381101561051e578082015181840152602081019050610503565b60008484015250505050565b6000601f19601f8301169050919050565b6000610546826104e4565b61055081856104ef565b9350610560818560208601610500565b6105698161052a565b840191505092915050565b61057d81610481565b82525050565b6000604082019050818103600083015261059d818561053b565b90506105ac6020830184610574565b9392505050565b600073ffffffffffffffffffffffffffffffffffffffff82169050919050565b60006105de826105b3565b9050919050565b6105ee816105d3565b81146105f957600080fd5b50565b60008135905061060b816105e5565b92915050565b6000602082840312156106275761062661047c565b5b6000610635848285016105fc565b91505092915050565b60008115159050919050565b6106538161063e565b82525050565b600060208201905061066e600083018461064a565b92915050565b600081519050919050565b600082825260208201905092915050565b6000819050602082019050919050565b600082825260208201905092915050565b60006106bc826104e4565b6106c681856106a0565b93506106d6818560208601610500565b6106df8161052a565b840191505092915050565b6106f381610481565b82525050565b6000604083016000830151848203600086015261071682826106b1565b915050602083015161072b60208601826106ea565b508091505092915050565b600061074283836106f9565b905092915050565b6000602082019050919050565b600061076282610674565b61076c818561067f565b93508360208202850161077e85610690565b8060005b858110156107ba578484038952815161079b8582610736565b94506107a68361074a565b925060208a01995050600181019050610782565b50829750879550505050505092915050565b600060208201905081810360008301526107e68184610757565b905092915050565b7f496e76616c69642070726f706f73616c20494400000000000000000000000000600082015250565b60006108246013836104ef565b915061082f826107ee565b602082019050919050565b6000602082019050818103600083015261085381610817565b9050919050565b7f596f75206861766520616c726561647920766f74656400000000000000000000600082015250565b60006108906016836104ef565b915061089b8261085a565b602082019050919050565b600060208201905081810360008301526108bf81610883565b9050919050565b7f4e487b7100000000000000000000000000000000000000000000000000000000600052603260045260246000fd5b7f4e487b7100000000000000000000000000000000000000000000000000000000600052601160045260246000fd5b600061092f82610481565b915061093a83610481565b9250828201905080821115610952576109516108f5565b5b92915050565b600060208201905061096d6000830184610574565b92915050565b7f4e487b7100000000000000000000000000000000000000000000000000000000600052602260045260246000fd5b600060028204905060018216806109ba57607f821691505b6020821081036109cd576109cc610973565b5b5091905056fea2646970667358221220a14baa0215a0d8bdce06a789f3fca6c5590a0a46ef73b742026ad76553795af164736f6c634300081c0033",
  "linkReferences": {},
  "deployedLinkReferences": {}
}